{
  "_format": "hh-sol-artifact-1",
  "contractName": "ERC721",
  "sourceName": "contracts/ERC721.sol",
  "abi": [
    {
      "anonymous": false,
      "inputs": [
        {
          "indexed": false,
          "internalType": "address",
          "name": "previousAdmin",
          "type": "address"
        },
        {
          "indexed": false,
          "internalType": "address",
          "name": "newAdmin",
          "type": "address"
        }
      ],
      "name": "AdminChanged",
      "type": "event"
    },
    {
      "anonymous": false,
      "inputs": [
        {
          "indexed": true,
          "internalType": "address",
          "name": "owner",
          "type": "address"
        },
        {
          "indexed": true,
          "internalType": "address",
          "name": "approved",
          "type": "address"
        },
        {
          "indexed": true,
          "internalType": "uint256",
          "name": "tokenId",
          "type": "uint256"
        }
      ],
      "name": "Approval",
      "type": "event"
    },
    {
      "anonymous": false,
      "inputs": [
        {
          "indexed": true,
          "internalType": "address",
          "name": "owner",
          "type": "address"
        },
        {
          "indexed": true,
          "internalType": "address",
          "name": "operator",
          "type": "address"
        },
        {
          "indexed": false,
          "internalType": "bool",
          "name": "approved",
          "type": "bool"
        }
      ],
      "name": "ApprovalForAll",
      "type": "event"
    },
    {
      "anonymous": false,
      "inputs": [
        {
          "indexed": true,
          "internalType": "address",
          "name": "beacon",
          "type": "address"
        }
      ],
      "name": "BeaconUpgraded",
      "type": "event"
    },
    {
      "anonymous": false,
      "inputs": [
        {
          "indexed": false,
          "internalType": "uint8",
          "name": "version",
          "type": "uint8"
        }
      ],
      "name": "Initialized",
      "type": "event"
    },
    {
      "anonymous": false,
      "inputs": [
        {
          "indexed": true,
          "internalType": "bytes32",
          "name": "role",
          "type": "bytes32"
        },
        {
          "indexed": true,
          "internalType": "bytes32",
          "name": "previousAdminRole",
          "type": "bytes32"
        },
        {
          "indexed": true,
          "internalType": "bytes32",
          "name": "newAdminRole",
          "type": "bytes32"
        }
      ],
      "name": "RoleAdminChanged",
      "type": "event"
    },
    {
      "anonymous": false,
      "inputs": [
        {
          "indexed": true,
          "internalType": "bytes32",
          "name": "role",
          "type": "bytes32"
        },
        {
          "indexed": true,
          "internalType": "address",
          "name": "account",
          "type": "address"
        },
        {
          "indexed": true,
          "internalType": "address",
          "name": "sender",
          "type": "address"
        }
      ],
      "name": "RoleGranted",
      "type": "event"
    },
    {
      "anonymous": false,
      "inputs": [
        {
          "indexed": true,
          "internalType": "bytes32",
          "name": "role",
          "type": "bytes32"
        },
        {
          "indexed": true,
          "internalType": "address",
          "name": "account",
          "type": "address"
        },
        {
          "indexed": true,
          "internalType": "address",
          "name": "sender",
          "type": "address"
        }
      ],
      "name": "RoleRevoked",
      "type": "event"
    },
    {
      "anonymous": false,
      "inputs": [
        {
          "indexed": true,
          "internalType": "address",
          "name": "from",
          "type": "address"
        },
        {
          "indexed": true,
          "internalType": "address",
          "name": "to",
          "type": "address"
        },
        {
          "indexed": true,
          "internalType": "uint256",
          "name": "tokenId",
          "type": "uint256"
        }
      ],
      "name": "Transfer",
      "type": "event"
    },
    {
      "anonymous": false,
      "inputs": [
        {
          "indexed": true,
          "internalType": "address",
          "name": "implementation",
          "type": "address"
        }
      ],
      "name": "Upgraded",
      "type": "event"
    },
    {
      "inputs": [],
      "name": "DEFAULT_ADMIN_ROLE",
      "outputs": [
        {
          "internalType": "bytes32",
          "name": "",
          "type": "bytes32"
        }
      ],
      "stateMutability": "view",
      "type": "function"
    },
    {
      "inputs": [
        {
          "internalType": "address",
          "name": "to",
          "type": "address"
        },
        {
          "internalType": "uint256",
          "name": "tokenId",
          "type": "uint256"
        }
      ],
      "name": "approve",
      "outputs": [],
      "stateMutability": "nonpayable",
      "type": "function"
    },
    {
      "inputs": [
        {
          "internalType": "address",
          "name": "owner",
          "type": "address"
        }
      ],
      "name": "balanceOf",
      "outputs": [
        {
          "internalType": "uint256",
          "name": "",
          "type": "uint256"
        }
      ],
      "stateMutability": "view",
      "type": "function"
    },
    {
      "inputs": [],
      "name": "baseURI",
      "outputs": [
        {
          "internalType": "string",
          "name": "",
          "type": "string"
        }
      ],
      "stateMutability": "view",
      "type": "function"
    },
    {
      "inputs": [
        {
          "internalType": "uint256",
          "name": "_percentFee",
          "type": "uint256"
        }
      ],
      "name": "changeFeePercent",
      "outputs": [],
      "stateMutability": "nonpayable",
      "type": "function"
    },
    {
      "inputs": [],
      "name": "factory",
      "outputs": [
        {
          "internalType": "address",
          "name": "",
          "type": "address"
        }
      ],
      "stateMutability": "view",
      "type": "function"
    },
    {
      "inputs": [
        {
          "internalType": "address",
          "name": "account",
          "type": "address"
        }
      ],
      "name": "getAllIds",
      "outputs": [
        {
          "internalType": "uint256[]",
          "name": "",
          "type": "uint256[]"
        }
      ],
      "stateMutability": "view",
      "type": "function"
    },
    {
      "inputs": [
        {
          "internalType": "uint256",
          "name": "tokenId",
          "type": "uint256"
        }
      ],
      "name": "getApproved",
      "outputs": [
        {
          "internalType": "address",
          "name": "",
          "type": "address"
        }
      ],
      "stateMutability": "view",
      "type": "function"
    },
    {
      "inputs": [],
      "name": "getContractMetadata",
      "outputs": [
        {
          "components": [
            {
              "internalType": "string",
              "name": "name",
              "type": "string"
            },
            {
              "internalType": "string",
              "name": "symbol",
              "type": "string"
            },
            {
              "internalType": "string",
              "name": "tokenType",
              "type": "string"
            },
            {
              "internalType": "string",
              "name": "baseUri",
              "type": "string"
            }
          ],
          "internalType": "struct ERC721.Metadata",
          "name": "metadata",
          "type": "tuple"
        }
      ],
      "stateMutability": "view",
      "type": "function"
    },
    {
      "inputs": [
        {
          "internalType": "bytes32",
          "name": "role",
          "type": "bytes32"
        }
      ],
      "name": "getRoleAdmin",
      "outputs": [
        {
          "internalType": "bytes32",
          "name": "",
          "type": "bytes32"
        }
      ],
      "stateMutability": "view",
      "type": "function"
    },
    {
      "inputs": [],
      "name": "getVersion",
      "outputs": [
        {
          "internalType": "uint256",
          "name": "",
          "type": "uint256"
        }
      ],
      "stateMutability": "pure",
      "type": "function"
    },
    {
      "inputs": [
        {
          "internalType": "bytes32",
          "name": "role",
          "type": "bytes32"
        },
        {
          "internalType": "address",
          "name": "account",
          "type": "address"
        }
      ],
      "name": "grantRole",
      "outputs": [],
      "stateMutability": "nonpayable",
      "type": "function"
    },
    {
      "inputs": [
        {
          "internalType": "bytes32",
          "name": "role",
          "type": "bytes32"
        },
        {
          "internalType": "address",
          "name": "account",
          "type": "address"
        }
      ],
      "name": "hasRole",
      "outputs": [
        {
          "internalType": "bool",
          "name": "",
          "type": "bool"
        }
      ],
      "stateMutability": "view",
      "type": "function"
    },
    {
      "inputs": [
        {
          "internalType": "string",
          "name": "name_",
          "type": "string"
        },
        {
          "internalType": "string",
          "name": "symbol_",
          "type": "string"
        },
        {
          "internalType": "string",
          "name": "baseURI_",
          "type": "string"
        },
        {
          "internalType": "address",
          "name": "owner_",
          "type": "address"
        },
        {
          "internalType": "uint256",
          "name": "percentFee_",
          "type": "uint256"
        },
        {
          "internalType": "uint256",
          "name": "amount_",
          "type": "uint256"
        }
      ],
      "name": "initialize",
      "outputs": [],
      "stateMutability": "nonpayable",
      "type": "function"
    },
    {
      "inputs": [
        {
          "internalType": "address",
          "name": "owner",
          "type": "address"
        },
        {
          "internalType": "address",
          "name": "operator",
          "type": "address"
        }
      ],
      "name": "isApprovedForAll",
      "outputs": [
        {
          "internalType": "bool",
          "name": "",
          "type": "bool"
        }
      ],
      "stateMutability": "view",
      "type": "function"
    },
    {
      "inputs": [
        {
          "internalType": "address",
          "name": "to",
          "type": "address"
        },
        {
          "internalType": "uint256",
          "name": "amount",
          "type": "uint256"
        }
      ],
      "name": "mintAmount",
      "outputs": [],
      "stateMutability": "nonpayable",
      "type": "function"
    },
    {
      "inputs": [],
      "name": "name",
      "outputs": [
        {
          "internalType": "string",
          "name": "",
          "type": "string"
        }
      ],
      "stateMutability": "view",
      "type": "function"
    },
    {
      "inputs": [],
      "name": "owner",
      "outputs": [
        {
          "internalType": "address",
          "name": "",
          "type": "address"
        }
      ],
      "stateMutability": "view",
      "type": "function"
    },
    {
      "inputs": [
        {
          "internalType": "uint256",
          "name": "tokenId",
          "type": "uint256"
        }
      ],
      "name": "ownerOf",
      "outputs": [
        {
          "internalType": "address",
          "name": "",
          "type": "address"
        }
      ],
      "stateMutability": "view",
      "type": "function"
    },
    {
      "inputs": [],
      "name": "percentDecimals",
      "outputs": [
        {
          "internalType": "uint256",
          "name": "",
          "type": "uint256"
        }
      ],
      "stateMutability": "view",
      "type": "function"
    },
    {
      "inputs": [],
      "name": "percentFee",
      "outputs": [
        {
          "internalType": "uint256",
          "name": "",
          "type": "uint256"
        }
      ],
      "stateMutability": "view",
      "type": "function"
    },
    {
      "inputs": [],
      "name": "proxiableUUID",
      "outputs": [
        {
          "internalType": "bytes32",
          "name": "",
          "type": "bytes32"
        }
      ],
      "stateMutability": "view",
      "type": "function"
    },
    {
      "inputs": [
        {
          "internalType": "bytes32",
          "name": "role",
          "type": "bytes32"
        },
        {
          "internalType": "address",
          "name": "account",
          "type": "address"
        }
      ],
      "name": "renounceRole",
      "outputs": [],
      "stateMutability": "nonpayable",
      "type": "function"
    },
    {
      "inputs": [
        {
          "internalType": "bytes32",
          "name": "role",
          "type": "bytes32"
        },
        {
          "internalType": "address",
          "name": "account",
          "type": "address"
        }
      ],
      "name": "revokeRole",
      "outputs": [],
      "stateMutability": "nonpayable",
      "type": "function"
    },
    {
      "inputs": [
        {
          "internalType": "address",
          "name": "from",
          "type": "address"
        },
        {
          "internalType": "address",
          "name": "to",
          "type": "address"
        },
        {
          "internalType": "uint256",
          "name": "tokenId",
          "type": "uint256"
        }
      ],
      "name": "safeTransferFrom",
      "outputs": [],
      "stateMutability": "nonpayable",
      "type": "function"
    },
    {
      "inputs": [
        {
          "internalType": "address",
          "name": "from",
          "type": "address"
        },
        {
          "internalType": "address",
          "name": "to",
          "type": "address"
        },
        {
          "internalType": "uint256",
          "name": "tokenId",
          "type": "uint256"
        },
        {
          "internalType": "bytes",
          "name": "data",
          "type": "bytes"
        }
      ],
      "name": "safeTransferFrom",
      "outputs": [],
      "stateMutability": "nonpayable",
      "type": "function"
    },
    {
      "inputs": [
        {
          "internalType": "address",
          "name": "operator",
          "type": "address"
        },
        {
          "internalType": "bool",
          "name": "approved",
          "type": "bool"
        }
      ],
      "name": "setApprovalForAll",
      "outputs": [],
      "stateMutability": "nonpayable",
      "type": "function"
    },
    {
      "inputs": [
        {
          "internalType": "string",
          "name": "baseURI_",
          "type": "string"
        }
      ],
      "name": "setBaseURI",
      "outputs": [],
      "stateMutability": "nonpayable",
      "type": "function"
    },
    {
      "inputs": [
        {
          "internalType": "bytes4",
          "name": "interfaceId",
          "type": "bytes4"
        }
      ],
      "name": "supportsInterface",
      "outputs": [
        {
          "internalType": "bool",
          "name": "",
          "type": "bool"
        }
      ],
      "stateMutability": "view",
      "type": "function"
    },
    {
      "inputs": [],
      "name": "symbol",
      "outputs": [
        {
          "internalType": "string",
          "name": "",
          "type": "string"
        }
      ],
      "stateMutability": "view",
      "type": "function"
    },
    {
      "inputs": [
        {
          "internalType": "uint256",
          "name": "tokenId",
          "type": "uint256"
        }
      ],
      "name": "tokenURI",
      "outputs": [
        {
          "internalType": "string",
          "name": "",
          "type": "string"
        }
      ],
      "stateMutability": "view",
      "type": "function"
    },
    {
      "inputs": [],
      "name": "totalSupply",
      "outputs": [
        {
          "internalType": "uint256",
          "name": "",
          "type": "uint256"
        }
      ],
      "stateMutability": "view",
      "type": "function"
    },
    {
      "inputs": [
        {
          "internalType": "address",
          "name": "from",
          "type": "address"
        },
        {
          "internalType": "address",
          "name": "to",
          "type": "address"
        },
        {
          "internalType": "uint256",
          "name": "tokenId",
          "type": "uint256"
        }
      ],
      "name": "transferFrom",
      "outputs": [],
      "stateMutability": "nonpayable",
      "type": "function"
    },
    {
      "inputs": [
        {
          "internalType": "address",
          "name": "newImplementation",
          "type": "address"
        }
      ],
      "name": "upgradeTo",
      "outputs": [],
      "stateMutability": "nonpayable",
      "type": "function"
    },
    {
      "inputs": [
        {
          "internalType": "address",
          "name": "newImplementation",
          "type": "address"
        },
        {
          "internalType": "bytes",
          "name": "data",
          "type": "bytes"
        }
      ],
      "name": "upgradeToAndCall",
      "outputs": [],
      "stateMutability": "payable",
      "type": "function"
    }
  ],
  "bytecode": "0x60a06040523060805234801561001457600080fd5b50608051612cf161004c60003960008181610a3d01528181610a7d01528181610b3801528181610b780152610c070152612cf16000f3fe6080604052600436106102045760003560e01c806355f804b311610118578063a217fddf116100a0578063c45a01551161006f578063c45a0155146105cb578063c87b56dd146105ec578063d547741f1461060c578063e985e9c51461062c578063f75195bc1461067557600080fd5b8063a217fddf14610549578063a22cb4651461055e578063b88d4fde1461057e578063b9f666f91461059e57600080fd5b806372b44b52116100e757806372b44b52146104b1578063767faf5d146104d35780638da5cb5b146104f357806391d148541461051457806395d89b411461053457600080fd5b806355f804b31461043c5780636352211e1461045c5780636c0360eb1461047c57806370a082311461049157600080fd5b8063248a9ca31161019b5780633659cfe61161016a5780633659cfe6146103bd57806342842e0e146103dd5780634c1a4115146103fd5780634f1ef2861461041457806352d1902d1461042757600080fd5b8063248a9ca31461032d5780632f2ff15d1461035d57806334eddf3e1461037d57806336568abe1461039d57600080fd5b80630d8e6e2c116101d75780630d8e6e2c146102ba5780630e583dd2146102d857806318160ddd146102f857806323b872dd1461030d57600080fd5b806301ffc9a71461020957806306fdde031461023e578063081812fc14610260578063095ea7b314610298575b600080fd5b34801561021557600080fd5b50610229610224366004612391565b61068a565b60405190151581526020015b60405180910390f35b34801561024a57600080fd5b5061025361069b565b6040516102359190612406565b34801561026c57600080fd5b5061028061027b366004612419565b61072d565b6040516001600160a01b039091168152602001610235565b3480156102a457600080fd5b506102b86102b3366004612447565b610754565b005b3480156102c657600080fd5b5060015b604051908152602001610235565b3480156102e457600080fd5b506102b86102f3366004612447565b61086f565b34801561030457600080fd5b506102ca6108de565b34801561031957600080fd5b506102b8610328366004612473565b6108ef565b34801561033957600080fd5b506102ca610348366004612419565b60009081526097602052604090206001015490565b34801561036957600080fd5b506102b86103783660046124b4565b610920565b34801561038957600080fd5b506102b8610398366004612419565b610945565b3480156103a957600080fd5b506102b86103b83660046124b4565b6109b4565b3480156103c957600080fd5b506102b86103d83660046124e4565b610a32565b3480156103e957600080fd5b506102b86103f8366004612473565b610b12565b34801561040957600080fd5b506102ca6101305481565b6102b86104223660046125a4565b610b2d565b34801561043357600080fd5b506102ca610bfa565b34801561044857600080fd5b506102b86104573660046125f4565b610cad565b34801561046857600080fd5b50610280610477366004612419565b610cd9565b34801561048857600080fd5b50610253610d39565b34801561049d57600080fd5b506102ca6104ac3660046124e4565b610dc8565b3480156104bd57600080fd5b506104c6610e4e565b6040516102359190612629565b3480156104df57600080fd5b506102b86104ee36600461269e565b610eee565b3480156104ff57600080fd5b5061012e54610280906001600160a01b031681565b34801561052057600080fd5b5061022961052f3660046124b4565b6110f0565b34801561054057600080fd5b5061025361111b565b34801561055557600080fd5b506102ca600081565b34801561056a57600080fd5b506102b861057936600461274b565b61112a565b34801561058a57600080fd5b506102b861059936600461277e565b611135565b3480156105aa57600080fd5b506105be6105b93660046124e4565b611167565b60405161023591906127ea565b3480156105d757600080fd5b5061012f54610280906001600160a01b031681565b3480156105f857600080fd5b50610253610607366004612419565b611242565b34801561061857600080fd5b506102b86106273660046124b4565b6112a9565b34801561063857600080fd5b5061022961064736600461282e565b6001600160a01b039182166000908152606a6020908152604080832093909416825291909152205460ff1690565b34801561068157600080fd5b506102ca600281565b6000610695826112ce565b92915050565b6060606580546106aa9061285c565b80601f01602080910402602001604051908101604052809291908181526020018280546106d69061285c565b80156107235780601f106106f857610100808354040283529160200191610723565b820191906000526020600020905b81548152906001019060200180831161070657829003601f168201915b5050505050905090565b6000610738826112f3565b506000908152606960205260409020546001600160a01b031690565b600061075f82610cd9565b9050806001600160a01b0316836001600160a01b031614156107d25760405162461bcd60e51b815260206004820152602160248201527f4552433732313a20617070726f76616c20746f2063757272656e74206f776e656044820152603960f91b60648201526084015b60405180910390fd5b336001600160a01b03821614806107ee57506107ee8133610647565b6108605760405162461bcd60e51b815260206004820152603e60248201527f4552433732313a20617070726f76652063616c6c6572206973206e6f7420746f60448201527f6b656e206f776e6572206e6f7220617070726f76656420666f7220616c6c000060648201526084016107c9565b61086a8383611352565b505050565b7f9f2df0fed2c77648de5860a4cc508cd0818c85b8b8a1ab4ceeef8d981c8956a6610899816113c0565b60005b828110156108d8576108b7846108b261012d5490565b6113ca565b6108c661012d80546001019055565b806108d0816128ad565b91505061089c565b50505050565b60006108ea61012d5490565b905090565b6108f933826113e4565b6109155760405162461bcd60e51b81526004016107c9906128c8565b61086a83838361150b565b60008281526097602052604090206001015461093b816113c0565b61086a83836116a7565b600080516020612c9c83398151915261095d816113c0565b60008211801561096f57506127108211155b6109ad5760405162461bcd60e51b815260206004820152600f60248201526e030203c20466565203c20313030303608c1b60448201526064016107c9565b5061013055565b6001600160a01b0381163314610a245760405162461bcd60e51b815260206004820152602f60248201527f416363657373436f6e74726f6c3a2063616e206f6e6c792072656e6f756e636560448201526e103937b632b9903337b91039b2b63360891b60648201526084016107c9565b610a2e828261172d565b5050565b306001600160a01b037f0000000000000000000000000000000000000000000000000000000000000000161415610a7b5760405162461bcd60e51b81526004016107c990612916565b7f00000000000000000000000000000000000000000000000000000000000000006001600160a01b0316610ac4600080516020612c55833981519152546001600160a01b031690565b6001600160a01b031614610aea5760405162461bcd60e51b81526004016107c990612962565b610af381611794565b60408051600080825260208201909252610b0f918391906117ac565b50565b61086a83838360405180602001604052806000815250611135565b306001600160a01b037f0000000000000000000000000000000000000000000000000000000000000000161415610b765760405162461bcd60e51b81526004016107c990612916565b7f00000000000000000000000000000000000000000000000000000000000000006001600160a01b0316610bbf600080516020612c55833981519152546001600160a01b031690565b6001600160a01b031614610be55760405162461bcd60e51b81526004016107c990612962565b610bee82611794565b610a2e828260016117ac565b6000306001600160a01b037f00000000000000000000000000000000000000000000000000000000000000001614610c9a5760405162461bcd60e51b815260206004820152603860248201527f555550535570677261646561626c653a206d757374206e6f742062652063616c60448201527f6c6564207468726f7567682064656c656761746563616c6c000000000000000060648201526084016107c9565b50600080516020612c5583398151915290565b600080516020612c9c833981519152610cc5816113c0565b815161086a906101319060208501906122e2565b6000818152606760205260408120546001600160a01b0316806106955760405162461bcd60e51b8152602060048201526018602482015277115490cdcc8c4e881a5b9d985b1a59081d1bdad95b88125160421b60448201526064016107c9565b6101318054610d479061285c565b80601f0160208091040260200160405190810160405280929190818152602001828054610d739061285c565b8015610dc05780601f10610d9557610100808354040283529160200191610dc0565b820191906000526020600020905b815481529060010190602001808311610da357829003601f168201915b505050505081565b60006001600160a01b038216610e325760405162461bcd60e51b815260206004820152602960248201527f4552433732313a2061646472657373207a65726f206973206e6f7420612076616044820152683634b21037bbb732b960b91b60648201526084016107c9565b506001600160a01b031660009081526068602052604090205490565b610e796040518060800160405280606081526020016060815260200160608152602001606081525090565b610e8161069b565b8152610e8b61111b565b6020820152610ea06380ac58cd60e01b61068a565b610eb95760405180602001604052806000815250610ed9565b6040518060400160405280600681526020016545524337323160d01b8152505b6040820152610ee6611926565b606082015290565b600054610100900460ff1615808015610f0e5750600054600160ff909116105b80610f285750303b158015610f28575060005460ff166001145b610f8b5760405162461bcd60e51b815260206004820152602e60248201527f496e697469616c697a61626c653a20636f6e747261637420697320616c72656160448201526d191e481a5b9a5d1a585b1a5e995960921b60648201526084016107c9565b6000805460ff191660011790558015610fae576000805461ff0019166101001790555b610fb88787611936565b610fc0611967565b610fc8611967565b61012e80546001600160a01b0386166001600160a01b03199182161790915561012f8054909116331790558451611007906101319060208801906122e2565b50610130839055611019600033611990565b611024600085610920565b61103c600080516020612c9c83398151915285610920565b6110667f9f2df0fed2c77648de5860a4cc508cd0818c85b8b8a1ab4ceeef8d981c8956a685610920565b60005b828110156110a05761107f856108b261012d5490565b61108e61012d80546001019055565b80611098816128ad565b915050611069565b5080156110e7576000805461ff0019169055604051600181527f7f26b83ff96e1f2b6a682f133852f6798a09c465da95921460cefb38474024989060200160405180910390a15b50505050505050565b60009182526097602090815260408084206001600160a01b0393909316845291905290205460ff1690565b6060606680546106aa9061285c565b610a2e33838361199a565b61113f33836113e4565b61115b5760405162461bcd60e51b81526004016107c9906128c8565b6108d884848484611a69565b6060600061117483610dc8565b9050600061118261012d5490565b905060008267ffffffffffffffff81111561119f5761119f612501565b6040519080825280602002602001820160405280156111c8578160200160208202803683370190505b5090506000805b8381101561123757866001600160a01b03166111ea82610cd9565b6001600160a01b03161415611225578083838151811061120c5761120c6129ae565b602090810291909101015281611221816128ad565b9250505b8061122f816128ad565b9150506111cf565b509095945050505050565b606061124d826112f3565b6000611257611926565b9050600081511161127757604051806020016040528060008152506112a2565b8061128184611a9c565b6040516020016112929291906129c4565b6040516020818303038152906040525b9392505050565b6000828152609760205260409020600101546112c4816113c0565b61086a838361172d565b60006001600160e01b03198216637965db0b60e01b1480610695575061069582611ba2565b6000818152606760205260409020546001600160a01b0316610b0f5760405162461bcd60e51b8152602060048201526018602482015277115490cdcc8c4e881a5b9d985b1a59081d1bdad95b88125160421b60448201526064016107c9565b600081815260696020526040902080546001600160a01b0319166001600160a01b038416908117909155819061138782610cd9565b6001600160a01b03167f8c5be1e5ebec7d5bd14f71427d1e84f3dd0314c0f7b2291e5b200ac8c7c3b92560405160405180910390a45050565b610b0f8133611bf2565b610a2e828260405180602001604052806000815250611c56565b6000806113f083610cd9565b9050600061012f60009054906101000a90046001600160a01b03166001600160a01b031663715e780f6040518163ffffffff1660e01b815260040160206040518083038186803b15801561144357600080fd5b505afa158015611457573d6000803e3d6000fd5b505050506040513d601f19601f8201168201806040525081019061147b91906129f3565b9050816001600160a01b0316856001600160a01b031614806114c257506001600160a01b038083166000908152606a602090815260408083209389168352929052205460ff165b806114e65750846001600160a01b03166114db8561072d565b6001600160a01b0316145b806115025750806001600160a01b0316856001600160a01b0316145b95945050505050565b826001600160a01b031661151e82610cd9565b6001600160a01b0316146115825760405162461bcd60e51b815260206004820152602560248201527f4552433732313a207472616e736665722066726f6d20696e636f72726563742060448201526437bbb732b960d91b60648201526084016107c9565b6001600160a01b0382166115e45760405162461bcd60e51b8152602060048201526024808201527f4552433732313a207472616e7366657220746f20746865207a65726f206164646044820152637265737360e01b60648201526084016107c9565b6115ef600082611352565b6001600160a01b0383166000908152606860205260408120805460019290611618908490612a10565b90915550506001600160a01b0382166000908152606860205260408120805460019290611646908490612a27565b909155505060008181526067602052604080822080546001600160a01b0319166001600160a01b0386811691821790925591518493918716917fddf252ad1be2c89b69c2b068fc378daa952ba7f163c4a11628f55a4df523b3ef91a4505050565b6116b182826110f0565b610a2e5760008281526097602090815260408083206001600160a01b03851684529091529020805460ff191660011790556116e93390565b6001600160a01b0316816001600160a01b0316837f2f8788117e7eff1d82e926ec794901d17c78024a50270940304540a733656f0d60405160405180910390a45050565b61173782826110f0565b15610a2e5760008281526097602090815260408083206001600160a01b0385168085529252808320805460ff1916905551339285917ff6391f5c32d9c69d2a47ea670b442974b53935d1edc7fd64eb21e047a839171b9190a45050565b600080516020612c9c833981519152610a2e816113c0565b7f4910fdfa16fed3260ed0e7147f7cc6da11a60208b5b9406d12a635614ffd91435460ff16156117df5761086a83611c89565b826001600160a01b03166352d1902d6040518163ffffffff1660e01b815260040160206040518083038186803b15801561181857600080fd5b505afa925050508015611848575060408051601f3d908101601f1916820190925261184591810190612a3f565b60015b6118ab5760405162461bcd60e51b815260206004820152602e60248201527f45524331393637557067726164653a206e657720696d706c656d656e7461746960448201526d6f6e206973206e6f74205555505360901b60648201526084016107c9565b600080516020612c55833981519152811461191a5760405162461bcd60e51b815260206004820152602960248201527f45524331393637557067726164653a20756e737570706f727465642070726f786044820152681a58589b195555525160ba1b60648201526084016107c9565b5061086a838383611d25565b606061013180546106aa9061285c565b600054610100900460ff1661195d5760405162461bcd60e51b81526004016107c990612a58565b610a2e8282611d4a565b600054610100900460ff1661198e5760405162461bcd60e51b81526004016107c990612a58565b565b610a2e82826116a7565b816001600160a01b0316836001600160a01b031614156119fc5760405162461bcd60e51b815260206004820152601960248201527f4552433732313a20617070726f766520746f2063616c6c65720000000000000060448201526064016107c9565b6001600160a01b038381166000818152606a6020908152604080832094871680845294825291829020805460ff191686151590811790915591519182527f17307eab39ab6107e8899845ad3d59bd9653f200f220920489ca2b5937696c31910160405180910390a3505050565b611a7484848461150b565b611a8084848484611d98565b6108d85760405162461bcd60e51b81526004016107c990612aa3565b606081611ac05750506040805180820190915260018152600360fc1b602082015290565b8160005b8115611aea5780611ad4816128ad565b9150611ae39050600a83612b0b565b9150611ac4565b60008167ffffffffffffffff811115611b0557611b05612501565b6040519080825280601f01601f191660200182016040528015611b2f576020820181803683370190505b5090505b8415611b9a57611b44600183612a10565b9150611b51600a86612b1f565b611b5c906030612a27565b60f81b818381518110611b7157611b716129ae565b60200101906001600160f81b031916908160001a905350611b93600a86612b0b565b9450611b33565b949350505050565b60006001600160e01b031982166380ac58cd60e01b1480611bd357506001600160e01b03198216635b5e139f60e01b145b8061069557506301ffc9a760e01b6001600160e01b0319831614610695565b611bfc82826110f0565b610a2e57611c14816001600160a01b03166014611ea5565b611c1f836020611ea5565b604051602001611c30929190612b33565b60408051601f198184030181529082905262461bcd60e51b82526107c991600401612406565b611c608383612041565b611c6d6000848484611d98565b61086a5760405162461bcd60e51b81526004016107c990612aa3565b6001600160a01b0381163b611cf65760405162461bcd60e51b815260206004820152602d60248201527f455243313936373a206e657720696d706c656d656e746174696f6e206973206e60448201526c1bdd08184818dbdb9d1c9858dd609a1b60648201526084016107c9565b600080516020612c5583398151915280546001600160a01b0319166001600160a01b0392909216919091179055565b611d2e83612183565b600082511180611d3b5750805b1561086a576108d883836121c3565b600054610100900460ff16611d715760405162461bcd60e51b81526004016107c990612a58565b8151611d849060659060208501906122e2565b50805161086a9060669060208401906122e2565b60006001600160a01b0384163b15611e9a57604051630a85bd0160e11b81526001600160a01b0385169063150b7a0290611ddc903390899088908890600401612ba8565b602060405180830381600087803b158015611df657600080fd5b505af1925050508015611e26575060408051601f3d908101601f19168201909252611e2391810190612be5565b60015b611e80573d808015611e54576040519150601f19603f3d011682016040523d82523d6000602084013e611e59565b606091505b508051611e785760405162461bcd60e51b81526004016107c990612aa3565b805181602001fd5b6001600160e01b031916630a85bd0160e11b149050611b9a565b506001949350505050565b60606000611eb4836002612c02565b611ebf906002612a27565b67ffffffffffffffff811115611ed757611ed7612501565b6040519080825280601f01601f191660200182016040528015611f01576020820181803683370190505b509050600360fc1b81600081518110611f1c57611f1c6129ae565b60200101906001600160f81b031916908160001a905350600f60fb1b81600181518110611f4b57611f4b6129ae565b60200101906001600160f81b031916908160001a9053506000611f6f846002612c02565b611f7a906001612a27565b90505b6001811115611ff2576f181899199a1a9b1b9c1cb0b131b232b360811b85600f1660108110611fae57611fae6129ae565b1a60f81b828281518110611fc457611fc46129ae565b60200101906001600160f81b031916908160001a90535060049490941c93611feb81612c21565b9050611f7d565b5083156112a25760405162461bcd60e51b815260206004820181905260248201527f537472696e67733a20686578206c656e67746820696e73756666696369656e7460448201526064016107c9565b6001600160a01b0382166120975760405162461bcd60e51b815260206004820181905260248201527f4552433732313a206d696e7420746f20746865207a65726f206164647265737360448201526064016107c9565b6000818152606760205260409020546001600160a01b0316156120fc5760405162461bcd60e51b815260206004820152601c60248201527f4552433732313a20746f6b656e20616c7265616479206d696e7465640000000060448201526064016107c9565b6001600160a01b0382166000908152606860205260408120805460019290612125908490612a27565b909155505060008181526067602052604080822080546001600160a01b0319166001600160a01b03861690811790915590518392907fddf252ad1be2c89b69c2b068fc378daa952ba7f163c4a11628f55a4df523b3ef908290a45050565b61218c81611c89565b6040516001600160a01b038216907fbc7cd75a20ee27fd9adebab32041f755214dbc6bffa90cc0225b39da2e5c2d3b90600090a250565b60606001600160a01b0383163b61222b5760405162461bcd60e51b815260206004820152602660248201527f416464726573733a2064656c65676174652063616c6c20746f206e6f6e2d636f6044820152651b9d1c9858dd60d21b60648201526084016107c9565b600080846001600160a01b0316846040516122469190612c38565b600060405180830381855af49150503d8060008114612281576040519150601f19603f3d011682016040523d82523d6000602084013e612286565b606091505b50915091506115028282604051806060016040528060278152602001612c7560279139606083156122b85750816112a2565b8251156122c85782518084602001fd5b8160405162461bcd60e51b81526004016107c99190612406565b8280546122ee9061285c565b90600052602060002090601f0160209004810192826123105760008555612356565b82601f1061232957805160ff1916838001178555612356565b82800160010185558215612356579182015b8281111561235657825182559160200191906001019061233b565b50612362929150612366565b5090565b5b808211156123625760008155600101612367565b6001600160e01b031981168114610b0f57600080fd5b6000602082840312156123a357600080fd5b81356112a28161237b565b60005b838110156123c95781810151838201526020016123b1565b838111156108d85750506000910152565b600081518084526123f28160208601602086016123ae565b601f01601f19169290920160200192915050565b6020815260006112a260208301846123da565b60006020828403121561242b57600080fd5b5035919050565b6001600160a01b0381168114610b0f57600080fd5b6000806040838503121561245a57600080fd5b823561246581612432565b946020939093013593505050565b60008060006060848603121561248857600080fd5b833561249381612432565b925060208401356124a381612432565b929592945050506040919091013590565b600080604083850312156124c757600080fd5b8235915060208301356124d981612432565b809150509250929050565b6000602082840312156124f657600080fd5b81356112a281612432565b634e487b7160e01b600052604160045260246000fd5b600082601f83011261252857600080fd5b813567ffffffffffffffff8082111561254357612543612501565b604051601f8301601f19908116603f0116810190828211818310171561256b5761256b612501565b8160405283815286602085880101111561258457600080fd5b836020870160208301376000602085830101528094505050505092915050565b600080604083850312156125b757600080fd5b82356125c281612432565b9150602083013567ffffffffffffffff8111156125de57600080fd5b6125ea85828601612517565b9150509250929050565b60006020828403121561260657600080fd5b813567ffffffffffffffff81111561261d57600080fd5b611b9a84828501612517565b60208152600082516080602084015261264560a08401826123da565b90506020840151601f198085840301604086015261266383836123da565b9250604086015191508085840301606086015261268083836123da565b925060608601519150808584030160808601525061150282826123da565b60008060008060008060c087890312156126b757600080fd5b863567ffffffffffffffff808211156126cf57600080fd5b6126db8a838b01612517565b975060208901359150808211156126f157600080fd5b6126fd8a838b01612517565b9650604089013591508082111561271357600080fd5b5061272089828a01612517565b945050606087013561273181612432565b9598949750929560808101359460a0909101359350915050565b6000806040838503121561275e57600080fd5b823561276981612432565b9150602083013580151581146124d957600080fd5b6000806000806080858703121561279457600080fd5b843561279f81612432565b935060208501356127af81612432565b925060408501359150606085013567ffffffffffffffff8111156127d257600080fd5b6127de87828801612517565b91505092959194509250565b6020808252825182820181905260009190848201906040850190845b8181101561282257835183529284019291840191600101612806565b50909695505050505050565b6000806040838503121561284157600080fd5b823561284c81612432565b915060208301356124d981612432565b600181811c9082168061287057607f821691505b6020821081141561289157634e487b7160e01b600052602260045260246000fd5b50919050565b634e487b7160e01b600052601160045260246000fd5b60006000198214156128c1576128c1612897565b5060010190565b6020808252602e908201527f4552433732313a2063616c6c6572206973206e6f7420746f6b656e206f776e6560408201526d1c881b9bdc88185c1c1c9bdd995960921b606082015260800190565b6020808252602c908201527f46756e6374696f6e206d7573742062652063616c6c6564207468726f7567682060408201526b19195b1959d85d1958d85b1b60a21b606082015260800190565b6020808252602c908201527f46756e6374696f6e206d7573742062652063616c6c6564207468726f7567682060408201526b6163746976652070726f787960a01b606082015260800190565b634e487b7160e01b600052603260045260246000fd5b600083516129d68184602088016123ae565b8351908301906129ea8183602088016123ae565b01949350505050565b600060208284031215612a0557600080fd5b81516112a281612432565b600082821015612a2257612a22612897565b500390565b60008219821115612a3a57612a3a612897565b500190565b600060208284031215612a5157600080fd5b5051919050565b6020808252602b908201527f496e697469616c697a61626c653a20636f6e7472616374206973206e6f74206960408201526a6e697469616c697a696e6760a81b606082015260800190565b60208082526032908201527f4552433732313a207472616e7366657220746f206e6f6e20455243373231526560408201527131b2b4bb32b91034b6b83632b6b2b73a32b960711b606082015260800190565b634e487b7160e01b600052601260045260246000fd5b600082612b1a57612b1a612af5565b500490565b600082612b2e57612b2e612af5565b500690565b7f416363657373436f6e74726f6c3a206163636f756e7420000000000000000000815260008351612b6b8160178501602088016123ae565b7001034b99036b4b9b9b4b733903937b6329607d1b6017918401918201528351612b9c8160288401602088016123ae565b01602801949350505050565b6001600160a01b0385811682528416602082015260408101839052608060608201819052600090612bdb908301846123da565b9695505050505050565b600060208284031215612bf757600080fd5b81516112a28161237b565b6000816000190483118215151615612c1c57612c1c612897565b500290565b600081612c3057612c30612897565b506000190190565b60008251612c4a8184602087016123ae565b919091019291505056fe360894a13ba1a3210667c828492db98dca3e2076cc3735a920a3ca505d382bbc416464726573733a206c6f772d6c6576656c2064656c65676174652063616c6c206661696c6564a49807205ce4d355092ef5a8a18f56e8913cf4a201fbe287825b095693c21775a2646970667358221220665715a8be4285e81c7731bf66fa62fb0a6a2401dfc230a0a03b9ffcf777f24464736f6c63430008090033",
  "linkReferences": {},
  "deployedLinkReferences": {}
}