{
  "_format": "hh-sol-artifact-1",
  "contractName": "ERC721",
  "sourceName": "contracts/ERC721.sol",
  "abi": [
    {
      "anonymous": false,
      "inputs": [
        {
          "indexed": false,
          "internalType": "address",
          "name": "previousAdmin",
          "type": "address"
        },
        {
          "indexed": false,
          "internalType": "address",
          "name": "newAdmin",
          "type": "address"
        }
      ],
      "name": "AdminChanged",
      "type": "event"
    },
    {
      "anonymous": false,
      "inputs": [
        {
          "indexed": true,
          "internalType": "address",
          "name": "owner",
          "type": "address"
        },
        {
          "indexed": true,
          "internalType": "address",
          "name": "approved",
          "type": "address"
        },
        {
          "indexed": true,
          "internalType": "uint256",
          "name": "tokenId",
          "type": "uint256"
        }
      ],
      "name": "Approval",
      "type": "event"
    },
    {
      "anonymous": false,
      "inputs": [
        {
          "indexed": true,
          "internalType": "address",
          "name": "owner",
          "type": "address"
        },
        {
          "indexed": true,
          "internalType": "address",
          "name": "operator",
          "type": "address"
        },
        {
          "indexed": false,
          "internalType": "bool",
          "name": "approved",
          "type": "bool"
        }
      ],
      "name": "ApprovalForAll",
      "type": "event"
    },
    {
      "anonymous": false,
      "inputs": [
        {
          "indexed": true,
          "internalType": "address",
          "name": "beacon",
          "type": "address"
        }
      ],
      "name": "BeaconUpgraded",
      "type": "event"
    },
    {
      "anonymous": false,
      "inputs": [
        {
          "indexed": false,
          "internalType": "uint8",
          "name": "version",
          "type": "uint8"
        }
      ],
      "name": "Initialized",
      "type": "event"
    },
    {
      "anonymous": false,
      "inputs": [
        {
          "indexed": true,
          "internalType": "bytes32",
          "name": "role",
          "type": "bytes32"
        },
        {
          "indexed": true,
          "internalType": "bytes32",
          "name": "previousAdminRole",
          "type": "bytes32"
        },
        {
          "indexed": true,
          "internalType": "bytes32",
          "name": "newAdminRole",
          "type": "bytes32"
        }
      ],
      "name": "RoleAdminChanged",
      "type": "event"
    },
    {
      "anonymous": false,
      "inputs": [
        {
          "indexed": true,
          "internalType": "bytes32",
          "name": "role",
          "type": "bytes32"
        },
        {
          "indexed": true,
          "internalType": "address",
          "name": "account",
          "type": "address"
        },
        {
          "indexed": true,
          "internalType": "address",
          "name": "sender",
          "type": "address"
        }
      ],
      "name": "RoleGranted",
      "type": "event"
    },
    {
      "anonymous": false,
      "inputs": [
        {
          "indexed": true,
          "internalType": "bytes32",
          "name": "role",
          "type": "bytes32"
        },
        {
          "indexed": true,
          "internalType": "address",
          "name": "account",
          "type": "address"
        },
        {
          "indexed": true,
          "internalType": "address",
          "name": "sender",
          "type": "address"
        }
      ],
      "name": "RoleRevoked",
      "type": "event"
    },
    {
      "anonymous": false,
      "inputs": [
        {
          "indexed": true,
          "internalType": "address",
          "name": "from",
          "type": "address"
        },
        {
          "indexed": true,
          "internalType": "address",
          "name": "to",
          "type": "address"
        },
        {
          "indexed": true,
          "internalType": "uint256",
          "name": "tokenId",
          "type": "uint256"
        }
      ],
      "name": "Transfer",
      "type": "event"
    },
    {
      "anonymous": false,
      "inputs": [
        {
          "indexed": true,
          "internalType": "address",
          "name": "implementation",
          "type": "address"
        }
      ],
      "name": "Upgraded",
      "type": "event"
    },
    {
      "inputs": [],
      "name": "DEFAULT_ADMIN_ROLE",
      "outputs": [
        {
          "internalType": "bytes32",
          "name": "",
          "type": "bytes32"
        }
      ],
      "stateMutability": "view",
      "type": "function"
    },
    {
      "inputs": [
        {
          "internalType": "address",
          "name": "to",
          "type": "address"
        },
        {
          "internalType": "uint256",
          "name": "tokenId",
          "type": "uint256"
        }
      ],
      "name": "approve",
      "outputs": [],
      "stateMutability": "nonpayable",
      "type": "function"
    },
    {
      "inputs": [
        {
          "internalType": "address",
          "name": "owner",
          "type": "address"
        }
      ],
      "name": "balanceOf",
      "outputs": [
        {
          "internalType": "uint256",
          "name": "",
          "type": "uint256"
        }
      ],
      "stateMutability": "view",
      "type": "function"
    },
    {
      "inputs": [],
      "name": "baseURI",
      "outputs": [
        {
          "internalType": "string",
          "name": "",
          "type": "string"
        }
      ],
      "stateMutability": "view",
      "type": "function"
    },
    {
      "inputs": [
        {
          "internalType": "address",
          "name": "newERC20Address",
          "type": "address"
        }
      ],
      "name": "changeERC20Address",
      "outputs": [],
      "stateMutability": "nonpayable",
      "type": "function"
    },
    {
      "inputs": [
        {
          "internalType": "uint256",
          "name": "_percentFee",
          "type": "uint256"
        }
      ],
      "name": "changeFeePercent",
      "outputs": [],
      "stateMutability": "nonpayable",
      "type": "function"
    },
    {
      "inputs": [],
      "name": "erc20",
      "outputs": [
        {
          "internalType": "address",
          "name": "",
          "type": "address"
        }
      ],
      "stateMutability": "view",
      "type": "function"
    },
    {
      "inputs": [],
      "name": "factory",
      "outputs": [
        {
          "internalType": "address",
          "name": "",
          "type": "address"
        }
      ],
      "stateMutability": "view",
      "type": "function"
    },
    {
      "inputs": [
        {
          "internalType": "address",
          "name": "account",
          "type": "address"
        }
      ],
      "name": "getAllIds",
      "outputs": [
        {
          "internalType": "uint256[]",
          "name": "",
          "type": "uint256[]"
        }
      ],
      "stateMutability": "view",
      "type": "function"
    },
    {
      "inputs": [
        {
          "internalType": "uint256",
          "name": "tokenId",
          "type": "uint256"
        }
      ],
      "name": "getApproved",
      "outputs": [
        {
          "internalType": "address",
          "name": "",
          "type": "address"
        }
      ],
      "stateMutability": "view",
      "type": "function"
    },
    {
      "inputs": [],
      "name": "getContractMetadata",
      "outputs": [
        {
          "components": [
            {
              "internalType": "string",
              "name": "name",
              "type": "string"
            },
            {
              "internalType": "string",
              "name": "symbol",
              "type": "string"
            },
            {
              "internalType": "string",
              "name": "tokenType",
              "type": "string"
            },
            {
              "internalType": "string",
              "name": "baseUri",
              "type": "string"
            }
          ],
          "internalType": "struct ERC721.Metadata",
          "name": "metadata",
          "type": "tuple"
        }
      ],
      "stateMutability": "view",
      "type": "function"
    },
    {
      "inputs": [
        {
          "internalType": "bytes32",
          "name": "role",
          "type": "bytes32"
        }
      ],
      "name": "getRoleAdmin",
      "outputs": [
        {
          "internalType": "bytes32",
          "name": "",
          "type": "bytes32"
        }
      ],
      "stateMutability": "view",
      "type": "function"
    },
    {
      "inputs": [],
      "name": "getVersion",
      "outputs": [
        {
          "internalType": "uint256",
          "name": "",
          "type": "uint256"
        }
      ],
      "stateMutability": "pure",
      "type": "function"
    },
    {
      "inputs": [
        {
          "internalType": "bytes32",
          "name": "role",
          "type": "bytes32"
        },
        {
          "internalType": "address",
          "name": "account",
          "type": "address"
        }
      ],
      "name": "grantRole",
      "outputs": [],
      "stateMutability": "nonpayable",
      "type": "function"
    },
    {
      "inputs": [
        {
          "internalType": "bytes32",
          "name": "role",
          "type": "bytes32"
        },
        {
          "internalType": "address",
          "name": "account",
          "type": "address"
        }
      ],
      "name": "hasRole",
      "outputs": [
        {
          "internalType": "bool",
          "name": "",
          "type": "bool"
        }
      ],
      "stateMutability": "view",
      "type": "function"
    },
    {
      "inputs": [
        {
          "internalType": "string",
          "name": "name_",
          "type": "string"
        },
        {
          "internalType": "string",
          "name": "symbol_",
          "type": "string"
        },
        {
          "internalType": "string",
          "name": "baseURI_",
          "type": "string"
        },
        {
          "internalType": "address",
          "name": "owner_",
          "type": "address"
        },
        {
          "internalType": "address",
          "name": "erc20_",
          "type": "address"
        },
        {
          "internalType": "uint256",
          "name": "percentFee_",
          "type": "uint256"
        },
        {
          "internalType": "uint256",
          "name": "amount_",
          "type": "uint256"
        }
      ],
      "name": "initialize",
      "outputs": [],
      "stateMutability": "nonpayable",
      "type": "function"
    },
    {
      "inputs": [
        {
          "internalType": "address",
          "name": "owner",
          "type": "address"
        },
        {
          "internalType": "address",
          "name": "operator",
          "type": "address"
        }
      ],
      "name": "isApprovedForAll",
      "outputs": [
        {
          "internalType": "bool",
          "name": "",
          "type": "bool"
        }
      ],
      "stateMutability": "view",
      "type": "function"
    },
    {
      "inputs": [
        {
          "internalType": "address",
          "name": "to",
          "type": "address"
        },
        {
          "internalType": "uint256",
          "name": "amount",
          "type": "uint256"
        }
      ],
      "name": "mintAmount",
      "outputs": [],
      "stateMutability": "nonpayable",
      "type": "function"
    },
    {
      "inputs": [],
      "name": "name",
      "outputs": [
        {
          "internalType": "string",
          "name": "",
          "type": "string"
        }
      ],
      "stateMutability": "view",
      "type": "function"
    },
    {
      "inputs": [],
      "name": "owner",
      "outputs": [
        {
          "internalType": "address",
          "name": "",
          "type": "address"
        }
      ],
      "stateMutability": "view",
      "type": "function"
    },
    {
      "inputs": [
        {
          "internalType": "uint256",
          "name": "tokenId",
          "type": "uint256"
        }
      ],
      "name": "ownerOf",
      "outputs": [
        {
          "internalType": "address",
          "name": "",
          "type": "address"
        }
      ],
      "stateMutability": "view",
      "type": "function"
    },
    {
      "inputs": [],
      "name": "percentDecimals",
      "outputs": [
        {
          "internalType": "uint256",
          "name": "",
          "type": "uint256"
        }
      ],
      "stateMutability": "view",
      "type": "function"
    },
    {
      "inputs": [],
      "name": "percentFee",
      "outputs": [
        {
          "internalType": "uint256",
          "name": "",
          "type": "uint256"
        }
      ],
      "stateMutability": "view",
      "type": "function"
    },
    {
      "inputs": [],
      "name": "proxiableUUID",
      "outputs": [
        {
          "internalType": "bytes32",
          "name": "",
          "type": "bytes32"
        }
      ],
      "stateMutability": "view",
      "type": "function"
    },
    {
      "inputs": [
        {
          "internalType": "bytes32",
          "name": "role",
          "type": "bytes32"
        },
        {
          "internalType": "address",
          "name": "account",
          "type": "address"
        }
      ],
      "name": "renounceRole",
      "outputs": [],
      "stateMutability": "nonpayable",
      "type": "function"
    },
    {
      "inputs": [
        {
          "internalType": "bytes32",
          "name": "role",
          "type": "bytes32"
        },
        {
          "internalType": "address",
          "name": "account",
          "type": "address"
        }
      ],
      "name": "revokeRole",
      "outputs": [],
      "stateMutability": "nonpayable",
      "type": "function"
    },
    {
      "inputs": [
        {
          "internalType": "address",
          "name": "from",
          "type": "address"
        },
        {
          "internalType": "address",
          "name": "to",
          "type": "address"
        },
        {
          "internalType": "uint256",
          "name": "tokenId",
          "type": "uint256"
        }
      ],
      "name": "safeTransferFrom",
      "outputs": [],
      "stateMutability": "nonpayable",
      "type": "function"
    },
    {
      "inputs": [
        {
          "internalType": "address",
          "name": "from",
          "type": "address"
        },
        {
          "internalType": "address",
          "name": "to",
          "type": "address"
        },
        {
          "internalType": "uint256",
          "name": "tokenId",
          "type": "uint256"
        },
        {
          "internalType": "bytes",
          "name": "data",
          "type": "bytes"
        }
      ],
      "name": "safeTransferFrom",
      "outputs": [],
      "stateMutability": "nonpayable",
      "type": "function"
    },
    {
      "inputs": [
        {
          "internalType": "address",
          "name": "operator",
          "type": "address"
        },
        {
          "internalType": "bool",
          "name": "approved",
          "type": "bool"
        }
      ],
      "name": "setApprovalForAll",
      "outputs": [],
      "stateMutability": "nonpayable",
      "type": "function"
    },
    {
      "inputs": [
        {
          "internalType": "string",
          "name": "baseURI_",
          "type": "string"
        }
      ],
      "name": "setBaseURI",
      "outputs": [],
      "stateMutability": "nonpayable",
      "type": "function"
    },
    {
      "inputs": [
        {
          "internalType": "bytes4",
          "name": "interfaceId",
          "type": "bytes4"
        }
      ],
      "name": "supportsInterface",
      "outputs": [
        {
          "internalType": "bool",
          "name": "",
          "type": "bool"
        }
      ],
      "stateMutability": "view",
      "type": "function"
    },
    {
      "inputs": [],
      "name": "symbol",
      "outputs": [
        {
          "internalType": "string",
          "name": "",
          "type": "string"
        }
      ],
      "stateMutability": "view",
      "type": "function"
    },
    {
      "inputs": [
        {
          "internalType": "uint256",
          "name": "tokenId",
          "type": "uint256"
        }
      ],
      "name": "tokenURI",
      "outputs": [
        {
          "internalType": "string",
          "name": "",
          "type": "string"
        }
      ],
      "stateMutability": "view",
      "type": "function"
    },
    {
      "inputs": [],
      "name": "totalSupply",
      "outputs": [
        {
          "internalType": "uint256",
          "name": "",
          "type": "uint256"
        }
      ],
      "stateMutability": "view",
      "type": "function"
    },
    {
      "inputs": [
        {
          "internalType": "address",
          "name": "from",
          "type": "address"
        },
        {
          "internalType": "address",
          "name": "to",
          "type": "address"
        },
        {
          "internalType": "uint256",
          "name": "tokenId",
          "type": "uint256"
        }
      ],
      "name": "transferFrom",
      "outputs": [],
      "stateMutability": "nonpayable",
      "type": "function"
    },
    {
      "inputs": [
        {
          "internalType": "address",
          "name": "newImplementation",
          "type": "address"
        }
      ],
      "name": "upgradeTo",
      "outputs": [],
      "stateMutability": "nonpayable",
      "type": "function"
    },
    {
      "inputs": [
        {
          "internalType": "address",
          "name": "newImplementation",
          "type": "address"
        },
        {
          "internalType": "bytes",
          "name": "data",
          "type": "bytes"
        }
      ],
      "name": "upgradeToAndCall",
      "outputs": [],
      "stateMutability": "payable",
      "type": "function"
    }
  ],
  "bytecode": "0x60a06040523060805234801561001457600080fd5b50608051612eb761004c60003960008181610b9801528181610bd801528181610c9301528181610cd30152610d620152612eb76000f3fe60806040526004361061021a5760003560e01c806355f804b311610123578063a217fddf116100ab578063c87b56dd1161006f578063c87b56dd14610623578063d3a9902b14610643578063d547741f14610663578063e985e9c514610683578063f75195bc146106cc57600080fd5b8063a217fddf14610580578063a22cb46514610595578063b88d4fde146105b5578063b9f666f9146105d5578063c45a01551461060257600080fd5b806372b44b52116100f257806372b44b52146104e7578063785e9e86146105095780638da5cb5b1461052a57806391d148541461054b57806395d89b411461056b57600080fd5b806355f804b3146104725780636352211e146104925780636c0360eb146104b257806370a08231146104c757600080fd5b8063248a9ca3116101a65780633659cfe6116101755780633659cfe6146103f357806342842e0e146104135780634c1a4115146104335780634f1ef2861461044a57806352d1902d1461045d57600080fd5b8063248a9ca3146103635780632f2ff15d1461039357806334eddf3e146103b357806336568abe146103d357600080fd5b80630d8e6e2c116101ed5780630d8e6e2c146102d05780630e583dd2146102ee578063136e4d631461030e57806318160ddd1461032e57806323b872dd1461034357600080fd5b806301ffc9a71461021f57806306fdde0314610254578063081812fc14610276578063095ea7b3146102ae575b600080fd5b34801561022b57600080fd5b5061023f61023a36600461251c565b6106e1565b60405190151581526020015b60405180910390f35b34801561026057600080fd5b506102696106f2565b60405161024b9190612591565b34801561028257600080fd5b506102966102913660046125a4565b610784565b6040516001600160a01b03909116815260200161024b565b3480156102ba57600080fd5b506102ce6102c93660046125d2565b6107ab565b005b3480156102dc57600080fd5b5060015b60405190815260200161024b565b3480156102fa57600080fd5b506102ce6103093660046125d2565b6108c6565b34801561031a57600080fd5b506102ce6103293660046125fe565b610935565b34801561033a57600080fd5b506102e0610a39565b34801561034f57600080fd5b506102ce61035e36600461261b565b610a4a565b34801561036f57600080fd5b506102e061037e3660046125a4565b60009081526097602052604090206001015490565b34801561039f57600080fd5b506102ce6103ae36600461265c565b610a7b565b3480156103bf57600080fd5b506102ce6103ce3660046125a4565b610aa0565b3480156103df57600080fd5b506102ce6103ee36600461265c565b610b0f565b3480156103ff57600080fd5b506102ce61040e3660046125fe565b610b8d565b34801561041f57600080fd5b506102ce61042e36600461261b565b610c6d565b34801561043f57600080fd5b506102e06101315481565b6102ce61045836600461272f565b610c88565b34801561046957600080fd5b506102e0610d55565b34801561047e57600080fd5b506102ce61048d36600461277f565b610e08565b34801561049e57600080fd5b506102966104ad3660046125a4565b610e34565b3480156104be57600080fd5b50610269610e94565b3480156104d357600080fd5b506102e06104e23660046125fe565b610f23565b3480156104f357600080fd5b506104fc610fa9565b60405161024b91906127b4565b34801561051557600080fd5b5061013054610296906001600160a01b031681565b34801561053657600080fd5b5061012e54610296906001600160a01b031681565b34801561055757600080fd5b5061023f61056636600461265c565b611066565b34801561057757600080fd5b50610269611091565b34801561058c57600080fd5b506102e0600081565b3480156105a157600080fd5b506102ce6105b0366004612837565b6110a0565b3480156105c157600080fd5b506102ce6105d0366004612865565b6110ab565b3480156105e157600080fd5b506105f56105f03660046125fe565b6110dd565b60405161024b91906128d1565b34801561060e57600080fd5b5061012f54610296906001600160a01b031681565b34801561062f57600080fd5b5061026961063e3660046125a4565b6111b8565b34801561064f57600080fd5b506102ce61065e366004612915565b61121f565b34801561066f57600080fd5b506102ce61067e36600461265c565b611434565b34801561068f57600080fd5b5061023f61069e3660046129d7565b6001600160a01b039182166000908152606a6020908152604080832093909416825291909152205460ff1690565b3480156106d857600080fd5b506102e0600281565b60006106ec82611459565b92915050565b60606065805461070190612a05565b80601f016020809104026020016040519081016040528092919081815260200182805461072d90612a05565b801561077a5780601f1061074f5761010080835404028352916020019161077a565b820191906000526020600020905b81548152906001019060200180831161075d57829003601f168201915b5050505050905090565b600061078f8261147e565b506000908152606960205260409020546001600160a01b031690565b60006107b682610e34565b9050806001600160a01b0316836001600160a01b031614156108295760405162461bcd60e51b815260206004820152602160248201527f4552433732313a20617070726f76616c20746f2063757272656e74206f776e656044820152603960f91b60648201526084015b60405180910390fd5b336001600160a01b03821614806108455750610845813361069e565b6108b75760405162461bcd60e51b815260206004820152603e60248201527f4552433732313a20617070726f76652063616c6c6572206973206e6f7420746f60448201527f6b656e206f776e6572206e6f7220617070726f76656420666f7220616c6c00006064820152608401610820565b6108c183836114dd565b505050565b7f9f2df0fed2c77648de5860a4cc508cd0818c85b8b8a1ab4ceeef8d981c8956a66108f08161154b565b60005b8281101561092f5761090e8461090961012d5490565b611555565b61091d61012d80546001019055565b8061092781612a56565b9150506108f3565b50505050565b600080516020612e6283398151915261094d8161154b565b610130546040516301ffc9a760e01b80825260048201526001600160a01b03909116906301ffc9a79060240160206040518083038186803b15801561099157600080fd5b505afa1580156109a5573d6000803e3d6000fd5b505050506040513d601f19601f820116820180604052508101906109c99190612a71565b610a155760405162461bcd60e51b815260206004820152601f60248201527f436f6e747261637420646f6573206e6f7420737570706f7274204552433230006044820152606401610820565b5061013080546001600160a01b0319166001600160a01b0392909216919091179055565b6000610a4561012d5490565b905090565b610a54338261156f565b610a705760405162461bcd60e51b815260040161082090612a8e565b6108c1838383611696565b600082815260976020526040902060010154610a968161154b565b6108c18383611832565b600080516020612e62833981519152610ab88161154b565b600082118015610aca57506127108211155b610b085760405162461bcd60e51b815260206004820152600f60248201526e030203c20466565203c20313030303608c1b6044820152606401610820565b5061013155565b6001600160a01b0381163314610b7f5760405162461bcd60e51b815260206004820152602f60248201527f416363657373436f6e74726f6c3a2063616e206f6e6c792072656e6f756e636560448201526e103937b632b9903337b91039b2b63360891b6064820152608401610820565b610b8982826118b8565b5050565b306001600160a01b037f0000000000000000000000000000000000000000000000000000000000000000161415610bd65760405162461bcd60e51b815260040161082090612adc565b7f00000000000000000000000000000000000000000000000000000000000000006001600160a01b0316610c1f600080516020612e1b833981519152546001600160a01b031690565b6001600160a01b031614610c455760405162461bcd60e51b815260040161082090612b28565b610c4e8161191f565b60408051600080825260208201909252610c6a91839190611937565b50565b6108c1838383604051806020016040528060008152506110ab565b306001600160a01b037f0000000000000000000000000000000000000000000000000000000000000000161415610cd15760405162461bcd60e51b815260040161082090612adc565b7f00000000000000000000000000000000000000000000000000000000000000006001600160a01b0316610d1a600080516020612e1b833981519152546001600160a01b031690565b6001600160a01b031614610d405760405162461bcd60e51b815260040161082090612b28565b610d498261191f565b610b8982826001611937565b6000306001600160a01b037f00000000000000000000000000000000000000000000000000000000000000001614610df55760405162461bcd60e51b815260206004820152603860248201527f555550535570677261646561626c653a206d757374206e6f742062652063616c60448201527f6c6564207468726f7567682064656c656761746563616c6c00000000000000006064820152608401610820565b50600080516020612e1b83398151915290565b600080516020612e62833981519152610e208161154b565b81516108c19061013290602085019061246d565b6000818152606760205260408120546001600160a01b0316806106ec5760405162461bcd60e51b8152602060048201526018602482015277115490cdcc8c4e881a5b9d985b1a59081d1bdad95b88125160421b6044820152606401610820565b6101328054610ea290612a05565b80601f0160208091040260200160405190810160405280929190818152602001828054610ece90612a05565b8015610f1b5780601f10610ef057610100808354040283529160200191610f1b565b820191906000526020600020905b815481529060010190602001808311610efe57829003601f168201915b505050505081565b60006001600160a01b038216610f8d5760405162461bcd60e51b815260206004820152602960248201527f4552433732313a2061646472657373207a65726f206973206e6f7420612076616044820152683634b21037bbb732b960b91b6064820152608401610820565b506001600160a01b031660009081526068602052604090205490565b610fd46040518060800160405280606081526020016060815260200160608152602001606081525090565b610fdc6106f2565b8152610fe6611091565b6020820152610ffb6380ac58cd60e01b6106e1565b6110315760405180604001604052806014815260200173155b9adb9bdddb881a5b9d195c999858d9481a5960621b815250611051565b6040518060400160405280600681526020016545524337323160d01b8152505b604082015261105e611ab1565b606082015290565b60009182526097602090815260408084206001600160a01b0393909316845291905290205460ff1690565b60606066805461070190612a05565b610b89338383611ac1565b6110b5338361156f565b6110d15760405162461bcd60e51b815260040161082090612a8e565b61092f84848484611b90565b606060006110ea83610f23565b905060006110f861012d5490565b905060008267ffffffffffffffff8111156111155761111561268c565b60405190808252806020026020018201604052801561113e578160200160208202803683370190505b5090506000805b838110156111ad57866001600160a01b031661116082610e34565b6001600160a01b0316141561119b578083838151811061118257611182612b74565b60209081029190910101528161119781612a56565b9250505b806111a581612a56565b915050611145565b509095945050505050565b60606111c38261147e565b60006111cd611ab1565b905060008151116111ed5760405180602001604052806000815250611218565b806111f784611bc3565b604051602001611208929190612b8a565b6040516020818303038152906040525b9392505050565b600054610100900460ff161580801561123f5750600054600160ff909116105b806112595750303b158015611259575060005460ff166001145b6112bc5760405162461bcd60e51b815260206004820152602e60248201527f496e697469616c697a61626c653a20636f6e747261637420697320616c72656160448201526d191e481a5b9a5d1a585b1a5e995960921b6064820152608401610820565b6000805460ff1916600117905580156112df576000805461ff0019166101001790555b6112e98888611cc9565b6112f1611cfa565b6112f9611cfa565b61012e80546001600160a01b038088166001600160a01b03199283161790925561012f8054821633179055610130805492871692909116919091179055855161134a9061013290602089019061246d565b5061013183905561135c600033611d23565b611367600086610a7b565b61137f600080516020612e6283398151915286610a7b565b6113a97f9f2df0fed2c77648de5860a4cc508cd0818c85b8b8a1ab4ceeef8d981c8956a686610a7b565b60005b828110156113e3576113c28661090961012d5490565b6113d161012d80546001019055565b806113db81612a56565b9150506113ac565b50801561142a576000805461ff0019169055604051600181527f7f26b83ff96e1f2b6a682f133852f6798a09c465da95921460cefb38474024989060200160405180910390a15b5050505050505050565b60008281526097602052604090206001015461144f8161154b565b6108c183836118b8565b60006001600160e01b03198216637965db0b60e01b14806106ec57506106ec82611d2d565b6000818152606760205260409020546001600160a01b0316610c6a5760405162461bcd60e51b8152602060048201526018602482015277115490cdcc8c4e881a5b9d985b1a59081d1bdad95b88125160421b6044820152606401610820565b600081815260696020526040902080546001600160a01b0319166001600160a01b038416908117909155819061151282610e34565b6001600160a01b03167f8c5be1e5ebec7d5bd14f71427d1e84f3dd0314c0f7b2291e5b200ac8c7c3b92560405160405180910390a45050565b610c6a8133611d7d565b610b89828260405180602001604052806000815250611de1565b60008061157b83610e34565b9050600061012f60009054906101000a90046001600160a01b03166001600160a01b031663715e780f6040518163ffffffff1660e01b815260040160206040518083038186803b1580156115ce57600080fd5b505afa1580156115e2573d6000803e3d6000fd5b505050506040513d601f19601f820116820180604052508101906116069190612bb9565b9050816001600160a01b0316856001600160a01b0316148061164d57506001600160a01b038083166000908152606a602090815260408083209389168352929052205460ff165b806116715750846001600160a01b031661166685610784565b6001600160a01b0316145b8061168d5750806001600160a01b0316856001600160a01b0316145b95945050505050565b826001600160a01b03166116a982610e34565b6001600160a01b03161461170d5760405162461bcd60e51b815260206004820152602560248201527f4552433732313a207472616e736665722066726f6d20696e636f72726563742060448201526437bbb732b960d91b6064820152608401610820565b6001600160a01b03821661176f5760405162461bcd60e51b8152602060048201526024808201527f4552433732313a207472616e7366657220746f20746865207a65726f206164646044820152637265737360e01b6064820152608401610820565b61177a6000826114dd565b6001600160a01b03831660009081526068602052604081208054600192906117a3908490612bd6565b90915550506001600160a01b03821660009081526068602052604081208054600192906117d1908490612bed565b909155505060008181526067602052604080822080546001600160a01b0319166001600160a01b0386811691821790925591518493918716917fddf252ad1be2c89b69c2b068fc378daa952ba7f163c4a11628f55a4df523b3ef91a4505050565b61183c8282611066565b610b895760008281526097602090815260408083206001600160a01b03851684529091529020805460ff191660011790556118743390565b6001600160a01b0316816001600160a01b0316837f2f8788117e7eff1d82e926ec794901d17c78024a50270940304540a733656f0d60405160405180910390a45050565b6118c28282611066565b15610b895760008281526097602090815260408083206001600160a01b0385168085529252808320805460ff1916905551339285917ff6391f5c32d9c69d2a47ea670b442974b53935d1edc7fd64eb21e047a839171b9190a45050565b600080516020612e62833981519152610b898161154b565b7f4910fdfa16fed3260ed0e7147f7cc6da11a60208b5b9406d12a635614ffd91435460ff161561196a576108c183611e14565b826001600160a01b03166352d1902d6040518163ffffffff1660e01b815260040160206040518083038186803b1580156119a357600080fd5b505afa9250505080156119d3575060408051601f3d908101601f191682019092526119d091810190612c05565b60015b611a365760405162461bcd60e51b815260206004820152602e60248201527f45524331393637557067726164653a206e657720696d706c656d656e7461746960448201526d6f6e206973206e6f74205555505360901b6064820152608401610820565b600080516020612e1b8339815191528114611aa55760405162461bcd60e51b815260206004820152602960248201527f45524331393637557067726164653a20756e737570706f727465642070726f786044820152681a58589b195555525160ba1b6064820152608401610820565b506108c1838383611eb0565b6060610132805461070190612a05565b816001600160a01b0316836001600160a01b03161415611b235760405162461bcd60e51b815260206004820152601960248201527f4552433732313a20617070726f766520746f2063616c6c6572000000000000006044820152606401610820565b6001600160a01b038381166000818152606a6020908152604080832094871680845294825291829020805460ff191686151590811790915591519182527f17307eab39ab6107e8899845ad3d59bd9653f200f220920489ca2b5937696c31910160405180910390a3505050565b611b9b848484611696565b611ba784848484611ed5565b61092f5760405162461bcd60e51b815260040161082090612c1e565b606081611be75750506040805180820190915260018152600360fc1b602082015290565b8160005b8115611c115780611bfb81612a56565b9150611c0a9050600a83612c86565b9150611beb565b60008167ffffffffffffffff811115611c2c57611c2c61268c565b6040519080825280601f01601f191660200182016040528015611c56576020820181803683370190505b5090505b8415611cc157611c6b600183612bd6565b9150611c78600a86612c9a565b611c83906030612bed565b60f81b818381518110611c9857611c98612b74565b60200101906001600160f81b031916908160001a905350611cba600a86612c86565b9450611c5a565b949350505050565b600054610100900460ff16611cf05760405162461bcd60e51b815260040161082090612cae565b610b898282611fe2565b600054610100900460ff16611d215760405162461bcd60e51b815260040161082090612cae565b565b610b898282611832565b60006001600160e01b031982166380ac58cd60e01b1480611d5e57506001600160e01b03198216635b5e139f60e01b145b806106ec57506301ffc9a760e01b6001600160e01b03198316146106ec565b611d878282611066565b610b8957611d9f816001600160a01b03166014612030565b611daa836020612030565b604051602001611dbb929190612cf9565b60408051601f198184030181529082905262461bcd60e51b825261082091600401612591565b611deb83836121cc565b611df86000848484611ed5565b6108c15760405162461bcd60e51b815260040161082090612c1e565b6001600160a01b0381163b611e815760405162461bcd60e51b815260206004820152602d60248201527f455243313936373a206e657720696d706c656d656e746174696f6e206973206e60448201526c1bdd08184818dbdb9d1c9858dd609a1b6064820152608401610820565b600080516020612e1b83398151915280546001600160a01b0319166001600160a01b0392909216919091179055565b611eb98361230e565b600082511180611ec65750805b156108c15761092f838361234e565b60006001600160a01b0384163b15611fd757604051630a85bd0160e11b81526001600160a01b0385169063150b7a0290611f19903390899088908890600401612d6e565b602060405180830381600087803b158015611f3357600080fd5b505af1925050508015611f63575060408051601f3d908101601f19168201909252611f6091810190612dab565b60015b611fbd573d808015611f91576040519150601f19603f3d011682016040523d82523d6000602084013e611f96565b606091505b508051611fb55760405162461bcd60e51b815260040161082090612c1e565b805181602001fd5b6001600160e01b031916630a85bd0160e11b149050611cc1565b506001949350505050565b600054610100900460ff166120095760405162461bcd60e51b815260040161082090612cae565b815161201c90606590602085019061246d565b5080516108c190606690602084019061246d565b6060600061203f836002612dc8565b61204a906002612bed565b67ffffffffffffffff8111156120625761206261268c565b6040519080825280601f01601f19166020018201604052801561208c576020820181803683370190505b509050600360fc1b816000815181106120a7576120a7612b74565b60200101906001600160f81b031916908160001a905350600f60fb1b816001815181106120d6576120d6612b74565b60200101906001600160f81b031916908160001a90535060006120fa846002612dc8565b612105906001612bed565b90505b600181111561217d576f181899199a1a9b1b9c1cb0b131b232b360811b85600f166010811061213957612139612b74565b1a60f81b82828151811061214f5761214f612b74565b60200101906001600160f81b031916908160001a90535060049490941c9361217681612de7565b9050612108565b5083156112185760405162461bcd60e51b815260206004820181905260248201527f537472696e67733a20686578206c656e67746820696e73756666696369656e746044820152606401610820565b6001600160a01b0382166122225760405162461bcd60e51b815260206004820181905260248201527f4552433732313a206d696e7420746f20746865207a65726f20616464726573736044820152606401610820565b6000818152606760205260409020546001600160a01b0316156122875760405162461bcd60e51b815260206004820152601c60248201527f4552433732313a20746f6b656e20616c7265616479206d696e746564000000006044820152606401610820565b6001600160a01b03821660009081526068602052604081208054600192906122b0908490612bed565b909155505060008181526067602052604080822080546001600160a01b0319166001600160a01b03861690811790915590518392907fddf252ad1be2c89b69c2b068fc378daa952ba7f163c4a11628f55a4df523b3ef908290a45050565b61231781611e14565b6040516001600160a01b038216907fbc7cd75a20ee27fd9adebab32041f755214dbc6bffa90cc0225b39da2e5c2d3b90600090a250565b60606001600160a01b0383163b6123b65760405162461bcd60e51b815260206004820152602660248201527f416464726573733a2064656c65676174652063616c6c20746f206e6f6e2d636f6044820152651b9d1c9858dd60d21b6064820152608401610820565b600080846001600160a01b0316846040516123d19190612dfe565b600060405180830381855af49150503d806000811461240c576040519150601f19603f3d011682016040523d82523d6000602084013e612411565b606091505b509150915061168d8282604051806060016040528060278152602001612e3b6027913960608315612443575081611218565b8251156124535782518084602001fd5b8160405162461bcd60e51b81526004016108209190612591565b82805461247990612a05565b90600052602060002090601f01602090048101928261249b57600085556124e1565b82601f106124b457805160ff19168380011785556124e1565b828001600101855582156124e1579182015b828111156124e15782518255916020019190600101906124c6565b506124ed9291506124f1565b5090565b5b808211156124ed57600081556001016124f2565b6001600160e01b031981168114610c6a57600080fd5b60006020828403121561252e57600080fd5b813561121881612506565b60005b8381101561255457818101518382015260200161253c565b8381111561092f5750506000910152565b6000815180845261257d816020860160208601612539565b601f01601f19169290920160200192915050565b6020815260006112186020830184612565565b6000602082840312156125b657600080fd5b5035919050565b6001600160a01b0381168114610c6a57600080fd5b600080604083850312156125e557600080fd5b82356125f0816125bd565b946020939093013593505050565b60006020828403121561261057600080fd5b8135611218816125bd565b60008060006060848603121561263057600080fd5b833561263b816125bd565b9250602084013561264b816125bd565b929592945050506040919091013590565b6000806040838503121561266f57600080fd5b823591506020830135612681816125bd565b809150509250929050565b634e487b7160e01b600052604160045260246000fd5b600082601f8301126126b357600080fd5b813567ffffffffffffffff808211156126ce576126ce61268c565b604051601f8301601f19908116603f011681019082821181831017156126f6576126f661268c565b8160405283815286602085880101111561270f57600080fd5b836020870160208301376000602085830101528094505050505092915050565b6000806040838503121561274257600080fd5b823561274d816125bd565b9150602083013567ffffffffffffffff81111561276957600080fd5b612775858286016126a2565b9150509250929050565b60006020828403121561279157600080fd5b813567ffffffffffffffff8111156127a857600080fd5b611cc1848285016126a2565b6020815260008251608060208401526127d060a0840182612565565b90506020840151601f19808584030160408601526127ee8383612565565b9250604086015191508085840301606086015261280b8383612565565b925060608601519150808584030160808601525061168d8282612565565b8015158114610c6a57600080fd5b6000806040838503121561284a57600080fd5b8235612855816125bd565b9150602083013561268181612829565b6000806000806080858703121561287b57600080fd5b8435612886816125bd565b93506020850135612896816125bd565b925060408501359150606085013567ffffffffffffffff8111156128b957600080fd5b6128c5878288016126a2565b91505092959194509250565b6020808252825182820181905260009190848201906040850190845b81811015612909578351835292840192918401916001016128ed565b50909695505050505050565b600080600080600080600060e0888a03121561293057600080fd5b873567ffffffffffffffff8082111561294857600080fd5b6129548b838c016126a2565b985060208a013591508082111561296a57600080fd5b6129768b838c016126a2565b975060408a013591508082111561298c57600080fd5b506129998a828b016126a2565b95505060608801356129aa816125bd565b935060808801356129ba816125bd565b9699959850939692959460a0840135945060c09093013592915050565b600080604083850312156129ea57600080fd5b82356129f5816125bd565b91506020830135612681816125bd565b600181811c90821680612a1957607f821691505b60208210811415612a3a57634e487b7160e01b600052602260045260246000fd5b50919050565b634e487b7160e01b600052601160045260246000fd5b6000600019821415612a6a57612a6a612a40565b5060010190565b600060208284031215612a8357600080fd5b815161121881612829565b6020808252602e908201527f4552433732313a2063616c6c6572206973206e6f7420746f6b656e206f776e6560408201526d1c881b9bdc88185c1c1c9bdd995960921b606082015260800190565b6020808252602c908201527f46756e6374696f6e206d7573742062652063616c6c6564207468726f7567682060408201526b19195b1959d85d1958d85b1b60a21b606082015260800190565b6020808252602c908201527f46756e6374696f6e206d7573742062652063616c6c6564207468726f7567682060408201526b6163746976652070726f787960a01b606082015260800190565b634e487b7160e01b600052603260045260246000fd5b60008351612b9c818460208801612539565b835190830190612bb0818360208801612539565b01949350505050565b600060208284031215612bcb57600080fd5b8151611218816125bd565b600082821015612be857612be8612a40565b500390565b60008219821115612c0057612c00612a40565b500190565b600060208284031215612c1757600080fd5b5051919050565b60208082526032908201527f4552433732313a207472616e7366657220746f206e6f6e20455243373231526560408201527131b2b4bb32b91034b6b83632b6b2b73a32b960711b606082015260800190565b634e487b7160e01b600052601260045260246000fd5b600082612c9557612c95612c70565b500490565b600082612ca957612ca9612c70565b500690565b6020808252602b908201527f496e697469616c697a61626c653a20636f6e7472616374206973206e6f74206960408201526a6e697469616c697a696e6760a81b606082015260800190565b7f416363657373436f6e74726f6c3a206163636f756e7420000000000000000000815260008351612d31816017850160208801612539565b7001034b99036b4b9b9b4b733903937b6329607d1b6017918401918201528351612d62816028840160208801612539565b01602801949350505050565b6001600160a01b0385811682528416602082015260408101839052608060608201819052600090612da190830184612565565b9695505050505050565b600060208284031215612dbd57600080fd5b815161121881612506565b6000816000190483118215151615612de257612de2612a40565b500290565b600081612df657612df6612a40565b506000190190565b60008251612e10818460208701612539565b919091019291505056fe360894a13ba1a3210667c828492db98dca3e2076cc3735a920a3ca505d382bbc416464726573733a206c6f772d6c6576656c2064656c65676174652063616c6c206661696c6564a49807205ce4d355092ef5a8a18f56e8913cf4a201fbe287825b095693c21775a264697066735822122097737ab0a60d34fe8a1dae5f9b15c0eff4f690fd83dc465aafa2adaa6e9bc40c64736f6c63430008090033",
  "linkReferences": {},
  "deployedLinkReferences": {}
}