{
  "_format": "hh-sol-artifact-1",
  "contractName": "ERC721",
  "sourceName": "contracts/ERC721.sol",
  "abi": [
    {
      "anonymous": false,
      "inputs": [
        {
          "indexed": false,
          "internalType": "address",
          "name": "previousAdmin",
          "type": "address"
        },
        {
          "indexed": false,
          "internalType": "address",
          "name": "newAdmin",
          "type": "address"
        }
      ],
      "name": "AdminChanged",
      "type": "event"
    },
    {
      "anonymous": false,
      "inputs": [
        {
          "indexed": true,
          "internalType": "address",
          "name": "owner",
          "type": "address"
        },
        {
          "indexed": true,
          "internalType": "address",
          "name": "approved",
          "type": "address"
        },
        {
          "indexed": true,
          "internalType": "uint256",
          "name": "tokenId",
          "type": "uint256"
        }
      ],
      "name": "Approval",
      "type": "event"
    },
    {
      "anonymous": false,
      "inputs": [
        {
          "indexed": true,
          "internalType": "address",
          "name": "owner",
          "type": "address"
        },
        {
          "indexed": true,
          "internalType": "address",
          "name": "operator",
          "type": "address"
        },
        {
          "indexed": false,
          "internalType": "bool",
          "name": "approved",
          "type": "bool"
        }
      ],
      "name": "ApprovalForAll",
      "type": "event"
    },
    {
      "anonymous": false,
      "inputs": [
        {
          "indexed": true,
          "internalType": "address",
          "name": "beacon",
          "type": "address"
        }
      ],
      "name": "BeaconUpgraded",
      "type": "event"
    },
    {
      "anonymous": false,
      "inputs": [
        {
          "indexed": false,
          "internalType": "uint8",
          "name": "version",
          "type": "uint8"
        }
      ],
      "name": "Initialized",
      "type": "event"
    },
    {
      "anonymous": false,
      "inputs": [
        {
          "indexed": true,
          "internalType": "bytes32",
          "name": "role",
          "type": "bytes32"
        },
        {
          "indexed": true,
          "internalType": "bytes32",
          "name": "previousAdminRole",
          "type": "bytes32"
        },
        {
          "indexed": true,
          "internalType": "bytes32",
          "name": "newAdminRole",
          "type": "bytes32"
        }
      ],
      "name": "RoleAdminChanged",
      "type": "event"
    },
    {
      "anonymous": false,
      "inputs": [
        {
          "indexed": true,
          "internalType": "bytes32",
          "name": "role",
          "type": "bytes32"
        },
        {
          "indexed": true,
          "internalType": "address",
          "name": "account",
          "type": "address"
        },
        {
          "indexed": true,
          "internalType": "address",
          "name": "sender",
          "type": "address"
        }
      ],
      "name": "RoleGranted",
      "type": "event"
    },
    {
      "anonymous": false,
      "inputs": [
        {
          "indexed": true,
          "internalType": "bytes32",
          "name": "role",
          "type": "bytes32"
        },
        {
          "indexed": true,
          "internalType": "address",
          "name": "account",
          "type": "address"
        },
        {
          "indexed": true,
          "internalType": "address",
          "name": "sender",
          "type": "address"
        }
      ],
      "name": "RoleRevoked",
      "type": "event"
    },
    {
      "anonymous": false,
      "inputs": [
        {
          "indexed": true,
          "internalType": "address",
          "name": "from",
          "type": "address"
        },
        {
          "indexed": true,
          "internalType": "address",
          "name": "to",
          "type": "address"
        },
        {
          "indexed": true,
          "internalType": "uint256",
          "name": "tokenId",
          "type": "uint256"
        }
      ],
      "name": "Transfer",
      "type": "event"
    },
    {
      "anonymous": false,
      "inputs": [
        {
          "indexed": true,
          "internalType": "address",
          "name": "implementation",
          "type": "address"
        }
      ],
      "name": "Upgraded",
      "type": "event"
    },
    {
      "inputs": [],
      "name": "DEFAULT_ADMIN_ROLE",
      "outputs": [
        {
          "internalType": "bytes32",
          "name": "",
          "type": "bytes32"
        }
      ],
      "stateMutability": "view",
      "type": "function"
    },
    {
      "inputs": [
        {
          "internalType": "address",
          "name": "to",
          "type": "address"
        },
        {
          "internalType": "uint256",
          "name": "tokenId",
          "type": "uint256"
        }
      ],
      "name": "approve",
      "outputs": [],
      "stateMutability": "nonpayable",
      "type": "function"
    },
    {
      "inputs": [
        {
          "internalType": "address",
          "name": "owner",
          "type": "address"
        }
      ],
      "name": "balanceOf",
      "outputs": [
        {
          "internalType": "uint256",
          "name": "",
          "type": "uint256"
        }
      ],
      "stateMutability": "view",
      "type": "function"
    },
    {
      "inputs": [],
      "name": "baseURI",
      "outputs": [
        {
          "internalType": "string",
          "name": "",
          "type": "string"
        }
      ],
      "stateMutability": "view",
      "type": "function"
    },
    {
      "inputs": [
        {
          "internalType": "uint256",
          "name": "_percentFee",
          "type": "uint256"
        }
      ],
      "name": "changeFeePercent",
      "outputs": [],
      "stateMutability": "nonpayable",
      "type": "function"
    },
    {
      "inputs": [],
      "name": "factory",
      "outputs": [
        {
          "internalType": "address",
          "name": "",
          "type": "address"
        }
      ],
      "stateMutability": "view",
      "type": "function"
    },
    {
      "inputs": [
        {
          "internalType": "address",
          "name": "account",
          "type": "address"
        }
      ],
      "name": "getAllIds",
      "outputs": [
        {
          "internalType": "uint256[]",
          "name": "",
          "type": "uint256[]"
        }
      ],
      "stateMutability": "view",
      "type": "function"
    },
    {
      "inputs": [
        {
          "internalType": "uint256",
          "name": "tokenId",
          "type": "uint256"
        }
      ],
      "name": "getApproved",
      "outputs": [
        {
          "internalType": "address",
          "name": "",
          "type": "address"
        }
      ],
      "stateMutability": "view",
      "type": "function"
    },
    {
      "inputs": [
        {
          "internalType": "bytes32",
          "name": "role",
          "type": "bytes32"
        }
      ],
      "name": "getRoleAdmin",
      "outputs": [
        {
          "internalType": "bytes32",
          "name": "",
          "type": "bytes32"
        }
      ],
      "stateMutability": "view",
      "type": "function"
    },
    {
      "inputs": [],
      "name": "getVersion",
      "outputs": [
        {
          "internalType": "uint256",
          "name": "",
          "type": "uint256"
        }
      ],
      "stateMutability": "pure",
      "type": "function"
    },
    {
      "inputs": [
        {
          "internalType": "bytes32",
          "name": "role",
          "type": "bytes32"
        },
        {
          "internalType": "address",
          "name": "account",
          "type": "address"
        }
      ],
      "name": "grantRole",
      "outputs": [],
      "stateMutability": "nonpayable",
      "type": "function"
    },
    {
      "inputs": [
        {
          "internalType": "bytes32",
          "name": "role",
          "type": "bytes32"
        },
        {
          "internalType": "address",
          "name": "account",
          "type": "address"
        }
      ],
      "name": "hasRole",
      "outputs": [
        {
          "internalType": "bool",
          "name": "",
          "type": "bool"
        }
      ],
      "stateMutability": "view",
      "type": "function"
    },
    {
      "inputs": [
        {
          "internalType": "string",
          "name": "name_",
          "type": "string"
        },
        {
          "internalType": "string",
          "name": "symbol_",
          "type": "string"
        },
        {
          "internalType": "string",
          "name": "baseURI_",
          "type": "string"
        },
        {
          "internalType": "address",
          "name": "owner_",
          "type": "address"
        },
        {
          "internalType": "uint256",
          "name": "percentFee_",
          "type": "uint256"
        },
        {
          "internalType": "uint256",
          "name": "amount_",
          "type": "uint256"
        }
      ],
      "name": "initialize",
      "outputs": [],
      "stateMutability": "nonpayable",
      "type": "function"
    },
    {
      "inputs": [
        {
          "internalType": "address",
          "name": "owner",
          "type": "address"
        },
        {
          "internalType": "address",
          "name": "operator",
          "type": "address"
        }
      ],
      "name": "isApprovedForAll",
      "outputs": [
        {
          "internalType": "bool",
          "name": "",
          "type": "bool"
        }
      ],
      "stateMutability": "view",
      "type": "function"
    },
    {
      "inputs": [
        {
          "internalType": "address",
          "name": "to",
          "type": "address"
        },
        {
          "internalType": "uint256",
          "name": "amount",
          "type": "uint256"
        }
      ],
      "name": "mintAmount",
      "outputs": [],
      "stateMutability": "nonpayable",
      "type": "function"
    },
    {
      "inputs": [],
      "name": "name",
      "outputs": [
        {
          "internalType": "string",
          "name": "",
          "type": "string"
        }
      ],
      "stateMutability": "view",
      "type": "function"
    },
    {
      "inputs": [],
      "name": "owner",
      "outputs": [
        {
          "internalType": "address",
          "name": "",
          "type": "address"
        }
      ],
      "stateMutability": "view",
      "type": "function"
    },
    {
      "inputs": [
        {
          "internalType": "uint256",
          "name": "tokenId",
          "type": "uint256"
        }
      ],
      "name": "ownerOf",
      "outputs": [
        {
          "internalType": "address",
          "name": "",
          "type": "address"
        }
      ],
      "stateMutability": "view",
      "type": "function"
    },
    {
      "inputs": [],
      "name": "percentDecimals",
      "outputs": [
        {
          "internalType": "uint256",
          "name": "",
          "type": "uint256"
        }
      ],
      "stateMutability": "view",
      "type": "function"
    },
    {
      "inputs": [],
      "name": "percentFee",
      "outputs": [
        {
          "internalType": "uint256",
          "name": "",
          "type": "uint256"
        }
      ],
      "stateMutability": "view",
      "type": "function"
    },
    {
      "inputs": [],
      "name": "proxiableUUID",
      "outputs": [
        {
          "internalType": "bytes32",
          "name": "",
          "type": "bytes32"
        }
      ],
      "stateMutability": "view",
      "type": "function"
    },
    {
      "inputs": [
        {
          "internalType": "bytes32",
          "name": "role",
          "type": "bytes32"
        },
        {
          "internalType": "address",
          "name": "account",
          "type": "address"
        }
      ],
      "name": "renounceRole",
      "outputs": [],
      "stateMutability": "nonpayable",
      "type": "function"
    },
    {
      "inputs": [
        {
          "internalType": "bytes32",
          "name": "role",
          "type": "bytes32"
        },
        {
          "internalType": "address",
          "name": "account",
          "type": "address"
        }
      ],
      "name": "revokeRole",
      "outputs": [],
      "stateMutability": "nonpayable",
      "type": "function"
    },
    {
      "inputs": [
        {
          "internalType": "address",
          "name": "from",
          "type": "address"
        },
        {
          "internalType": "address",
          "name": "to",
          "type": "address"
        },
        {
          "internalType": "uint256",
          "name": "tokenId",
          "type": "uint256"
        }
      ],
      "name": "safeTransferFrom",
      "outputs": [],
      "stateMutability": "nonpayable",
      "type": "function"
    },
    {
      "inputs": [
        {
          "internalType": "address",
          "name": "from",
          "type": "address"
        },
        {
          "internalType": "address",
          "name": "to",
          "type": "address"
        },
        {
          "internalType": "uint256",
          "name": "tokenId",
          "type": "uint256"
        },
        {
          "internalType": "bytes",
          "name": "data",
          "type": "bytes"
        }
      ],
      "name": "safeTransferFrom",
      "outputs": [],
      "stateMutability": "nonpayable",
      "type": "function"
    },
    {
      "inputs": [
        {
          "internalType": "address",
          "name": "operator",
          "type": "address"
        },
        {
          "internalType": "bool",
          "name": "approved",
          "type": "bool"
        }
      ],
      "name": "setApprovalForAll",
      "outputs": [],
      "stateMutability": "nonpayable",
      "type": "function"
    },
    {
      "inputs": [
        {
          "internalType": "string",
          "name": "baseURI_",
          "type": "string"
        }
      ],
      "name": "setBaseURI",
      "outputs": [],
      "stateMutability": "nonpayable",
      "type": "function"
    },
    {
      "inputs": [
        {
          "internalType": "bytes4",
          "name": "interfaceId",
          "type": "bytes4"
        }
      ],
      "name": "supportsInterface",
      "outputs": [
        {
          "internalType": "bool",
          "name": "",
          "type": "bool"
        }
      ],
      "stateMutability": "view",
      "type": "function"
    },
    {
      "inputs": [],
      "name": "symbol",
      "outputs": [
        {
          "internalType": "string",
          "name": "",
          "type": "string"
        }
      ],
      "stateMutability": "view",
      "type": "function"
    },
    {
      "inputs": [
        {
          "internalType": "uint256",
          "name": "tokenId",
          "type": "uint256"
        }
      ],
      "name": "tokenURI",
      "outputs": [
        {
          "internalType": "string",
          "name": "",
          "type": "string"
        }
      ],
      "stateMutability": "view",
      "type": "function"
    },
    {
      "inputs": [],
      "name": "totalSupply",
      "outputs": [
        {
          "internalType": "uint256",
          "name": "",
          "type": "uint256"
        }
      ],
      "stateMutability": "view",
      "type": "function"
    },
    {
      "inputs": [
        {
          "internalType": "address",
          "name": "from",
          "type": "address"
        },
        {
          "internalType": "address",
          "name": "to",
          "type": "address"
        },
        {
          "internalType": "uint256",
          "name": "tokenId",
          "type": "uint256"
        }
      ],
      "name": "transferFrom",
      "outputs": [],
      "stateMutability": "nonpayable",
      "type": "function"
    },
    {
      "inputs": [
        {
          "internalType": "address",
          "name": "newImplementation",
          "type": "address"
        }
      ],
      "name": "upgradeTo",
      "outputs": [],
      "stateMutability": "nonpayable",
      "type": "function"
    },
    {
      "inputs": [
        {
          "internalType": "address",
          "name": "newImplementation",
          "type": "address"
        },
        {
          "internalType": "bytes",
          "name": "data",
          "type": "bytes"
        }
      ],
      "name": "upgradeToAndCall",
      "outputs": [],
      "stateMutability": "payable",
      "type": "function"
    }
  ],
  "bytecode": "0x60a06040523060805234801561001457600080fd5b50608051612baf61004c60003960008181610a1001528181610a5001528181610b0b01528181610b4b0152610bda0152612baf6000f3fe6080604052600436106101f95760003560e01c806355f804b31161010d578063a217fddf116100a0578063c45a01551161006f578063c45a01551461059e578063c87b56dd146105bf578063d547741f146105df578063e985e9c5146105ff578063f75195bc1461064857600080fd5b8063a217fddf1461051c578063a22cb46514610531578063b88d4fde14610551578063b9f666f91461057157600080fd5b8063767faf5d116100dc578063767faf5d146104a65780638da5cb5b146104c657806391d14854146104e757806395d89b411461050757600080fd5b806355f804b3146104315780636352211e146104515780636c0360eb1461047157806370a082311461048657600080fd5b8063248a9ca3116101905780633659cfe61161015f5780633659cfe6146103b257806342842e0e146103d25780634c1a4115146103f25780634f1ef2861461040957806352d1902d1461041c57600080fd5b8063248a9ca3146103225780632f2ff15d1461035257806334eddf3e1461037257806336568abe1461039257600080fd5b80630d8e6e2c116101cc5780630d8e6e2c146102af5780630e583dd2146102cd57806318160ddd146102ed57806323b872dd1461030257600080fd5b806301ffc9a7146101fe57806306fdde0314610233578063081812fc14610255578063095ea7b31461028d575b600080fd5b34801561020a57600080fd5b5061021e6102193660046122c4565b61065d565b60405190151581526020015b60405180910390f35b34801561023f57600080fd5b5061024861066e565b60405161022a9190612339565b34801561026157600080fd5b5061027561027036600461234c565b610700565b6040516001600160a01b03909116815260200161022a565b34801561029957600080fd5b506102ad6102a836600461237a565b610727565b005b3480156102bb57600080fd5b5060015b60405190815260200161022a565b3480156102d957600080fd5b506102ad6102e836600461237a565b610842565b3480156102f957600080fd5b506102bf6108b1565b34801561030e57600080fd5b506102ad61031d3660046123a6565b6108c2565b34801561032e57600080fd5b506102bf61033d36600461234c565b60009081526097602052604090206001015490565b34801561035e57600080fd5b506102ad61036d3660046123e7565b6108f3565b34801561037e57600080fd5b506102ad61038d36600461234c565b610918565b34801561039e57600080fd5b506102ad6103ad3660046123e7565b610987565b3480156103be57600080fd5b506102ad6103cd366004612417565b610a05565b3480156103de57600080fd5b506102ad6103ed3660046123a6565b610ae5565b3480156103fe57600080fd5b506102bf6101305481565b6102ad6104173660046124d7565b610b00565b34801561042857600080fd5b506102bf610bcd565b34801561043d57600080fd5b506102ad61044c366004612527565b610c80565b34801561045d57600080fd5b5061027561046c36600461234c565b610cac565b34801561047d57600080fd5b50610248610d0c565b34801561049257600080fd5b506102bf6104a1366004612417565b610d9b565b3480156104b257600080fd5b506102ad6104c136600461255c565b610e21565b3480156104d257600080fd5b5061012e54610275906001600160a01b031681565b3480156104f357600080fd5b5061021e6105023660046123e7565b611023565b34801561051357600080fd5b5061024861104e565b34801561052857600080fd5b506102bf600081565b34801561053d57600080fd5b506102ad61054c366004612609565b61105d565b34801561055d57600080fd5b506102ad61056c36600461263c565b611068565b34801561057d57600080fd5b5061059161058c366004612417565b61109a565b60405161022a91906126a8565b3480156105aa57600080fd5b5061012f54610275906001600160a01b031681565b3480156105cb57600080fd5b506102486105da36600461234c565b611175565b3480156105eb57600080fd5b506102ad6105fa3660046123e7565b6111dc565b34801561060b57600080fd5b5061021e61061a3660046126ec565b6001600160a01b039182166000908152606a6020908152604080832093909416825291909152205460ff1690565b34801561065457600080fd5b506102bf600281565b600061066882611201565b92915050565b60606065805461067d9061271a565b80601f01602080910402602001604051908101604052809291908181526020018280546106a99061271a565b80156106f65780601f106106cb576101008083540402835291602001916106f6565b820191906000526020600020905b8154815290600101906020018083116106d957829003601f168201915b5050505050905090565b600061070b82611226565b506000908152606960205260409020546001600160a01b031690565b600061073282610cac565b9050806001600160a01b0316836001600160a01b031614156107a55760405162461bcd60e51b815260206004820152602160248201527f4552433732313a20617070726f76616c20746f2063757272656e74206f776e656044820152603960f91b60648201526084015b60405180910390fd5b336001600160a01b03821614806107c157506107c1813361061a565b6108335760405162461bcd60e51b815260206004820152603e60248201527f4552433732313a20617070726f76652063616c6c6572206973206e6f7420746f60448201527f6b656e206f776e6572206e6f7220617070726f76656420666f7220616c6c0000606482015260840161079c565b61083d8383611285565b505050565b7f9f2df0fed2c77648de5860a4cc508cd0818c85b8b8a1ab4ceeef8d981c8956a661086c816112f3565b60005b828110156108ab5761088a8461088561012d5490565b6112fd565b61089961012d80546001019055565b806108a38161276b565b91505061086f565b50505050565b60006108bd61012d5490565b905090565b6108cc3382611317565b6108e85760405162461bcd60e51b815260040161079c90612786565b61083d83838361143e565b60008281526097602052604090206001015461090e816112f3565b61083d83836115da565b600080516020612b5a833981519152610930816112f3565b60008211801561094257506127108211155b6109805760405162461bcd60e51b815260206004820152600f60248201526e030203c20466565203c20313030303608c1b604482015260640161079c565b5061013055565b6001600160a01b03811633146109f75760405162461bcd60e51b815260206004820152602f60248201527f416363657373436f6e74726f6c3a2063616e206f6e6c792072656e6f756e636560448201526e103937b632b9903337b91039b2b63360891b606482015260840161079c565b610a018282611660565b5050565b306001600160a01b037f0000000000000000000000000000000000000000000000000000000000000000161415610a4e5760405162461bcd60e51b815260040161079c906127d4565b7f00000000000000000000000000000000000000000000000000000000000000006001600160a01b0316610a97600080516020612b13833981519152546001600160a01b031690565b6001600160a01b031614610abd5760405162461bcd60e51b815260040161079c90612820565b610ac6816116c7565b60408051600080825260208201909252610ae2918391906116df565b50565b61083d83838360405180602001604052806000815250611068565b306001600160a01b037f0000000000000000000000000000000000000000000000000000000000000000161415610b495760405162461bcd60e51b815260040161079c906127d4565b7f00000000000000000000000000000000000000000000000000000000000000006001600160a01b0316610b92600080516020612b13833981519152546001600160a01b031690565b6001600160a01b031614610bb85760405162461bcd60e51b815260040161079c90612820565b610bc1826116c7565b610a01828260016116df565b6000306001600160a01b037f00000000000000000000000000000000000000000000000000000000000000001614610c6d5760405162461bcd60e51b815260206004820152603860248201527f555550535570677261646561626c653a206d757374206e6f742062652063616c60448201527f6c6564207468726f7567682064656c656761746563616c6c0000000000000000606482015260840161079c565b50600080516020612b1383398151915290565b600080516020612b5a833981519152610c98816112f3565b815161083d90610131906020850190612215565b6000818152606760205260408120546001600160a01b0316806106685760405162461bcd60e51b8152602060048201526018602482015277115490cdcc8c4e881a5b9d985b1a59081d1bdad95b88125160421b604482015260640161079c565b6101318054610d1a9061271a565b80601f0160208091040260200160405190810160405280929190818152602001828054610d469061271a565b8015610d935780601f10610d6857610100808354040283529160200191610d93565b820191906000526020600020905b815481529060010190602001808311610d7657829003601f168201915b505050505081565b60006001600160a01b038216610e055760405162461bcd60e51b815260206004820152602960248201527f4552433732313a2061646472657373207a65726f206973206e6f7420612076616044820152683634b21037bbb732b960b91b606482015260840161079c565b506001600160a01b031660009081526068602052604090205490565b600054610100900460ff1615808015610e415750600054600160ff909116105b80610e5b5750303b158015610e5b575060005460ff166001145b610ebe5760405162461bcd60e51b815260206004820152602e60248201527f496e697469616c697a61626c653a20636f6e747261637420697320616c72656160448201526d191e481a5b9a5d1a585b1a5e995960921b606482015260840161079c565b6000805460ff191660011790558015610ee1576000805461ff0019166101001790555b610eeb8787611859565b610ef361188a565b610efb61188a565b61012e80546001600160a01b0386166001600160a01b03199182161790915561012f8054909116331790558451610f3a90610131906020880190612215565b50610130839055610f4c6000336118b3565b610f576000856108f3565b610f6f600080516020612b5a833981519152856108f3565b610f997f9f2df0fed2c77648de5860a4cc508cd0818c85b8b8a1ab4ceeef8d981c8956a6856108f3565b60005b82811015610fd357610fb28561088561012d5490565b610fc161012d80546001019055565b80610fcb8161276b565b915050610f9c565b50801561101a576000805461ff0019169055604051600181527f7f26b83ff96e1f2b6a682f133852f6798a09c465da95921460cefb38474024989060200160405180910390a15b50505050505050565b60009182526097602090815260408084206001600160a01b0393909316845291905290205460ff1690565b60606066805461067d9061271a565b610a013383836118bd565b6110723383611317565b61108e5760405162461bcd60e51b815260040161079c90612786565b6108ab8484848461198c565b606060006110a783610d9b565b905060006110b561012d5490565b905060008267ffffffffffffffff8111156110d2576110d2612434565b6040519080825280602002602001820160405280156110fb578160200160208202803683370190505b5090506000805b8381101561116a57866001600160a01b031661111d82610cac565b6001600160a01b03161415611158578083838151811061113f5761113f61286c565b6020908102919091010152816111548161276b565b9250505b806111628161276b565b915050611102565b509095945050505050565b606061118082611226565b600061118a6119bf565b905060008151116111aa57604051806020016040528060008152506111d5565b806111b4846119cf565b6040516020016111c5929190612882565b6040516020818303038152906040525b9392505050565b6000828152609760205260409020600101546111f7816112f3565b61083d8383611660565b60006001600160e01b03198216637965db0b60e01b1480610668575061066882611ad5565b6000818152606760205260409020546001600160a01b0316610ae25760405162461bcd60e51b8152602060048201526018602482015277115490cdcc8c4e881a5b9d985b1a59081d1bdad95b88125160421b604482015260640161079c565b600081815260696020526040902080546001600160a01b0319166001600160a01b03841690811790915581906112ba82610cac565b6001600160a01b03167f8c5be1e5ebec7d5bd14f71427d1e84f3dd0314c0f7b2291e5b200ac8c7c3b92560405160405180910390a45050565b610ae28133611b25565b610a01828260405180602001604052806000815250611b89565b60008061132383610cac565b9050600061012f60009054906101000a90046001600160a01b03166001600160a01b031663715e780f6040518163ffffffff1660e01b815260040160206040518083038186803b15801561137657600080fd5b505afa15801561138a573d6000803e3d6000fd5b505050506040513d601f19601f820116820180604052508101906113ae91906128b1565b9050816001600160a01b0316856001600160a01b031614806113f557506001600160a01b038083166000908152606a602090815260408083209389168352929052205460ff165b806114195750846001600160a01b031661140e85610700565b6001600160a01b0316145b806114355750806001600160a01b0316856001600160a01b0316145b95945050505050565b826001600160a01b031661145182610cac565b6001600160a01b0316146114b55760405162461bcd60e51b815260206004820152602560248201527f4552433732313a207472616e736665722066726f6d20696e636f72726563742060448201526437bbb732b960d91b606482015260840161079c565b6001600160a01b0382166115175760405162461bcd60e51b8152602060048201526024808201527f4552433732313a207472616e7366657220746f20746865207a65726f206164646044820152637265737360e01b606482015260840161079c565b611522600082611285565b6001600160a01b038316600090815260686020526040812080546001929061154b9084906128ce565b90915550506001600160a01b03821660009081526068602052604081208054600192906115799084906128e5565b909155505060008181526067602052604080822080546001600160a01b0319166001600160a01b0386811691821790925591518493918716917fddf252ad1be2c89b69c2b068fc378daa952ba7f163c4a11628f55a4df523b3ef91a4505050565b6115e48282611023565b610a015760008281526097602090815260408083206001600160a01b03851684529091529020805460ff1916600117905561161c3390565b6001600160a01b0316816001600160a01b0316837f2f8788117e7eff1d82e926ec794901d17c78024a50270940304540a733656f0d60405160405180910390a45050565b61166a8282611023565b15610a015760008281526097602090815260408083206001600160a01b0385168085529252808320805460ff1916905551339285917ff6391f5c32d9c69d2a47ea670b442974b53935d1edc7fd64eb21e047a839171b9190a45050565b600080516020612b5a833981519152610a01816112f3565b7f4910fdfa16fed3260ed0e7147f7cc6da11a60208b5b9406d12a635614ffd91435460ff16156117125761083d83611bbc565b826001600160a01b03166352d1902d6040518163ffffffff1660e01b815260040160206040518083038186803b15801561174b57600080fd5b505afa92505050801561177b575060408051601f3d908101601f19168201909252611778918101906128fd565b60015b6117de5760405162461bcd60e51b815260206004820152602e60248201527f45524331393637557067726164653a206e657720696d706c656d656e7461746960448201526d6f6e206973206e6f74205555505360901b606482015260840161079c565b600080516020612b13833981519152811461184d5760405162461bcd60e51b815260206004820152602960248201527f45524331393637557067726164653a20756e737570706f727465642070726f786044820152681a58589b195555525160ba1b606482015260840161079c565b5061083d838383611c58565b600054610100900460ff166118805760405162461bcd60e51b815260040161079c90612916565b610a018282611c7d565b600054610100900460ff166118b15760405162461bcd60e51b815260040161079c90612916565b565b610a0182826115da565b816001600160a01b0316836001600160a01b0316141561191f5760405162461bcd60e51b815260206004820152601960248201527f4552433732313a20617070726f766520746f2063616c6c657200000000000000604482015260640161079c565b6001600160a01b038381166000818152606a6020908152604080832094871680845294825291829020805460ff191686151590811790915591519182527f17307eab39ab6107e8899845ad3d59bd9653f200f220920489ca2b5937696c31910160405180910390a3505050565b61199784848461143e565b6119a384848484611ccb565b6108ab5760405162461bcd60e51b815260040161079c90612961565b6060610131805461067d9061271a565b6060816119f35750506040805180820190915260018152600360fc1b602082015290565b8160005b8115611a1d5780611a078161276b565b9150611a169050600a836129c9565b91506119f7565b60008167ffffffffffffffff811115611a3857611a38612434565b6040519080825280601f01601f191660200182016040528015611a62576020820181803683370190505b5090505b8415611acd57611a776001836128ce565b9150611a84600a866129dd565b611a8f9060306128e5565b60f81b818381518110611aa457611aa461286c565b60200101906001600160f81b031916908160001a905350611ac6600a866129c9565b9450611a66565b949350505050565b60006001600160e01b031982166380ac58cd60e01b1480611b0657506001600160e01b03198216635b5e139f60e01b145b8061066857506301ffc9a760e01b6001600160e01b0319831614610668565b611b2f8282611023565b610a0157611b47816001600160a01b03166014611dd8565b611b52836020611dd8565b604051602001611b639291906129f1565b60408051601f198184030181529082905262461bcd60e51b825261079c91600401612339565b611b938383611f74565b611ba06000848484611ccb565b61083d5760405162461bcd60e51b815260040161079c90612961565b6001600160a01b0381163b611c295760405162461bcd60e51b815260206004820152602d60248201527f455243313936373a206e657720696d706c656d656e746174696f6e206973206e60448201526c1bdd08184818dbdb9d1c9858dd609a1b606482015260840161079c565b600080516020612b1383398151915280546001600160a01b0319166001600160a01b0392909216919091179055565b611c61836120b6565b600082511180611c6e5750805b1561083d576108ab83836120f6565b600054610100900460ff16611ca45760405162461bcd60e51b815260040161079c90612916565b8151611cb7906065906020850190612215565b50805161083d906066906020840190612215565b60006001600160a01b0384163b15611dcd57604051630a85bd0160e11b81526001600160a01b0385169063150b7a0290611d0f903390899088908890600401612a66565b602060405180830381600087803b158015611d2957600080fd5b505af1925050508015611d59575060408051601f3d908101601f19168201909252611d5691810190612aa3565b60015b611db3573d808015611d87576040519150601f19603f3d011682016040523d82523d6000602084013e611d8c565b606091505b508051611dab5760405162461bcd60e51b815260040161079c90612961565b805181602001fd5b6001600160e01b031916630a85bd0160e11b149050611acd565b506001949350505050565b60606000611de7836002612ac0565b611df29060026128e5565b67ffffffffffffffff811115611e0a57611e0a612434565b6040519080825280601f01601f191660200182016040528015611e34576020820181803683370190505b509050600360fc1b81600081518110611e4f57611e4f61286c565b60200101906001600160f81b031916908160001a905350600f60fb1b81600181518110611e7e57611e7e61286c565b60200101906001600160f81b031916908160001a9053506000611ea2846002612ac0565b611ead9060016128e5565b90505b6001811115611f25576f181899199a1a9b1b9c1cb0b131b232b360811b85600f1660108110611ee157611ee161286c565b1a60f81b828281518110611ef757611ef761286c565b60200101906001600160f81b031916908160001a90535060049490941c93611f1e81612adf565b9050611eb0565b5083156111d55760405162461bcd60e51b815260206004820181905260248201527f537472696e67733a20686578206c656e67746820696e73756666696369656e74604482015260640161079c565b6001600160a01b038216611fca5760405162461bcd60e51b815260206004820181905260248201527f4552433732313a206d696e7420746f20746865207a65726f2061646472657373604482015260640161079c565b6000818152606760205260409020546001600160a01b03161561202f5760405162461bcd60e51b815260206004820152601c60248201527f4552433732313a20746f6b656e20616c7265616479206d696e74656400000000604482015260640161079c565b6001600160a01b03821660009081526068602052604081208054600192906120589084906128e5565b909155505060008181526067602052604080822080546001600160a01b0319166001600160a01b03861690811790915590518392907fddf252ad1be2c89b69c2b068fc378daa952ba7f163c4a11628f55a4df523b3ef908290a45050565b6120bf81611bbc565b6040516001600160a01b038216907fbc7cd75a20ee27fd9adebab32041f755214dbc6bffa90cc0225b39da2e5c2d3b90600090a250565b60606001600160a01b0383163b61215e5760405162461bcd60e51b815260206004820152602660248201527f416464726573733a2064656c65676174652063616c6c20746f206e6f6e2d636f6044820152651b9d1c9858dd60d21b606482015260840161079c565b600080846001600160a01b0316846040516121799190612af6565b600060405180830381855af49150503d80600081146121b4576040519150601f19603f3d011682016040523d82523d6000602084013e6121b9565b606091505b50915091506114358282604051806060016040528060278152602001612b3360279139606083156121eb5750816111d5565b8251156121fb5782518084602001fd5b8160405162461bcd60e51b815260040161079c9190612339565b8280546122219061271a565b90600052602060002090601f0160209004810192826122435760008555612289565b82601f1061225c57805160ff1916838001178555612289565b82800160010185558215612289579182015b8281111561228957825182559160200191906001019061226e565b50612295929150612299565b5090565b5b80821115612295576000815560010161229a565b6001600160e01b031981168114610ae257600080fd5b6000602082840312156122d657600080fd5b81356111d5816122ae565b60005b838110156122fc5781810151838201526020016122e4565b838111156108ab5750506000910152565b600081518084526123258160208601602086016122e1565b601f01601f19169290920160200192915050565b6020815260006111d5602083018461230d565b60006020828403121561235e57600080fd5b5035919050565b6001600160a01b0381168114610ae257600080fd5b6000806040838503121561238d57600080fd5b823561239881612365565b946020939093013593505050565b6000806000606084860312156123bb57600080fd5b83356123c681612365565b925060208401356123d681612365565b929592945050506040919091013590565b600080604083850312156123fa57600080fd5b82359150602083013561240c81612365565b809150509250929050565b60006020828403121561242957600080fd5b81356111d581612365565b634e487b7160e01b600052604160045260246000fd5b600082601f83011261245b57600080fd5b813567ffffffffffffffff8082111561247657612476612434565b604051601f8301601f19908116603f0116810190828211818310171561249e5761249e612434565b816040528381528660208588010111156124b757600080fd5b836020870160208301376000602085830101528094505050505092915050565b600080604083850312156124ea57600080fd5b82356124f581612365565b9150602083013567ffffffffffffffff81111561251157600080fd5b61251d8582860161244a565b9150509250929050565b60006020828403121561253957600080fd5b813567ffffffffffffffff81111561255057600080fd5b611acd8482850161244a565b60008060008060008060c0878903121561257557600080fd5b863567ffffffffffffffff8082111561258d57600080fd5b6125998a838b0161244a565b975060208901359150808211156125af57600080fd5b6125bb8a838b0161244a565b965060408901359150808211156125d157600080fd5b506125de89828a0161244a565b94505060608701356125ef81612365565b9598949750929560808101359460a0909101359350915050565b6000806040838503121561261c57600080fd5b823561262781612365565b91506020830135801515811461240c57600080fd5b6000806000806080858703121561265257600080fd5b843561265d81612365565b9350602085013561266d81612365565b925060408501359150606085013567ffffffffffffffff81111561269057600080fd5b61269c8782880161244a565b91505092959194509250565b6020808252825182820181905260009190848201906040850190845b818110156126e0578351835292840192918401916001016126c4565b50909695505050505050565b600080604083850312156126ff57600080fd5b823561270a81612365565b9150602083013561240c81612365565b600181811c9082168061272e57607f821691505b6020821081141561274f57634e487b7160e01b600052602260045260246000fd5b50919050565b634e487b7160e01b600052601160045260246000fd5b600060001982141561277f5761277f612755565b5060010190565b6020808252602e908201527f4552433732313a2063616c6c6572206973206e6f7420746f6b656e206f776e6560408201526d1c881b9bdc88185c1c1c9bdd995960921b606082015260800190565b6020808252602c908201527f46756e6374696f6e206d7573742062652063616c6c6564207468726f7567682060408201526b19195b1959d85d1958d85b1b60a21b606082015260800190565b6020808252602c908201527f46756e6374696f6e206d7573742062652063616c6c6564207468726f7567682060408201526b6163746976652070726f787960a01b606082015260800190565b634e487b7160e01b600052603260045260246000fd5b600083516128948184602088016122e1565b8351908301906128a88183602088016122e1565b01949350505050565b6000602082840312156128c357600080fd5b81516111d581612365565b6000828210156128e0576128e0612755565b500390565b600082198211156128f8576128f8612755565b500190565b60006020828403121561290f57600080fd5b5051919050565b6020808252602b908201527f496e697469616c697a61626c653a20636f6e7472616374206973206e6f74206960408201526a6e697469616c697a696e6760a81b606082015260800190565b60208082526032908201527f4552433732313a207472616e7366657220746f206e6f6e20455243373231526560408201527131b2b4bb32b91034b6b83632b6b2b73a32b960711b606082015260800190565b634e487b7160e01b600052601260045260246000fd5b6000826129d8576129d86129b3565b500490565b6000826129ec576129ec6129b3565b500690565b7f416363657373436f6e74726f6c3a206163636f756e7420000000000000000000815260008351612a298160178501602088016122e1565b7001034b99036b4b9b9b4b733903937b6329607d1b6017918401918201528351612a5a8160288401602088016122e1565b01602801949350505050565b6001600160a01b0385811682528416602082015260408101839052608060608201819052600090612a999083018461230d565b9695505050505050565b600060208284031215612ab557600080fd5b81516111d5816122ae565b6000816000190483118215151615612ada57612ada612755565b500290565b600081612aee57612aee612755565b506000190190565b60008251612b088184602087016122e1565b919091019291505056fe360894a13ba1a3210667c828492db98dca3e2076cc3735a920a3ca505d382bbc416464726573733a206c6f772d6c6576656c2064656c65676174652063616c6c206661696c6564a49807205ce4d355092ef5a8a18f56e8913cf4a201fbe287825b095693c21775a2646970667358221220c1d62f1a5b8c12fd5e831da4dad5856e29192ca45d3f99adbcfd8c1bab4105b464736f6c63430008090033",
  "linkReferences": {},
  "deployedLinkReferences": {}
}