{
  "_format": "hh-sol-artifact-1",
  "contractName": "ERC20",
  "sourceName": "contracts/ERC20.sol",
  "abi": [
    {
      "anonymous": false,
      "inputs": [
        {
          "indexed": false,
          "internalType": "address",
          "name": "previousAdmin",
          "type": "address"
        },
        {
          "indexed": false,
          "internalType": "address",
          "name": "newAdmin",
          "type": "address"
        }
      ],
      "name": "AdminChanged",
      "type": "event"
    },
    {
      "anonymous": false,
      "inputs": [
        {
          "indexed": true,
          "internalType": "address",
          "name": "owner",
          "type": "address"
        },
        {
          "indexed": true,
          "internalType": "address",
          "name": "spender",
          "type": "address"
        },
        {
          "indexed": false,
          "internalType": "uint256",
          "name": "value",
          "type": "uint256"
        }
      ],
      "name": "Approval",
      "type": "event"
    },
    {
      "anonymous": false,
      "inputs": [
        {
          "indexed": true,
          "internalType": "address",
          "name": "beacon",
          "type": "address"
        }
      ],
      "name": "BeaconUpgraded",
      "type": "event"
    },
    {
      "anonymous": false,
      "inputs": [
        {
          "indexed": false,
          "internalType": "uint8",
          "name": "version",
          "type": "uint8"
        }
      ],
      "name": "Initialized",
      "type": "event"
    },
    {
      "anonymous": false,
      "inputs": [
        {
          "indexed": true,
          "internalType": "address",
          "name": "previousOwner",
          "type": "address"
        },
        {
          "indexed": true,
          "internalType": "address",
          "name": "newOwner",
          "type": "address"
        }
      ],
      "name": "OwnershipTransferred",
      "type": "event"
    },
    {
      "anonymous": false,
      "inputs": [
        {
          "indexed": true,
          "internalType": "address",
          "name": "from",
          "type": "address"
        },
        {
          "indexed": true,
          "internalType": "address",
          "name": "to",
          "type": "address"
        },
        {
          "indexed": false,
          "internalType": "uint256",
          "name": "value",
          "type": "uint256"
        }
      ],
      "name": "Transfer",
      "type": "event"
    },
    {
      "anonymous": false,
      "inputs": [
        {
          "indexed": true,
          "internalType": "address",
          "name": "implementation",
          "type": "address"
        }
      ],
      "name": "Upgraded",
      "type": "event"
    },
    {
      "inputs": [
        {
          "internalType": "address",
          "name": "owner",
          "type": "address"
        },
        {
          "internalType": "address",
          "name": "spender",
          "type": "address"
        }
      ],
      "name": "allowance",
      "outputs": [
        {
          "internalType": "uint256",
          "name": "",
          "type": "uint256"
        }
      ],
      "stateMutability": "view",
      "type": "function"
    },
    {
      "inputs": [
        {
          "internalType": "address",
          "name": "spender",
          "type": "address"
        },
        {
          "internalType": "uint256",
          "name": "amount",
          "type": "uint256"
        }
      ],
      "name": "approve",
      "outputs": [
        {
          "internalType": "bool",
          "name": "",
          "type": "bool"
        }
      ],
      "stateMutability": "nonpayable",
      "type": "function"
    },
    {
      "inputs": [
        {
          "internalType": "address",
          "name": "account",
          "type": "address"
        }
      ],
      "name": "balanceOf",
      "outputs": [
        {
          "internalType": "uint256",
          "name": "",
          "type": "uint256"
        }
      ],
      "stateMutability": "view",
      "type": "function"
    },
    {
      "inputs": [
        {
          "internalType": "uint256",
          "name": "amount",
          "type": "uint256"
        }
      ],
      "name": "burn",
      "outputs": [],
      "stateMutability": "nonpayable",
      "type": "function"
    },
    {
      "inputs": [],
      "name": "decimals",
      "outputs": [
        {
          "internalType": "uint8",
          "name": "",
          "type": "uint8"
        }
      ],
      "stateMutability": "view",
      "type": "function"
    },
    {
      "inputs": [
        {
          "internalType": "address",
          "name": "spender",
          "type": "address"
        },
        {
          "internalType": "uint256",
          "name": "subtractedValue",
          "type": "uint256"
        }
      ],
      "name": "decreaseAllowance",
      "outputs": [
        {
          "internalType": "bool",
          "name": "",
          "type": "bool"
        }
      ],
      "stateMutability": "nonpayable",
      "type": "function"
    },
    {
      "inputs": [],
      "name": "getVersion",
      "outputs": [
        {
          "internalType": "uint256",
          "name": "version",
          "type": "uint256"
        }
      ],
      "stateMutability": "pure",
      "type": "function"
    },
    {
      "inputs": [
        {
          "internalType": "address",
          "name": "spender",
          "type": "address"
        },
        {
          "internalType": "uint256",
          "name": "addedValue",
          "type": "uint256"
        }
      ],
      "name": "increaseAllowance",
      "outputs": [
        {
          "internalType": "bool",
          "name": "",
          "type": "bool"
        }
      ],
      "stateMutability": "nonpayable",
      "type": "function"
    },
    {
      "inputs": [
        {
          "internalType": "string",
          "name": "name_",
          "type": "string"
        },
        {
          "internalType": "string",
          "name": "symbol_",
          "type": "string"
        },
        {
          "internalType": "address",
          "name": "newOwner",
          "type": "address"
        },
        {
          "internalType": "uint256",
          "name": "supply",
          "type": "uint256"
        }
      ],
      "name": "initialize",
      "outputs": [],
      "stateMutability": "nonpayable",
      "type": "function"
    },
    {
      "inputs": [
        {
          "internalType": "address",
          "name": "account",
          "type": "address"
        },
        {
          "internalType": "uint256",
          "name": "amount",
          "type": "uint256"
        }
      ],
      "name": "mint",
      "outputs": [],
      "stateMutability": "nonpayable",
      "type": "function"
    },
    {
      "inputs": [],
      "name": "name",
      "outputs": [
        {
          "internalType": "string",
          "name": "",
          "type": "string"
        }
      ],
      "stateMutability": "view",
      "type": "function"
    },
    {
      "inputs": [],
      "name": "owner",
      "outputs": [
        {
          "internalType": "address",
          "name": "",
          "type": "address"
        }
      ],
      "stateMutability": "view",
      "type": "function"
    },
    {
      "inputs": [],
      "name": "proxiableUUID",
      "outputs": [
        {
          "internalType": "bytes32",
          "name": "",
          "type": "bytes32"
        }
      ],
      "stateMutability": "view",
      "type": "function"
    },
    {
      "inputs": [],
      "name": "renounceOwnership",
      "outputs": [],
      "stateMutability": "nonpayable",
      "type": "function"
    },
    {
      "inputs": [
        {
          "internalType": "bytes4",
          "name": "interfaceId",
          "type": "bytes4"
        }
      ],
      "name": "supportsInterface",
      "outputs": [
        {
          "internalType": "bool",
          "name": "",
          "type": "bool"
        }
      ],
      "stateMutability": "view",
      "type": "function"
    },
    {
      "inputs": [],
      "name": "symbol",
      "outputs": [
        {
          "internalType": "string",
          "name": "",
          "type": "string"
        }
      ],
      "stateMutability": "view",
      "type": "function"
    },
    {
      "inputs": [],
      "name": "totalSupply",
      "outputs": [
        {
          "internalType": "uint256",
          "name": "",
          "type": "uint256"
        }
      ],
      "stateMutability": "view",
      "type": "function"
    },
    {
      "inputs": [
        {
          "internalType": "address",
          "name": "to",
          "type": "address"
        },
        {
          "internalType": "uint256",
          "name": "amount",
          "type": "uint256"
        }
      ],
      "name": "transfer",
      "outputs": [
        {
          "internalType": "bool",
          "name": "",
          "type": "bool"
        }
      ],
      "stateMutability": "nonpayable",
      "type": "function"
    },
    {
      "inputs": [
        {
          "internalType": "address",
          "name": "from",
          "type": "address"
        },
        {
          "internalType": "address",
          "name": "to",
          "type": "address"
        },
        {
          "internalType": "uint256",
          "name": "amount",
          "type": "uint256"
        }
      ],
      "name": "transferFrom",
      "outputs": [
        {
          "internalType": "bool",
          "name": "",
          "type": "bool"
        }
      ],
      "stateMutability": "nonpayable",
      "type": "function"
    },
    {
      "inputs": [
        {
          "internalType": "address",
          "name": "newOwner",
          "type": "address"
        }
      ],
      "name": "transferOwnership",
      "outputs": [],
      "stateMutability": "nonpayable",
      "type": "function"
    },
    {
      "inputs": [
        {
          "internalType": "address",
          "name": "newImplementation",
          "type": "address"
        }
      ],
      "name": "upgradeTo",
      "outputs": [],
      "stateMutability": "nonpayable",
      "type": "function"
    },
    {
      "inputs": [
        {
          "internalType": "address",
          "name": "newImplementation",
          "type": "address"
        },
        {
          "internalType": "bytes",
          "name": "data",
          "type": "bytes"
        }
      ],
      "name": "upgradeToAndCall",
      "outputs": [],
      "stateMutability": "payable",
      "type": "function"
    }
  ],
  "bytecode": "0x60a06040523060805234801561001457600080fd5b50608051611ab961004c600039600081816104de01528181610527015281816106090152818161064901526106d80152611ab96000f3fe6080604052600436106101355760003560e01c80634f1ef286116100ab57806395d89b411161006f57806395d89b411461034e578063a457c2d714610363578063a9059cbb14610383578063dd62ed3e146103a3578063f2fde38b146103c3578063f542033f146103e357600080fd5b80634f1ef286146102b357806352d1902d146102c657806370a08231146102db578063715018a6146103115780638da5cb5b1461032657600080fd5b806323b872dd116100fd57806323b872dd146101f5578063313ce567146102155780633659cfe614610231578063395093511461025357806340c10f191461027357806342966c681461029357600080fd5b806301ffc9a71461013a57806306fdde0314610180578063095ea7b3146101a25780630d8e6e2c146101c257806318160ddd146101e0575b600080fd5b34801561014657600080fd5b5061016b6101553660046115a8565b6001600160e01b0319166301ffc9a760e01b1490565b60405190151581526020015b60405180910390f35b34801561018c57600080fd5b50610195610403565b60405161017791906115fe565b3480156101ae57600080fd5b5061016b6101bd36600461164d565b610495565b3480156101ce57600080fd5b5060015b604051908152602001610177565b3480156101ec57600080fd5b506067546101d2565b34801561020157600080fd5b5061016b610210366004611677565b6104ad565b34801561022157600080fd5b5060405160128152602001610177565b34801561023d57600080fd5b5061025161024c3660046116b3565b6104d3565b005b34801561025f57600080fd5b5061016b61026e36600461164d565b6105bc565b34801561027f57600080fd5b5061025161028e36600461164d565b6105de565b34801561029f57600080fd5b506102516102ae3660046116ce565b6105f4565b6102516102c1366004611773565b6105fe565b3480156102d257600080fd5b506101d26106cb565b3480156102e757600080fd5b506101d26102f63660046116b3565b6001600160a01b031660009081526065602052604090205490565b34801561031d57600080fd5b5061025161077e565b34801561033257600080fd5b506097546040516001600160a01b039091168152602001610177565b34801561035a57600080fd5b50610195610792565b34801561036f57600080fd5b5061016b61037e36600461164d565b6107a1565b34801561038f57600080fd5b5061016b61039e36600461164d565b610827565b3480156103af57600080fd5b506101d26103be3660046117d5565b610835565b3480156103cf57600080fd5b506102516103de3660046116b3565b610860565b3480156103ef57600080fd5b506102516103fe366004611828565b6108d6565b606060688054610412906118a4565b80601f016020809104026020016040519081016040528092919081815260200182805461043e906118a4565b801561048b5780601f106104605761010080835404028352916020019161048b565b820191906000526020600020905b81548152906001019060200180831161046e57829003601f168201915b5050505050905090565b6000336104a3818585610a10565b5060019392505050565b6000336104bb858285610b34565b6104c6858585610bae565b60019150505b9392505050565b306001600160a01b037f00000000000000000000000000000000000000000000000000000000000000001614156105255760405162461bcd60e51b815260040161051c906118df565b60405180910390fd5b7f00000000000000000000000000000000000000000000000000000000000000006001600160a01b031661056e600080516020611a3d833981519152546001600160a01b031690565b6001600160a01b0316146105945760405162461bcd60e51b815260040161051c9061192b565b61059d81610d7c565b604080516000808252602082019092526105b991839190610d84565b50565b6000336104a38185856105cf8383610835565b6105d9919061198d565b610a10565b6105e6610f03565b6105f08282610f5d565b5050565b6105b9338261103c565b306001600160a01b037f00000000000000000000000000000000000000000000000000000000000000001614156106475760405162461bcd60e51b815260040161051c906118df565b7f00000000000000000000000000000000000000000000000000000000000000006001600160a01b0316610690600080516020611a3d833981519152546001600160a01b031690565b6001600160a01b0316146106b65760405162461bcd60e51b815260040161051c9061192b565b6106bf82610d7c565b6105f082826001610d84565b6000306001600160a01b037f0000000000000000000000000000000000000000000000000000000000000000161461076b5760405162461bcd60e51b815260206004820152603860248201527f555550535570677261646561626c653a206d757374206e6f742062652063616c60448201527f6c6564207468726f7567682064656c656761746563616c6c0000000000000000606482015260840161051c565b50600080516020611a3d83398151915290565b610786610f03565b610790600061118a565b565b606060698054610412906118a4565b600033816107af8286610835565b90508381101561080f5760405162461bcd60e51b815260206004820152602560248201527f45524332303a2064656372656173656420616c6c6f77616e63652062656c6f77604482015264207a65726f60d81b606482015260840161051c565b61081c8286868403610a10565b506001949350505050565b6000336104a3818585610bae565b6001600160a01b03918216600090815260666020908152604080832093909416825291909152205490565b610868610f03565b6001600160a01b0381166108cd5760405162461bcd60e51b815260206004820152602660248201527f4f776e61626c653a206e6577206f776e657220697320746865207a65726f206160448201526564647265737360d01b606482015260840161051c565b6105b98161118a565b600054610100900460ff16158080156108f65750600054600160ff909116105b806109105750303b158015610910575060005460ff166001145b6109735760405162461bcd60e51b815260206004820152602e60248201527f496e697469616c697a61626c653a20636f6e747261637420697320616c72656160448201526d191e481a5b9a5d1a585b1a5e995960921b606482015260840161051c565b6000805460ff191660011790558015610996576000805461ff0019166101001790555b61099e6111dc565b6109a783610860565b6109b1858561120b565b6109b961123c565b6109c33283610f5d565b8015610a09576000805461ff0019169055604051600181527f7f26b83ff96e1f2b6a682f133852f6798a09c465da95921460cefb38474024989060200160405180910390a15b5050505050565b6001600160a01b038316610a725760405162461bcd60e51b8152602060048201526024808201527f45524332303a20617070726f76652066726f6d20746865207a65726f206164646044820152637265737360e01b606482015260840161051c565b6001600160a01b038216610ad35760405162461bcd60e51b815260206004820152602260248201527f45524332303a20617070726f766520746f20746865207a65726f206164647265604482015261737360f01b606482015260840161051c565b6001600160a01b0383811660008181526066602090815260408083209487168084529482529182902085905590518481527f8c5be1e5ebec7d5bd14f71427d1e84f3dd0314c0f7b2291e5b200ac8c7c3b925910160405180910390a3505050565b6000610b408484610835565b90506000198114610ba85781811015610b9b5760405162461bcd60e51b815260206004820152601d60248201527f45524332303a20696e73756666696369656e7420616c6c6f77616e6365000000604482015260640161051c565b610ba88484848403610a10565b50505050565b6001600160a01b038316610c125760405162461bcd60e51b815260206004820152602560248201527f45524332303a207472616e736665722066726f6d20746865207a65726f206164604482015264647265737360d81b606482015260840161051c565b6001600160a01b038216610c745760405162461bcd60e51b815260206004820152602360248201527f45524332303a207472616e7366657220746f20746865207a65726f206164647260448201526265737360e81b606482015260840161051c565b6001600160a01b03831660009081526065602052604090205481811015610cec5760405162461bcd60e51b815260206004820152602660248201527f45524332303a207472616e7366657220616d6f756e7420657863656564732062604482015265616c616e636560d01b606482015260840161051c565b6001600160a01b03808516600090815260656020526040808220858503905591851681529081208054849290610d2390849061198d565b92505081905550826001600160a01b0316846001600160a01b03167fddf252ad1be2c89b69c2b068fc378daa952ba7f163c4a11628f55a4df523b3ef84604051610d6f91815260200190565b60405180910390a3610ba8565b6105b9610f03565b7f4910fdfa16fed3260ed0e7147f7cc6da11a60208b5b9406d12a635614ffd91435460ff1615610dbc57610db783611263565b505050565b826001600160a01b03166352d1902d6040518163ffffffff1660e01b815260040160206040518083038186803b158015610df557600080fd5b505afa925050508015610e25575060408051601f3d908101601f19168201909252610e22918101906119a5565b60015b610e885760405162461bcd60e51b815260206004820152602e60248201527f45524331393637557067726164653a206e657720696d706c656d656e7461746960448201526d6f6e206973206e6f74205555505360901b606482015260840161051c565b600080516020611a3d8339815191528114610ef75760405162461bcd60e51b815260206004820152602960248201527f45524331393637557067726164653a20756e737570706f727465642070726f786044820152681a58589b195555525160ba1b606482015260840161051c565b50610db78383836112ff565b6097546001600160a01b031633146107905760405162461bcd60e51b815260206004820181905260248201527f4f776e61626c653a2063616c6c6572206973206e6f7420746865206f776e6572604482015260640161051c565b6001600160a01b038216610fb35760405162461bcd60e51b815260206004820152601f60248201527f45524332303a206d696e7420746f20746865207a65726f206164647265737300604482015260640161051c565b8060676000828254610fc5919061198d565b90915550506001600160a01b03821660009081526065602052604081208054839290610ff290849061198d565b90915550506040518181526001600160a01b038316906000907fddf252ad1be2c89b69c2b068fc378daa952ba7f163c4a11628f55a4df523b3ef9060200160405180910390a35050565b6001600160a01b03821661109c5760405162461bcd60e51b815260206004820152602160248201527f45524332303a206275726e2066726f6d20746865207a65726f206164647265736044820152607360f81b606482015260840161051c565b6001600160a01b038216600090815260656020526040902054818110156111105760405162461bcd60e51b815260206004820152602260248201527f45524332303a206275726e20616d6f756e7420657863656564732062616c616e604482015261636560f01b606482015260840161051c565b6001600160a01b038316600090815260656020526040812083830390556067805484929061113f9084906119be565b90915550506040518281526000906001600160a01b038516907fddf252ad1be2c89b69c2b068fc378daa952ba7f163c4a11628f55a4df523b3ef9060200160405180910390a3505050565b609780546001600160a01b038381166001600160a01b0319831681179093556040519116919082907f8be0079c531659141344cd1fd0a4f28419497f9722a3daafe3b4186f6b6457e090600090a35050565b600054610100900460ff166112035760405162461bcd60e51b815260040161051c906119d5565b610790611324565b600054610100900460ff166112325760405162461bcd60e51b815260040161051c906119d5565b6105f08282611354565b600054610100900460ff166107905760405162461bcd60e51b815260040161051c906119d5565b6001600160a01b0381163b6112d05760405162461bcd60e51b815260206004820152602d60248201527f455243313936373a206e657720696d706c656d656e746174696f6e206973206e60448201526c1bdd08184818dbdb9d1c9858dd609a1b606482015260840161051c565b600080516020611a3d83398151915280546001600160a01b0319166001600160a01b0392909216919091179055565b611308836113a2565b6000825111806113155750805b15610db757610ba883836113e2565b600054610100900460ff1661134b5760405162461bcd60e51b815260040161051c906119d5565b6107903361118a565b600054610100900460ff1661137b5760405162461bcd60e51b815260040161051c906119d5565b815161138e90606890602085019061150f565b508051610db790606990602084019061150f565b6113ab81611263565b6040516001600160a01b038216907fbc7cd75a20ee27fd9adebab32041f755214dbc6bffa90cc0225b39da2e5c2d3b90600090a250565b60606001600160a01b0383163b61144a5760405162461bcd60e51b815260206004820152602660248201527f416464726573733a2064656c65676174652063616c6c20746f206e6f6e2d636f6044820152651b9d1c9858dd60d21b606482015260840161051c565b600080846001600160a01b0316846040516114659190611a20565b600060405180830381855af49150503d80600081146114a0576040519150601f19603f3d011682016040523d82523d6000602084013e6114a5565b606091505b50915091506114cd8282604051806060016040528060278152602001611a5d602791396114d6565b95945050505050565b606083156114e55750816104cc565b8251156114f55782518084602001fd5b8160405162461bcd60e51b815260040161051c91906115fe565b82805461151b906118a4565b90600052602060002090601f01602090048101928261153d5760008555611583565b82601f1061155657805160ff1916838001178555611583565b82800160010185558215611583579182015b82811115611583578251825591602001919060010190611568565b5061158f929150611593565b5090565b5b8082111561158f5760008155600101611594565b6000602082840312156115ba57600080fd5b81356001600160e01b0319811681146104cc57600080fd5b60005b838110156115ed5781810151838201526020016115d5565b83811115610ba85750506000910152565b602081526000825180602084015261161d8160408501602087016115d2565b601f01601f19169190910160400192915050565b80356001600160a01b038116811461164857600080fd5b919050565b6000806040838503121561166057600080fd5b61166983611631565b946020939093013593505050565b60008060006060848603121561168c57600080fd5b61169584611631565b92506116a360208501611631565b9150604084013590509250925092565b6000602082840312156116c557600080fd5b6104cc82611631565b6000602082840312156116e057600080fd5b5035919050565b634e487b7160e01b600052604160045260246000fd5b600067ffffffffffffffff80841115611718576117186116e7565b604051601f8501601f19908116603f01168101908282118183101715611740576117406116e7565b8160405280935085815286868601111561175957600080fd5b858560208301376000602087830101525050509392505050565b6000806040838503121561178657600080fd5b61178f83611631565b9150602083013567ffffffffffffffff8111156117ab57600080fd5b8301601f810185136117bc57600080fd5b6117cb858235602084016116fd565b9150509250929050565b600080604083850312156117e857600080fd5b6117f183611631565b91506117ff60208401611631565b90509250929050565b600082601f83011261181957600080fd5b6104cc838335602085016116fd565b6000806000806080858703121561183e57600080fd5b843567ffffffffffffffff8082111561185657600080fd5b61186288838901611808565b9550602087013591508082111561187857600080fd5b5061188587828801611808565b93505061189460408601611631565b9396929550929360600135925050565b600181811c908216806118b857607f821691505b602082108114156118d957634e487b7160e01b600052602260045260246000fd5b50919050565b6020808252602c908201527f46756e6374696f6e206d7573742062652063616c6c6564207468726f7567682060408201526b19195b1959d85d1958d85b1b60a21b606082015260800190565b6020808252602c908201527f46756e6374696f6e206d7573742062652063616c6c6564207468726f7567682060408201526b6163746976652070726f787960a01b606082015260800190565b634e487b7160e01b600052601160045260246000fd5b600082198211156119a0576119a0611977565b500190565b6000602082840312156119b757600080fd5b5051919050565b6000828210156119d0576119d0611977565b500390565b6020808252602b908201527f496e697469616c697a61626c653a20636f6e7472616374206973206e6f74206960408201526a6e697469616c697a696e6760a81b606082015260800190565b60008251611a328184602087016115d2565b919091019291505056fe360894a13ba1a3210667c828492db98dca3e2076cc3735a920a3ca505d382bbc416464726573733a206c6f772d6c6576656c2064656c65676174652063616c6c206661696c6564a26469706673582212209050c35eb9a5c32771bbc8fee8f1fda467f3d5f9cf51d7939954a4a0cf3972eb64736f6c63430008090033",
  "linkReferences": {},
  "deployedLinkReferences": {}
}