{
  "_format": "hh-sol-artifact-1",
  "contractName": "NFTFactory2",
  "sourceName": "contracts/NFTFactory2.sol",
  "abi": [
    {
      "anonymous": false,
      "inputs": [
        {
          "indexed": false,
          "internalType": "address",
          "name": "previousAdmin",
          "type": "address"
        },
        {
          "indexed": false,
          "internalType": "address",
          "name": "newAdmin",
          "type": "address"
        }
      ],
      "name": "AdminChanged",
      "type": "event"
    },
    {
      "anonymous": false,
      "inputs": [
        {
          "indexed": true,
          "internalType": "address",
          "name": "beacon",
          "type": "address"
        }
      ],
      "name": "BeaconUpgraded",
      "type": "event"
    },
    {
      "anonymous": false,
      "inputs": [
        {
          "indexed": false,
          "internalType": "address",
          "name": "contractAddress",
          "type": "address"
        }
      ],
      "name": "Deployed",
      "type": "event"
    },
    {
      "anonymous": false,
      "inputs": [
        {
          "indexed": false,
          "internalType": "uint8",
          "name": "version",
          "type": "uint8"
        }
      ],
      "name": "Initialized",
      "type": "event"
    },
    {
      "anonymous": false,
      "inputs": [
        {
          "indexed": true,
          "internalType": "address",
          "name": "implementation",
          "type": "address"
        }
      ],
      "name": "Upgraded",
      "type": "event"
    },
    {
      "inputs": [
        {
          "internalType": "uint256",
          "name": "standard",
          "type": "uint256"
        },
        {
          "internalType": "string",
          "name": "name",
          "type": "string"
        },
        {
          "internalType": "string",
          "name": "symbol",
          "type": "string"
        },
        {
          "internalType": "string",
          "name": "baseURI",
          "type": "string"
        },
        {
          "internalType": "address",
          "name": "newOwner",
          "type": "address"
        },
        {
          "internalType": "uint256",
          "name": "percentFee",
          "type": "uint256"
        },
        {
          "internalType": "uint256",
          "name": "_salt",
          "type": "uint256"
        },
        {
          "internalType": "uint256",
          "name": "amount",
          "type": "uint256"
        },
        {
          "internalType": "uint256[]",
          "name": "ids",
          "type": "uint256[]"
        },
        {
          "internalType": "uint256[]",
          "name": "amounts",
          "type": "uint256[]"
        }
      ],
      "name": "createContract",
      "outputs": [
        {
          "internalType": "address",
          "name": "contractAddress",
          "type": "address"
        }
      ],
      "stateMutability": "nonpayable",
      "type": "function"
    },
    {
      "inputs": [],
      "name": "getVersion",
      "outputs": [
        {
          "internalType": "uint256",
          "name": "version",
          "type": "uint256"
        }
      ],
      "stateMutability": "view",
      "type": "function"
    },
    {
      "inputs": [],
      "name": "implementation1155",
      "outputs": [
        {
          "internalType": "address",
          "name": "",
          "type": "address"
        }
      ],
      "stateMutability": "view",
      "type": "function"
    },
    {
      "inputs": [],
      "name": "implementation721",
      "outputs": [
        {
          "internalType": "address",
          "name": "",
          "type": "address"
        }
      ],
      "stateMutability": "view",
      "type": "function"
    },
    {
      "inputs": [
        {
          "internalType": "address",
          "name": "_implementation1155",
          "type": "address"
        },
        {
          "internalType": "address",
          "name": "_implementation721",
          "type": "address"
        },
        {
          "internalType": "address",
          "name": "_marketplace1155",
          "type": "address"
        },
        {
          "internalType": "address",
          "name": "_marketplace721",
          "type": "address"
        }
      ],
      "name": "initialize",
      "outputs": [],
      "stateMutability": "nonpayable",
      "type": "function"
    },
    {
      "inputs": [],
      "name": "marketplace1155",
      "outputs": [
        {
          "internalType": "address",
          "name": "",
          "type": "address"
        }
      ],
      "stateMutability": "view",
      "type": "function"
    },
    {
      "inputs": [],
      "name": "marketplace721",
      "outputs": [
        {
          "internalType": "address",
          "name": "",
          "type": "address"
        }
      ],
      "stateMutability": "view",
      "type": "function"
    },
    {
      "inputs": [],
      "name": "owner",
      "outputs": [
        {
          "internalType": "address",
          "name": "",
          "type": "address"
        }
      ],
      "stateMutability": "view",
      "type": "function"
    },
    {
      "inputs": [
        {
          "internalType": "uint256",
          "name": "standard",
          "type": "uint256"
        },
        {
          "internalType": "uint256",
          "name": "_salt",
          "type": "uint256"
        }
      ],
      "name": "predictAddress",
      "outputs": [
        {
          "internalType": "address",
          "name": "contractAddress",
          "type": "address"
        }
      ],
      "stateMutability": "view",
      "type": "function"
    },
    {
      "inputs": [],
      "name": "proxiableUUID",
      "outputs": [
        {
          "internalType": "bytes32",
          "name": "",
          "type": "bytes32"
        }
      ],
      "stateMutability": "view",
      "type": "function"
    },
    {
      "inputs": [
        {
          "internalType": "uint256",
          "name": "standard",
          "type": "uint256"
        },
        {
          "internalType": "address",
          "name": "newImplementation",
          "type": "address"
        }
      ],
      "name": "setImplementation",
      "outputs": [],
      "stateMutability": "nonpayable",
      "type": "function"
    },
    {
      "inputs": [
        {
          "internalType": "uint256",
          "name": "standard",
          "type": "uint256"
        },
        {
          "internalType": "address",
          "name": "newMarketplace",
          "type": "address"
        }
      ],
      "name": "setMarketplace",
      "outputs": [],
      "stateMutability": "nonpayable",
      "type": "function"
    },
    {
      "inputs": [
        {
          "internalType": "address",
          "name": "newOwner",
          "type": "address"
        }
      ],
      "name": "transferOwnership",
      "outputs": [],
      "stateMutability": "nonpayable",
      "type": "function"
    },
    {
      "inputs": [
        {
          "internalType": "address",
          "name": "newImplementation",
          "type": "address"
        }
      ],
      "name": "upgradeTo",
      "outputs": [],
      "stateMutability": "nonpayable",
      "type": "function"
    },
    {
      "inputs": [
        {
          "internalType": "address",
          "name": "newImplementation",
          "type": "address"
        },
        {
          "internalType": "bytes",
          "name": "data",
          "type": "bytes"
        }
      ],
      "name": "upgradeToAndCall",
      "outputs": [],
      "stateMutability": "payable",
      "type": "function"
    }
  ],
  "bytecode": "0x60a06040523060805234801561001457600080fd5b50608051611de661004c60003960008181610326015281816103720152818161041b0152818161045e01526104fa0152611de66000f3fe608060405260043610620000fb5760003560e01c806389a620651162000095578063c63d6b6e1162000060578063c63d6b6e1462000287578063f083b09614620002ac578063f2fde38b14620002d1578063f8c8765e14620002f657600080fd5b806389a6206514620001fc5780638da5cb5b146200021e5780638fc6ef46146200024057806397202fb1146200026557600080fd5b806352d1902d11620000d657806352d1902d146200016257806364808521146200017a578063715e780f14620001b8578063848fd1a314620001da57600080fd5b80630d8e6e2c14620001005780633659cfe614620001245780634f1ef286146200014b575b600080fd5b3480156200010d57600080fd5b5060025b6040519081526020015b60405180910390f35b3480156200013157600080fd5b50620001496200014336600462000f73565b6200031b565b005b620001496200015c36600462001039565b62000410565b3480156200016f57600080fd5b5062000111620004ed565b3480156200018757600080fd5b506200019f62000199366004620010a2565b620005a3565b6040516001600160a01b0390911681526020016200011b565b348015620001c557600080fd5b506069546200019f906001600160a01b031681565b348015620001e757600080fd5b506067546200019f906001600160a01b031681565b3480156200020957600080fd5b506068546200019f906001600160a01b031681565b3480156200022b57600080fd5b506065546200019f906001600160a01b031681565b3480156200024d57600080fd5b506200019f6200025f36600462001171565b620006c1565b3480156200027257600080fd5b506066546200019f906001600160a01b031681565b3480156200029457600080fd5b5062000149620002a63660046200128e565b620008f7565b348015620002b957600080fd5b5062000149620002cb3660046200128e565b62000954565b348015620002de57600080fd5b5062000149620002f036600462000f73565b620009b1565b3480156200030357600080fd5b506200014962000315366004620012bd565b620009dd565b306001600160a01b037f0000000000000000000000000000000000000000000000000000000000000000161415620003705760405162461bcd60e51b815260040162000367906200131a565b60405180910390fd5b7f00000000000000000000000000000000000000000000000000000000000000006001600160a01b0316620003bb60008051602062001d6a833981519152546001600160a01b031690565b6001600160a01b031614620003e45760405162461bcd60e51b8152600401620003679062001366565b620003ef8162000b43565b604080516000808252602082019092526200040d9183919062000b4d565b50565b306001600160a01b037f00000000000000000000000000000000000000000000000000000000000000001614156200045c5760405162461bcd60e51b815260040162000367906200131a565b7f00000000000000000000000000000000000000000000000000000000000000006001600160a01b0316620004a760008051602062001d6a833981519152546001600160a01b031690565b6001600160a01b031614620004d05760405162461bcd60e51b8152600401620003679062001366565b620004db8262000b43565b620004e98282600162000b4d565b5050565b6000306001600160a01b037f000000000000000000000000000000000000000000000000000000000000000016146200058f5760405162461bcd60e51b815260206004820152603860248201527f555550535570677261646561626c653a206d757374206e6f742062652063616c60448201527f6c6564207468726f7567682064656c656761746563616c6c0000000000000000606482015260840162000367565b5060008051602062001d6a83398151915290565b6000808361048314620005c2576067546001600160a01b0316620005cf565b6066546001600160a01b03165b6040519091506001600160f81b03199030908590620005f16020820162000f48565b601f1982820381018352601f9091011660408181526001600160a01b0387166020830152808201526000606082015260800160408051601f1981840301815290829052620006439291602001620013e1565b60405160208183030381529060405280519060200120604051602001620006a194939291906001600160f81b031994909416845260609290921b6bffffffffffffffffffffffff191660018401526015830152603582015260550190565b60408051601f198184030181529190528051602090910120949350505050565b60008086118015620006d557506127108611155b620007115760405162461bcd60e51b815260206004820152600b60248201526a496e76616c69642046656560a81b604482015260640162000367565b8a6102d114156200083a57606754604051869160009183916001600160a01b0316906200073e9062000f48565b6001600160a01b0390911681526040602082018190526000908201526060018190604051809103906000f59050801580156200077e573d6000803e3d6000fd5b5090506000819050806001600160a01b031663767faf5d8e8e8e8e8e8d6040518763ffffffff1660e01b8152600401620007be9695949392919062001442565b600060405180830381600087803b158015620007d957600080fd5b505af1158015620007ee573d6000803e3d6000fd5b50506040516001600160a01b03841681527ff40fcec21964ffb566044d083b4073f29f7f7929110ea19e1b3ebe375d89055e9250602001905060405180910390a19250620008e9915050565b8a6104831415620008e957606654604051869160009183916001600160a01b031690620008679062000f48565b6001600160a01b0390911681526040602082018190526000908201526060018190604051809103906000f5905080158015620008a7573d6000803e3d6000fd5b5090506000819050806001600160a01b03166347f2fc918e8e8e8e8e8c8c6040518863ffffffff1660e01b8152600401620007be9796959493929190620014e6565b9a9950505050505050505050565b6200090162000cda565b8161048314156200092857606880546001600160a01b0319166001600160a01b0383161790555b816102d11415620004e957606980546001600160a01b0383166001600160a01b03199091161790555050565b6200095e62000cda565b8161048314156200098557606680546001600160a01b0319166001600160a01b0383161790555b816102d11415620004e957606780546001600160a01b0383166001600160a01b03199091161790555050565b620009bb62000cda565b606580546001600160a01b0319166001600160a01b0392909216919091179055565b600054610100900460ff1615808015620009fe5750600054600160ff909116105b8062000a1a5750303b15801562000a1a575060005460ff166001145b62000a7f5760405162461bcd60e51b815260206004820152602e60248201527f496e697469616c697a61626c653a20636f6e747261637420697320616c72656160448201526d191e481a5b9a5d1a585b1a5e995960921b606482015260840162000367565b6000805460ff19166001179055801562000aa3576000805461ff0019166101001790555b60658054326001600160a01b0319918216179091556066805482166001600160a01b038881169190911790915560678054831687831617905560688054831686831617905560698054909216908416179055801562000b3c576000805461ff0019169055604051600181527f7f26b83ff96e1f2b6a682f133852f6798a09c465da95921460cefb38474024989060200160405180910390a15b5050505050565b6200040d62000cda565b7f4910fdfa16fed3260ed0e7147f7cc6da11a60208b5b9406d12a635614ffd91435460ff161562000b885762000b838362000cf4565b505050565b826001600160a01b03166352d1902d6040518163ffffffff1660e01b815260040160206040518083038186803b15801562000bc257600080fd5b505afa92505050801562000bf5575060408051601f3d908101601f1916820190925262000bf29181019062001567565b60015b62000c5a5760405162461bcd60e51b815260206004820152602e60248201527f45524331393637557067726164653a206e657720696d706c656d656e7461746960448201526d6f6e206973206e6f74205555505360901b606482015260840162000367565b60008051602062001d6a833981519152811462000ccc5760405162461bcd60e51b815260206004820152602960248201527f45524331393637557067726164653a20756e737570706f727465642070726f786044820152681a58589b195555525160ba1b606482015260840162000367565b5062000b8383838362000d93565b6065546001600160a01b0316331462000cf257600080fd5b565b6001600160a01b0381163b62000d635760405162461bcd60e51b815260206004820152602d60248201527f455243313936373a206e657720696d706c656d656e746174696f6e206973206e60448201526c1bdd08184818dbdb9d1c9858dd609a1b606482015260840162000367565b60008051602062001d6a83398151915280546001600160a01b0319166001600160a01b0392909216919091179055565b62000d9e8362000dc4565b60008251118062000dac5750805b1562000b835762000dbe838362000e06565b50505050565b62000dcf8162000cf4565b6040516001600160a01b038216907fbc7cd75a20ee27fd9adebab32041f755214dbc6bffa90cc0225b39da2e5c2d3b90600090a250565b60606001600160a01b0383163b62000e705760405162461bcd60e51b815260206004820152602660248201527f416464726573733a2064656c65676174652063616c6c20746f206e6f6e2d636f6044820152651b9d1c9858dd60d21b606482015260840162000367565b600080846001600160a01b03168460405162000e8d919062001581565b600060405180830381855af49150503d806000811462000eca576040519150601f19603f3d011682016040523d82523d6000602084013e62000ecf565b606091505b509150915062000efa828260405180606001604052806027815260200162001d8a6027913962000f03565b95945050505050565b6060831562000f1457508162000f41565b82511562000f255782518084602001fd5b8160405162461bcd60e51b81526004016200036791906200159f565b9392505050565b6107b580620015b583390190565b80356001600160a01b038116811462000f6e57600080fd5b919050565b60006020828403121562000f8657600080fd5b62000f418262000f56565b634e487b7160e01b600052604160045260246000fd5b604051601f8201601f1916810167ffffffffffffffff8111828210171562000fd35762000fd362000f91565b604052919050565b600067ffffffffffffffff83111562000ff85762000ff862000f91565b6200100d601f8401601f191660200162000fa7565b90508281528383830111156200102257600080fd5b828260208301376000602084830101529392505050565b600080604083850312156200104d57600080fd5b620010588362000f56565b9150602083013567ffffffffffffffff8111156200107557600080fd5b8301601f810185136200108757600080fd5b620010988582356020840162000fdb565b9150509250929050565b60008060408385031215620010b657600080fd5b50508035926020909101359150565b600082601f830112620010d757600080fd5b62000f418383356020850162000fdb565b600082601f830112620010fa57600080fd5b8135602067ffffffffffffffff82111562001119576200111962000f91565b8160051b6200112a82820162000fa7565b92835284810182019282810190878511156200114557600080fd5b83870192505b8483101562001166578235825291830191908301906200114b565b979650505050505050565b6000806000806000806000806000806101408b8d0312156200119257600080fd5b8a35995060208b013567ffffffffffffffff80821115620011b257600080fd5b620011c08e838f01620010c5565b9a5060408d0135915080821115620011d757600080fd5b620011e58e838f01620010c5565b995060608d0135915080821115620011fc57600080fd5b6200120a8e838f01620010c5565b98506200121a60808e0162000f56565b975060a08d0135965060c08d0135955060e08d013594506101008d01359150808211156200124757600080fd5b620012558e838f01620010e8565b93506101208d01359150808211156200126d57600080fd5b506200127c8d828e01620010e8565b9150509295989b9194979a5092959850565b60008060408385031215620012a257600080fd5b82359150620012b46020840162000f56565b90509250929050565b60008060008060808587031215620012d457600080fd5b620012df8562000f56565b9350620012ef6020860162000f56565b9250620012ff6040860162000f56565b91506200130f6060860162000f56565b905092959194509250565b6020808252602c908201527f46756e6374696f6e206d7573742062652063616c6c6564207468726f7567682060408201526b19195b1959d85d1958d85b1b60a21b606082015260800190565b6020808252602c908201527f46756e6374696f6e206d7573742062652063616c6c6564207468726f7567682060408201526b6163746976652070726f787960a01b606082015260800190565b60005b83811015620013cf578181015183820152602001620013b5565b8381111562000dbe5750506000910152565b60008351620013f5818460208801620013b2565b8351908301906200140b818360208801620013b2565b01949350505050565b600081518084526200142e816020860160208601620013b2565b601f01601f19169290920160200192915050565b60c0815260006200145760c083018962001414565b82810360208401526200146b818962001414565b9050828103604084015262001481818862001414565b6001600160a01b039690961660608401525050608081019290925260a0909101529392505050565b600081518084526020808501945080840160005b83811015620014db57815187529582019590820190600101620014bd565b509495945050505050565b60e081526000620014fb60e083018a62001414565b82810360208401526200150f818a62001414565b9050828103604084015262001525818962001414565b6001600160a01b03881660608501526080840187905283810360a08501529050620015518186620014a9565b905082810360c0840152620008e98185620014a9565b6000602082840312156200157a57600080fd5b5051919050565b6000825162001595818460208701620013b2565b9190910192915050565b60208152600062000f4160208301846200141456fe60806040526040516107b53803806107b58339810160408190526100229161034d565b818161004f60017f360894a13ba1a3210667c828492db98dca3e2076cc3735a920a3ca505d382bbd61041b565b60008051602061076e8339815191521461006b5761006b610440565b61007782826000610080565b505050506104a5565b610089836100b6565b6000825111806100965750805b156100b1576100af83836100f660201b6100291760201c565b505b505050565b6100bf81610122565b6040516001600160a01b038216907fbc7cd75a20ee27fd9adebab32041f755214dbc6bffa90cc0225b39da2e5c2d3b90600090a250565b606061011b838360405180606001604052806027815260200161078e602791396101e2565b9392505050565b610135816102c060201b6100551760201c565b61019c5760405162461bcd60e51b815260206004820152602d60248201527f455243313936373a206e657720696d706c656d656e746174696f6e206973206e60448201526c1bdd08184818dbdb9d1c9858dd609a1b60648201526084015b60405180910390fd5b806101c160008051602061076e83398151915260001b6102cf60201b6100641760201c565b80546001600160a01b0319166001600160a01b039290921691909117905550565b60606001600160a01b0384163b61024a5760405162461bcd60e51b815260206004820152602660248201527f416464726573733a2064656c65676174652063616c6c20746f206e6f6e2d636f6044820152651b9d1c9858dd60d21b6064820152608401610193565b600080856001600160a01b0316856040516102659190610456565b600060405180830381855af49150503d80600081146102a0576040519150601f19603f3d011682016040523d82523d6000602084013e6102a5565b606091505b5090925090506102b68282866102d2565b9695505050505050565b6001600160a01b03163b151590565b90565b606083156102e157508161011b565b8251156102f15782518084602001fd5b8160405162461bcd60e51b81526004016101939190610472565b634e487b7160e01b600052604160045260246000fd5b60005b8381101561033c578181015183820152602001610324565b838111156100af5750506000910152565b6000806040838503121561036057600080fd5b82516001600160a01b038116811461037757600080fd5b60208401519092506001600160401b038082111561039457600080fd5b818501915085601f8301126103a857600080fd5b8151818111156103ba576103ba61030b565b604051601f8201601f19908116603f011681019083821181831017156103e2576103e261030b565b816040528281528860208487010111156103fb57600080fd5b61040c836020830160208801610321565b80955050505050509250929050565b60008282101561043b57634e487b7160e01b600052601160045260246000fd5b500390565b634e487b7160e01b600052600160045260246000fd5b60008251610468818460208701610321565b9190910192915050565b6020815260008251806020840152610491816040850160208701610321565b601f01601f19169190910160400192915050565b6102ba806104b46000396000f3fe60806040523661001357610011610017565b005b6100115b610027610022610067565b61009f565b565b606061004e838360405180606001604052806027815260200161025e602791396100c3565b9392505050565b6001600160a01b03163b151590565b90565b600061009a7f360894a13ba1a3210667c828492db98dca3e2076cc3735a920a3ca505d382bbc546001600160a01b031690565b905090565b3660008037600080366000845af43d6000803e8080156100be573d6000f35b3d6000fd5b60606001600160a01b0384163b6101305760405162461bcd60e51b815260206004820152602660248201527f416464726573733a2064656c65676174652063616c6c20746f206e6f6e2d636f6044820152651b9d1c9858dd60d21b60648201526084015b60405180910390fd5b600080856001600160a01b03168560405161014b919061020e565b600060405180830381855af49150503d8060008114610186576040519150601f19603f3d011682016040523d82523d6000602084013e61018b565b606091505b509150915061019b8282866101a5565b9695505050505050565b606083156101b457508161004e565b8251156101c45782518084602001fd5b8160405162461bcd60e51b8152600401610127919061022a565b60005b838110156101f95781810151838201526020016101e1565b83811115610208576000848401525b50505050565b600082516102208184602087016101de565b9190910192915050565b60208152600082518060208401526102498160408501602087016101de565b601f01601f1916919091016040019291505056fe416464726573733a206c6f772d6c6576656c2064656c65676174652063616c6c206661696c6564a26469706673582212208f0a62c52aa54f466d580adcfbab9e6bfdd95f69807ddf369845b5f39becf98164736f6c63430008090033360894a13ba1a3210667c828492db98dca3e2076cc3735a920a3ca505d382bbc416464726573733a206c6f772d6c6576656c2064656c65676174652063616c6c206661696c6564360894a13ba1a3210667c828492db98dca3e2076cc3735a920a3ca505d382bbc416464726573733a206c6f772d6c6576656c2064656c65676174652063616c6c206661696c6564a26469706673582212203b67c71849566cc76187d31d8c5cd876396e7dd4e70b8dcad279e9dbaefc428664736f6c63430008090033",
  "linkReferences": {},
  "deployedLinkReferences": {}
}