{
  "_format": "hh-sol-artifact-1",
  "contractName": "NFTFactory2",
  "sourceName": "contracts/NFTFactory2.sol",
  "abi": [
    {
      "anonymous": false,
      "inputs": [
        {
          "indexed": false,
          "internalType": "address",
          "name": "previousAdmin",
          "type": "address"
        },
        {
          "indexed": false,
          "internalType": "address",
          "name": "newAdmin",
          "type": "address"
        }
      ],
      "name": "AdminChanged",
      "type": "event"
    },
    {
      "anonymous": false,
      "inputs": [
        {
          "indexed": true,
          "internalType": "address",
          "name": "beacon",
          "type": "address"
        }
      ],
      "name": "BeaconUpgraded",
      "type": "event"
    },
    {
      "anonymous": false,
      "inputs": [
        {
          "indexed": false,
          "internalType": "address",
          "name": "contractAddress",
          "type": "address"
        }
      ],
      "name": "Deployed",
      "type": "event"
    },
    {
      "anonymous": false,
      "inputs": [
        {
          "indexed": false,
          "internalType": "uint8",
          "name": "version",
          "type": "uint8"
        }
      ],
      "name": "Initialized",
      "type": "event"
    },
    {
      "anonymous": false,
      "inputs": [
        {
          "indexed": true,
          "internalType": "address",
          "name": "implementation",
          "type": "address"
        }
      ],
      "name": "Upgraded",
      "type": "event"
    },
    {
      "inputs": [],
      "name": "IERC20_ID",
      "outputs": [
        {
          "internalType": "bytes4",
          "name": "",
          "type": "bytes4"
        }
      ],
      "stateMutability": "view",
      "type": "function"
    },
    {
      "inputs": [
        {
          "internalType": "uint256",
          "name": "standard",
          "type": "uint256"
        },
        {
          "internalType": "string",
          "name": "name",
          "type": "string"
        },
        {
          "internalType": "string",
          "name": "symbol",
          "type": "string"
        },
        {
          "internalType": "string",
          "name": "baseURI",
          "type": "string"
        },
        {
          "internalType": "address",
          "name": "newOwner",
          "type": "address"
        },
        {
          "internalType": "address",
          "name": "erc20",
          "type": "address"
        },
        {
          "internalType": "uint256",
          "name": "percentFee",
          "type": "uint256"
        },
        {
          "internalType": "uint256",
          "name": "_salt",
          "type": "uint256"
        },
        {
          "internalType": "uint256",
          "name": "amount",
          "type": "uint256"
        },
        {
          "internalType": "uint256[]",
          "name": "ids",
          "type": "uint256[]"
        },
        {
          "internalType": "uint256[]",
          "name": "amounts",
          "type": "uint256[]"
        }
      ],
      "name": "createContract",
      "outputs": [
        {
          "internalType": "address",
          "name": "contractAddress",
          "type": "address"
        }
      ],
      "stateMutability": "nonpayable",
      "type": "function"
    },
    {
      "inputs": [],
      "name": "getVersion",
      "outputs": [
        {
          "internalType": "uint256",
          "name": "version",
          "type": "uint256"
        }
      ],
      "stateMutability": "pure",
      "type": "function"
    },
    {
      "inputs": [],
      "name": "implementation1155",
      "outputs": [
        {
          "internalType": "address",
          "name": "",
          "type": "address"
        }
      ],
      "stateMutability": "view",
      "type": "function"
    },
    {
      "inputs": [],
      "name": "implementation20",
      "outputs": [
        {
          "internalType": "address",
          "name": "",
          "type": "address"
        }
      ],
      "stateMutability": "view",
      "type": "function"
    },
    {
      "inputs": [],
      "name": "implementation721",
      "outputs": [
        {
          "internalType": "address",
          "name": "",
          "type": "address"
        }
      ],
      "stateMutability": "view",
      "type": "function"
    },
    {
      "inputs": [
        {
          "internalType": "address",
          "name": "_marketplace1155",
          "type": "address"
        },
        {
          "internalType": "address",
          "name": "_marketplace721",
          "type": "address"
        }
      ],
      "name": "initialize",
      "outputs": [],
      "stateMutability": "nonpayable",
      "type": "function"
    },
    {
      "inputs": [],
      "name": "marketplace1155",
      "outputs": [
        {
          "internalType": "address",
          "name": "",
          "type": "address"
        }
      ],
      "stateMutability": "view",
      "type": "function"
    },
    {
      "inputs": [],
      "name": "marketplace721",
      "outputs": [
        {
          "internalType": "address",
          "name": "",
          "type": "address"
        }
      ],
      "stateMutability": "view",
      "type": "function"
    },
    {
      "inputs": [],
      "name": "owner",
      "outputs": [
        {
          "internalType": "address",
          "name": "",
          "type": "address"
        }
      ],
      "stateMutability": "view",
      "type": "function"
    },
    {
      "inputs": [
        {
          "internalType": "uint256",
          "name": "standard",
          "type": "uint256"
        },
        {
          "internalType": "uint256",
          "name": "_salt",
          "type": "uint256"
        }
      ],
      "name": "predictAddress",
      "outputs": [
        {
          "internalType": "address",
          "name": "contractAddress",
          "type": "address"
        }
      ],
      "stateMutability": "view",
      "type": "function"
    },
    {
      "inputs": [],
      "name": "proxiableUUID",
      "outputs": [
        {
          "internalType": "bytes32",
          "name": "",
          "type": "bytes32"
        }
      ],
      "stateMutability": "view",
      "type": "function"
    },
    {
      "inputs": [
        {
          "internalType": "uint256",
          "name": "standard",
          "type": "uint256"
        },
        {
          "internalType": "address",
          "name": "newImplementation",
          "type": "address"
        }
      ],
      "name": "setImplementation",
      "outputs": [],
      "stateMutability": "nonpayable",
      "type": "function"
    },
    {
      "inputs": [
        {
          "internalType": "uint256",
          "name": "standard",
          "type": "uint256"
        },
        {
          "internalType": "address",
          "name": "newMarketplace",
          "type": "address"
        }
      ],
      "name": "setMarketplace",
      "outputs": [],
      "stateMutability": "nonpayable",
      "type": "function"
    },
    {
      "inputs": [
        {
          "internalType": "address",
          "name": "newOwner",
          "type": "address"
        }
      ],
      "name": "transferOwnership",
      "outputs": [],
      "stateMutability": "nonpayable",
      "type": "function"
    },
    {
      "inputs": [
        {
          "internalType": "address",
          "name": "newImplementation",
          "type": "address"
        }
      ],
      "name": "upgradeTo",
      "outputs": [],
      "stateMutability": "nonpayable",
      "type": "function"
    },
    {
      "inputs": [
        {
          "internalType": "address",
          "name": "newImplementation",
          "type": "address"
        },
        {
          "internalType": "bytes",
          "name": "data",
          "type": "bytes"
        }
      ],
      "name": "upgradeToAndCall",
      "outputs": [],
      "stateMutability": "payable",
      "type": "function"
    }
  ],
  "bytecode": "0x60a06040523060805234801561001457600080fd5b5060805161217461004c60003960008181610397015281816103e301528181610a3401528181610a770152610b1301526121746000f3fe608060405260043610620001135760003560e01c8063715e780f11620000a15780638f0bf3ff116200006c5780638f0bf3ff14620002c457806397202fb114620002fb578063c63d6b6e146200031d578063f083b0961462000342578063f2fde38b146200036757600080fd5b8063715e780f146200023c578063848fd1a3146200025e57806389a6206514620002805780638da5cb5b14620002a257600080fd5b806348a1ccf211620000e257806348a1ccf214620001c35780634f1ef28614620001e857806352d1902d14620001ff57806364808521146200021757600080fd5b80630d8e6e2c14620001185780633659cfe6146200013c578063446e3c5f1462000163578063485cc955146200019e575b600080fd5b3480156200012557600080fd5b5060025b6040519081526020015b60405180910390f35b3480156200014957600080fd5b50620001616200015b36600462001273565b6200038c565b005b3480156200017057600080fd5b5060685462000185906001600160a01b031681565b6040516001600160a01b03909116815260200162000133565b348015620001ab57600080fd5b5062000161620001bd36600462001291565b62000481565b348015620001d057600080fd5b5062000185620001e23660046200141d565b620005cd565b62000161620001f936600462001556565b62000a29565b3480156200020c57600080fd5b506200012962000b06565b3480156200022457600080fd5b506200018562000236366004620015bf565b62000bbc565b3480156200024957600080fd5b50606a5462000185906001600160a01b031681565b3480156200026b57600080fd5b5060675462000185906001600160a01b031681565b3480156200028d57600080fd5b5060695462000185906001600160a01b031681565b348015620002af57600080fd5b5060655462000185906001600160a01b031681565b348015620002d157600080fd5b50620002e16301ffc9a760e01b81565b6040516001600160e01b0319909116815260200162000133565b3480156200030857600080fd5b5060665462000185906001600160a01b031681565b3480156200032a57600080fd5b50620001616200033c366004620015e2565b62000d3c565b3480156200034f57600080fd5b506200016162000361366004620015e2565b62000d99565b3480156200037457600080fd5b50620001616200038636600462001273565b62000e1c565b306001600160a01b037f0000000000000000000000000000000000000000000000000000000000000000161415620003e15760405162461bcd60e51b8152600401620003d89062001608565b60405180910390fd5b7f00000000000000000000000000000000000000000000000000000000000000006001600160a01b03166200042c600080516020620020f8833981519152546001600160a01b031690565b6001600160a01b031614620004555760405162461bcd60e51b8152600401620003d89062001654565b620004608162000e48565b604080516000808252602082019092526200047e9183919062000e52565b50565b600054610100900460ff1615808015620004a25750600054600160ff909116105b80620004be5750303b158015620004be575060005460ff166001145b620005235760405162461bcd60e51b815260206004820152602e60248201527f496e697469616c697a61626c653a20636f6e747261637420697320616c72656160448201526d191e481a5b9a5d1a585b1a5e995960921b6064820152608401620003d8565b6000805460ff19166001179055801562000547576000805461ff0019166101001790555b60658054326001600160a01b0319918216179091556069805482166001600160a01b0386811691909117909155606a80549092169084161790558015620005c8576000805461ff0019169055604051600181527f7f26b83ff96e1f2b6a682f133852f6798a09c465da95921460cefb38474024989060200160405180910390a15b505050565b60008086118015620005e157506127108611155b6200061d5760405162461bcd60e51b815260206004820152600b60248201526a496e76616c69642046656560a81b6044820152606401620003d8565b8b6102d114156200080e576001600160a01b0387161562000701576040516301ffc9a760e01b80825260048201526001600160a01b038816906301ffc9a79060240160206040518083038186803b1580156200067857600080fd5b505afa1580156200068d573d6000803e3d6000fd5b505050506040513d601f19601f82011682018060405250810190620006b39190620016a0565b620007015760405162461bcd60e51b815260206004820152601f60248201527f436f6e747261637420646f6573206e6f7420737570706f7274204552433230006044820152606401620003d8565b606754604051869160009183916001600160a01b031690620007239062001248565b6200072f9190620016c4565b8190604051809103906000f590508015801562000750573d6000803e3d6000fd5b5090506000819050806001600160a01b031663d3a9902b8f8f8f8f8f8f8e6040518863ffffffff1660e01b815260040162000792979695949392919062001744565b600060405180830381600087803b158015620007ad57600080fd5b505af1158015620007c2573d6000803e3d6000fd5b50506040516001600160a01b03841681527ff40fcec21964ffb566044d083b4073f29f7f7929110ea19e1b3ebe375d89055e9250602001905060405180910390a1925062000a1a915050565b8b610483141562000985576001600160a01b03871615620008f2576040516301ffc9a760e01b80825260048201526001600160a01b038816906301ffc9a79060240160206040518083038186803b1580156200086957600080fd5b505afa1580156200087e573d6000803e3d6000fd5b505050506040513d601f19601f82011682018060405250810190620008a49190620016a0565b620008f25760405162461bcd60e51b815260206004820152601f60248201527f436f6e747261637420646f6573206e6f7420737570706f7274204552433230006044820152606401620003d8565b606654604051869160009183916001600160a01b031690620009149062001248565b620009209190620016c4565b8190604051809103906000f590508015801562000941573d6000803e3d6000fd5b5090506000819050806001600160a01b0316633399c8608f8f8f8f8f8f8d8d6040518963ffffffff1660e01b815260040162000792989796959493929190620017f0565b8b6014141562000a1a57606854604051869160009183916001600160a01b031690620009b19062001248565b620009bd9190620016c4565b8190604051809103906000f5905080158015620009de573d6000803e3d6000fd5b5090506000819050806001600160a01b031663f542033f8f8f8e8b6040518563ffffffff1660e01b81526004016200079294939291906200187c565b9b9a5050505050505050505050565b306001600160a01b037f000000000000000000000000000000000000000000000000000000000000000016141562000a755760405162461bcd60e51b8152600401620003d89062001608565b7f00000000000000000000000000000000000000000000000000000000000000006001600160a01b031662000ac0600080516020620020f8833981519152546001600160a01b031690565b6001600160a01b03161462000ae95760405162461bcd60e51b8152600401620003d89062001654565b62000af48262000e48565b62000b028282600162000e52565b5050565b6000306001600160a01b037f0000000000000000000000000000000000000000000000000000000000000000161462000ba85760405162461bcd60e51b815260206004820152603860248201527f555550535570677261646561626c653a206d757374206e6f742062652063616c60448201527f6c6564207468726f7567682064656c656761746563616c6c00000000000000006064820152608401620003d8565b50600080516020620020f883398151915290565b600080836014141562000bd757506068546001600160a01b03165b836102d1141562000bf057506067546001600160a01b03165b83610483141562000c0957506066546001600160a01b03165b6001600160a01b03811662000c5a5760405162461bcd60e51b8152602060048201526016602482015275496e76616c6964207374616e646172642076616c756560501b6044820152606401620003d8565b6040516001600160f81b0319903090859062000c796020820162001248565b601f1982820381018352601f90910116604081905262000c9e908690602001620016c4565b60408051601f198184030181529082905262000cbe9291602001620018c2565b6040516020818303038152906040528051906020012060405160200162000d1c94939291906001600160f81b031994909416845260609290921b6bffffffffffffffffffffffff191660018401526015830152603582015260550190565b60408051601f198184030181529190528051602090910120949350505050565b62000d4662000fda565b81610483141562000d6d57606980546001600160a01b0319166001600160a01b0383161790555b816102d1141562000b0257606a80546001600160a01b0383166001600160a01b03199091161790555050565b62000da362000fda565b81610483141562000dca57606680546001600160a01b0319166001600160a01b0383161790555b816102d1141562000df157606780546001600160a01b0319166001600160a01b0383161790555b816014141562000b0257606880546001600160a01b0383166001600160a01b03199091161790555050565b62000e2662000fda565b606580546001600160a01b0319166001600160a01b0392909216919091179055565b6200047e62000fda565b7f4910fdfa16fed3260ed0e7147f7cc6da11a60208b5b9406d12a635614ffd91435460ff161562000e8857620005c88362000ff4565b826001600160a01b03166352d1902d6040518163ffffffff1660e01b815260040160206040518083038186803b15801562000ec257600080fd5b505afa92505050801562000ef5575060408051601f3d908101601f1916820190925262000ef291810190620018f5565b60015b62000f5a5760405162461bcd60e51b815260206004820152602e60248201527f45524331393637557067726164653a206e657720696d706c656d656e7461746960448201526d6f6e206973206e6f74205555505360901b6064820152608401620003d8565b600080516020620020f8833981519152811462000fcc5760405162461bcd60e51b815260206004820152602960248201527f45524331393637557067726164653a20756e737570706f727465642070726f786044820152681a58589b195555525160ba1b6064820152608401620003d8565b50620005c883838362001093565b6065546001600160a01b0316331462000ff257600080fd5b565b6001600160a01b0381163b620010635760405162461bcd60e51b815260206004820152602d60248201527f455243313936373a206e657720696d706c656d656e746174696f6e206973206e60448201526c1bdd08184818dbdb9d1c9858dd609a1b6064820152608401620003d8565b600080516020620020f883398151915280546001600160a01b0319166001600160a01b0392909216919091179055565b6200109e83620010c4565b600082511180620010ac5750805b15620005c857620010be838362001106565b50505050565b620010cf8162000ff4565b6040516001600160a01b038216907fbc7cd75a20ee27fd9adebab32041f755214dbc6bffa90cc0225b39da2e5c2d3b90600090a250565b60606001600160a01b0383163b620011705760405162461bcd60e51b815260206004820152602660248201527f416464726573733a2064656c65676174652063616c6c20746f206e6f6e2d636f6044820152651b9d1c9858dd60d21b6064820152608401620003d8565b600080846001600160a01b0316846040516200118d91906200190f565b600060405180830381855af49150503d8060008114620011ca576040519150601f19603f3d011682016040523d82523d6000602084013e620011cf565b606091505b5091509150620011fa8282604051806060016040528060278152602001620021186027913962001203565b95945050505050565b606083156200121457508162001241565b825115620012255782518084602001fd5b8160405162461bcd60e51b8152600401620003d891906200192d565b9392505050565b6107b5806200194383390190565b80356001600160a01b03811681146200126e57600080fd5b919050565b6000602082840312156200128657600080fd5b620012418262001256565b60008060408385031215620012a557600080fd5b620012b08362001256565b9150620012c06020840162001256565b90509250929050565b634e487b7160e01b600052604160045260246000fd5b604051601f8201601f1916810167ffffffffffffffff811182821017156200130b576200130b620012c9565b604052919050565b600067ffffffffffffffff831115620013305762001330620012c9565b62001345601f8401601f1916602001620012df565b90508281528383830111156200135a57600080fd5b828260208301376000602084830101529392505050565b600082601f8301126200138357600080fd5b620012418383356020850162001313565b600082601f830112620013a657600080fd5b8135602067ffffffffffffffff821115620013c557620013c5620012c9565b8160051b620013d6828201620012df565b9283528481018201928281019087851115620013f157600080fd5b83870192505b848310156200141257823582529183019190830190620013f7565b979650505050505050565b60008060008060008060008060008060006101608c8e0312156200144057600080fd5b8b359a5067ffffffffffffffff8060208e013511156200145f57600080fd5b620014718e60208f01358f0162001371565b9a508060408e013511156200148557600080fd5b620014978e60408f01358f0162001371565b99508060608e01351115620014ab57600080fd5b620014bd8e60608f01358f0162001371565b9850620014cd60808e0162001256565b9750620014dd60a08e0162001256565b965060c08d0135955060e08d013594506101008d01359350806101208e013511156200150857600080fd5b6200151b8e6101208f01358f0162001394565b9250806101408e013511156200153057600080fd5b50620015448d6101408e01358e0162001394565b90509295989b509295989b9093969950565b600080604083850312156200156a57600080fd5b620015758362001256565b9150602083013567ffffffffffffffff8111156200159257600080fd5b8301601f81018513620015a457600080fd5b620015b58582356020840162001313565b9150509250929050565b60008060408385031215620015d357600080fd5b50508035926020909101359150565b60008060408385031215620015f657600080fd5b82359150620012c06020840162001256565b6020808252602c908201527f46756e6374696f6e206d7573742062652063616c6c6564207468726f7567682060408201526b19195b1959d85d1958d85b1b60a21b606082015260800190565b6020808252602c908201527f46756e6374696f6e206d7573742062652063616c6c6564207468726f7567682060408201526b6163746976652070726f787960a01b606082015260800190565b600060208284031215620016b357600080fd5b815180151581146200124157600080fd5b6001600160a01b0391909116815260406020820181905260009082015260600190565b60005b8381101562001704578181015183820152602001620016ea565b83811115620010be5750506000910152565b6000815180845262001730816020860160208601620016e7565b601f01601f19169290920160200192915050565b60e0815260006200175960e083018a62001716565b82810360208401526200176d818a62001716565b9050828103604084015262001783818962001716565b6001600160a01b0397881660608501529590961660808301525060a081019290925260c090910152949350505050565b600081518084526020808501945080840160005b83811015620017e557815187529582019590820190600101620017c7565b509495945050505050565b6000610100808352620018068184018c62001716565b905082810360208401526200181c818b62001716565b9050828103604084015262001832818a62001716565b6001600160a01b0389811660608601528816608085015260a0840187905283810360c08501529050620018668186620017b3565b905082810360e084015262000a1a8185620017b3565b60808152600062001891608083018762001716565b8281036020840152620018a5818762001716565b6001600160a01b0395909516604084015250506060015292915050565b60008351620018d6818460208801620016e7565b835190830190620018ec818360208801620016e7565b01949350505050565b6000602082840312156200190857600080fd5b5051919050565b6000825162001923818460208701620016e7565b9190910192915050565b6020815260006200124160208301846200171656fe60806040526040516107b53803806107b58339810160408190526100229161034d565b818161004f60017f360894a13ba1a3210667c828492db98dca3e2076cc3735a920a3ca505d382bbd61041b565b60008051602061076e8339815191521461006b5761006b610440565b61007782826000610080565b505050506104a5565b610089836100b6565b6000825111806100965750805b156100b1576100af83836100f660201b6100291760201c565b505b505050565b6100bf81610122565b6040516001600160a01b038216907fbc7cd75a20ee27fd9adebab32041f755214dbc6bffa90cc0225b39da2e5c2d3b90600090a250565b606061011b838360405180606001604052806027815260200161078e602791396101e2565b9392505050565b610135816102c060201b6100551760201c565b61019c5760405162461bcd60e51b815260206004820152602d60248201527f455243313936373a206e657720696d706c656d656e746174696f6e206973206e60448201526c1bdd08184818dbdb9d1c9858dd609a1b60648201526084015b60405180910390fd5b806101c160008051602061076e83398151915260001b6102cf60201b6100641760201c565b80546001600160a01b0319166001600160a01b039290921691909117905550565b60606001600160a01b0384163b61024a5760405162461bcd60e51b815260206004820152602660248201527f416464726573733a2064656c65676174652063616c6c20746f206e6f6e2d636f6044820152651b9d1c9858dd60d21b6064820152608401610193565b600080856001600160a01b0316856040516102659190610456565b600060405180830381855af49150503d80600081146102a0576040519150601f19603f3d011682016040523d82523d6000602084013e6102a5565b606091505b5090925090506102b68282866102d2565b9695505050505050565b6001600160a01b03163b151590565b90565b606083156102e157508161011b565b8251156102f15782518084602001fd5b8160405162461bcd60e51b81526004016101939190610472565b634e487b7160e01b600052604160045260246000fd5b60005b8381101561033c578181015183820152602001610324565b838111156100af5750506000910152565b6000806040838503121561036057600080fd5b82516001600160a01b038116811461037757600080fd5b60208401519092506001600160401b038082111561039457600080fd5b818501915085601f8301126103a857600080fd5b8151818111156103ba576103ba61030b565b604051601f8201601f19908116603f011681019083821181831017156103e2576103e261030b565b816040528281528860208487010111156103fb57600080fd5b61040c836020830160208801610321565b80955050505050509250929050565b60008282101561043b57634e487b7160e01b600052601160045260246000fd5b500390565b634e487b7160e01b600052600160045260246000fd5b60008251610468818460208701610321565b9190910192915050565b6020815260008251806020840152610491816040850160208701610321565b601f01601f19169190910160400192915050565b6102ba806104b46000396000f3fe60806040523661001357610011610017565b005b6100115b610027610022610067565b61009f565b565b606061004e838360405180606001604052806027815260200161025e602791396100c3565b9392505050565b6001600160a01b03163b151590565b90565b600061009a7f360894a13ba1a3210667c828492db98dca3e2076cc3735a920a3ca505d382bbc546001600160a01b031690565b905090565b3660008037600080366000845af43d6000803e8080156100be573d6000f35b3d6000fd5b60606001600160a01b0384163b6101305760405162461bcd60e51b815260206004820152602660248201527f416464726573733a2064656c65676174652063616c6c20746f206e6f6e2d636f6044820152651b9d1c9858dd60d21b60648201526084015b60405180910390fd5b600080856001600160a01b03168560405161014b919061020e565b600060405180830381855af49150503d8060008114610186576040519150601f19603f3d011682016040523d82523d6000602084013e61018b565b606091505b509150915061019b8282866101a5565b9695505050505050565b606083156101b457508161004e565b8251156101c45782518084602001fd5b8160405162461bcd60e51b8152600401610127919061022a565b60005b838110156101f95781810151838201526020016101e1565b83811115610208576000848401525b50505050565b600082516102208184602087016101de565b9190910192915050565b60208152600082518060208401526102498160408501602087016101de565b601f01601f1916919091016040019291505056fe416464726573733a206c6f772d6c6576656c2064656c65676174652063616c6c206661696c6564a26469706673582212208f0a62c52aa54f466d580adcfbab9e6bfdd95f69807ddf369845b5f39becf98164736f6c63430008090033360894a13ba1a3210667c828492db98dca3e2076cc3735a920a3ca505d382bbc416464726573733a206c6f772d6c6576656c2064656c65676174652063616c6c206661696c6564360894a13ba1a3210667c828492db98dca3e2076cc3735a920a3ca505d382bbc416464726573733a206c6f772d6c6576656c2064656c65676174652063616c6c206661696c6564a26469706673582212201a164e1f3c357e603206146a22d93d0f3c6d60b5e7afaecf3d911fbf697e496264736f6c63430008090033",
  "linkReferences": {},
  "deployedLinkReferences": {}
}