{
  "_format": "hh-sol-artifact-1",
  "contractName": "ERC1155",
  "sourceName": "contracts/ERC1155.sol",
  "abi": [
    {
      "anonymous": false,
      "inputs": [
        {
          "indexed": false,
          "internalType": "address",
          "name": "previousAdmin",
          "type": "address"
        },
        {
          "indexed": false,
          "internalType": "address",
          "name": "newAdmin",
          "type": "address"
        }
      ],
      "name": "AdminChanged",
      "type": "event"
    },
    {
      "anonymous": false,
      "inputs": [
        {
          "indexed": true,
          "internalType": "address",
          "name": "account",
          "type": "address"
        },
        {
          "indexed": true,
          "internalType": "address",
          "name": "operator",
          "type": "address"
        },
        {
          "indexed": false,
          "internalType": "bool",
          "name": "approved",
          "type": "bool"
        }
      ],
      "name": "ApprovalForAll",
      "type": "event"
    },
    {
      "anonymous": false,
      "inputs": [
        {
          "indexed": true,
          "internalType": "address",
          "name": "beacon",
          "type": "address"
        }
      ],
      "name": "BeaconUpgraded",
      "type": "event"
    },
    {
      "anonymous": false,
      "inputs": [
        {
          "indexed": false,
          "internalType": "uint8",
          "name": "version",
          "type": "uint8"
        }
      ],
      "name": "Initialized",
      "type": "event"
    },
    {
      "anonymous": false,
      "inputs": [
        {
          "indexed": true,
          "internalType": "bytes32",
          "name": "role",
          "type": "bytes32"
        },
        {
          "indexed": true,
          "internalType": "bytes32",
          "name": "previousAdminRole",
          "type": "bytes32"
        },
        {
          "indexed": true,
          "internalType": "bytes32",
          "name": "newAdminRole",
          "type": "bytes32"
        }
      ],
      "name": "RoleAdminChanged",
      "type": "event"
    },
    {
      "anonymous": false,
      "inputs": [
        {
          "indexed": true,
          "internalType": "bytes32",
          "name": "role",
          "type": "bytes32"
        },
        {
          "indexed": true,
          "internalType": "address",
          "name": "account",
          "type": "address"
        },
        {
          "indexed": true,
          "internalType": "address",
          "name": "sender",
          "type": "address"
        }
      ],
      "name": "RoleGranted",
      "type": "event"
    },
    {
      "anonymous": false,
      "inputs": [
        {
          "indexed": true,
          "internalType": "bytes32",
          "name": "role",
          "type": "bytes32"
        },
        {
          "indexed": true,
          "internalType": "address",
          "name": "account",
          "type": "address"
        },
        {
          "indexed": true,
          "internalType": "address",
          "name": "sender",
          "type": "address"
        }
      ],
      "name": "RoleRevoked",
      "type": "event"
    },
    {
      "anonymous": false,
      "inputs": [
        {
          "indexed": true,
          "internalType": "address",
          "name": "operator",
          "type": "address"
        },
        {
          "indexed": true,
          "internalType": "address",
          "name": "from",
          "type": "address"
        },
        {
          "indexed": true,
          "internalType": "address",
          "name": "to",
          "type": "address"
        },
        {
          "indexed": false,
          "internalType": "uint256[]",
          "name": "ids",
          "type": "uint256[]"
        },
        {
          "indexed": false,
          "internalType": "uint256[]",
          "name": "values",
          "type": "uint256[]"
        }
      ],
      "name": "TransferBatch",
      "type": "event"
    },
    {
      "anonymous": false,
      "inputs": [
        {
          "indexed": true,
          "internalType": "address",
          "name": "operator",
          "type": "address"
        },
        {
          "indexed": true,
          "internalType": "address",
          "name": "from",
          "type": "address"
        },
        {
          "indexed": true,
          "internalType": "address",
          "name": "to",
          "type": "address"
        },
        {
          "indexed": false,
          "internalType": "uint256",
          "name": "id",
          "type": "uint256"
        },
        {
          "indexed": false,
          "internalType": "uint256",
          "name": "value",
          "type": "uint256"
        }
      ],
      "name": "TransferSingle",
      "type": "event"
    },
    {
      "anonymous": false,
      "inputs": [
        {
          "indexed": false,
          "internalType": "string",
          "name": "value",
          "type": "string"
        },
        {
          "indexed": true,
          "internalType": "uint256",
          "name": "id",
          "type": "uint256"
        }
      ],
      "name": "URI",
      "type": "event"
    },
    {
      "anonymous": false,
      "inputs": [
        {
          "indexed": true,
          "internalType": "address",
          "name": "implementation",
          "type": "address"
        }
      ],
      "name": "Upgraded",
      "type": "event"
    },
    {
      "inputs": [],
      "name": "DEFAULT_ADMIN_ROLE",
      "outputs": [
        {
          "internalType": "bytes32",
          "name": "",
          "type": "bytes32"
        }
      ],
      "stateMutability": "view",
      "type": "function"
    },
    {
      "inputs": [
        {
          "internalType": "address",
          "name": "account",
          "type": "address"
        },
        {
          "internalType": "uint256",
          "name": "id",
          "type": "uint256"
        }
      ],
      "name": "balanceOf",
      "outputs": [
        {
          "internalType": "uint256",
          "name": "",
          "type": "uint256"
        }
      ],
      "stateMutability": "view",
      "type": "function"
    },
    {
      "inputs": [
        {
          "internalType": "address[]",
          "name": "accounts",
          "type": "address[]"
        },
        {
          "internalType": "uint256[]",
          "name": "ids",
          "type": "uint256[]"
        }
      ],
      "name": "balanceOfBatch",
      "outputs": [
        {
          "internalType": "uint256[]",
          "name": "",
          "type": "uint256[]"
        }
      ],
      "stateMutability": "view",
      "type": "function"
    },
    {
      "inputs": [
        {
          "internalType": "uint256",
          "name": "id",
          "type": "uint256"
        },
        {
          "internalType": "uint256",
          "name": "amount",
          "type": "uint256"
        }
      ],
      "name": "burn",
      "outputs": [],
      "stateMutability": "nonpayable",
      "type": "function"
    },
    {
      "inputs": [
        {
          "internalType": "uint256[]",
          "name": "ids",
          "type": "uint256[]"
        },
        {
          "internalType": "uint256[]",
          "name": "amounts",
          "type": "uint256[]"
        }
      ],
      "name": "burnBatch",
      "outputs": [],
      "stateMutability": "nonpayable",
      "type": "function"
    },
    {
      "inputs": [
        {
          "internalType": "address",
          "name": "newERC20Address",
          "type": "address"
        }
      ],
      "name": "changeERC20Address",
      "outputs": [],
      "stateMutability": "nonpayable",
      "type": "function"
    },
    {
      "inputs": [
        {
          "internalType": "uint256",
          "name": "_percentFee",
          "type": "uint256"
        }
      ],
      "name": "changeFeePercent",
      "outputs": [],
      "stateMutability": "nonpayable",
      "type": "function"
    },
    {
      "inputs": [],
      "name": "erc20",
      "outputs": [
        {
          "internalType": "address",
          "name": "",
          "type": "address"
        }
      ],
      "stateMutability": "view",
      "type": "function"
    },
    {
      "inputs": [],
      "name": "factory",
      "outputs": [
        {
          "internalType": "address",
          "name": "",
          "type": "address"
        }
      ],
      "stateMutability": "view",
      "type": "function"
    },
    {
      "inputs": [],
      "name": "getContractMetadata",
      "outputs": [
        {
          "components": [
            {
              "internalType": "string",
              "name": "name",
              "type": "string"
            },
            {
              "internalType": "string",
              "name": "symbol",
              "type": "string"
            },
            {
              "internalType": "string",
              "name": "tokenType",
              "type": "string"
            },
            {
              "internalType": "string",
              "name": "baseUri",
              "type": "string"
            }
          ],
          "internalType": "struct ERC1155.Metadata",
          "name": "metadata",
          "type": "tuple"
        }
      ],
      "stateMutability": "view",
      "type": "function"
    },
    {
      "inputs": [
        {
          "internalType": "bytes32",
          "name": "role",
          "type": "bytes32"
        }
      ],
      "name": "getRoleAdmin",
      "outputs": [
        {
          "internalType": "bytes32",
          "name": "",
          "type": "bytes32"
        }
      ],
      "stateMutability": "view",
      "type": "function"
    },
    {
      "inputs": [],
      "name": "getVersion",
      "outputs": [
        {
          "internalType": "uint256",
          "name": "",
          "type": "uint256"
        }
      ],
      "stateMutability": "pure",
      "type": "function"
    },
    {
      "inputs": [
        {
          "internalType": "bytes32",
          "name": "role",
          "type": "bytes32"
        },
        {
          "internalType": "address",
          "name": "account",
          "type": "address"
        }
      ],
      "name": "grantRole",
      "outputs": [],
      "stateMutability": "nonpayable",
      "type": "function"
    },
    {
      "inputs": [
        {
          "internalType": "bytes32",
          "name": "role",
          "type": "bytes32"
        },
        {
          "internalType": "address",
          "name": "account",
          "type": "address"
        }
      ],
      "name": "hasRole",
      "outputs": [
        {
          "internalType": "bool",
          "name": "",
          "type": "bool"
        }
      ],
      "stateMutability": "view",
      "type": "function"
    },
    {
      "inputs": [
        {
          "internalType": "string",
          "name": "name_",
          "type": "string"
        },
        {
          "internalType": "string",
          "name": "symbol_",
          "type": "string"
        },
        {
          "internalType": "string",
          "name": "baseURI_",
          "type": "string"
        },
        {
          "internalType": "address",
          "name": "owner_",
          "type": "address"
        },
        {
          "internalType": "address",
          "name": "erc20_",
          "type": "address"
        },
        {
          "internalType": "uint256",
          "name": "percentFee_",
          "type": "uint256"
        },
        {
          "internalType": "uint256[]",
          "name": "ids_",
          "type": "uint256[]"
        },
        {
          "internalType": "uint256[]",
          "name": "amounts_",
          "type": "uint256[]"
        }
      ],
      "name": "initialize",
      "outputs": [],
      "stateMutability": "nonpayable",
      "type": "function"
    },
    {
      "inputs": [
        {
          "internalType": "address",
          "name": "account",
          "type": "address"
        },
        {
          "internalType": "address",
          "name": "operator",
          "type": "address"
        }
      ],
      "name": "isApprovedForAll",
      "outputs": [
        {
          "internalType": "bool",
          "name": "",
          "type": "bool"
        }
      ],
      "stateMutability": "view",
      "type": "function"
    },
    {
      "inputs": [
        {
          "internalType": "address",
          "name": "account",
          "type": "address"
        },
        {
          "internalType": "uint256",
          "name": "id",
          "type": "uint256"
        },
        {
          "internalType": "uint256",
          "name": "amount",
          "type": "uint256"
        }
      ],
      "name": "mint",
      "outputs": [],
      "stateMutability": "nonpayable",
      "type": "function"
    },
    {
      "inputs": [
        {
          "internalType": "address",
          "name": "to",
          "type": "address"
        },
        {
          "internalType": "uint256[]",
          "name": "ids",
          "type": "uint256[]"
        },
        {
          "internalType": "uint256[]",
          "name": "amounts",
          "type": "uint256[]"
        }
      ],
      "name": "mintBatch",
      "outputs": [],
      "stateMutability": "nonpayable",
      "type": "function"
    },
    {
      "inputs": [],
      "name": "name",
      "outputs": [
        {
          "internalType": "string",
          "name": "",
          "type": "string"
        }
      ],
      "stateMutability": "view",
      "type": "function"
    },
    {
      "inputs": [],
      "name": "owner",
      "outputs": [
        {
          "internalType": "address",
          "name": "",
          "type": "address"
        }
      ],
      "stateMutability": "view",
      "type": "function"
    },
    {
      "inputs": [],
      "name": "percentDecimals",
      "outputs": [
        {
          "internalType": "uint256",
          "name": "",
          "type": "uint256"
        }
      ],
      "stateMutability": "view",
      "type": "function"
    },
    {
      "inputs": [],
      "name": "percentFee",
      "outputs": [
        {
          "internalType": "uint256",
          "name": "",
          "type": "uint256"
        }
      ],
      "stateMutability": "view",
      "type": "function"
    },
    {
      "inputs": [],
      "name": "proxiableUUID",
      "outputs": [
        {
          "internalType": "bytes32",
          "name": "",
          "type": "bytes32"
        }
      ],
      "stateMutability": "view",
      "type": "function"
    },
    {
      "inputs": [
        {
          "internalType": "bytes32",
          "name": "role",
          "type": "bytes32"
        },
        {
          "internalType": "address",
          "name": "account",
          "type": "address"
        }
      ],
      "name": "renounceRole",
      "outputs": [],
      "stateMutability": "nonpayable",
      "type": "function"
    },
    {
      "inputs": [
        {
          "internalType": "bytes32",
          "name": "role",
          "type": "bytes32"
        },
        {
          "internalType": "address",
          "name": "account",
          "type": "address"
        }
      ],
      "name": "revokeRole",
      "outputs": [],
      "stateMutability": "nonpayable",
      "type": "function"
    },
    {
      "inputs": [
        {
          "internalType": "address",
          "name": "from",
          "type": "address"
        },
        {
          "internalType": "address",
          "name": "to",
          "type": "address"
        },
        {
          "internalType": "uint256[]",
          "name": "ids",
          "type": "uint256[]"
        },
        {
          "internalType": "uint256[]",
          "name": "amounts",
          "type": "uint256[]"
        },
        {
          "internalType": "bytes",
          "name": "data",
          "type": "bytes"
        }
      ],
      "name": "safeBatchTransferFrom",
      "outputs": [],
      "stateMutability": "nonpayable",
      "type": "function"
    },
    {
      "inputs": [
        {
          "internalType": "address",
          "name": "from",
          "type": "address"
        },
        {
          "internalType": "address",
          "name": "to",
          "type": "address"
        },
        {
          "internalType": "uint256",
          "name": "id",
          "type": "uint256"
        },
        {
          "internalType": "uint256",
          "name": "amount",
          "type": "uint256"
        },
        {
          "internalType": "bytes",
          "name": "data",
          "type": "bytes"
        }
      ],
      "name": "safeTransferFrom",
      "outputs": [],
      "stateMutability": "nonpayable",
      "type": "function"
    },
    {
      "inputs": [
        {
          "internalType": "address",
          "name": "operator",
          "type": "address"
        },
        {
          "internalType": "bool",
          "name": "approved",
          "type": "bool"
        }
      ],
      "name": "setApprovalForAll",
      "outputs": [],
      "stateMutability": "nonpayable",
      "type": "function"
    },
    {
      "inputs": [
        {
          "internalType": "string",
          "name": "_newBaseURI",
          "type": "string"
        }
      ],
      "name": "setBaseURI",
      "outputs": [],
      "stateMutability": "nonpayable",
      "type": "function"
    },
    {
      "inputs": [
        {
          "internalType": "bytes4",
          "name": "interfaceId",
          "type": "bytes4"
        }
      ],
      "name": "supportsInterface",
      "outputs": [
        {
          "internalType": "bool",
          "name": "",
          "type": "bool"
        }
      ],
      "stateMutability": "view",
      "type": "function"
    },
    {
      "inputs": [],
      "name": "symbol",
      "outputs": [
        {
          "internalType": "string",
          "name": "",
          "type": "string"
        }
      ],
      "stateMutability": "view",
      "type": "function"
    },
    {
      "inputs": [
        {
          "internalType": "uint256",
          "name": "",
          "type": "uint256"
        }
      ],
      "name": "tokenIdSupply",
      "outputs": [
        {
          "internalType": "uint256",
          "name": "",
          "type": "uint256"
        }
      ],
      "stateMutability": "view",
      "type": "function"
    },
    {
      "inputs": [
        {
          "internalType": "address",
          "name": "newImplementation",
          "type": "address"
        }
      ],
      "name": "upgradeTo",
      "outputs": [],
      "stateMutability": "nonpayable",
      "type": "function"
    },
    {
      "inputs": [
        {
          "internalType": "address",
          "name": "newImplementation",
          "type": "address"
        },
        {
          "internalType": "bytes",
          "name": "data",
          "type": "bytes"
        }
      ],
      "name": "upgradeToAndCall",
      "outputs": [],
      "stateMutability": "payable",
      "type": "function"
    },
    {
      "inputs": [
        {
          "internalType": "uint256",
          "name": "",
          "type": "uint256"
        }
      ],
      "name": "uri",
      "outputs": [
        {
          "internalType": "string",
          "name": "",
          "type": "string"
        }
      ],
      "stateMutability": "view",
      "type": "function"
    }
  ],
  "bytecode": "0x60a06040523060805234801561001457600080fd5b506080516138e661004c60003960008181610de701528181610e2701528181610ff00152818161103001526110bf01526138e66000f3fe6080604052600436106102035760003560e01c80634f1ef28611610118578063a217fddf116100a0578063d547741f1161006f578063d547741f146105f4578063d81d0a1514610614578063e985e9c514610634578063f242432a1461067d578063f75195bc1461069d57600080fd5b8063a217fddf1461057e578063a22cb46514610593578063b390c0ab146105b3578063c45a0155146105d357600080fd5b8063785e9e86116100e7578063785e9e86146104cf57806383ca4b6f146105085780638da5cb5b1461052857806391d148541461054957806395d89b411461056957600080fd5b80634f1ef2861461046557806352d1902d1461047857806355f804b31461048d57806372b44b52146104ad57600080fd5b80632eb2c2d61161019b57806334eddf3e1161016a57806334eddf3e146103c157806336568abe146103e15780633659cfe6146104015780634c1a4115146104215780634e1273f41461043857600080fd5b80632eb2c2d6146103335780632f2ff15d14610353578063327de31f146103735780633399c860146103a157600080fd5b80630e89341c116101d75780630e89341c146102a1578063136e4d63146102c1578063156e29f6146102e3578063248a9ca31461030357600080fd5b8062fdd58e1461020857806301ffc9a71461023b57806306fdde031461026b5780630d8e6e2c1461028d575b600080fd5b34801561021457600080fd5b506102286102233660046129c0565b6106b2565b6040519081526020015b60405180910390f35b34801561024757600080fd5b5061025b610256366004612a02565b61074d565b6040519015158152602001610232565b34801561027757600080fd5b50610280610758565b6040516102329190612a77565b34801561029957600080fd5b506001610228565b3480156102ad57600080fd5b506102806102bc366004612a8a565b6107e7565b3480156102cd57600080fd5b506102e16102dc366004612aa3565b61087b565b005b3480156102ef57600080fd5b506102e16102fe366004612ac0565b61097f565b34801561030f57600080fd5b5061022861031e366004612a8a565b60009081526097602052604090206001015490565b34801561033f57600080fd5b506102e161034e366004612c3e565b6109f0565b34801561035f57600080fd5b506102e161036e366004612ceb565b610a3c565b34801561037f57600080fd5b5061022861038e366004612a8a565b6101336020526000908152604090205481565b3480156103ad57600080fd5b506102e16103bc366004612d1b565b610a66565b3480156103cd57600080fd5b506102e16103dc366004612a8a565b610cef565b3480156103ed57600080fd5b506102e16103fc366004612ceb565b610d5e565b34801561040d57600080fd5b506102e161041c366004612aa3565b610ddc565b34801561042d57600080fd5b506102286101325481565b34801561044457600080fd5b50610458610453366004612e17565b610ebc565b6040516102329190612f1e565b6102e1610473366004612f31565b610fe5565b34801561048457600080fd5b506102286110b2565b34801561049957600080fd5b506102e16104a8366004612f76565b611166565b3480156104b957600080fd5b506104c2611187565b6040516102329190612fb2565b3480156104db57600080fd5b50610131546104f0906001600160a01b031681565b6040516001600160a01b039091168152602001610232565b34801561051457600080fd5b506102e1610523366004613027565b611350565b34801561053457600080fd5b5061012f546104f0906001600160a01b031681565b34801561055557600080fd5b5061025b610564366004612ceb565b6113d6565b34801561057557600080fd5b50610280611401565b34801561058a57600080fd5b50610228600081565b34801561059f57600080fd5b506102e16105ae366004613081565b61140f565b3480156105bf57600080fd5b506102e16105ce3660046130af565b61141a565b3480156105df57600080fd5b50610130546104f0906001600160a01b031681565b34801561060057600080fd5b506102e161060f366004612ceb565b61144a565b34801561062057600080fd5b506102e161062f3660046130d1565b61146f565b34801561064057600080fd5b5061025b61064f366004613146565b6001600160a01b03918216600090815260666020908152604080832093909416825291909152205460ff1690565b34801561068957600080fd5b506102e1610698366004613174565b61152f565b3480156106a957600080fd5b50610228600281565b60006001600160a01b0383166107225760405162461bcd60e51b815260206004820152602a60248201527f455243313135353a2061646472657373207a65726f206973206e6f742061207660448201526930b634b21037bbb732b960b11b60648201526084015b60405180910390fd5b5060008181526065602090815260408083206001600160a01b03861684529091529020545b92915050565b600061074782611584565b61012d8054610766906131dc565b80601f0160208091040260200160405190810160405280929190818152602001828054610792906131dc565b80156107df5780601f106107b4576101008083540402835291602001916107df565b820191906000526020600020905b8154815290600101906020018083116107c257829003601f168201915b505050505081565b6060606780546107f6906131dc565b80601f0160208091040260200160405190810160405280929190818152602001828054610822906131dc565b801561086f5780601f106108445761010080835404028352916020019161086f565b820191906000526020600020905b81548152906001019060200180831161085257829003601f168201915b50505050509050919050565b600080516020613891833981519152610893816115a9565b610131546040516301ffc9a760e01b80825260048201526001600160a01b03909116906301ffc9a79060240160206040518083038186803b1580156108d757600080fd5b505afa1580156108eb573d6000803e3d6000fd5b505050506040513d601f19601f8201168201806040525081019061090f9190613217565b61095b5760405162461bcd60e51b815260206004820152601f60248201527f436f6e747261637420646f6573206e6f7420737570706f7274204552433230006044820152606401610719565b5061013180546001600160a01b0319166001600160a01b0392909216919091179055565b7f9f2df0fed2c77648de5860a4cc508cd0818c85b8b8a1ab4ceeef8d981c8956a66109a9816115a9565b60008381526101336020526040812080548492906109c890849061324a565b925050819055506109ea848484604051806020016040528060008152506115b3565b50505050565b6001600160a01b038516331480610a0c5750610a0c853361064f565b610a285760405162461bcd60e51b815260040161071990613262565b610a35858585858561168f565b5050505050565b600082815260976020526040902060010154610a57816115a9565b610a61838361182e565b505050565b600054610100900460ff1615808015610a865750600054600160ff909116105b80610aa05750303b158015610aa0575060005460ff166001145b610b035760405162461bcd60e51b815260206004820152602e60248201527f496e697469616c697a61626c653a20636f6e747261637420697320616c72656160448201526d191e481a5b9a5d1a585b1a5e995960921b6064820152608401610719565b6000805460ff191660011790558015610b26576000805461ff0019166101001790555b610b2f876118b4565b610b376118e4565b610b3f6118e4565b8851610b539061012d9060208c0190612902565b508751610b689061012e9060208b0190612902565b5061012f80546001600160a01b038089166001600160a01b0319928316179092556101308054821633908117909155610131805493891693909216929092179055610132859055610bbb9060009061190d565b610bc6600087610a3c565b610bde60008051602061389183398151915287610a3c565b610c087f9f2df0fed2c77648de5860a4cc508cd0818c85b8b8a1ab4ceeef8d981c8956a687610a3c565b610c2386848460405180602001604052806000815250611917565b60005b8351811015610c9d57828181518110610c4157610c416132b1565b60200260200101516101336000868481518110610c6057610c606132b1565b602002602001015181526020019081526020016000206000828254610c85919061324a565b90915550819050610c95816132c7565b915050610c26565b508015610ce4576000805461ff0019169055604051600181527f7f26b83ff96e1f2b6a682f133852f6798a09c465da95921460cefb38474024989060200160405180910390a15b505050505050505050565b600080516020613891833981519152610d07816115a9565b600082118015610d1957506127108211155b610d575760405162461bcd60e51b815260206004820152600f60248201526e030203c20466565203c20313030303608c1b6044820152606401610719565b5061013255565b6001600160a01b0381163314610dce5760405162461bcd60e51b815260206004820152602f60248201527f416363657373436f6e74726f6c3a2063616e206f6e6c792072656e6f756e636560448201526e103937b632b9903337b91039b2b63360891b6064820152608401610719565b610dd88282611a63565b5050565b306001600160a01b037f0000000000000000000000000000000000000000000000000000000000000000161415610e255760405162461bcd60e51b8152600401610719906132e2565b7f00000000000000000000000000000000000000000000000000000000000000006001600160a01b0316610e6e60008051602061384a833981519152546001600160a01b031690565b6001600160a01b031614610e945760405162461bcd60e51b81526004016107199061332e565b610e9d81611aca565b60408051600080825260208201909252610eb991839190611ae2565b50565b60608151835114610f215760405162461bcd60e51b815260206004820152602960248201527f455243313135353a206163636f756e747320616e6420696473206c656e677468604482015268040dad2e6dac2e8c6d60bb1b6064820152608401610719565b600083516001600160401b03811115610f3c57610f3c612af5565b604051908082528060200260200182016040528015610f65578160200160208202803683370190505b50905060005b8451811015610fdd57610fb0858281518110610f8957610f896132b1565b6020026020010151858381518110610fa357610fa36132b1565b60200260200101516106b2565b828281518110610fc257610fc26132b1565b6020908102919091010152610fd6816132c7565b9050610f6b565b509392505050565b306001600160a01b037f000000000000000000000000000000000000000000000000000000000000000016141561102e5760405162461bcd60e51b8152600401610719906132e2565b7f00000000000000000000000000000000000000000000000000000000000000006001600160a01b031661107760008051602061384a833981519152546001600160a01b031690565b6001600160a01b03161461109d5760405162461bcd60e51b81526004016107199061332e565b6110a682611aca565b610dd882826001611ae2565b6000306001600160a01b037f000000000000000000000000000000000000000000000000000000000000000016146111525760405162461bcd60e51b815260206004820152603860248201527f555550535570677261646561626c653a206d757374206e6f742062652063616c60448201527f6c6564207468726f7567682064656c656761746563616c6c00000000000000006064820152608401610719565b5060008051602061384a8339815191525b90565b60008051602061389183398151915261117e816115a9565b610dd882611c5c565b6111b26040518060800160405280606081526020016060815260200160608152602001606081525090565b61012d80546111c0906131dc565b80601f01602080910402602001604051908101604052809291908181526020018280546111ec906131dc565b80156112395780601f1061120e57610100808354040283529160200191611239565b820191906000526020600020905b81548152906001019060200180831161121c57829003601f168201915b505050918352505061012e805461124f906131dc565b80601f016020809104026020016040519081016040528092919081815260200182805461127b906131dc565b80156112c85780601f1061129d576101008083540402835291602001916112c8565b820191906000526020600020905b8154815290600101906020018083116112ab57829003601f168201915b505050505060208201526112e2636cdb3d1360e11b61074d565b6113185760405180604001604052806014815260200173155b9adb9bdddb881a5b9d195c999858d9481a5960621b815250611339565b604051806040016040528060078152602001664552433131353560c81b8152505b604082015261134860006107e7565b606082015290565b60005b82518110156113ca5781818151811061136e5761136e6132b1565b6020026020010151610133600085848151811061138d5761138d6132b1565b6020026020010151815260200190815260200160002060008282546113b2919061337a565b909155508190506113c2816132c7565b915050611353565b50610dd8338383611c6f565b60009182526097602090815260408084206001600160a01b0393909316845291905290205460ff1690565b61012e8054610766906131dc565b610dd8338383611dfc565b600082815261013360205260408120805483929061143990849061337a565b90915550610dd89050338383611edd565b600082815260976020526040902060010154611465816115a9565b610a618383611a63565b7f9f2df0fed2c77648de5860a4cc508cd0818c85b8b8a1ab4ceeef8d981c8956a6611499816115a9565b60005b8351811015611513578281815181106114b7576114b76132b1565b602002602001015161013360008684815181106114d6576114d66132b1565b6020026020010151815260200190815260200160002060008282546114fb919061324a565b9091555081905061150b816132c7565b91505061149c565b506109ea84848460405180602001604052806000815250611917565b6001600160a01b03851633148061154b575061154b853361064f565b8061155b575061155b8585611fe4565b6115775760405162461bcd60e51b815260040161071990613262565b610a3585858585856120ab565b60006001600160e01b03198216637965db0b60e01b14806107475750610747826121ce565b610eb9813361221e565b6001600160a01b0384166115d95760405162461bcd60e51b815260040161071990613391565b3360006115e585612282565b905060006115f285612282565b905060008681526065602090815260408083206001600160a01b038b1684529091528120805487929061162690849061324a565b909155505060408051878152602081018790526001600160a01b03808a1692600092918716917fc3d58168c5ae7397731d063d5bbf3d657854427343f4c083240f7aacaa2d0f62910160405180910390a4611686836000898989896122cd565b50505050505050565b81518351146116b05760405162461bcd60e51b8152600401610719906133d2565b6001600160a01b0384166116d65760405162461bcd60e51b81526004016107199061341a565b3360005b84518110156117c05760008582815181106116f7576116f76132b1565b602002602001015190506000858381518110611715576117156132b1565b60209081029190910181015160008481526065835260408082206001600160a01b038e1683529093529190912054909150818110156117665760405162461bcd60e51b81526004016107199061345f565b60008381526065602090815260408083206001600160a01b038e8116855292528083208585039055908b168252812080548492906117a590849061324a565b92505081905550505050806117b9906132c7565b90506116da565b50846001600160a01b0316866001600160a01b0316826001600160a01b03167f4a39dc06d4c0dbc64b70af90fd698a233a518aa5d07e595d983b8c0526c8f7fb87876040516118109291906134a9565b60405180910390a4611826818787878787612438565b505050505050565b61183882826113d6565b610dd85760008281526097602090815260408083206001600160a01b03851684529091529020805460ff191660011790556118703390565b6001600160a01b0316816001600160a01b0316837f2f8788117e7eff1d82e926ec794901d17c78024a50270940304540a733656f0d60405160405180910390a45050565b600054610100900460ff166118db5760405162461bcd60e51b8152600401610719906134ce565b610eb981612502565b600054610100900460ff1661190b5760405162461bcd60e51b8152600401610719906134ce565b565b610dd8828261182e565b6001600160a01b03841661193d5760405162461bcd60e51b815260040161071990613391565b815183511461195e5760405162461bcd60e51b8152600401610719906133d2565b3360005b84518110156119fb5783818151811061197d5761197d6132b1565b60200260200101516065600087848151811061199b5761199b6132b1565b602002602001015181526020019081526020016000206000886001600160a01b03166001600160a01b0316815260200190815260200160002060008282546119e3919061324a565b909155508190506119f3816132c7565b915050611962565b50846001600160a01b031660006001600160a01b0316826001600160a01b03167f4a39dc06d4c0dbc64b70af90fd698a233a518aa5d07e595d983b8c0526c8f7fb8787604051611a4c9291906134a9565b60405180910390a4610a3581600087878787612438565b611a6d82826113d6565b15610dd85760008281526097602090815260408083206001600160a01b0385168085529252808320805460ff1916905551339285917ff6391f5c32d9c69d2a47ea670b442974b53935d1edc7fd64eb21e047a839171b9190a45050565b600080516020613891833981519152610dd8816115a9565b7f4910fdfa16fed3260ed0e7147f7cc6da11a60208b5b9406d12a635614ffd91435460ff1615611b1557610a6183612532565b826001600160a01b03166352d1902d6040518163ffffffff1660e01b815260040160206040518083038186803b158015611b4e57600080fd5b505afa925050508015611b7e575060408051601f3d908101601f19168201909252611b7b91810190613519565b60015b611be15760405162461bcd60e51b815260206004820152602e60248201527f45524331393637557067726164653a206e657720696d706c656d656e7461746960448201526d6f6e206973206e6f74205555505360901b6064820152608401610719565b60008051602061384a8339815191528114611c505760405162461bcd60e51b815260206004820152602960248201527f45524331393637557067726164653a20756e737570706f727465642070726f786044820152681a58589b195555525160ba1b6064820152608401610719565b50610a618383836125ce565b8051610dd8906067906020840190612902565b6001600160a01b038316611c955760405162461bcd60e51b815260040161071990613532565b8051825114611cb65760405162461bcd60e51b8152600401610719906133d2565b604080516020810190915260009081905233905b8351811015611d8f576000848281518110611ce757611ce76132b1565b602002602001015190506000848381518110611d0557611d056132b1565b60209081029190910181015160008481526065835260408082206001600160a01b038c168352909352919091205490915081811015611d565760405162461bcd60e51b815260040161071990613575565b60009283526065602090815260408085206001600160a01b038b1686529091529092209103905580611d87816132c7565b915050611cca565b5060006001600160a01b0316846001600160a01b0316826001600160a01b03167f4a39dc06d4c0dbc64b70af90fd698a233a518aa5d07e595d983b8c0526c8f7fb8686604051611de09291906134a9565b60405180910390a46040805160208101909152600090526109ea565b816001600160a01b0316836001600160a01b03161415611e705760405162461bcd60e51b815260206004820152602960248201527f455243313135353a2073657474696e6720617070726f76616c20737461747573604482015268103337b91039b2b63360b91b6064820152608401610719565b6001600160a01b03838116600081815260666020908152604080832094871680845294825291829020805460ff191686151590811790915591519182527f17307eab39ab6107e8899845ad3d59bd9653f200f220920489ca2b5937696c31910160405180910390a3505050565b6001600160a01b038316611f035760405162461bcd60e51b815260040161071990613532565b336000611f0f84612282565b90506000611f1c84612282565b6040805160208082018352600091829052888252606581528282206001600160a01b038b1683529052205490915084811015611f6a5760405162461bcd60e51b815260040161071990613575565b60008681526065602090815260408083206001600160a01b038b81168086529184528285208a8703905582518b81529384018a90529092908816917fc3d58168c5ae7397731d063d5bbf3d657854427343f4c083240f7aacaa2d0f62910160405180910390a4604080516020810190915260009052611686565b6000816001600160a01b031661013060009054906101000a90046001600160a01b03166001600160a01b03166389a620656040518163ffffffff1660e01b815260040160206040518083038186803b15801561203f57600080fd5b505afa158015612053573d6000803e3d6000fd5b505050506040513d601f19601f8201168201806040525081019061207791906135b9565b6001600160a01b031614801561209557506001600160a01b03831632145b156120a257506001610747565b50600092915050565b6001600160a01b0384166120d15760405162461bcd60e51b81526004016107199061341a565b3360006120dd85612282565b905060006120ea85612282565b905060008681526065602090815260408083206001600160a01b038c1684529091529020548581101561212f5760405162461bcd60e51b81526004016107199061345f565b60008781526065602090815260408083206001600160a01b038d8116855292528083208985039055908a1682528120805488929061216e90849061324a565b909155505060408051888152602081018890526001600160a01b03808b16928c821692918816917fc3d58168c5ae7397731d063d5bbf3d657854427343f4c083240f7aacaa2d0f62910160405180910390a4610ce4848a8a8a8a8a6122cd565b60006001600160e01b03198216636cdb3d1360e11b14806121ff57506001600160e01b031982166303a24d0760e21b145b8061074757506301ffc9a760e01b6001600160e01b0319831614610747565b61222882826113d6565b610dd857612240816001600160a01b031660146125f3565b61224b8360206125f3565b60405160200161225c9291906135d6565b60408051601f198184030181529082905262461bcd60e51b825261071991600401612a77565b604080516001808252818301909252606091600091906020808301908036833701905050905082816000815181106122bc576122bc6132b1565b602090810291909101015292915050565b6001600160a01b0384163b156118265760405163f23a6e6160e01b81526001600160a01b0385169063f23a6e6190612311908990899088908890889060040161364b565b602060405180830381600087803b15801561232b57600080fd5b505af192505050801561235b575060408051601f3d908101601f1916820190925261235891810190613690565b60015b612408576123676136ad565b806308c379a014156123a1575061237c6136c8565b8061238757506123a3565b8060405162461bcd60e51b81526004016107199190612a77565b505b60405162461bcd60e51b815260206004820152603460248201527f455243313135353a207472616e7366657220746f206e6f6e20455243313135356044820152732932b1b2b4bb32b91034b6b83632b6b2b73a32b960611b6064820152608401610719565b6001600160e01b0319811663f23a6e6160e01b146116865760405162461bcd60e51b815260040161071990613751565b6001600160a01b0384163b156118265760405163bc197c8160e01b81526001600160a01b0385169063bc197c819061247c9089908990889088908890600401613799565b602060405180830381600087803b15801561249657600080fd5b505af19250505080156124c6575060408051601f3d908101601f191682019092526124c391810190613690565b60015b6124d2576123676136ad565b6001600160e01b0319811663bc197c8160e01b146116865760405162461bcd60e51b815260040161071990613751565b600054610100900460ff166125295760405162461bcd60e51b8152600401610719906134ce565b610eb981611c5c565b6001600160a01b0381163b61259f5760405162461bcd60e51b815260206004820152602d60248201527f455243313936373a206e657720696d706c656d656e746174696f6e206973206e60448201526c1bdd08184818dbdb9d1c9858dd609a1b6064820152608401610719565b60008051602061384a83398151915280546001600160a01b0319166001600160a01b0392909216919091179055565b6125d783612795565b6000825111806125e45750805b15610a61576109ea83836127d5565b606060006126028360026137f7565b61260d90600261324a565b6001600160401b0381111561262457612624612af5565b6040519080825280601f01601f19166020018201604052801561264e576020820181803683370190505b509050600360fc1b81600081518110612669576126696132b1565b60200101906001600160f81b031916908160001a905350600f60fb1b81600181518110612698576126986132b1565b60200101906001600160f81b031916908160001a90535060006126bc8460026137f7565b6126c790600161324a565b90505b600181111561273f576f181899199a1a9b1b9c1cb0b131b232b360811b85600f16601081106126fb576126fb6132b1565b1a60f81b828281518110612711576127116132b1565b60200101906001600160f81b031916908160001a90535060049490941c9361273881613816565b90506126ca565b50831561278e5760405162461bcd60e51b815260206004820181905260248201527f537472696e67733a20686578206c656e67746820696e73756666696369656e746044820152606401610719565b9392505050565b61279e81612532565b6040516001600160a01b038216907fbc7cd75a20ee27fd9adebab32041f755214dbc6bffa90cc0225b39da2e5c2d3b90600090a250565b60606001600160a01b0383163b61283d5760405162461bcd60e51b815260206004820152602660248201527f416464726573733a2064656c65676174652063616c6c20746f206e6f6e2d636f6044820152651b9d1c9858dd60d21b6064820152608401610719565b600080846001600160a01b031684604051612858919061382d565b600060405180830381855af49150503d8060008114612893576040519150601f19603f3d011682016040523d82523d6000602084013e612898565b606091505b50915091506128c0828260405180606001604052806027815260200161386a602791396128c9565b95945050505050565b606083156128d857508161278e565b8251156128e85782518084602001fd5b8160405162461bcd60e51b81526004016107199190612a77565b82805461290e906131dc565b90600052602060002090601f0160209004810192826129305760008555612976565b82601f1061294957805160ff1916838001178555612976565b82800160010185558215612976579182015b8281111561297657825182559160200191906001019061295b565b50612982929150612986565b5090565b5b808211156129825760008155600101612987565b6001600160a01b0381168114610eb957600080fd5b80356129bb8161299b565b919050565b600080604083850312156129d357600080fd5b82356129de8161299b565b946020939093013593505050565b6001600160e01b031981168114610eb957600080fd5b600060208284031215612a1457600080fd5b813561278e816129ec565b60005b83811015612a3a578181015183820152602001612a22565b838111156109ea5750506000910152565b60008151808452612a63816020860160208601612a1f565b601f01601f19169290920160200192915050565b60208152600061278e6020830184612a4b565b600060208284031215612a9c57600080fd5b5035919050565b600060208284031215612ab557600080fd5b813561278e8161299b565b600080600060608486031215612ad557600080fd5b8335612ae08161299b565b95602085013595506040909401359392505050565b634e487b7160e01b600052604160045260246000fd5b601f8201601f191681016001600160401b0381118282101715612b3057612b30612af5565b6040525050565b60006001600160401b03821115612b5057612b50612af5565b5060051b60200190565b600082601f830112612b6b57600080fd5b81356020612b7882612b37565b604051612b858282612b0b565b83815260059390931b8501820192828101915086841115612ba557600080fd5b8286015b84811015612bc05780358352918301918301612ba9565b509695505050505050565b600082601f830112612bdc57600080fd5b81356001600160401b03811115612bf557612bf5612af5565b604051612c0c601f8301601f191660200182612b0b565b818152846020838601011115612c2157600080fd5b816020850160208301376000918101602001919091529392505050565b600080600080600060a08688031215612c5657600080fd5b8535612c618161299b565b94506020860135612c718161299b565b935060408601356001600160401b0380821115612c8d57600080fd5b612c9989838a01612b5a565b94506060880135915080821115612caf57600080fd5b612cbb89838a01612b5a565b93506080880135915080821115612cd157600080fd5b50612cde88828901612bcb565b9150509295509295909350565b60008060408385031215612cfe57600080fd5b823591506020830135612d108161299b565b809150509250929050565b600080600080600080600080610100898b031215612d3857600080fd5b88356001600160401b0380821115612d4f57600080fd5b612d5b8c838d01612bcb565b995060208b0135915080821115612d7157600080fd5b612d7d8c838d01612bcb565b985060408b0135915080821115612d9357600080fd5b612d9f8c838d01612bcb565b9750612dad60608c016129b0565b9650612dbb60808c016129b0565b955060a08b0135945060c08b0135915080821115612dd857600080fd5b612de48c838d01612b5a565b935060e08b0135915080821115612dfa57600080fd5b50612e078b828c01612b5a565b9150509295985092959890939650565b60008060408385031215612e2a57600080fd5b82356001600160401b0380821115612e4157600080fd5b818501915085601f830112612e5557600080fd5b81356020612e6282612b37565b604051612e6f8282612b0b565b83815260059390931b8501820192828101915089841115612e8f57600080fd5b948201945b83861015612eb6578535612ea78161299b565b82529482019490820190612e94565b96505086013592505080821115612ecc57600080fd5b50612ed985828601612b5a565b9150509250929050565b600081518084526020808501945080840160005b83811015612f1357815187529582019590820190600101612ef7565b509495945050505050565b60208152600061278e6020830184612ee3565b60008060408385031215612f4457600080fd5b8235612f4f8161299b565b915060208301356001600160401b03811115612f6a57600080fd5b612ed985828601612bcb565b600060208284031215612f8857600080fd5b81356001600160401b03811115612f9e57600080fd5b612faa84828501612bcb565b949350505050565b602081526000825160806020840152612fce60a0840182612a4b565b90506020840151601f1980858403016040860152612fec8383612a4b565b925060408601519150808584030160608601526130098383612a4b565b92506060860151915080858403016080860152506128c08282612a4b565b6000806040838503121561303a57600080fd5b82356001600160401b038082111561305157600080fd5b61305d86838701612b5a565b93506020850135915080821115612ecc57600080fd5b8015158114610eb957600080fd5b6000806040838503121561309457600080fd5b823561309f8161299b565b91506020830135612d1081613073565b600080604083850312156130c257600080fd5b50508035926020909101359150565b6000806000606084860312156130e657600080fd5b83356130f18161299b565b925060208401356001600160401b038082111561310d57600080fd5b61311987838801612b5a565b9350604086013591508082111561312f57600080fd5b5061313c86828701612b5a565b9150509250925092565b6000806040838503121561315957600080fd5b82356131648161299b565b91506020830135612d108161299b565b600080600080600060a0868803121561318c57600080fd5b85356131978161299b565b945060208601356131a78161299b565b9350604086013592506060860135915060808601356001600160401b038111156131d057600080fd5b612cde88828901612bcb565b600181811c908216806131f057607f821691505b6020821081141561321157634e487b7160e01b600052602260045260246000fd5b50919050565b60006020828403121561322957600080fd5b815161278e81613073565b634e487b7160e01b600052601160045260246000fd5b6000821982111561325d5761325d613234565b500190565b6020808252602f908201527f455243313135353a2063616c6c6572206973206e6f7420746f6b656e206f776e60408201526e195c881b9bdc88185c1c1c9bdd9959608a1b606082015260800190565b634e487b7160e01b600052603260045260246000fd5b60006000198214156132db576132db613234565b5060010190565b6020808252602c908201527f46756e6374696f6e206d7573742062652063616c6c6564207468726f7567682060408201526b19195b1959d85d1958d85b1b60a21b606082015260800190565b6020808252602c908201527f46756e6374696f6e206d7573742062652063616c6c6564207468726f7567682060408201526b6163746976652070726f787960a01b606082015260800190565b60008282101561338c5761338c613234565b500390565b60208082526021908201527f455243313135353a206d696e7420746f20746865207a65726f206164647265736040820152607360f81b606082015260800190565b60208082526028908201527f455243313135353a2069647320616e6420616d6f756e7473206c656e677468206040820152670dad2e6dac2e8c6d60c31b606082015260800190565b60208082526025908201527f455243313135353a207472616e7366657220746f20746865207a65726f206164604082015264647265737360d81b606082015260800190565b6020808252602a908201527f455243313135353a20696e73756666696369656e742062616c616e636520666f60408201526939103a3930b739b332b960b11b606082015260800190565b6040815260006134bc6040830185612ee3565b82810360208401526128c08185612ee3565b6020808252602b908201527f496e697469616c697a61626c653a20636f6e7472616374206973206e6f74206960408201526a6e697469616c697a696e6760a81b606082015260800190565b60006020828403121561352b57600080fd5b5051919050565b60208082526023908201527f455243313135353a206275726e2066726f6d20746865207a65726f206164647260408201526265737360e81b606082015260800190565b60208082526024908201527f455243313135353a206275726e20616d6f756e7420657863656564732062616c604082015263616e636560e01b606082015260800190565b6000602082840312156135cb57600080fd5b815161278e8161299b565b7f416363657373436f6e74726f6c3a206163636f756e742000000000000000000081526000835161360e816017850160208801612a1f565b7001034b99036b4b9b9b4b733903937b6329607d1b601791840191820152835161363f816028840160208801612a1f565b01602801949350505050565b6001600160a01b03868116825285166020820152604081018490526060810183905260a06080820181905260009061368590830184612a4b565b979650505050505050565b6000602082840312156136a257600080fd5b815161278e816129ec565b600060033d11156111635760046000803e5060005160e01c90565b600060443d10156136d65790565b6040516003193d81016004833e81513d6001600160401b03816024840111818411171561370557505050505090565b828501915081518181111561371d5750505050505090565b843d87010160208285010111156137375750505050505090565b61374660208286010187612b0b565b509095945050505050565b60208082526028908201527f455243313135353a204552433131353552656365697665722072656a656374656040820152676420746f6b656e7360c01b606082015260800190565b6001600160a01b0386811682528516602082015260a0604082018190526000906137c590830186612ee3565b82810360608401526137d78186612ee3565b905082810360808401526137eb8185612a4b565b98975050505050505050565b600081600019048311821515161561381157613811613234565b500290565b60008161382557613825613234565b506000190190565b6000825161383f818460208701612a1f565b919091019291505056fe360894a13ba1a3210667c828492db98dca3e2076cc3735a920a3ca505d382bbc416464726573733a206c6f772d6c6576656c2064656c65676174652063616c6c206661696c6564a49807205ce4d355092ef5a8a18f56e8913cf4a201fbe287825b095693c21775a2646970667358221220c798251977dda41970a15db6bd2bb903a7376d917adf5563cfc386a6d8d9fe5364736f6c63430008090033",
  "linkReferences": {},
  "deployedLinkReferences": {}
}