{
  "_format": "hh-sol-artifact-1",
  "contractName": "ERC1155",
  "sourceName": "contracts/ERC1155.sol",
  "abi": [
    {
      "anonymous": false,
      "inputs": [
        {
          "indexed": false,
          "internalType": "address",
          "name": "previousAdmin",
          "type": "address"
        },
        {
          "indexed": false,
          "internalType": "address",
          "name": "newAdmin",
          "type": "address"
        }
      ],
      "name": "AdminChanged",
      "type": "event"
    },
    {
      "anonymous": false,
      "inputs": [
        {
          "indexed": true,
          "internalType": "address",
          "name": "account",
          "type": "address"
        },
        {
          "indexed": true,
          "internalType": "address",
          "name": "operator",
          "type": "address"
        },
        {
          "indexed": false,
          "internalType": "bool",
          "name": "approved",
          "type": "bool"
        }
      ],
      "name": "ApprovalForAll",
      "type": "event"
    },
    {
      "anonymous": false,
      "inputs": [
        {
          "indexed": true,
          "internalType": "address",
          "name": "beacon",
          "type": "address"
        }
      ],
      "name": "BeaconUpgraded",
      "type": "event"
    },
    {
      "anonymous": false,
      "inputs": [
        {
          "indexed": false,
          "internalType": "uint8",
          "name": "version",
          "type": "uint8"
        }
      ],
      "name": "Initialized",
      "type": "event"
    },
    {
      "anonymous": false,
      "inputs": [
        {
          "indexed": true,
          "internalType": "bytes32",
          "name": "role",
          "type": "bytes32"
        },
        {
          "indexed": true,
          "internalType": "bytes32",
          "name": "previousAdminRole",
          "type": "bytes32"
        },
        {
          "indexed": true,
          "internalType": "bytes32",
          "name": "newAdminRole",
          "type": "bytes32"
        }
      ],
      "name": "RoleAdminChanged",
      "type": "event"
    },
    {
      "anonymous": false,
      "inputs": [
        {
          "indexed": true,
          "internalType": "bytes32",
          "name": "role",
          "type": "bytes32"
        },
        {
          "indexed": true,
          "internalType": "address",
          "name": "account",
          "type": "address"
        },
        {
          "indexed": true,
          "internalType": "address",
          "name": "sender",
          "type": "address"
        }
      ],
      "name": "RoleGranted",
      "type": "event"
    },
    {
      "anonymous": false,
      "inputs": [
        {
          "indexed": true,
          "internalType": "bytes32",
          "name": "role",
          "type": "bytes32"
        },
        {
          "indexed": true,
          "internalType": "address",
          "name": "account",
          "type": "address"
        },
        {
          "indexed": true,
          "internalType": "address",
          "name": "sender",
          "type": "address"
        }
      ],
      "name": "RoleRevoked",
      "type": "event"
    },
    {
      "anonymous": false,
      "inputs": [
        {
          "indexed": true,
          "internalType": "address",
          "name": "operator",
          "type": "address"
        },
        {
          "indexed": true,
          "internalType": "address",
          "name": "from",
          "type": "address"
        },
        {
          "indexed": true,
          "internalType": "address",
          "name": "to",
          "type": "address"
        },
        {
          "indexed": false,
          "internalType": "uint256[]",
          "name": "ids",
          "type": "uint256[]"
        },
        {
          "indexed": false,
          "internalType": "uint256[]",
          "name": "values",
          "type": "uint256[]"
        }
      ],
      "name": "TransferBatch",
      "type": "event"
    },
    {
      "anonymous": false,
      "inputs": [
        {
          "indexed": true,
          "internalType": "address",
          "name": "operator",
          "type": "address"
        },
        {
          "indexed": true,
          "internalType": "address",
          "name": "from",
          "type": "address"
        },
        {
          "indexed": true,
          "internalType": "address",
          "name": "to",
          "type": "address"
        },
        {
          "indexed": false,
          "internalType": "uint256",
          "name": "id",
          "type": "uint256"
        },
        {
          "indexed": false,
          "internalType": "uint256",
          "name": "value",
          "type": "uint256"
        }
      ],
      "name": "TransferSingle",
      "type": "event"
    },
    {
      "anonymous": false,
      "inputs": [
        {
          "indexed": false,
          "internalType": "string",
          "name": "value",
          "type": "string"
        },
        {
          "indexed": true,
          "internalType": "uint256",
          "name": "id",
          "type": "uint256"
        }
      ],
      "name": "URI",
      "type": "event"
    },
    {
      "anonymous": false,
      "inputs": [
        {
          "indexed": true,
          "internalType": "address",
          "name": "implementation",
          "type": "address"
        }
      ],
      "name": "Upgraded",
      "type": "event"
    },
    {
      "inputs": [],
      "name": "DEFAULT_ADMIN_ROLE",
      "outputs": [
        {
          "internalType": "bytes32",
          "name": "",
          "type": "bytes32"
        }
      ],
      "stateMutability": "view",
      "type": "function"
    },
    {
      "inputs": [
        {
          "internalType": "address",
          "name": "account",
          "type": "address"
        },
        {
          "internalType": "uint256",
          "name": "id",
          "type": "uint256"
        }
      ],
      "name": "balanceOf",
      "outputs": [
        {
          "internalType": "uint256",
          "name": "",
          "type": "uint256"
        }
      ],
      "stateMutability": "view",
      "type": "function"
    },
    {
      "inputs": [
        {
          "internalType": "address[]",
          "name": "accounts",
          "type": "address[]"
        },
        {
          "internalType": "uint256[]",
          "name": "ids",
          "type": "uint256[]"
        }
      ],
      "name": "balanceOfBatch",
      "outputs": [
        {
          "internalType": "uint256[]",
          "name": "",
          "type": "uint256[]"
        }
      ],
      "stateMutability": "view",
      "type": "function"
    },
    {
      "inputs": [
        {
          "internalType": "uint256",
          "name": "id",
          "type": "uint256"
        },
        {
          "internalType": "uint256",
          "name": "amount",
          "type": "uint256"
        }
      ],
      "name": "burn",
      "outputs": [],
      "stateMutability": "nonpayable",
      "type": "function"
    },
    {
      "inputs": [
        {
          "internalType": "uint256[]",
          "name": "ids",
          "type": "uint256[]"
        },
        {
          "internalType": "uint256[]",
          "name": "amounts",
          "type": "uint256[]"
        }
      ],
      "name": "burnBatch",
      "outputs": [],
      "stateMutability": "nonpayable",
      "type": "function"
    },
    {
      "inputs": [
        {
          "internalType": "uint256",
          "name": "_percentFee",
          "type": "uint256"
        }
      ],
      "name": "changeFeePercent",
      "outputs": [],
      "stateMutability": "nonpayable",
      "type": "function"
    },
    {
      "inputs": [],
      "name": "factory",
      "outputs": [
        {
          "internalType": "address",
          "name": "",
          "type": "address"
        }
      ],
      "stateMutability": "view",
      "type": "function"
    },
    {
      "inputs": [
        {
          "internalType": "bytes32",
          "name": "role",
          "type": "bytes32"
        }
      ],
      "name": "getRoleAdmin",
      "outputs": [
        {
          "internalType": "bytes32",
          "name": "",
          "type": "bytes32"
        }
      ],
      "stateMutability": "view",
      "type": "function"
    },
    {
      "inputs": [],
      "name": "getVersion",
      "outputs": [
        {
          "internalType": "uint256",
          "name": "",
          "type": "uint256"
        }
      ],
      "stateMutability": "pure",
      "type": "function"
    },
    {
      "inputs": [
        {
          "internalType": "bytes32",
          "name": "role",
          "type": "bytes32"
        },
        {
          "internalType": "address",
          "name": "account",
          "type": "address"
        }
      ],
      "name": "grantRole",
      "outputs": [],
      "stateMutability": "nonpayable",
      "type": "function"
    },
    {
      "inputs": [
        {
          "internalType": "bytes32",
          "name": "role",
          "type": "bytes32"
        },
        {
          "internalType": "address",
          "name": "account",
          "type": "address"
        }
      ],
      "name": "hasRole",
      "outputs": [
        {
          "internalType": "bool",
          "name": "",
          "type": "bool"
        }
      ],
      "stateMutability": "view",
      "type": "function"
    },
    {
      "inputs": [
        {
          "internalType": "string",
          "name": "name_",
          "type": "string"
        },
        {
          "internalType": "string",
          "name": "symbol_",
          "type": "string"
        },
        {
          "internalType": "string",
          "name": "baseURI_",
          "type": "string"
        },
        {
          "internalType": "address",
          "name": "owner_",
          "type": "address"
        },
        {
          "internalType": "uint256",
          "name": "percentFee_",
          "type": "uint256"
        },
        {
          "internalType": "uint256[]",
          "name": "ids_",
          "type": "uint256[]"
        },
        {
          "internalType": "uint256[]",
          "name": "amounts_",
          "type": "uint256[]"
        }
      ],
      "name": "initialize",
      "outputs": [],
      "stateMutability": "nonpayable",
      "type": "function"
    },
    {
      "inputs": [
        {
          "internalType": "address",
          "name": "account",
          "type": "address"
        },
        {
          "internalType": "address",
          "name": "operator",
          "type": "address"
        }
      ],
      "name": "isApprovedForAll",
      "outputs": [
        {
          "internalType": "bool",
          "name": "",
          "type": "bool"
        }
      ],
      "stateMutability": "view",
      "type": "function"
    },
    {
      "inputs": [
        {
          "internalType": "address",
          "name": "account",
          "type": "address"
        },
        {
          "internalType": "uint256",
          "name": "id",
          "type": "uint256"
        },
        {
          "internalType": "uint256",
          "name": "amount",
          "type": "uint256"
        }
      ],
      "name": "mint",
      "outputs": [],
      "stateMutability": "nonpayable",
      "type": "function"
    },
    {
      "inputs": [
        {
          "internalType": "address",
          "name": "to",
          "type": "address"
        },
        {
          "internalType": "uint256[]",
          "name": "ids",
          "type": "uint256[]"
        },
        {
          "internalType": "uint256[]",
          "name": "amounts",
          "type": "uint256[]"
        }
      ],
      "name": "mintBatch",
      "outputs": [],
      "stateMutability": "nonpayable",
      "type": "function"
    },
    {
      "inputs": [],
      "name": "name",
      "outputs": [
        {
          "internalType": "string",
          "name": "",
          "type": "string"
        }
      ],
      "stateMutability": "view",
      "type": "function"
    },
    {
      "inputs": [],
      "name": "owner",
      "outputs": [
        {
          "internalType": "address",
          "name": "",
          "type": "address"
        }
      ],
      "stateMutability": "view",
      "type": "function"
    },
    {
      "inputs": [],
      "name": "percentDecimals",
      "outputs": [
        {
          "internalType": "uint256",
          "name": "",
          "type": "uint256"
        }
      ],
      "stateMutability": "view",
      "type": "function"
    },
    {
      "inputs": [],
      "name": "percentFee",
      "outputs": [
        {
          "internalType": "uint256",
          "name": "",
          "type": "uint256"
        }
      ],
      "stateMutability": "view",
      "type": "function"
    },
    {
      "inputs": [],
      "name": "proxiableUUID",
      "outputs": [
        {
          "internalType": "bytes32",
          "name": "",
          "type": "bytes32"
        }
      ],
      "stateMutability": "view",
      "type": "function"
    },
    {
      "inputs": [
        {
          "internalType": "bytes32",
          "name": "role",
          "type": "bytes32"
        },
        {
          "internalType": "address",
          "name": "account",
          "type": "address"
        }
      ],
      "name": "renounceRole",
      "outputs": [],
      "stateMutability": "nonpayable",
      "type": "function"
    },
    {
      "inputs": [
        {
          "internalType": "bytes32",
          "name": "role",
          "type": "bytes32"
        },
        {
          "internalType": "address",
          "name": "account",
          "type": "address"
        }
      ],
      "name": "revokeRole",
      "outputs": [],
      "stateMutability": "nonpayable",
      "type": "function"
    },
    {
      "inputs": [
        {
          "internalType": "address",
          "name": "from",
          "type": "address"
        },
        {
          "internalType": "address",
          "name": "to",
          "type": "address"
        },
        {
          "internalType": "uint256[]",
          "name": "ids",
          "type": "uint256[]"
        },
        {
          "internalType": "uint256[]",
          "name": "amounts",
          "type": "uint256[]"
        },
        {
          "internalType": "bytes",
          "name": "data",
          "type": "bytes"
        }
      ],
      "name": "safeBatchTransferFrom",
      "outputs": [],
      "stateMutability": "nonpayable",
      "type": "function"
    },
    {
      "inputs": [
        {
          "internalType": "address",
          "name": "from",
          "type": "address"
        },
        {
          "internalType": "address",
          "name": "to",
          "type": "address"
        },
        {
          "internalType": "uint256",
          "name": "id",
          "type": "uint256"
        },
        {
          "internalType": "uint256",
          "name": "amount",
          "type": "uint256"
        },
        {
          "internalType": "bytes",
          "name": "data",
          "type": "bytes"
        }
      ],
      "name": "safeTransferFrom",
      "outputs": [],
      "stateMutability": "nonpayable",
      "type": "function"
    },
    {
      "inputs": [
        {
          "internalType": "address",
          "name": "operator",
          "type": "address"
        },
        {
          "internalType": "bool",
          "name": "approved",
          "type": "bool"
        }
      ],
      "name": "setApprovalForAll",
      "outputs": [],
      "stateMutability": "nonpayable",
      "type": "function"
    },
    {
      "inputs": [
        {
          "internalType": "string",
          "name": "_newBaseURI",
          "type": "string"
        }
      ],
      "name": "setBaseURI",
      "outputs": [],
      "stateMutability": "nonpayable",
      "type": "function"
    },
    {
      "inputs": [
        {
          "internalType": "bytes4",
          "name": "interfaceId",
          "type": "bytes4"
        }
      ],
      "name": "supportsInterface",
      "outputs": [
        {
          "internalType": "bool",
          "name": "",
          "type": "bool"
        }
      ],
      "stateMutability": "view",
      "type": "function"
    },
    {
      "inputs": [],
      "name": "symbol",
      "outputs": [
        {
          "internalType": "string",
          "name": "",
          "type": "string"
        }
      ],
      "stateMutability": "view",
      "type": "function"
    },
    {
      "inputs": [
        {
          "internalType": "uint256",
          "name": "",
          "type": "uint256"
        }
      ],
      "name": "tokenIdSupply",
      "outputs": [
        {
          "internalType": "uint256",
          "name": "",
          "type": "uint256"
        }
      ],
      "stateMutability": "view",
      "type": "function"
    },
    {
      "inputs": [
        {
          "internalType": "address",
          "name": "newImplementation",
          "type": "address"
        }
      ],
      "name": "upgradeTo",
      "outputs": [],
      "stateMutability": "nonpayable",
      "type": "function"
    },
    {
      "inputs": [
        {
          "internalType": "address",
          "name": "newImplementation",
          "type": "address"
        },
        {
          "internalType": "bytes",
          "name": "data",
          "type": "bytes"
        }
      ],
      "name": "upgradeToAndCall",
      "outputs": [],
      "stateMutability": "payable",
      "type": "function"
    },
    {
      "inputs": [
        {
          "internalType": "uint256",
          "name": "",
          "type": "uint256"
        }
      ],
      "name": "uri",
      "outputs": [
        {
          "internalType": "string",
          "name": "",
          "type": "string"
        }
      ],
      "stateMutability": "view",
      "type": "function"
    }
  ],
  "bytecode": "0x60a06040523060805234801561001457600080fd5b506080516134de61004c600039600081816109d601528181610a1601528181610e5201528181610e920152610f2101526134de6000f3fe6080604052600436106101e25760003560e01c80634f1ef28611610102578063a22cb46511610095578063d81d0a1511610064578063d81d0a1514610590578063e985e9c5146105b0578063f242432a146105f9578063f75195bc1461061957600080fd5b8063a22cb4651461050f578063b390c0ab1461052f578063c45a01551461054f578063d547741f1461057057600080fd5b80638da5cb5b116100d15780638da5cb5b1461048c57806391d14854146104c557806395d89b41146104e5578063a217fddf146104fa57600080fd5b80634f1ef2861461042457806352d1902d1461043757806355f804b31461044c57806383ca4b6f1461046c57600080fd5b80632f2ff15d1161017a5780633659cfe6116101495780633659cfe6146103a057806347f2fc91146103c05780634c1a4115146103e05780634e1273f4146103f757600080fd5b80632f2ff15d14610312578063327de31f1461033257806334eddf3e1461036057806336568abe1461038057600080fd5b80630e89341c116101b65780630e89341c14610280578063156e29f6146102a0578063248a9ca3146102c25780632eb2c2d6146102f257600080fd5b8062fdd58e146101e757806301ffc9a71461021a57806306fdde031461024a5780630d8e6e2c1461026c575b600080fd5b3480156101f357600080fd5b50610207610202366004612664565b61062e565b6040519081526020015b60405180910390f35b34801561022657600080fd5b5061023a6102353660046126a6565b6106c9565b6040519015158152602001610211565b34801561025657600080fd5b5061025f6106d4565b604051610211919061271b565b34801561027857600080fd5b506001610207565b34801561028c57600080fd5b5061025f61029b36600461272e565b610763565b3480156102ac57600080fd5b506102c06102bb366004612747565b6107f7565b005b3480156102ce57600080fd5b506102076102dd36600461272e565b60009081526097602052604090206001015490565b3480156102fe57600080fd5b506102c061030d3660046128c5565b610868565b34801561031e57600080fd5b506102c061032d366004612972565b6108b4565b34801561033e57600080fd5b5061020761034d36600461272e565b6101326020526000908152604090205481565b34801561036c57600080fd5b506102c061037b36600461272e565b6108de565b34801561038c57600080fd5b506102c061039b366004612972565b61094d565b3480156103ac57600080fd5b506102c06103bb3660046129a2565b6109cb565b3480156103cc57600080fd5b506102c06103db3660046129bf565b610aab565b3480156103ec57600080fd5b506102076101315481565b34801561040357600080fd5b50610417610412366004612aaa565b610d1e565b6040516102119190612bb1565b6102c0610432366004612bc4565b610e47565b34801561044357600080fd5b50610207610f14565b34801561045857600080fd5b506102c0610467366004612c09565b610fc8565b34801561047857600080fd5b506102c0610487366004612c45565b610fe9565b34801561049857600080fd5b5061012f546104ad906001600160a01b031681565b6040516001600160a01b039091168152602001610211565b3480156104d157600080fd5b5061023a6104e0366004612972565b61106f565b3480156104f157600080fd5b5061025f61109a565b34801561050657600080fd5b50610207600081565b34801561051b57600080fd5b506102c061052a366004612c91565b6110a8565b34801561053b57600080fd5b506102c061054a366004612cc4565b6110b3565b34801561055b57600080fd5b50610130546104ad906001600160a01b031681565b34801561057c57600080fd5b506102c061058b366004612972565b6110e3565b34801561059c57600080fd5b506102c06105ab366004612ce6565b611108565b3480156105bc57600080fd5b5061023a6105cb366004612d5b565b6001600160a01b03918216600090815260666020908152604080832093909416825291909152205460ff1690565b34801561060557600080fd5b506102c0610614366004612d89565b6111c8565b34801561062557600080fd5b50610207600281565b60006001600160a01b03831661069e5760405162461bcd60e51b815260206004820152602a60248201527f455243313135353a2061646472657373207a65726f206973206e6f742061207660448201526930b634b21037bbb732b960b11b60648201526084015b60405180910390fd5b5060008181526065602090815260408083206001600160a01b03861684529091529020545b92915050565b60006106c38261121d565b61012d80546106e290612df1565b80601f016020809104026020016040519081016040528092919081815260200182805461070e90612df1565b801561075b5780601f106107305761010080835404028352916020019161075b565b820191906000526020600020905b81548152906001019060200180831161073e57829003601f168201915b505050505081565b60606067805461077290612df1565b80601f016020809104026020016040519081016040528092919081815260200182805461079e90612df1565b80156107eb5780601f106107c0576101008083540402835291602001916107eb565b820191906000526020600020905b8154815290600101906020018083116107ce57829003601f168201915b50505050509050919050565b7f9f2df0fed2c77648de5860a4cc508cd0818c85b8b8a1ab4ceeef8d981c8956a661082181611242565b6000838152610132602052604081208054849290610840908490612e42565b925050819055506108628484846040518060200160405280600081525061124c565b50505050565b6001600160a01b038516331480610884575061088485336105cb565b6108a05760405162461bcd60e51b815260040161069590612e5a565b6108ad8585858585611328565b5050505050565b6000828152609760205260409020600101546108cf81611242565b6108d983836114c7565b505050565b6000805160206134898339815191526108f681611242565b60008211801561090857506127108211155b6109465760405162461bcd60e51b815260206004820152600f60248201526e030203c20466565203c20313030303608c1b6044820152606401610695565b5061013155565b6001600160a01b03811633146109bd5760405162461bcd60e51b815260206004820152602f60248201527f416363657373436f6e74726f6c3a2063616e206f6e6c792072656e6f756e636560448201526e103937b632b9903337b91039b2b63360891b6064820152608401610695565b6109c7828261154d565b5050565b306001600160a01b037f0000000000000000000000000000000000000000000000000000000000000000161415610a145760405162461bcd60e51b815260040161069590612ea9565b7f00000000000000000000000000000000000000000000000000000000000000006001600160a01b0316610a5d600080516020613442833981519152546001600160a01b031690565b6001600160a01b031614610a835760405162461bcd60e51b815260040161069590612ef5565b610a8c816115b4565b60408051600080825260208201909252610aa8918391906115cc565b50565b600054610100900460ff1615808015610acb5750600054600160ff909116105b80610ae55750303b158015610ae5575060005460ff166001145b610b485760405162461bcd60e51b815260206004820152602e60248201527f496e697469616c697a61626c653a20636f6e747261637420697320616c72656160448201526d191e481a5b9a5d1a585b1a5e995960921b6064820152608401610695565b6000805460ff191660011790558015610b6b576000805461ff0019166101001790555b610b7486611746565b610b7c611776565b610b84611776565b8751610b989061012d9060208b01906125a6565b508651610bad9061012e9060208a01906125a6565b5061012f80546001600160a01b03199081166001600160a01b03881617909155610130805433921682179055610131859055610beb9060009061179f565b610bf66000866108b4565b610c0e600080516020613489833981519152866108b4565b610c387f9f2df0fed2c77648de5860a4cc508cd0818c85b8b8a1ab4ceeef8d981c8956a6866108b4565b610c53858484604051806020016040528060008152506117a9565b60005b8351811015610ccd57828181518110610c7157610c71612f41565b60200260200101516101326000868481518110610c9057610c90612f41565b602002602001015181526020019081526020016000206000828254610cb59190612e42565b90915550819050610cc581612f57565b915050610c56565b508015610d14576000805461ff0019169055604051600181527f7f26b83ff96e1f2b6a682f133852f6798a09c465da95921460cefb38474024989060200160405180910390a15b5050505050505050565b60608151835114610d835760405162461bcd60e51b815260206004820152602960248201527f455243313135353a206163636f756e747320616e6420696473206c656e677468604482015268040dad2e6dac2e8c6d60bb1b6064820152608401610695565b600083516001600160401b03811115610d9e57610d9e61277c565b604051908082528060200260200182016040528015610dc7578160200160208202803683370190505b50905060005b8451811015610e3f57610e12858281518110610deb57610deb612f41565b6020026020010151858381518110610e0557610e05612f41565b602002602001015161062e565b828281518110610e2457610e24612f41565b6020908102919091010152610e3881612f57565b9050610dcd565b509392505050565b306001600160a01b037f0000000000000000000000000000000000000000000000000000000000000000161415610e905760405162461bcd60e51b815260040161069590612ea9565b7f00000000000000000000000000000000000000000000000000000000000000006001600160a01b0316610ed9600080516020613442833981519152546001600160a01b031690565b6001600160a01b031614610eff5760405162461bcd60e51b815260040161069590612ef5565b610f08826115b4565b6109c7828260016115cc565b6000306001600160a01b037f00000000000000000000000000000000000000000000000000000000000000001614610fb45760405162461bcd60e51b815260206004820152603860248201527f555550535570677261646561626c653a206d757374206e6f742062652063616c60448201527f6c6564207468726f7567682064656c656761746563616c6c00000000000000006064820152608401610695565b506000805160206134428339815191525b90565b600080516020613489833981519152610fe081611242565b6109c7826118f5565b60005b82518110156110635781818151811061100757611007612f41565b6020026020010151610132600085848151811061102657611026612f41565b60200260200101518152602001908152602001600020600082825461104b9190612f72565b9091555081905061105b81612f57565b915050610fec565b506109c7338383611908565b60009182526097602090815260408084206001600160a01b0393909316845291905290205460ff1690565b61012e80546106e290612df1565b6109c7338383611a95565b60008281526101326020526040812080548392906110d2908490612f72565b909155506109c79050338383611b76565b6000828152609760205260409020600101546110fe81611242565b6108d9838361154d565b7f9f2df0fed2c77648de5860a4cc508cd0818c85b8b8a1ab4ceeef8d981c8956a661113281611242565b60005b83518110156111ac5782818151811061115057611150612f41565b6020026020010151610132600086848151811061116f5761116f612f41565b6020026020010151815260200190815260200160002060008282546111949190612e42565b909155508190506111a481612f57565b915050611135565b50610862848484604051806020016040528060008152506117a9565b6001600160a01b0385163314806111e457506111e485336105cb565b806111f457506111f48585611c7d565b6112105760405162461bcd60e51b815260040161069590612e5a565b6108ad8585858585611d44565b60006001600160e01b03198216637965db0b60e01b14806106c357506106c382611e72565b610aa88133611ec2565b6001600160a01b0384166112725760405162461bcd60e51b815260040161069590612f89565b33600061127e85611f26565b9050600061128b85611f26565b905060008681526065602090815260408083206001600160a01b038b168452909152812080548792906112bf908490612e42565b909155505060408051878152602081018790526001600160a01b03808a1692600092918716917fc3d58168c5ae7397731d063d5bbf3d657854427343f4c083240f7aacaa2d0f62910160405180910390a461131f83600089898989611f71565b50505050505050565b81518351146113495760405162461bcd60e51b815260040161069590612fca565b6001600160a01b03841661136f5760405162461bcd60e51b815260040161069590613012565b3360005b845181101561145957600085828151811061139057611390612f41565b6020026020010151905060008583815181106113ae576113ae612f41565b60209081029190910181015160008481526065835260408082206001600160a01b038e1683529093529190912054909150818110156113ff5760405162461bcd60e51b815260040161069590613057565b60008381526065602090815260408083206001600160a01b038e8116855292528083208585039055908b1682528120805484929061143e908490612e42565b925050819055505050508061145290612f57565b9050611373565b50846001600160a01b0316866001600160a01b0316826001600160a01b03167f4a39dc06d4c0dbc64b70af90fd698a233a518aa5d07e595d983b8c0526c8f7fb87876040516114a99291906130a1565b60405180910390a46114bf8187878787876120dc565b505050505050565b6114d1828261106f565b6109c75760008281526097602090815260408083206001600160a01b03851684529091529020805460ff191660011790556115093390565b6001600160a01b0316816001600160a01b0316837f2f8788117e7eff1d82e926ec794901d17c78024a50270940304540a733656f0d60405160405180910390a45050565b611557828261106f565b156109c75760008281526097602090815260408083206001600160a01b0385168085529252808320805460ff1916905551339285917ff6391f5c32d9c69d2a47ea670b442974b53935d1edc7fd64eb21e047a839171b9190a45050565b6000805160206134898339815191526109c781611242565b7f4910fdfa16fed3260ed0e7147f7cc6da11a60208b5b9406d12a635614ffd91435460ff16156115ff576108d9836121a6565b826001600160a01b03166352d1902d6040518163ffffffff1660e01b815260040160206040518083038186803b15801561163857600080fd5b505afa925050508015611668575060408051601f3d908101601f19168201909252611665918101906130c6565b60015b6116cb5760405162461bcd60e51b815260206004820152602e60248201527f45524331393637557067726164653a206e657720696d706c656d656e7461746960448201526d6f6e206973206e6f74205555505360901b6064820152608401610695565b600080516020613442833981519152811461173a5760405162461bcd60e51b815260206004820152602960248201527f45524331393637557067726164653a20756e737570706f727465642070726f786044820152681a58589b195555525160ba1b6064820152608401610695565b506108d9838383612242565b600054610100900460ff1661176d5760405162461bcd60e51b8152600401610695906130df565b610aa881612267565b600054610100900460ff1661179d5760405162461bcd60e51b8152600401610695906130df565b565b6109c782826114c7565b6001600160a01b0384166117cf5760405162461bcd60e51b815260040161069590612f89565b81518351146117f05760405162461bcd60e51b815260040161069590612fca565b3360005b845181101561188d5783818151811061180f5761180f612f41565b60200260200101516065600087848151811061182d5761182d612f41565b602002602001015181526020019081526020016000206000886001600160a01b03166001600160a01b0316815260200190815260200160002060008282546118759190612e42565b9091555081905061188581612f57565b9150506117f4565b50846001600160a01b031660006001600160a01b0316826001600160a01b03167f4a39dc06d4c0dbc64b70af90fd698a233a518aa5d07e595d983b8c0526c8f7fb87876040516118de9291906130a1565b60405180910390a46108ad816000878787876120dc565b80516109c79060679060208401906125a6565b6001600160a01b03831661192e5760405162461bcd60e51b81526004016106959061312a565b805182511461194f5760405162461bcd60e51b815260040161069590612fca565b604080516020810190915260009081905233905b8351811015611a2857600084828151811061198057611980612f41565b60200260200101519050600084838151811061199e5761199e612f41565b60209081029190910181015160008481526065835260408082206001600160a01b038c1683529093529190912054909150818110156119ef5760405162461bcd60e51b81526004016106959061316d565b60009283526065602090815260408085206001600160a01b038b1686529091529092209103905580611a2081612f57565b915050611963565b5060006001600160a01b0316846001600160a01b0316826001600160a01b03167f4a39dc06d4c0dbc64b70af90fd698a233a518aa5d07e595d983b8c0526c8f7fb8686604051611a799291906130a1565b60405180910390a4604080516020810190915260009052610862565b816001600160a01b0316836001600160a01b03161415611b095760405162461bcd60e51b815260206004820152602960248201527f455243313135353a2073657474696e6720617070726f76616c20737461747573604482015268103337b91039b2b63360b91b6064820152608401610695565b6001600160a01b03838116600081815260666020908152604080832094871680845294825291829020805460ff191686151590811790915591519182527f17307eab39ab6107e8899845ad3d59bd9653f200f220920489ca2b5937696c31910160405180910390a3505050565b6001600160a01b038316611b9c5760405162461bcd60e51b81526004016106959061312a565b336000611ba884611f26565b90506000611bb584611f26565b6040805160208082018352600091829052888252606581528282206001600160a01b038b1683529052205490915084811015611c035760405162461bcd60e51b81526004016106959061316d565b60008681526065602090815260408083206001600160a01b038b81168086529184528285208a8703905582518b81529384018a90529092908816917fc3d58168c5ae7397731d063d5bbf3d657854427343f4c083240f7aacaa2d0f62910160405180910390a460408051602081019091526000905261131f565b6000816001600160a01b031661013060009054906101000a90046001600160a01b03166001600160a01b03166389a620656040518163ffffffff1660e01b815260040160206040518083038186803b158015611cd857600080fd5b505afa158015611cec573d6000803e3d6000fd5b505050506040513d601f19601f82011682018060405250810190611d1091906131b1565b6001600160a01b0316148015611d2e57506001600160a01b03831632145b15611d3b575060016106c3565b50600092915050565b6001600160a01b038416611d6a5760405162461bcd60e51b815260040161069590613012565b336000611d7685611f26565b90506000611d8385611f26565b905060008681526065602090815260408083206001600160a01b038c16845290915290205485811015611dc85760405162461bcd60e51b815260040161069590613057565b60008781526065602090815260408083206001600160a01b038d8116855292528083208985039055908a16825281208054889290611e07908490612e42565b909155505060408051888152602081018890526001600160a01b03808b16928c821692918816917fc3d58168c5ae7397731d063d5bbf3d657854427343f4c083240f7aacaa2d0f62910160405180910390a4611e67848a8a8a8a8a611f71565b505050505050505050565b60006001600160e01b03198216636cdb3d1360e11b1480611ea357506001600160e01b031982166303a24d0760e21b145b806106c357506301ffc9a760e01b6001600160e01b03198316146106c3565b611ecc828261106f565b6109c757611ee4816001600160a01b03166014612297565b611eef836020612297565b604051602001611f009291906131ce565b60408051601f198184030181529082905262461bcd60e51b82526106959160040161271b565b60408051600180825281830190925260609160009190602080830190803683370190505090508281600081518110611f6057611f60612f41565b602090810291909101015292915050565b6001600160a01b0384163b156114bf5760405163f23a6e6160e01b81526001600160a01b0385169063f23a6e6190611fb59089908990889088908890600401613243565b602060405180830381600087803b158015611fcf57600080fd5b505af1925050508015611fff575060408051601f3d908101601f19168201909252611ffc91810190613288565b60015b6120ac5761200b6132a5565b806308c379a0141561204557506120206132c0565b8061202b5750612047565b8060405162461bcd60e51b8152600401610695919061271b565b505b60405162461bcd60e51b815260206004820152603460248201527f455243313135353a207472616e7366657220746f206e6f6e20455243313135356044820152732932b1b2b4bb32b91034b6b83632b6b2b73a32b960611b6064820152608401610695565b6001600160e01b0319811663f23a6e6160e01b1461131f5760405162461bcd60e51b815260040161069590613349565b6001600160a01b0384163b156114bf5760405163bc197c8160e01b81526001600160a01b0385169063bc197c81906121209089908990889088908890600401613391565b602060405180830381600087803b15801561213a57600080fd5b505af192505050801561216a575060408051601f3d908101601f1916820190925261216791810190613288565b60015b6121765761200b6132a5565b6001600160e01b0319811663bc197c8160e01b1461131f5760405162461bcd60e51b815260040161069590613349565b6001600160a01b0381163b6122135760405162461bcd60e51b815260206004820152602d60248201527f455243313936373a206e657720696d706c656d656e746174696f6e206973206e60448201526c1bdd08184818dbdb9d1c9858dd609a1b6064820152608401610695565b60008051602061344283398151915280546001600160a01b0319166001600160a01b0392909216919091179055565b61224b83612439565b6000825111806122585750805b156108d9576108628383612479565b600054610100900460ff1661228e5760405162461bcd60e51b8152600401610695906130df565b610aa8816118f5565b606060006122a68360026133ef565b6122b1906002612e42565b6001600160401b038111156122c8576122c861277c565b6040519080825280601f01601f1916602001820160405280156122f2576020820181803683370190505b509050600360fc1b8160008151811061230d5761230d612f41565b60200101906001600160f81b031916908160001a905350600f60fb1b8160018151811061233c5761233c612f41565b60200101906001600160f81b031916908160001a90535060006123608460026133ef565b61236b906001612e42565b90505b60018111156123e3576f181899199a1a9b1b9c1cb0b131b232b360811b85600f166010811061239f5761239f612f41565b1a60f81b8282815181106123b5576123b5612f41565b60200101906001600160f81b031916908160001a90535060049490941c936123dc8161340e565b905061236e565b5083156124325760405162461bcd60e51b815260206004820181905260248201527f537472696e67733a20686578206c656e67746820696e73756666696369656e746044820152606401610695565b9392505050565b612442816121a6565b6040516001600160a01b038216907fbc7cd75a20ee27fd9adebab32041f755214dbc6bffa90cc0225b39da2e5c2d3b90600090a250565b60606001600160a01b0383163b6124e15760405162461bcd60e51b815260206004820152602660248201527f416464726573733a2064656c65676174652063616c6c20746f206e6f6e2d636f6044820152651b9d1c9858dd60d21b6064820152608401610695565b600080846001600160a01b0316846040516124fc9190613425565b600060405180830381855af49150503d8060008114612537576040519150601f19603f3d011682016040523d82523d6000602084013e61253c565b606091505b509150915061256482826040518060600160405280602781526020016134626027913961256d565b95945050505050565b6060831561257c575081612432565b82511561258c5782518084602001fd5b8160405162461bcd60e51b8152600401610695919061271b565b8280546125b290612df1565b90600052602060002090601f0160209004810192826125d4576000855561261a565b82601f106125ed57805160ff191683800117855561261a565b8280016001018555821561261a579182015b8281111561261a5782518255916020019190600101906125ff565b5061262692915061262a565b5090565b5b80821115612626576000815560010161262b565b6001600160a01b0381168114610aa857600080fd5b803561265f8161263f565b919050565b6000806040838503121561267757600080fd5b82356126828161263f565b946020939093013593505050565b6001600160e01b031981168114610aa857600080fd5b6000602082840312156126b857600080fd5b813561243281612690565b60005b838110156126de5781810151838201526020016126c6565b838111156108625750506000910152565b600081518084526127078160208601602086016126c3565b601f01601f19169290920160200192915050565b60208152600061243260208301846126ef565b60006020828403121561274057600080fd5b5035919050565b60008060006060848603121561275c57600080fd5b83356127678161263f565b95602085013595506040909401359392505050565b634e487b7160e01b600052604160045260246000fd5b601f8201601f191681016001600160401b03811182821017156127b7576127b761277c565b6040525050565b60006001600160401b038211156127d7576127d761277c565b5060051b60200190565b600082601f8301126127f257600080fd5b813560206127ff826127be565b60405161280c8282612792565b83815260059390931b850182019282810191508684111561282c57600080fd5b8286015b848110156128475780358352918301918301612830565b509695505050505050565b600082601f83011261286357600080fd5b81356001600160401b0381111561287c5761287c61277c565b604051612893601f8301601f191660200182612792565b8181528460208386010111156128a857600080fd5b816020850160208301376000918101602001919091529392505050565b600080600080600060a086880312156128dd57600080fd5b85356128e88161263f565b945060208601356128f88161263f565b935060408601356001600160401b038082111561291457600080fd5b61292089838a016127e1565b9450606088013591508082111561293657600080fd5b61294289838a016127e1565b9350608088013591508082111561295857600080fd5b5061296588828901612852565b9150509295509295909350565b6000806040838503121561298557600080fd5b8235915060208301356129978161263f565b809150509250929050565b6000602082840312156129b457600080fd5b81356124328161263f565b600080600080600080600060e0888a0312156129da57600080fd5b87356001600160401b03808211156129f157600080fd5b6129fd8b838c01612852565b985060208a0135915080821115612a1357600080fd5b612a1f8b838c01612852565b975060408a0135915080821115612a3557600080fd5b612a418b838c01612852565b9650612a4f60608b01612654565b955060808a0135945060a08a0135915080821115612a6c57600080fd5b612a788b838c016127e1565b935060c08a0135915080821115612a8e57600080fd5b50612a9b8a828b016127e1565b91505092959891949750929550565b60008060408385031215612abd57600080fd5b82356001600160401b0380821115612ad457600080fd5b818501915085601f830112612ae857600080fd5b81356020612af5826127be565b604051612b028282612792565b83815260059390931b8501820192828101915089841115612b2257600080fd5b948201945b83861015612b49578535612b3a8161263f565b82529482019490820190612b27565b96505086013592505080821115612b5f57600080fd5b50612b6c858286016127e1565b9150509250929050565b600081518084526020808501945080840160005b83811015612ba657815187529582019590820190600101612b8a565b509495945050505050565b6020815260006124326020830184612b76565b60008060408385031215612bd757600080fd5b8235612be28161263f565b915060208301356001600160401b03811115612bfd57600080fd5b612b6c85828601612852565b600060208284031215612c1b57600080fd5b81356001600160401b03811115612c3157600080fd5b612c3d84828501612852565b949350505050565b60008060408385031215612c5857600080fd5b82356001600160401b0380821115612c6f57600080fd5b612c7b868387016127e1565b93506020850135915080821115612b5f57600080fd5b60008060408385031215612ca457600080fd5b8235612caf8161263f565b91506020830135801515811461299757600080fd5b60008060408385031215612cd757600080fd5b50508035926020909101359150565b600080600060608486031215612cfb57600080fd5b8335612d068161263f565b925060208401356001600160401b0380821115612d2257600080fd5b612d2e878388016127e1565b93506040860135915080821115612d4457600080fd5b50612d51868287016127e1565b9150509250925092565b60008060408385031215612d6e57600080fd5b8235612d798161263f565b915060208301356129978161263f565b600080600080600060a08688031215612da157600080fd5b8535612dac8161263f565b94506020860135612dbc8161263f565b9350604086013592506060860135915060808601356001600160401b03811115612de557600080fd5b61296588828901612852565b600181811c90821680612e0557607f821691505b60208210811415612e2657634e487b7160e01b600052602260045260246000fd5b50919050565b634e487b7160e01b600052601160045260246000fd5b60008219821115612e5557612e55612e2c565b500190565b6020808252602f908201527f455243313135353a2063616c6c6572206973206e6f7420746f6b656e206f776e60408201526e195c881b9bdc88185c1c1c9bdd9959608a1b606082015260800190565b6020808252602c908201527f46756e6374696f6e206d7573742062652063616c6c6564207468726f7567682060408201526b19195b1959d85d1958d85b1b60a21b606082015260800190565b6020808252602c908201527f46756e6374696f6e206d7573742062652063616c6c6564207468726f7567682060408201526b6163746976652070726f787960a01b606082015260800190565b634e487b7160e01b600052603260045260246000fd5b6000600019821415612f6b57612f6b612e2c565b5060010190565b600082821015612f8457612f84612e2c565b500390565b60208082526021908201527f455243313135353a206d696e7420746f20746865207a65726f206164647265736040820152607360f81b606082015260800190565b60208082526028908201527f455243313135353a2069647320616e6420616d6f756e7473206c656e677468206040820152670dad2e6dac2e8c6d60c31b606082015260800190565b60208082526025908201527f455243313135353a207472616e7366657220746f20746865207a65726f206164604082015264647265737360d81b606082015260800190565b6020808252602a908201527f455243313135353a20696e73756666696369656e742062616c616e636520666f60408201526939103a3930b739b332b960b11b606082015260800190565b6040815260006130b46040830185612b76565b82810360208401526125648185612b76565b6000602082840312156130d857600080fd5b5051919050565b6020808252602b908201527f496e697469616c697a61626c653a20636f6e7472616374206973206e6f74206960408201526a6e697469616c697a696e6760a81b606082015260800190565b60208082526023908201527f455243313135353a206275726e2066726f6d20746865207a65726f206164647260408201526265737360e81b606082015260800190565b60208082526024908201527f455243313135353a206275726e20616d6f756e7420657863656564732062616c604082015263616e636560e01b606082015260800190565b6000602082840312156131c357600080fd5b81516124328161263f565b7f416363657373436f6e74726f6c3a206163636f756e74200000000000000000008152600083516132068160178501602088016126c3565b7001034b99036b4b9b9b4b733903937b6329607d1b60179184019182015283516132378160288401602088016126c3565b01602801949350505050565b6001600160a01b03868116825285166020820152604081018490526060810183905260a06080820181905260009061327d908301846126ef565b979650505050505050565b60006020828403121561329a57600080fd5b815161243281612690565b600060033d1115610fc55760046000803e5060005160e01c90565b600060443d10156132ce5790565b6040516003193d81016004833e81513d6001600160401b0381602484011181841117156132fd57505050505090565b82850191508151818111156133155750505050505090565b843d870101602082850101111561332f5750505050505090565b61333e60208286010187612792565b509095945050505050565b60208082526028908201527f455243313135353a204552433131353552656365697665722072656a656374656040820152676420746f6b656e7360c01b606082015260800190565b6001600160a01b0386811682528516602082015260a0604082018190526000906133bd90830186612b76565b82810360608401526133cf8186612b76565b905082810360808401526133e381856126ef565b98975050505050505050565b600081600019048311821515161561340957613409612e2c565b500290565b60008161341d5761341d612e2c565b506000190190565b600082516134378184602087016126c3565b919091019291505056fe360894a13ba1a3210667c828492db98dca3e2076cc3735a920a3ca505d382bbc416464726573733a206c6f772d6c6576656c2064656c65676174652063616c6c206661696c6564a49807205ce4d355092ef5a8a18f56e8913cf4a201fbe287825b095693c21775a2646970667358221220abd262e358d3bf24cc12287ab4b2fdc5c66cdab77f40a0d4dab6164a605f4a3b64736f6c63430008090033",
  "linkReferences": {},
  "deployedLinkReferences": {}
}