{
  "_format": "hh-sol-artifact-1",
  "contractName": "ERC1155",
  "sourceName": "contracts/ERC1155.sol",
  "abi": [
    {
      "anonymous": false,
      "inputs": [
        {
          "indexed": false,
          "internalType": "address",
          "name": "previousAdmin",
          "type": "address"
        },
        {
          "indexed": false,
          "internalType": "address",
          "name": "newAdmin",
          "type": "address"
        }
      ],
      "name": "AdminChanged",
      "type": "event"
    },
    {
      "anonymous": false,
      "inputs": [
        {
          "indexed": true,
          "internalType": "address",
          "name": "account",
          "type": "address"
        },
        {
          "indexed": true,
          "internalType": "address",
          "name": "operator",
          "type": "address"
        },
        {
          "indexed": false,
          "internalType": "bool",
          "name": "approved",
          "type": "bool"
        }
      ],
      "name": "ApprovalForAll",
      "type": "event"
    },
    {
      "anonymous": false,
      "inputs": [
        {
          "indexed": true,
          "internalType": "address",
          "name": "beacon",
          "type": "address"
        }
      ],
      "name": "BeaconUpgraded",
      "type": "event"
    },
    {
      "anonymous": false,
      "inputs": [
        {
          "indexed": false,
          "internalType": "uint8",
          "name": "version",
          "type": "uint8"
        }
      ],
      "name": "Initialized",
      "type": "event"
    },
    {
      "anonymous": false,
      "inputs": [
        {
          "indexed": true,
          "internalType": "bytes32",
          "name": "role",
          "type": "bytes32"
        },
        {
          "indexed": true,
          "internalType": "bytes32",
          "name": "previousAdminRole",
          "type": "bytes32"
        },
        {
          "indexed": true,
          "internalType": "bytes32",
          "name": "newAdminRole",
          "type": "bytes32"
        }
      ],
      "name": "RoleAdminChanged",
      "type": "event"
    },
    {
      "anonymous": false,
      "inputs": [
        {
          "indexed": true,
          "internalType": "bytes32",
          "name": "role",
          "type": "bytes32"
        },
        {
          "indexed": true,
          "internalType": "address",
          "name": "account",
          "type": "address"
        },
        {
          "indexed": true,
          "internalType": "address",
          "name": "sender",
          "type": "address"
        }
      ],
      "name": "RoleGranted",
      "type": "event"
    },
    {
      "anonymous": false,
      "inputs": [
        {
          "indexed": true,
          "internalType": "bytes32",
          "name": "role",
          "type": "bytes32"
        },
        {
          "indexed": true,
          "internalType": "address",
          "name": "account",
          "type": "address"
        },
        {
          "indexed": true,
          "internalType": "address",
          "name": "sender",
          "type": "address"
        }
      ],
      "name": "RoleRevoked",
      "type": "event"
    },
    {
      "anonymous": false,
      "inputs": [
        {
          "indexed": true,
          "internalType": "address",
          "name": "operator",
          "type": "address"
        },
        {
          "indexed": true,
          "internalType": "address",
          "name": "from",
          "type": "address"
        },
        {
          "indexed": true,
          "internalType": "address",
          "name": "to",
          "type": "address"
        },
        {
          "indexed": false,
          "internalType": "uint256[]",
          "name": "ids",
          "type": "uint256[]"
        },
        {
          "indexed": false,
          "internalType": "uint256[]",
          "name": "values",
          "type": "uint256[]"
        }
      ],
      "name": "TransferBatch",
      "type": "event"
    },
    {
      "anonymous": false,
      "inputs": [
        {
          "indexed": true,
          "internalType": "address",
          "name": "operator",
          "type": "address"
        },
        {
          "indexed": true,
          "internalType": "address",
          "name": "from",
          "type": "address"
        },
        {
          "indexed": true,
          "internalType": "address",
          "name": "to",
          "type": "address"
        },
        {
          "indexed": false,
          "internalType": "uint256",
          "name": "id",
          "type": "uint256"
        },
        {
          "indexed": false,
          "internalType": "uint256",
          "name": "value",
          "type": "uint256"
        }
      ],
      "name": "TransferSingle",
      "type": "event"
    },
    {
      "anonymous": false,
      "inputs": [
        {
          "indexed": false,
          "internalType": "string",
          "name": "value",
          "type": "string"
        },
        {
          "indexed": true,
          "internalType": "uint256",
          "name": "id",
          "type": "uint256"
        }
      ],
      "name": "URI",
      "type": "event"
    },
    {
      "anonymous": false,
      "inputs": [
        {
          "indexed": true,
          "internalType": "address",
          "name": "implementation",
          "type": "address"
        }
      ],
      "name": "Upgraded",
      "type": "event"
    },
    {
      "inputs": [],
      "name": "DEFAULT_ADMIN_ROLE",
      "outputs": [
        {
          "internalType": "bytes32",
          "name": "",
          "type": "bytes32"
        }
      ],
      "stateMutability": "view",
      "type": "function"
    },
    {
      "inputs": [
        {
          "internalType": "address",
          "name": "account",
          "type": "address"
        },
        {
          "internalType": "uint256",
          "name": "id",
          "type": "uint256"
        }
      ],
      "name": "balanceOf",
      "outputs": [
        {
          "internalType": "uint256",
          "name": "",
          "type": "uint256"
        }
      ],
      "stateMutability": "view",
      "type": "function"
    },
    {
      "inputs": [
        {
          "internalType": "address[]",
          "name": "accounts",
          "type": "address[]"
        },
        {
          "internalType": "uint256[]",
          "name": "ids",
          "type": "uint256[]"
        }
      ],
      "name": "balanceOfBatch",
      "outputs": [
        {
          "internalType": "uint256[]",
          "name": "",
          "type": "uint256[]"
        }
      ],
      "stateMutability": "view",
      "type": "function"
    },
    {
      "inputs": [
        {
          "internalType": "uint256",
          "name": "id",
          "type": "uint256"
        },
        {
          "internalType": "uint256",
          "name": "amount",
          "type": "uint256"
        }
      ],
      "name": "burn",
      "outputs": [],
      "stateMutability": "nonpayable",
      "type": "function"
    },
    {
      "inputs": [
        {
          "internalType": "uint256[]",
          "name": "ids",
          "type": "uint256[]"
        },
        {
          "internalType": "uint256[]",
          "name": "amounts",
          "type": "uint256[]"
        }
      ],
      "name": "burnBatch",
      "outputs": [],
      "stateMutability": "nonpayable",
      "type": "function"
    },
    {
      "inputs": [
        {
          "internalType": "uint256",
          "name": "_percentFee",
          "type": "uint256"
        }
      ],
      "name": "changeFeePercent",
      "outputs": [],
      "stateMutability": "nonpayable",
      "type": "function"
    },
    {
      "inputs": [],
      "name": "factory",
      "outputs": [
        {
          "internalType": "address",
          "name": "",
          "type": "address"
        }
      ],
      "stateMutability": "view",
      "type": "function"
    },
    {
      "inputs": [],
      "name": "getContractMetadata",
      "outputs": [
        {
          "components": [
            {
              "internalType": "string",
              "name": "name",
              "type": "string"
            },
            {
              "internalType": "string",
              "name": "symbol",
              "type": "string"
            },
            {
              "internalType": "string",
              "name": "tokenType",
              "type": "string"
            },
            {
              "internalType": "string",
              "name": "baseUri",
              "type": "string"
            }
          ],
          "internalType": "struct ERC1155.Metadata",
          "name": "metadata",
          "type": "tuple"
        }
      ],
      "stateMutability": "view",
      "type": "function"
    },
    {
      "inputs": [
        {
          "internalType": "bytes32",
          "name": "role",
          "type": "bytes32"
        }
      ],
      "name": "getRoleAdmin",
      "outputs": [
        {
          "internalType": "bytes32",
          "name": "",
          "type": "bytes32"
        }
      ],
      "stateMutability": "view",
      "type": "function"
    },
    {
      "inputs": [],
      "name": "getVersion",
      "outputs": [
        {
          "internalType": "uint256",
          "name": "",
          "type": "uint256"
        }
      ],
      "stateMutability": "pure",
      "type": "function"
    },
    {
      "inputs": [
        {
          "internalType": "bytes32",
          "name": "role",
          "type": "bytes32"
        },
        {
          "internalType": "address",
          "name": "account",
          "type": "address"
        }
      ],
      "name": "grantRole",
      "outputs": [],
      "stateMutability": "nonpayable",
      "type": "function"
    },
    {
      "inputs": [
        {
          "internalType": "bytes32",
          "name": "role",
          "type": "bytes32"
        },
        {
          "internalType": "address",
          "name": "account",
          "type": "address"
        }
      ],
      "name": "hasRole",
      "outputs": [
        {
          "internalType": "bool",
          "name": "",
          "type": "bool"
        }
      ],
      "stateMutability": "view",
      "type": "function"
    },
    {
      "inputs": [
        {
          "internalType": "string",
          "name": "name_",
          "type": "string"
        },
        {
          "internalType": "string",
          "name": "symbol_",
          "type": "string"
        },
        {
          "internalType": "string",
          "name": "baseURI_",
          "type": "string"
        },
        {
          "internalType": "address",
          "name": "owner_",
          "type": "address"
        },
        {
          "internalType": "uint256",
          "name": "percentFee_",
          "type": "uint256"
        },
        {
          "internalType": "uint256[]",
          "name": "ids_",
          "type": "uint256[]"
        },
        {
          "internalType": "uint256[]",
          "name": "amounts_",
          "type": "uint256[]"
        }
      ],
      "name": "initialize",
      "outputs": [],
      "stateMutability": "nonpayable",
      "type": "function"
    },
    {
      "inputs": [
        {
          "internalType": "address",
          "name": "account",
          "type": "address"
        },
        {
          "internalType": "address",
          "name": "operator",
          "type": "address"
        }
      ],
      "name": "isApprovedForAll",
      "outputs": [
        {
          "internalType": "bool",
          "name": "",
          "type": "bool"
        }
      ],
      "stateMutability": "view",
      "type": "function"
    },
    {
      "inputs": [
        {
          "internalType": "address",
          "name": "account",
          "type": "address"
        },
        {
          "internalType": "uint256",
          "name": "id",
          "type": "uint256"
        },
        {
          "internalType": "uint256",
          "name": "amount",
          "type": "uint256"
        }
      ],
      "name": "mint",
      "outputs": [],
      "stateMutability": "nonpayable",
      "type": "function"
    },
    {
      "inputs": [
        {
          "internalType": "address",
          "name": "to",
          "type": "address"
        },
        {
          "internalType": "uint256[]",
          "name": "ids",
          "type": "uint256[]"
        },
        {
          "internalType": "uint256[]",
          "name": "amounts",
          "type": "uint256[]"
        }
      ],
      "name": "mintBatch",
      "outputs": [],
      "stateMutability": "nonpayable",
      "type": "function"
    },
    {
      "inputs": [],
      "name": "name",
      "outputs": [
        {
          "internalType": "string",
          "name": "",
          "type": "string"
        }
      ],
      "stateMutability": "view",
      "type": "function"
    },
    {
      "inputs": [],
      "name": "owner",
      "outputs": [
        {
          "internalType": "address",
          "name": "",
          "type": "address"
        }
      ],
      "stateMutability": "view",
      "type": "function"
    },
    {
      "inputs": [],
      "name": "percentDecimals",
      "outputs": [
        {
          "internalType": "uint256",
          "name": "",
          "type": "uint256"
        }
      ],
      "stateMutability": "view",
      "type": "function"
    },
    {
      "inputs": [],
      "name": "percentFee",
      "outputs": [
        {
          "internalType": "uint256",
          "name": "",
          "type": "uint256"
        }
      ],
      "stateMutability": "view",
      "type": "function"
    },
    {
      "inputs": [],
      "name": "proxiableUUID",
      "outputs": [
        {
          "internalType": "bytes32",
          "name": "",
          "type": "bytes32"
        }
      ],
      "stateMutability": "view",
      "type": "function"
    },
    {
      "inputs": [
        {
          "internalType": "bytes32",
          "name": "role",
          "type": "bytes32"
        },
        {
          "internalType": "address",
          "name": "account",
          "type": "address"
        }
      ],
      "name": "renounceRole",
      "outputs": [],
      "stateMutability": "nonpayable",
      "type": "function"
    },
    {
      "inputs": [
        {
          "internalType": "bytes32",
          "name": "role",
          "type": "bytes32"
        },
        {
          "internalType": "address",
          "name": "account",
          "type": "address"
        }
      ],
      "name": "revokeRole",
      "outputs": [],
      "stateMutability": "nonpayable",
      "type": "function"
    },
    {
      "inputs": [
        {
          "internalType": "address",
          "name": "from",
          "type": "address"
        },
        {
          "internalType": "address",
          "name": "to",
          "type": "address"
        },
        {
          "internalType": "uint256[]",
          "name": "ids",
          "type": "uint256[]"
        },
        {
          "internalType": "uint256[]",
          "name": "amounts",
          "type": "uint256[]"
        },
        {
          "internalType": "bytes",
          "name": "data",
          "type": "bytes"
        }
      ],
      "name": "safeBatchTransferFrom",
      "outputs": [],
      "stateMutability": "nonpayable",
      "type": "function"
    },
    {
      "inputs": [
        {
          "internalType": "address",
          "name": "from",
          "type": "address"
        },
        {
          "internalType": "address",
          "name": "to",
          "type": "address"
        },
        {
          "internalType": "uint256",
          "name": "id",
          "type": "uint256"
        },
        {
          "internalType": "uint256",
          "name": "amount",
          "type": "uint256"
        },
        {
          "internalType": "bytes",
          "name": "data",
          "type": "bytes"
        }
      ],
      "name": "safeTransferFrom",
      "outputs": [],
      "stateMutability": "nonpayable",
      "type": "function"
    },
    {
      "inputs": [
        {
          "internalType": "address",
          "name": "operator",
          "type": "address"
        },
        {
          "internalType": "bool",
          "name": "approved",
          "type": "bool"
        }
      ],
      "name": "setApprovalForAll",
      "outputs": [],
      "stateMutability": "nonpayable",
      "type": "function"
    },
    {
      "inputs": [
        {
          "internalType": "string",
          "name": "_newBaseURI",
          "type": "string"
        }
      ],
      "name": "setBaseURI",
      "outputs": [],
      "stateMutability": "nonpayable",
      "type": "function"
    },
    {
      "inputs": [
        {
          "internalType": "bytes4",
          "name": "interfaceId",
          "type": "bytes4"
        }
      ],
      "name": "supportsInterface",
      "outputs": [
        {
          "internalType": "bool",
          "name": "",
          "type": "bool"
        }
      ],
      "stateMutability": "view",
      "type": "function"
    },
    {
      "inputs": [],
      "name": "symbol",
      "outputs": [
        {
          "internalType": "string",
          "name": "",
          "type": "string"
        }
      ],
      "stateMutability": "view",
      "type": "function"
    },
    {
      "inputs": [
        {
          "internalType": "uint256",
          "name": "",
          "type": "uint256"
        }
      ],
      "name": "tokenIdSupply",
      "outputs": [
        {
          "internalType": "uint256",
          "name": "",
          "type": "uint256"
        }
      ],
      "stateMutability": "view",
      "type": "function"
    },
    {
      "inputs": [
        {
          "internalType": "address",
          "name": "newImplementation",
          "type": "address"
        }
      ],
      "name": "upgradeTo",
      "outputs": [],
      "stateMutability": "nonpayable",
      "type": "function"
    },
    {
      "inputs": [
        {
          "internalType": "address",
          "name": "newImplementation",
          "type": "address"
        },
        {
          "internalType": "bytes",
          "name": "data",
          "type": "bytes"
        }
      ],
      "name": "upgradeToAndCall",
      "outputs": [],
      "stateMutability": "payable",
      "type": "function"
    },
    {
      "inputs": [
        {
          "internalType": "uint256",
          "name": "",
          "type": "uint256"
        }
      ],
      "name": "uri",
      "outputs": [
        {
          "internalType": "string",
          "name": "",
          "type": "string"
        }
      ],
      "stateMutability": "view",
      "type": "function"
    }
  ],
  "bytecode": "0x60a06040523060805234801561001457600080fd5b5060805161372c61004c60003960008181610a0301528181610a4301528181610e7f01528181610ebf0152610f4e015261372c6000f3fe6080604052600436106101ed5760003560e01c80634f1ef2861161010d578063a217fddf116100a0578063d547741f1161006f578063d547741f1461059d578063d81d0a15146105bd578063e985e9c5146105dd578063f242432a14610626578063f75195bc1461064657600080fd5b8063a217fddf14610527578063a22cb4651461053c578063b390c0ab1461055c578063c45a01551461057c57600080fd5b806383ca4b6f116100dc57806383ca4b6f146104995780638da5cb5b146104b957806391d14854146104f257806395d89b411461051257600080fd5b80634f1ef2861461042f57806352d1902d1461044257806355f804b31461045757806372b44b521461047757600080fd5b80632f2ff15d116101855780633659cfe6116101545780633659cfe6146103ab57806347f2fc91146103cb5780634c1a4115146103eb5780634e1273f41461040257600080fd5b80632f2ff15d1461031d578063327de31f1461033d57806334eddf3e1461036b57806336568abe1461038b57600080fd5b80630e89341c116101c15780630e89341c1461028b578063156e29f6146102ab578063248a9ca3146102cd5780632eb2c2d6146102fd57600080fd5b8062fdd58e146101f257806301ffc9a71461022557806306fdde03146102555780630d8e6e2c14610277575b600080fd5b3480156101fe57600080fd5b5061021261020d36600461283d565b61065b565b6040519081526020015b60405180910390f35b34801561023157600080fd5b5061024561024036600461287f565b6106f6565b604051901515815260200161021c565b34801561026157600080fd5b5061026a610701565b60405161021c91906128f4565b34801561028357600080fd5b506001610212565b34801561029757600080fd5b5061026a6102a6366004612907565b610790565b3480156102b757600080fd5b506102cb6102c6366004612920565b610824565b005b3480156102d957600080fd5b506102126102e8366004612907565b60009081526097602052604090206001015490565b34801561030957600080fd5b506102cb610318366004612a9e565b610895565b34801561032957600080fd5b506102cb610338366004612b4b565b6108e1565b34801561034957600080fd5b50610212610358366004612907565b6101326020526000908152604090205481565b34801561037757600080fd5b506102cb610386366004612907565b61090b565b34801561039757600080fd5b506102cb6103a6366004612b4b565b61097a565b3480156103b757600080fd5b506102cb6103c6366004612b7b565b6109f8565b3480156103d757600080fd5b506102cb6103e6366004612b98565b610ad8565b3480156103f757600080fd5b506102126101315481565b34801561040e57600080fd5b5061042261041d366004612c83565b610d4b565b60405161021c9190612d8a565b6102cb61043d366004612d9d565b610e74565b34801561044e57600080fd5b50610212610f41565b34801561046357600080fd5b506102cb610472366004612de2565b610ff5565b34801561048357600080fd5b5061048c611016565b60405161021c9190612e1e565b3480156104a557600080fd5b506102cb6104b4366004612e93565b6111c2565b3480156104c557600080fd5b5061012f546104da906001600160a01b031681565b6040516001600160a01b03909116815260200161021c565b3480156104fe57600080fd5b5061024561050d366004612b4b565b611248565b34801561051e57600080fd5b5061026a611273565b34801561053357600080fd5b50610212600081565b34801561054857600080fd5b506102cb610557366004612edf565b611281565b34801561056857600080fd5b506102cb610577366004612f12565b61128c565b34801561058857600080fd5b50610130546104da906001600160a01b031681565b3480156105a957600080fd5b506102cb6105b8366004612b4b565b6112bc565b3480156105c957600080fd5b506102cb6105d8366004612f34565b6112e1565b3480156105e957600080fd5b506102456105f8366004612fa9565b6001600160a01b03918216600090815260666020908152604080832093909416825291909152205460ff1690565b34801561063257600080fd5b506102cb610641366004612fd7565b6113a1565b34801561065257600080fd5b50610212600281565b60006001600160a01b0383166106cb5760405162461bcd60e51b815260206004820152602a60248201527f455243313135353a2061646472657373207a65726f206973206e6f742061207660448201526930b634b21037bbb732b960b11b60648201526084015b60405180910390fd5b5060008181526065602090815260408083206001600160a01b03861684529091529020545b92915050565b60006106f0826113f6565b61012d805461070f9061303f565b80601f016020809104026020016040519081016040528092919081815260200182805461073b9061303f565b80156107885780601f1061075d57610100808354040283529160200191610788565b820191906000526020600020905b81548152906001019060200180831161076b57829003601f168201915b505050505081565b60606067805461079f9061303f565b80601f01602080910402602001604051908101604052809291908181526020018280546107cb9061303f565b80156108185780601f106107ed57610100808354040283529160200191610818565b820191906000526020600020905b8154815290600101906020018083116107fb57829003601f168201915b50505050509050919050565b7f9f2df0fed2c77648de5860a4cc508cd0818c85b8b8a1ab4ceeef8d981c8956a661084e8161141b565b600083815261013260205260408120805484929061086d908490613090565b9250508190555061088f84848460405180602001604052806000815250611425565b50505050565b6001600160a01b0385163314806108b157506108b185336105f8565b6108cd5760405162461bcd60e51b81526004016106c2906130a8565b6108da8585858585611501565b5050505050565b6000828152609760205260409020600101546108fc8161141b565b61090683836116a0565b505050565b6000805160206136d78339815191526109238161141b565b60008211801561093557506127108211155b6109735760405162461bcd60e51b815260206004820152600f60248201526e030203c20466565203c20313030303608c1b60448201526064016106c2565b5061013155565b6001600160a01b03811633146109ea5760405162461bcd60e51b815260206004820152602f60248201527f416363657373436f6e74726f6c3a2063616e206f6e6c792072656e6f756e636560448201526e103937b632b9903337b91039b2b63360891b60648201526084016106c2565b6109f48282611726565b5050565b306001600160a01b037f0000000000000000000000000000000000000000000000000000000000000000161415610a415760405162461bcd60e51b81526004016106c2906130f7565b7f00000000000000000000000000000000000000000000000000000000000000006001600160a01b0316610a8a600080516020613690833981519152546001600160a01b031690565b6001600160a01b031614610ab05760405162461bcd60e51b81526004016106c290613143565b610ab98161178d565b60408051600080825260208201909252610ad5918391906117a5565b50565b600054610100900460ff1615808015610af85750600054600160ff909116105b80610b125750303b158015610b12575060005460ff166001145b610b755760405162461bcd60e51b815260206004820152602e60248201527f496e697469616c697a61626c653a20636f6e747261637420697320616c72656160448201526d191e481a5b9a5d1a585b1a5e995960921b60648201526084016106c2565b6000805460ff191660011790558015610b98576000805461ff0019166101001790555b610ba18661191f565b610ba961194f565b610bb161194f565b8751610bc59061012d9060208b019061277f565b508651610bda9061012e9060208a019061277f565b5061012f80546001600160a01b03199081166001600160a01b03881617909155610130805433921682179055610131859055610c1890600090611978565b610c236000866108e1565b610c3b6000805160206136d7833981519152866108e1565b610c657f9f2df0fed2c77648de5860a4cc508cd0818c85b8b8a1ab4ceeef8d981c8956a6866108e1565b610c8085848460405180602001604052806000815250611982565b60005b8351811015610cfa57828181518110610c9e57610c9e61318f565b60200260200101516101326000868481518110610cbd57610cbd61318f565b602002602001015181526020019081526020016000206000828254610ce29190613090565b90915550819050610cf2816131a5565b915050610c83565b508015610d41576000805461ff0019169055604051600181527f7f26b83ff96e1f2b6a682f133852f6798a09c465da95921460cefb38474024989060200160405180910390a15b5050505050505050565b60608151835114610db05760405162461bcd60e51b815260206004820152602960248201527f455243313135353a206163636f756e747320616e6420696473206c656e677468604482015268040dad2e6dac2e8c6d60bb1b60648201526084016106c2565b600083516001600160401b03811115610dcb57610dcb612955565b604051908082528060200260200182016040528015610df4578160200160208202803683370190505b50905060005b8451811015610e6c57610e3f858281518110610e1857610e1861318f565b6020026020010151858381518110610e3257610e3261318f565b602002602001015161065b565b828281518110610e5157610e5161318f565b6020908102919091010152610e65816131a5565b9050610dfa565b509392505050565b306001600160a01b037f0000000000000000000000000000000000000000000000000000000000000000161415610ebd5760405162461bcd60e51b81526004016106c2906130f7565b7f00000000000000000000000000000000000000000000000000000000000000006001600160a01b0316610f06600080516020613690833981519152546001600160a01b031690565b6001600160a01b031614610f2c5760405162461bcd60e51b81526004016106c290613143565b610f358261178d565b6109f4828260016117a5565b6000306001600160a01b037f00000000000000000000000000000000000000000000000000000000000000001614610fe15760405162461bcd60e51b815260206004820152603860248201527f555550535570677261646561626c653a206d757374206e6f742062652063616c60448201527f6c6564207468726f7567682064656c656761746563616c6c000000000000000060648201526084016106c2565b506000805160206136908339815191525b90565b6000805160206136d783398151915261100d8161141b565b6109f482611ace565b6110416040518060800160405280606081526020016060815260200160608152602001606081525090565b61012d805461104f9061303f565b80601f016020809104026020016040519081016040528092919081815260200182805461107b9061303f565b80156110c85780601f1061109d576101008083540402835291602001916110c8565b820191906000526020600020905b8154815290600101906020018083116110ab57829003601f168201915b505050918352505061012e80546110de9061303f565b80601f016020809104026020016040519081016040528092919081815260200182805461110a9061303f565b80156111575780601f1061112c57610100808354040283529160200191611157565b820191906000526020600020905b81548152906001019060200180831161113a57829003601f168201915b50505050506020820152611171636cdb3d1360e11b6106f6565b61118a57604051806020016040528060008152506111ab565b604051806040016040528060078152602001664552433131353560c81b8152505b60408201526111ba6000610790565b606082015290565b60005b825181101561123c578181815181106111e0576111e061318f565b602002602001015161013260008584815181106111ff576111ff61318f565b60200260200101518152602001908152602001600020600082825461122491906131c0565b90915550819050611234816131a5565b9150506111c5565b506109f4338383611ae1565b60009182526097602090815260408084206001600160a01b0393909316845291905290205460ff1690565b61012e805461070f9061303f565b6109f4338383611c6e565b60008281526101326020526040812080548392906112ab9084906131c0565b909155506109f49050338383611d4f565b6000828152609760205260409020600101546112d78161141b565b6109068383611726565b7f9f2df0fed2c77648de5860a4cc508cd0818c85b8b8a1ab4ceeef8d981c8956a661130b8161141b565b60005b8351811015611385578281815181106113295761132961318f565b602002602001015161013260008684815181106113485761134861318f565b60200260200101518152602001908152602001600020600082825461136d9190613090565b9091555081905061137d816131a5565b91505061130e565b5061088f84848460405180602001604052806000815250611982565b6001600160a01b0385163314806113bd57506113bd85336105f8565b806113cd57506113cd8585611e56565b6113e95760405162461bcd60e51b81526004016106c2906130a8565b6108da8585858585611f1d565b60006001600160e01b03198216637965db0b60e01b14806106f057506106f08261204b565b610ad5813361209b565b6001600160a01b03841661144b5760405162461bcd60e51b81526004016106c2906131d7565b336000611457856120ff565b90506000611464856120ff565b905060008681526065602090815260408083206001600160a01b038b16845290915281208054879290611498908490613090565b909155505060408051878152602081018790526001600160a01b03808a1692600092918716917fc3d58168c5ae7397731d063d5bbf3d657854427343f4c083240f7aacaa2d0f62910160405180910390a46114f88360008989898961214a565b50505050505050565b81518351146115225760405162461bcd60e51b81526004016106c290613218565b6001600160a01b0384166115485760405162461bcd60e51b81526004016106c290613260565b3360005b84518110156116325760008582815181106115695761156961318f565b6020026020010151905060008583815181106115875761158761318f565b60209081029190910181015160008481526065835260408082206001600160a01b038e1683529093529190912054909150818110156115d85760405162461bcd60e51b81526004016106c2906132a5565b60008381526065602090815260408083206001600160a01b038e8116855292528083208585039055908b16825281208054849290611617908490613090565b925050819055505050508061162b906131a5565b905061154c565b50846001600160a01b0316866001600160a01b0316826001600160a01b03167f4a39dc06d4c0dbc64b70af90fd698a233a518aa5d07e595d983b8c0526c8f7fb87876040516116829291906132ef565b60405180910390a46116988187878787876122b5565b505050505050565b6116aa8282611248565b6109f45760008281526097602090815260408083206001600160a01b03851684529091529020805460ff191660011790556116e23390565b6001600160a01b0316816001600160a01b0316837f2f8788117e7eff1d82e926ec794901d17c78024a50270940304540a733656f0d60405160405180910390a45050565b6117308282611248565b156109f45760008281526097602090815260408083206001600160a01b0385168085529252808320805460ff1916905551339285917ff6391f5c32d9c69d2a47ea670b442974b53935d1edc7fd64eb21e047a839171b9190a45050565b6000805160206136d78339815191526109f48161141b565b7f4910fdfa16fed3260ed0e7147f7cc6da11a60208b5b9406d12a635614ffd91435460ff16156117d8576109068361237f565b826001600160a01b03166352d1902d6040518163ffffffff1660e01b815260040160206040518083038186803b15801561181157600080fd5b505afa925050508015611841575060408051601f3d908101601f1916820190925261183e91810190613314565b60015b6118a45760405162461bcd60e51b815260206004820152602e60248201527f45524331393637557067726164653a206e657720696d706c656d656e7461746960448201526d6f6e206973206e6f74205555505360901b60648201526084016106c2565b60008051602061369083398151915281146119135760405162461bcd60e51b815260206004820152602960248201527f45524331393637557067726164653a20756e737570706f727465642070726f786044820152681a58589b195555525160ba1b60648201526084016106c2565b5061090683838361241b565b600054610100900460ff166119465760405162461bcd60e51b81526004016106c29061332d565b610ad581612440565b600054610100900460ff166119765760405162461bcd60e51b81526004016106c29061332d565b565b6109f482826116a0565b6001600160a01b0384166119a85760405162461bcd60e51b81526004016106c2906131d7565b81518351146119c95760405162461bcd60e51b81526004016106c290613218565b3360005b8451811015611a66578381815181106119e8576119e861318f565b602002602001015160656000878481518110611a0657611a0661318f565b602002602001015181526020019081526020016000206000886001600160a01b03166001600160a01b031681526020019081526020016000206000828254611a4e9190613090565b90915550819050611a5e816131a5565b9150506119cd565b50846001600160a01b031660006001600160a01b0316826001600160a01b03167f4a39dc06d4c0dbc64b70af90fd698a233a518aa5d07e595d983b8c0526c8f7fb8787604051611ab79291906132ef565b60405180910390a46108da816000878787876122b5565b80516109f490606790602084019061277f565b6001600160a01b038316611b075760405162461bcd60e51b81526004016106c290613378565b8051825114611b285760405162461bcd60e51b81526004016106c290613218565b604080516020810190915260009081905233905b8351811015611c01576000848281518110611b5957611b5961318f565b602002602001015190506000848381518110611b7757611b7761318f565b60209081029190910181015160008481526065835260408082206001600160a01b038c168352909352919091205490915081811015611bc85760405162461bcd60e51b81526004016106c2906133bb565b60009283526065602090815260408085206001600160a01b038b1686529091529092209103905580611bf9816131a5565b915050611b3c565b5060006001600160a01b0316846001600160a01b0316826001600160a01b03167f4a39dc06d4c0dbc64b70af90fd698a233a518aa5d07e595d983b8c0526c8f7fb8686604051611c529291906132ef565b60405180910390a460408051602081019091526000905261088f565b816001600160a01b0316836001600160a01b03161415611ce25760405162461bcd60e51b815260206004820152602960248201527f455243313135353a2073657474696e6720617070726f76616c20737461747573604482015268103337b91039b2b63360b91b60648201526084016106c2565b6001600160a01b03838116600081815260666020908152604080832094871680845294825291829020805460ff191686151590811790915591519182527f17307eab39ab6107e8899845ad3d59bd9653f200f220920489ca2b5937696c31910160405180910390a3505050565b6001600160a01b038316611d755760405162461bcd60e51b81526004016106c290613378565b336000611d81846120ff565b90506000611d8e846120ff565b6040805160208082018352600091829052888252606581528282206001600160a01b038b1683529052205490915084811015611ddc5760405162461bcd60e51b81526004016106c2906133bb565b60008681526065602090815260408083206001600160a01b038b81168086529184528285208a8703905582518b81529384018a90529092908816917fc3d58168c5ae7397731d063d5bbf3d657854427343f4c083240f7aacaa2d0f62910160405180910390a46040805160208101909152600090526114f8565b6000816001600160a01b031661013060009054906101000a90046001600160a01b03166001600160a01b03166389a620656040518163ffffffff1660e01b815260040160206040518083038186803b158015611eb157600080fd5b505afa158015611ec5573d6000803e3d6000fd5b505050506040513d601f19601f82011682018060405250810190611ee991906133ff565b6001600160a01b0316148015611f0757506001600160a01b03831632145b15611f14575060016106f0565b50600092915050565b6001600160a01b038416611f435760405162461bcd60e51b81526004016106c290613260565b336000611f4f856120ff565b90506000611f5c856120ff565b905060008681526065602090815260408083206001600160a01b038c16845290915290205485811015611fa15760405162461bcd60e51b81526004016106c2906132a5565b60008781526065602090815260408083206001600160a01b038d8116855292528083208985039055908a16825281208054889290611fe0908490613090565b909155505060408051888152602081018890526001600160a01b03808b16928c821692918816917fc3d58168c5ae7397731d063d5bbf3d657854427343f4c083240f7aacaa2d0f62910160405180910390a4612040848a8a8a8a8a61214a565b505050505050505050565b60006001600160e01b03198216636cdb3d1360e11b148061207c57506001600160e01b031982166303a24d0760e21b145b806106f057506301ffc9a760e01b6001600160e01b03198316146106f0565b6120a58282611248565b6109f4576120bd816001600160a01b03166014612470565b6120c8836020612470565b6040516020016120d992919061341c565b60408051601f198184030181529082905262461bcd60e51b82526106c2916004016128f4565b604080516001808252818301909252606091600091906020808301908036833701905050905082816000815181106121395761213961318f565b602090810291909101015292915050565b6001600160a01b0384163b156116985760405163f23a6e6160e01b81526001600160a01b0385169063f23a6e619061218e9089908990889088908890600401613491565b602060405180830381600087803b1580156121a857600080fd5b505af19250505080156121d8575060408051601f3d908101601f191682019092526121d5918101906134d6565b60015b612285576121e46134f3565b806308c379a0141561221e57506121f961350e565b806122045750612220565b8060405162461bcd60e51b81526004016106c291906128f4565b505b60405162461bcd60e51b815260206004820152603460248201527f455243313135353a207472616e7366657220746f206e6f6e20455243313135356044820152732932b1b2b4bb32b91034b6b83632b6b2b73a32b960611b60648201526084016106c2565b6001600160e01b0319811663f23a6e6160e01b146114f85760405162461bcd60e51b81526004016106c290613597565b6001600160a01b0384163b156116985760405163bc197c8160e01b81526001600160a01b0385169063bc197c81906122f990899089908890889088906004016135df565b602060405180830381600087803b15801561231357600080fd5b505af1925050508015612343575060408051601f3d908101601f19168201909252612340918101906134d6565b60015b61234f576121e46134f3565b6001600160e01b0319811663bc197c8160e01b146114f85760405162461bcd60e51b81526004016106c290613597565b6001600160a01b0381163b6123ec5760405162461bcd60e51b815260206004820152602d60248201527f455243313936373a206e657720696d706c656d656e746174696f6e206973206e60448201526c1bdd08184818dbdb9d1c9858dd609a1b60648201526084016106c2565b60008051602061369083398151915280546001600160a01b0319166001600160a01b0392909216919091179055565b61242483612612565b6000825111806124315750805b156109065761088f8383612652565b600054610100900460ff166124675760405162461bcd60e51b81526004016106c29061332d565b610ad581611ace565b6060600061247f83600261363d565b61248a906002613090565b6001600160401b038111156124a1576124a1612955565b6040519080825280601f01601f1916602001820160405280156124cb576020820181803683370190505b509050600360fc1b816000815181106124e6576124e661318f565b60200101906001600160f81b031916908160001a905350600f60fb1b816001815181106125155761251561318f565b60200101906001600160f81b031916908160001a905350600061253984600261363d565b612544906001613090565b90505b60018111156125bc576f181899199a1a9b1b9c1cb0b131b232b360811b85600f16601081106125785761257861318f565b1a60f81b82828151811061258e5761258e61318f565b60200101906001600160f81b031916908160001a90535060049490941c936125b58161365c565b9050612547565b50831561260b5760405162461bcd60e51b815260206004820181905260248201527f537472696e67733a20686578206c656e67746820696e73756666696369656e7460448201526064016106c2565b9392505050565b61261b8161237f565b6040516001600160a01b038216907fbc7cd75a20ee27fd9adebab32041f755214dbc6bffa90cc0225b39da2e5c2d3b90600090a250565b60606001600160a01b0383163b6126ba5760405162461bcd60e51b815260206004820152602660248201527f416464726573733a2064656c65676174652063616c6c20746f206e6f6e2d636f6044820152651b9d1c9858dd60d21b60648201526084016106c2565b600080846001600160a01b0316846040516126d59190613673565b600060405180830381855af49150503d8060008114612710576040519150601f19603f3d011682016040523d82523d6000602084013e612715565b606091505b509150915061273d82826040518060600160405280602781526020016136b060279139612746565b95945050505050565b6060831561275557508161260b565b8251156127655782518084602001fd5b8160405162461bcd60e51b81526004016106c291906128f4565b82805461278b9061303f565b90600052602060002090601f0160209004810192826127ad57600085556127f3565b82601f106127c657805160ff19168380011785556127f3565b828001600101855582156127f3579182015b828111156127f35782518255916020019190600101906127d8565b506127ff929150612803565b5090565b5b808211156127ff5760008155600101612804565b6001600160a01b0381168114610ad557600080fd5b803561283881612818565b919050565b6000806040838503121561285057600080fd5b823561285b81612818565b946020939093013593505050565b6001600160e01b031981168114610ad557600080fd5b60006020828403121561289157600080fd5b813561260b81612869565b60005b838110156128b757818101518382015260200161289f565b8381111561088f5750506000910152565b600081518084526128e081602086016020860161289c565b601f01601f19169290920160200192915050565b60208152600061260b60208301846128c8565b60006020828403121561291957600080fd5b5035919050565b60008060006060848603121561293557600080fd5b833561294081612818565b95602085013595506040909401359392505050565b634e487b7160e01b600052604160045260246000fd5b601f8201601f191681016001600160401b038111828210171561299057612990612955565b6040525050565b60006001600160401b038211156129b0576129b0612955565b5060051b60200190565b600082601f8301126129cb57600080fd5b813560206129d882612997565b6040516129e5828261296b565b83815260059390931b8501820192828101915086841115612a0557600080fd5b8286015b84811015612a205780358352918301918301612a09565b509695505050505050565b600082601f830112612a3c57600080fd5b81356001600160401b03811115612a5557612a55612955565b604051612a6c601f8301601f19166020018261296b565b818152846020838601011115612a8157600080fd5b816020850160208301376000918101602001919091529392505050565b600080600080600060a08688031215612ab657600080fd5b8535612ac181612818565b94506020860135612ad181612818565b935060408601356001600160401b0380821115612aed57600080fd5b612af989838a016129ba565b94506060880135915080821115612b0f57600080fd5b612b1b89838a016129ba565b93506080880135915080821115612b3157600080fd5b50612b3e88828901612a2b565b9150509295509295909350565b60008060408385031215612b5e57600080fd5b823591506020830135612b7081612818565b809150509250929050565b600060208284031215612b8d57600080fd5b813561260b81612818565b600080600080600080600060e0888a031215612bb357600080fd5b87356001600160401b0380821115612bca57600080fd5b612bd68b838c01612a2b565b985060208a0135915080821115612bec57600080fd5b612bf88b838c01612a2b565b975060408a0135915080821115612c0e57600080fd5b612c1a8b838c01612a2b565b9650612c2860608b0161282d565b955060808a0135945060a08a0135915080821115612c4557600080fd5b612c518b838c016129ba565b935060c08a0135915080821115612c6757600080fd5b50612c748a828b016129ba565b91505092959891949750929550565b60008060408385031215612c9657600080fd5b82356001600160401b0380821115612cad57600080fd5b818501915085601f830112612cc157600080fd5b81356020612cce82612997565b604051612cdb828261296b565b83815260059390931b8501820192828101915089841115612cfb57600080fd5b948201945b83861015612d22578535612d1381612818565b82529482019490820190612d00565b96505086013592505080821115612d3857600080fd5b50612d45858286016129ba565b9150509250929050565b600081518084526020808501945080840160005b83811015612d7f57815187529582019590820190600101612d63565b509495945050505050565b60208152600061260b6020830184612d4f565b60008060408385031215612db057600080fd5b8235612dbb81612818565b915060208301356001600160401b03811115612dd657600080fd5b612d4585828601612a2b565b600060208284031215612df457600080fd5b81356001600160401b03811115612e0a57600080fd5b612e1684828501612a2b565b949350505050565b602081526000825160806020840152612e3a60a08401826128c8565b90506020840151601f1980858403016040860152612e5883836128c8565b92506040860151915080858403016060860152612e7583836128c8565b925060608601519150808584030160808601525061273d82826128c8565b60008060408385031215612ea657600080fd5b82356001600160401b0380821115612ebd57600080fd5b612ec9868387016129ba565b93506020850135915080821115612d3857600080fd5b60008060408385031215612ef257600080fd5b8235612efd81612818565b915060208301358015158114612b7057600080fd5b60008060408385031215612f2557600080fd5b50508035926020909101359150565b600080600060608486031215612f4957600080fd5b8335612f5481612818565b925060208401356001600160401b0380821115612f7057600080fd5b612f7c878388016129ba565b93506040860135915080821115612f9257600080fd5b50612f9f868287016129ba565b9150509250925092565b60008060408385031215612fbc57600080fd5b8235612fc781612818565b91506020830135612b7081612818565b600080600080600060a08688031215612fef57600080fd5b8535612ffa81612818565b9450602086013561300a81612818565b9350604086013592506060860135915060808601356001600160401b0381111561303357600080fd5b612b3e88828901612a2b565b600181811c9082168061305357607f821691505b6020821081141561307457634e487b7160e01b600052602260045260246000fd5b50919050565b634e487b7160e01b600052601160045260246000fd5b600082198211156130a3576130a361307a565b500190565b6020808252602f908201527f455243313135353a2063616c6c6572206973206e6f7420746f6b656e206f776e60408201526e195c881b9bdc88185c1c1c9bdd9959608a1b606082015260800190565b6020808252602c908201527f46756e6374696f6e206d7573742062652063616c6c6564207468726f7567682060408201526b19195b1959d85d1958d85b1b60a21b606082015260800190565b6020808252602c908201527f46756e6374696f6e206d7573742062652063616c6c6564207468726f7567682060408201526b6163746976652070726f787960a01b606082015260800190565b634e487b7160e01b600052603260045260246000fd5b60006000198214156131b9576131b961307a565b5060010190565b6000828210156131d2576131d261307a565b500390565b60208082526021908201527f455243313135353a206d696e7420746f20746865207a65726f206164647265736040820152607360f81b606082015260800190565b60208082526028908201527f455243313135353a2069647320616e6420616d6f756e7473206c656e677468206040820152670dad2e6dac2e8c6d60c31b606082015260800190565b60208082526025908201527f455243313135353a207472616e7366657220746f20746865207a65726f206164604082015264647265737360d81b606082015260800190565b6020808252602a908201527f455243313135353a20696e73756666696369656e742062616c616e636520666f60408201526939103a3930b739b332b960b11b606082015260800190565b6040815260006133026040830185612d4f565b828103602084015261273d8185612d4f565b60006020828403121561332657600080fd5b5051919050565b6020808252602b908201527f496e697469616c697a61626c653a20636f6e7472616374206973206e6f74206960408201526a6e697469616c697a696e6760a81b606082015260800190565b60208082526023908201527f455243313135353a206275726e2066726f6d20746865207a65726f206164647260408201526265737360e81b606082015260800190565b60208082526024908201527f455243313135353a206275726e20616d6f756e7420657863656564732062616c604082015263616e636560e01b606082015260800190565b60006020828403121561341157600080fd5b815161260b81612818565b7f416363657373436f6e74726f6c3a206163636f756e742000000000000000000081526000835161345481601785016020880161289c565b7001034b99036b4b9b9b4b733903937b6329607d1b601791840191820152835161348581602884016020880161289c565b01602801949350505050565b6001600160a01b03868116825285166020820152604081018490526060810183905260a0608082018190526000906134cb908301846128c8565b979650505050505050565b6000602082840312156134e857600080fd5b815161260b81612869565b600060033d1115610ff25760046000803e5060005160e01c90565b600060443d101561351c5790565b6040516003193d81016004833e81513d6001600160401b03816024840111818411171561354b57505050505090565b82850191508151818111156135635750505050505090565b843d870101602082850101111561357d5750505050505090565b61358c6020828601018761296b565b509095945050505050565b60208082526028908201527f455243313135353a204552433131353552656365697665722072656a656374656040820152676420746f6b656e7360c01b606082015260800190565b6001600160a01b0386811682528516602082015260a06040820181905260009061360b90830186612d4f565b828103606084015261361d8186612d4f565b9050828103608084015261363181856128c8565b98975050505050505050565b60008160001904831182151516156136575761365761307a565b500290565b60008161366b5761366b61307a565b506000190190565b6000825161368581846020870161289c565b919091019291505056fe360894a13ba1a3210667c828492db98dca3e2076cc3735a920a3ca505d382bbc416464726573733a206c6f772d6c6576656c2064656c65676174652063616c6c206661696c6564a49807205ce4d355092ef5a8a18f56e8913cf4a201fbe287825b095693c21775a264697066735822122050771b6e4c7beaf2e94fab8b56f568f0b5ffb4a4752f6b2714249715c9310f8464736f6c63430008090033",
  "linkReferences": {},
  "deployedLinkReferences": {}
}