{
  "_format": "hh-sol-artifact-1",
  "contractName": "ERC1155",
  "sourceName": "contracts/ERC1155.sol",
  "abi": [
    {
      "anonymous": false,
      "inputs": [
        {
          "indexed": false,
          "internalType": "address",
          "name": "previousAdmin",
          "type": "address"
        },
        {
          "indexed": false,
          "internalType": "address",
          "name": "newAdmin",
          "type": "address"
        }
      ],
      "name": "AdminChanged",
      "type": "event"
    },
    {
      "anonymous": false,
      "inputs": [
        {
          "indexed": true,
          "internalType": "address",
          "name": "account",
          "type": "address"
        },
        {
          "indexed": true,
          "internalType": "address",
          "name": "operator",
          "type": "address"
        },
        {
          "indexed": false,
          "internalType": "bool",
          "name": "approved",
          "type": "bool"
        }
      ],
      "name": "ApprovalForAll",
      "type": "event"
    },
    {
      "anonymous": false,
      "inputs": [
        {
          "indexed": true,
          "internalType": "address",
          "name": "beacon",
          "type": "address"
        }
      ],
      "name": "BeaconUpgraded",
      "type": "event"
    },
    {
      "anonymous": false,
      "inputs": [
        {
          "indexed": false,
          "internalType": "uint8",
          "name": "version",
          "type": "uint8"
        }
      ],
      "name": "Initialized",
      "type": "event"
    },
    {
      "anonymous": false,
      "inputs": [
        {
          "indexed": true,
          "internalType": "bytes32",
          "name": "role",
          "type": "bytes32"
        },
        {
          "indexed": true,
          "internalType": "bytes32",
          "name": "previousAdminRole",
          "type": "bytes32"
        },
        {
          "indexed": true,
          "internalType": "bytes32",
          "name": "newAdminRole",
          "type": "bytes32"
        }
      ],
      "name": "RoleAdminChanged",
      "type": "event"
    },
    {
      "anonymous": false,
      "inputs": [
        {
          "indexed": true,
          "internalType": "bytes32",
          "name": "role",
          "type": "bytes32"
        },
        {
          "indexed": true,
          "internalType": "address",
          "name": "account",
          "type": "address"
        },
        {
          "indexed": true,
          "internalType": "address",
          "name": "sender",
          "type": "address"
        }
      ],
      "name": "RoleGranted",
      "type": "event"
    },
    {
      "anonymous": false,
      "inputs": [
        {
          "indexed": true,
          "internalType": "bytes32",
          "name": "role",
          "type": "bytes32"
        },
        {
          "indexed": true,
          "internalType": "address",
          "name": "account",
          "type": "address"
        },
        {
          "indexed": true,
          "internalType": "address",
          "name": "sender",
          "type": "address"
        }
      ],
      "name": "RoleRevoked",
      "type": "event"
    },
    {
      "anonymous": false,
      "inputs": [
        {
          "indexed": true,
          "internalType": "address",
          "name": "operator",
          "type": "address"
        },
        {
          "indexed": true,
          "internalType": "address",
          "name": "from",
          "type": "address"
        },
        {
          "indexed": true,
          "internalType": "address",
          "name": "to",
          "type": "address"
        },
        {
          "indexed": false,
          "internalType": "uint256[]",
          "name": "ids",
          "type": "uint256[]"
        },
        {
          "indexed": false,
          "internalType": "uint256[]",
          "name": "values",
          "type": "uint256[]"
        }
      ],
      "name": "TransferBatch",
      "type": "event"
    },
    {
      "anonymous": false,
      "inputs": [
        {
          "indexed": true,
          "internalType": "address",
          "name": "operator",
          "type": "address"
        },
        {
          "indexed": true,
          "internalType": "address",
          "name": "from",
          "type": "address"
        },
        {
          "indexed": true,
          "internalType": "address",
          "name": "to",
          "type": "address"
        },
        {
          "indexed": false,
          "internalType": "uint256",
          "name": "id",
          "type": "uint256"
        },
        {
          "indexed": false,
          "internalType": "uint256",
          "name": "value",
          "type": "uint256"
        }
      ],
      "name": "TransferSingle",
      "type": "event"
    },
    {
      "anonymous": false,
      "inputs": [
        {
          "indexed": false,
          "internalType": "string",
          "name": "value",
          "type": "string"
        },
        {
          "indexed": true,
          "internalType": "uint256",
          "name": "id",
          "type": "uint256"
        }
      ],
      "name": "URI",
      "type": "event"
    },
    {
      "anonymous": false,
      "inputs": [
        {
          "indexed": true,
          "internalType": "address",
          "name": "implementation",
          "type": "address"
        }
      ],
      "name": "Upgraded",
      "type": "event"
    },
    {
      "inputs": [],
      "name": "DEFAULT_ADMIN_ROLE",
      "outputs": [
        {
          "internalType": "bytes32",
          "name": "",
          "type": "bytes32"
        }
      ],
      "stateMutability": "view",
      "type": "function"
    },
    {
      "inputs": [
        {
          "internalType": "address",
          "name": "account",
          "type": "address"
        },
        {
          "internalType": "uint256",
          "name": "id",
          "type": "uint256"
        }
      ],
      "name": "balanceOf",
      "outputs": [
        {
          "internalType": "uint256",
          "name": "",
          "type": "uint256"
        }
      ],
      "stateMutability": "view",
      "type": "function"
    },
    {
      "inputs": [
        {
          "internalType": "address[]",
          "name": "accounts",
          "type": "address[]"
        },
        {
          "internalType": "uint256[]",
          "name": "ids",
          "type": "uint256[]"
        }
      ],
      "name": "balanceOfBatch",
      "outputs": [
        {
          "internalType": "uint256[]",
          "name": "",
          "type": "uint256[]"
        }
      ],
      "stateMutability": "view",
      "type": "function"
    },
    {
      "inputs": [
        {
          "internalType": "address",
          "name": "account",
          "type": "address"
        },
        {
          "internalType": "uint256",
          "name": "id",
          "type": "uint256"
        },
        {
          "internalType": "uint256",
          "name": "amount",
          "type": "uint256"
        }
      ],
      "name": "burn",
      "outputs": [],
      "stateMutability": "nonpayable",
      "type": "function"
    },
    {
      "inputs": [
        {
          "internalType": "address",
          "name": "account",
          "type": "address"
        },
        {
          "internalType": "uint256[]",
          "name": "ids",
          "type": "uint256[]"
        },
        {
          "internalType": "uint256[]",
          "name": "amounts",
          "type": "uint256[]"
        }
      ],
      "name": "burnBatch",
      "outputs": [],
      "stateMutability": "nonpayable",
      "type": "function"
    },
    {
      "inputs": [
        {
          "internalType": "uint256",
          "name": "_percentFee",
          "type": "uint256"
        }
      ],
      "name": "changeFeePercent",
      "outputs": [],
      "stateMutability": "nonpayable",
      "type": "function"
    },
    {
      "inputs": [],
      "name": "factory",
      "outputs": [
        {
          "internalType": "address",
          "name": "",
          "type": "address"
        }
      ],
      "stateMutability": "view",
      "type": "function"
    },
    {
      "inputs": [
        {
          "internalType": "bytes32",
          "name": "role",
          "type": "bytes32"
        }
      ],
      "name": "getRoleAdmin",
      "outputs": [
        {
          "internalType": "bytes32",
          "name": "",
          "type": "bytes32"
        }
      ],
      "stateMutability": "view",
      "type": "function"
    },
    {
      "inputs": [],
      "name": "getVersion",
      "outputs": [
        {
          "internalType": "uint256",
          "name": "",
          "type": "uint256"
        }
      ],
      "stateMutability": "pure",
      "type": "function"
    },
    {
      "inputs": [
        {
          "internalType": "bytes32",
          "name": "role",
          "type": "bytes32"
        },
        {
          "internalType": "address",
          "name": "account",
          "type": "address"
        }
      ],
      "name": "grantRole",
      "outputs": [],
      "stateMutability": "nonpayable",
      "type": "function"
    },
    {
      "inputs": [
        {
          "internalType": "bytes32",
          "name": "role",
          "type": "bytes32"
        },
        {
          "internalType": "address",
          "name": "account",
          "type": "address"
        }
      ],
      "name": "hasRole",
      "outputs": [
        {
          "internalType": "bool",
          "name": "",
          "type": "bool"
        }
      ],
      "stateMutability": "view",
      "type": "function"
    },
    {
      "inputs": [
        {
          "internalType": "string",
          "name": "name_",
          "type": "string"
        },
        {
          "internalType": "string",
          "name": "symbol_",
          "type": "string"
        },
        {
          "internalType": "string",
          "name": "baseURI_",
          "type": "string"
        },
        {
          "internalType": "address",
          "name": "owner_",
          "type": "address"
        },
        {
          "internalType": "uint256",
          "name": "percentFee_",
          "type": "uint256"
        }
      ],
      "name": "initialize",
      "outputs": [],
      "stateMutability": "nonpayable",
      "type": "function"
    },
    {
      "inputs": [
        {
          "internalType": "address",
          "name": "account",
          "type": "address"
        },
        {
          "internalType": "address",
          "name": "operator",
          "type": "address"
        }
      ],
      "name": "isApprovedForAll",
      "outputs": [
        {
          "internalType": "bool",
          "name": "",
          "type": "bool"
        }
      ],
      "stateMutability": "view",
      "type": "function"
    },
    {
      "inputs": [
        {
          "internalType": "address",
          "name": "account",
          "type": "address"
        },
        {
          "internalType": "uint256",
          "name": "id",
          "type": "uint256"
        },
        {
          "internalType": "uint256",
          "name": "amount",
          "type": "uint256"
        }
      ],
      "name": "mint",
      "outputs": [],
      "stateMutability": "nonpayable",
      "type": "function"
    },
    {
      "inputs": [
        {
          "internalType": "address",
          "name": "to",
          "type": "address"
        },
        {
          "internalType": "uint256[]",
          "name": "ids",
          "type": "uint256[]"
        },
        {
          "internalType": "uint256[]",
          "name": "amounts",
          "type": "uint256[]"
        }
      ],
      "name": "mintBatch",
      "outputs": [],
      "stateMutability": "nonpayable",
      "type": "function"
    },
    {
      "inputs": [],
      "name": "name",
      "outputs": [
        {
          "internalType": "string",
          "name": "",
          "type": "string"
        }
      ],
      "stateMutability": "view",
      "type": "function"
    },
    {
      "inputs": [],
      "name": "owner",
      "outputs": [
        {
          "internalType": "address",
          "name": "",
          "type": "address"
        }
      ],
      "stateMutability": "view",
      "type": "function"
    },
    {
      "inputs": [],
      "name": "percentDecimals",
      "outputs": [
        {
          "internalType": "uint256",
          "name": "",
          "type": "uint256"
        }
      ],
      "stateMutability": "view",
      "type": "function"
    },
    {
      "inputs": [],
      "name": "percentFee",
      "outputs": [
        {
          "internalType": "uint256",
          "name": "",
          "type": "uint256"
        }
      ],
      "stateMutability": "view",
      "type": "function"
    },
    {
      "inputs": [],
      "name": "proxiableUUID",
      "outputs": [
        {
          "internalType": "bytes32",
          "name": "",
          "type": "bytes32"
        }
      ],
      "stateMutability": "view",
      "type": "function"
    },
    {
      "inputs": [
        {
          "internalType": "bytes32",
          "name": "role",
          "type": "bytes32"
        },
        {
          "internalType": "address",
          "name": "account",
          "type": "address"
        }
      ],
      "name": "renounceRole",
      "outputs": [],
      "stateMutability": "nonpayable",
      "type": "function"
    },
    {
      "inputs": [
        {
          "internalType": "bytes32",
          "name": "role",
          "type": "bytes32"
        },
        {
          "internalType": "address",
          "name": "account",
          "type": "address"
        }
      ],
      "name": "revokeRole",
      "outputs": [],
      "stateMutability": "nonpayable",
      "type": "function"
    },
    {
      "inputs": [
        {
          "internalType": "address",
          "name": "from",
          "type": "address"
        },
        {
          "internalType": "address",
          "name": "to",
          "type": "address"
        },
        {
          "internalType": "uint256[]",
          "name": "ids",
          "type": "uint256[]"
        },
        {
          "internalType": "uint256[]",
          "name": "amounts",
          "type": "uint256[]"
        },
        {
          "internalType": "bytes",
          "name": "data",
          "type": "bytes"
        }
      ],
      "name": "safeBatchTransferFrom",
      "outputs": [],
      "stateMutability": "nonpayable",
      "type": "function"
    },
    {
      "inputs": [
        {
          "internalType": "address",
          "name": "from",
          "type": "address"
        },
        {
          "internalType": "address",
          "name": "to",
          "type": "address"
        },
        {
          "internalType": "uint256",
          "name": "id",
          "type": "uint256"
        },
        {
          "internalType": "uint256",
          "name": "amount",
          "type": "uint256"
        },
        {
          "internalType": "bytes",
          "name": "data",
          "type": "bytes"
        }
      ],
      "name": "safeTransferFrom",
      "outputs": [],
      "stateMutability": "nonpayable",
      "type": "function"
    },
    {
      "inputs": [
        {
          "internalType": "address",
          "name": "operator",
          "type": "address"
        },
        {
          "internalType": "bool",
          "name": "approved",
          "type": "bool"
        }
      ],
      "name": "setApprovalForAll",
      "outputs": [],
      "stateMutability": "nonpayable",
      "type": "function"
    },
    {
      "inputs": [
        {
          "internalType": "string",
          "name": "_newBaseURI",
          "type": "string"
        }
      ],
      "name": "setBaseURI",
      "outputs": [],
      "stateMutability": "nonpayable",
      "type": "function"
    },
    {
      "inputs": [
        {
          "internalType": "bytes4",
          "name": "interfaceId",
          "type": "bytes4"
        }
      ],
      "name": "supportsInterface",
      "outputs": [
        {
          "internalType": "bool",
          "name": "",
          "type": "bool"
        }
      ],
      "stateMutability": "view",
      "type": "function"
    },
    {
      "inputs": [],
      "name": "symbol",
      "outputs": [
        {
          "internalType": "string",
          "name": "",
          "type": "string"
        }
      ],
      "stateMutability": "view",
      "type": "function"
    },
    {
      "inputs": [
        {
          "internalType": "uint256",
          "name": "",
          "type": "uint256"
        }
      ],
      "name": "tokenIdSupply",
      "outputs": [
        {
          "internalType": "uint256",
          "name": "",
          "type": "uint256"
        }
      ],
      "stateMutability": "view",
      "type": "function"
    },
    {
      "inputs": [
        {
          "internalType": "address",
          "name": "newImplementation",
          "type": "address"
        }
      ],
      "name": "upgradeTo",
      "outputs": [],
      "stateMutability": "nonpayable",
      "type": "function"
    },
    {
      "inputs": [
        {
          "internalType": "address",
          "name": "newImplementation",
          "type": "address"
        },
        {
          "internalType": "bytes",
          "name": "data",
          "type": "bytes"
        }
      ],
      "name": "upgradeToAndCall",
      "outputs": [],
      "stateMutability": "payable",
      "type": "function"
    },
    {
      "inputs": [
        {
          "internalType": "uint256",
          "name": "",
          "type": "uint256"
        }
      ],
      "name": "uri",
      "outputs": [
        {
          "internalType": "string",
          "name": "",
          "type": "string"
        }
      ],
      "stateMutability": "view",
      "type": "function"
    }
  ],
  "bytecode": "0x60a06040523073ffffffffffffffffffffffffffffffffffffffff1660809073ffffffffffffffffffffffffffffffffffffffff1681525034801561004357600080fd5b50608051615c496200007c60003960008181610c3101528181610cc001528181610eda01528181610f6901526110190152615c496000f3fe6080604052600436106101e25760003560e01c806352d1902d11610102578063b2ecc0e111610095578063e985e9c511610064578063e985e9c5146106f2578063f242432a1461072f578063f5298aca14610758578063f75195bc14610781576101e2565b8063b2ecc0e11461064c578063c45a015514610675578063d547741f146106a0578063d81d0a15146106c9576101e2565b806391d14854116100d157806391d148541461059057806395d89b41146105cd578063a217fddf146105f8578063a22cb46514610623576101e2565b806352d1902d146104e857806355f804b3146105135780636b20c4541461053c5780638da5cb5b14610565576101e2565b80632f2ff15d1161017a5780633659cfe6116101495780633659cfe61461043b5780634c1a4115146104645780634e1273f41461048f5780634f1ef286146104cc576101e2565b80632f2ff15d14610383578063327de31f146103ac57806334eddf3e146103e957806336568abe14610412576101e2565b80630e89341c116101b65780630e89341c146102b7578063156e29f6146102f4578063248a9ca31461031d5780632eb2c2d61461035a576101e2565b8062fdd58e146101e757806301ffc9a71461022457806306fdde03146102615780630d8e6e2c1461028c575b600080fd5b3480156101f357600080fd5b5061020e60048036038101906102099190613b54565b6107ac565b60405161021b9190613ba3565b60405180910390f35b34801561023057600080fd5b5061024b60048036038101906102469190613c16565b610876565b6040516102589190613c5e565b60405180910390f35b34801561026d57600080fd5b50610276610888565b6040516102839190613d12565b60405180910390f35b34801561029857600080fd5b506102a1610917565b6040516102ae9190613ba3565b60405180910390f35b3480156102c357600080fd5b506102de60048036038101906102d99190613d34565b610920565b6040516102eb9190613d12565b60405180910390f35b34801561030057600080fd5b5061031b60048036038101906103169190613d61565b6109b4565b005b34801561032957600080fd5b50610344600480360381019061033f9190613dea565b610a2a565b6040516103519190613e26565b60405180910390f35b34801561036657600080fd5b50610381600480360381019061037c919061403e565b610a4a565b005b34801561038f57600080fd5b506103aa60048036038101906103a5919061410d565b610aeb565b005b3480156103b857600080fd5b506103d360048036038101906103ce9190613d34565b610b0c565b6040516103e09190613ba3565b60405180910390f35b3480156103f557600080fd5b50610410600480360381019061040b9190613d34565b610b25565b005b34801561041e57600080fd5b506104396004803603810190610434919061410d565b610bac565b005b34801561044757600080fd5b50610462600480360381019061045d919061414d565b610c2f565b005b34801561047057600080fd5b50610479610db8565b6040516104869190613ba3565b60405180910390f35b34801561049b57600080fd5b506104b660048036038101906104b1919061423d565b610dbf565b6040516104c39190614373565b60405180910390f35b6104e660048036038101906104e19190614395565b610ed8565b005b3480156104f457600080fd5b506104fd611015565b60405161050a9190613e26565b60405180910390f35b34801561051f57600080fd5b5061053a60048036038101906105359190614492565b6110ce565b005b34801561054857600080fd5b50610563600480360381019061055e91906144db565b611105565b005b34801561057157600080fd5b5061057a611194565b6040516105879190614575565b60405180910390f35b34801561059c57600080fd5b506105b760048036038101906105b2919061410d565b6111bb565b6040516105c49190613c5e565b60405180910390f35b3480156105d957600080fd5b506105e2611226565b6040516105ef9190613d12565b60405180910390f35b34801561060457600080fd5b5061060d6112b5565b60405161061a9190613e26565b60405180910390f35b34801561062f57600080fd5b5061064a600480360381019061064591906145bc565b6112bc565b005b34801561065857600080fd5b50610673600480360381019061066e91906145fc565b6112d2565b005b34801561068157600080fd5b5061068a611550565b6040516106979190614575565b60405180910390f35b3480156106ac57600080fd5b506106c760048036038101906106c2919061410d565b611577565b005b3480156106d557600080fd5b506106f060048036038101906106eb91906144db565b611598565b005b3480156106fe57600080fd5b50610719600480360381019061071491906146cb565b611662565b6040516107269190613c5e565b60405180910390f35b34801561073b57600080fd5b506107566004803603810190610751919061470b565b6116f6565b005b34801561076457600080fd5b5061077f600480360381019061077a9190613d61565b6117a7565b005b34801561078d57600080fd5b506107966117e2565b6040516107a39190613ba3565b60405180910390f35b60008073ffffffffffffffffffffffffffffffffffffffff168373ffffffffffffffffffffffffffffffffffffffff16141561081d576040517f08c379a000000000000000000000000000000000000000000000000000000000815260040161081490614814565b60405180910390fd5b6065600083815260200190815260200160002060008473ffffffffffffffffffffffffffffffffffffffff1673ffffffffffffffffffffffffffffffffffffffff16815260200190815260200160002054905092915050565b6000610881826117e7565b9050919050565b61012d805461089690614863565b80601f01602080910402602001604051908101604052809291908181526020018280546108c290614863565b801561090f5780601f106108e45761010080835404028352916020019161090f565b820191906000526020600020905b8154815290600101906020018083116108f257829003601f168201915b505050505081565b60006001905090565b60606067805461092f90614863565b80601f016020809104026020016040519081016040528092919081815260200182805461095b90614863565b80156109a85780601f1061097d576101008083540402835291602001916109a8565b820191906000526020600020905b81548152906001019060200180831161098b57829003601f168201915b50505050509050919050565b7f9f2df0fed2c77648de5860a4cc508cd0818c85b8b8a1ab4ceeef8d981c8956a66109de81611861565b8161013260008581526020019081526020016000206000828254610a0291906148c4565b92505081905550610a2484848460405180602001604052806000815250611875565b50505050565b600060976000838152602001908152602001600020600101549050919050565b610a52611a27565b73ffffffffffffffffffffffffffffffffffffffff168573ffffffffffffffffffffffffffffffffffffffff161480610a985750610a9785610a92611a27565b611662565b5b610ad7576040517f08c379a0000000000000000000000000000000000000000000000000000000008152600401610ace9061498c565b60405180910390fd5b610ae48585858585611a2f565b5050505050565b610af482610a2a565b610afd81611861565b610b078383611d54565b505050565b6101326020528060005260406000206000915090505481565b7fa49807205ce4d355092ef5a8a18f56e8913cf4a201fbe287825b095693c21775610b4f81611861565b600082118015610b6157506127108211155b610ba0576040517f08c379a0000000000000000000000000000000000000000000000000000000008152600401610b97906149f8565b60405180910390fd5b81610131819055505050565b610bb4611a27565b73ffffffffffffffffffffffffffffffffffffffff168173ffffffffffffffffffffffffffffffffffffffff1614610c21576040517f08c379a0000000000000000000000000000000000000000000000000000000008152600401610c1890614a8a565b60405180910390fd5b610c2b8282611e35565b5050565b7f000000000000000000000000000000000000000000000000000000000000000073ffffffffffffffffffffffffffffffffffffffff163073ffffffffffffffffffffffffffffffffffffffff161415610cbe576040517f08c379a0000000000000000000000000000000000000000000000000000000008152600401610cb590614b1c565b60405180910390fd5b7f000000000000000000000000000000000000000000000000000000000000000073ffffffffffffffffffffffffffffffffffffffff16610cfd611f17565b73ffffffffffffffffffffffffffffffffffffffff1614610d53576040517f08c379a0000000000000000000000000000000000000000000000000000000008152600401610d4a90614bae565b60405180910390fd5b610d5c81611f6e565b610db581600067ffffffffffffffff811115610d7b57610d7a613e46565b5b6040519080825280601f01601f191660200182016040528015610dad5781602001600182028036833780820191505090505b506000611f9c565b50565b6101315481565b60608151835114610e05576040517f08c379a0000000000000000000000000000000000000000000000000000000008152600401610dfc90614c40565b60405180910390fd5b6000835167ffffffffffffffff811115610e2257610e21613e46565b5b604051908082528060200260200182016040528015610e505781602001602082028036833780820191505090505b50905060005b8451811015610ecd57610e9d858281518110610e7557610e74614c60565b5b6020026020010151858381518110610e9057610e8f614c60565b5b60200260200101516107ac565b828281518110610eb057610eaf614c60565b5b60200260200101818152505080610ec690614c8f565b9050610e56565b508091505092915050565b7f000000000000000000000000000000000000000000000000000000000000000073ffffffffffffffffffffffffffffffffffffffff163073ffffffffffffffffffffffffffffffffffffffff161415610f67576040517f08c379a0000000000000000000000000000000000000000000000000000000008152600401610f5e90614b1c565b60405180910390fd5b7f000000000000000000000000000000000000000000000000000000000000000073ffffffffffffffffffffffffffffffffffffffff16610fa6611f17565b73ffffffffffffffffffffffffffffffffffffffff1614610ffc576040517f08c379a0000000000000000000000000000000000000000000000000000000008152600401610ff390614bae565b60405180910390fd5b61100582611f6e565b61101182826001611f9c565b5050565b60007f000000000000000000000000000000000000000000000000000000000000000073ffffffffffffffffffffffffffffffffffffffff163073ffffffffffffffffffffffffffffffffffffffff16146110a5576040517f08c379a000000000000000000000000000000000000000000000000000000000815260040161109c90614d4a565b60405180910390fd5b7f360894a13ba1a3210667c828492db98dca3e2076cc3735a920a3ca505d382bbc60001b905090565b7fa49807205ce4d355092ef5a8a18f56e8913cf4a201fbe287825b095693c217756110f881611861565b61110182612119565b5050565b60005b82518110156111835781818151811061112457611123614c60565b5b6020026020010151610132600085848151811061114457611143614c60565b5b6020026020010151815260200190815260200160002060008282546111699190614d6a565b92505081905550808061117b90614c8f565b915050611108565b5061118f838383612133565b505050565b61012f60009054906101000a900473ffffffffffffffffffffffffffffffffffffffff1681565b60006097600084815260200190815260200160002060000160008373ffffffffffffffffffffffffffffffffffffffff1673ffffffffffffffffffffffffffffffffffffffff16815260200190815260200160002060009054906101000a900460ff16905092915050565b61012e805461123490614863565b80601f016020809104026020016040519081016040528092919081815260200182805461126090614863565b80156112ad5780601f10611282576101008083540402835291602001916112ad565b820191906000526020600020905b81548152906001019060200180831161129057829003601f168201915b505050505081565b6000801b81565b6112ce6112c7611a27565b8383612404565b5050565b60008060019054906101000a900460ff161590508080156113035750600160008054906101000a900460ff1660ff16105b80611330575061131230612571565b15801561132f5750600160008054906101000a900460ff1660ff16145b5b61136f576040517f08c379a000000000000000000000000000000000000000000000000000000000815260040161136690614e10565b60405180910390fd5b60016000806101000a81548160ff021916908360ff16021790555080156113ac576001600060016101000a81548160ff0219169083151502179055505b6113b584612594565b6113bd6125ef565b6113c5612640565b8561012d90805190602001906113dc929190613a09565b508461012e90805190602001906113f4929190613a09565b508261012f60006101000a81548173ffffffffffffffffffffffffffffffffffffffff021916908373ffffffffffffffffffffffffffffffffffffffff1602179055503361013060006101000a81548173ffffffffffffffffffffffffffffffffffffffff021916908373ffffffffffffffffffffffffffffffffffffffff160217905550816101318190555061148e6000801b33612691565b61149b6000801b84610aeb565b6114c57fa49807205ce4d355092ef5a8a18f56e8913cf4a201fbe287825b095693c2177584610aeb565b6114ef7f9f2df0fed2c77648de5860a4cc508cd0818c85b8b8a1ab4ceeef8d981c8956a684610aeb565b80156115485760008060016101000a81548160ff0219169083151502179055507f7f26b83ff96e1f2b6a682f133852f6798a09c465da95921460cefb3847402498600160405161153f9190614e82565b60405180910390a15b505050505050565b61013060009054906101000a900473ffffffffffffffffffffffffffffffffffffffff1681565b61158082610a2a565b61158981611861565b6115938383611e35565b505050565b7f9f2df0fed2c77648de5860a4cc508cd0818c85b8b8a1ab4ceeef8d981c8956a66115c281611861565b60005b8351811015611640578281815181106115e1576115e0614c60565b5b6020026020010151610132600086848151811061160157611600614c60565b5b60200260200101518152602001908152602001600020600082825461162691906148c4565b92505081905550808061163890614c8f565b9150506115c5565b5061165c8484846040518060200160405280600081525061269f565b50505050565b6000606660008473ffffffffffffffffffffffffffffffffffffffff1673ffffffffffffffffffffffffffffffffffffffff16815260200190815260200160002060008373ffffffffffffffffffffffffffffffffffffffff1673ffffffffffffffffffffffffffffffffffffffff16815260200190815260200160002060009054906101000a900460ff16905092915050565b6116fe611a27565b73ffffffffffffffffffffffffffffffffffffffff168573ffffffffffffffffffffffffffffffffffffffff16148061174457506117438561173e611a27565b611662565b5b806117545750611753846128cd565b5b611793576040517f08c379a000000000000000000000000000000000000000000000000000000000815260040161178a9061498c565b60405180910390fd5b6117a085858585856129b6565b5050505050565b80610132600084815260200190815260200160002060008282546117cb9190614d6a565b925050819055506117dd838383612c55565b505050565b600281565b60007f7965db0b000000000000000000000000000000000000000000000000000000007bffffffffffffffffffffffffffffffffffffffffffffffffffffffff1916827bffffffffffffffffffffffffffffffffffffffffffffffffffffffff1916148061185a575061185982612e9e565b5b9050919050565b6118728161186d611a27565b612f80565b50565b600073ffffffffffffffffffffffffffffffffffffffff168473ffffffffffffffffffffffffffffffffffffffff1614156118e5576040517f08c379a00000000000000000000000000000000000000000000000000000000081526004016118dc90614f0f565b60405180910390fd5b60006118ef611a27565b905060006118fc8561301d565b905060006119098561301d565b905061191a83600089858589613097565b846065600088815260200190815260200160002060008973ffffffffffffffffffffffffffffffffffffffff1673ffffffffffffffffffffffffffffffffffffffff168152602001908152602001600020600082825461197a91906148c4565b925050819055508673ffffffffffffffffffffffffffffffffffffffff16600073ffffffffffffffffffffffffffffffffffffffff168473ffffffffffffffffffffffffffffffffffffffff167fc3d58168c5ae7397731d063d5bbf3d657854427343f4c083240f7aacaa2d0f6289896040516119f8929190614f2f565b60405180910390a4611a0f8360008985858961309f565b611a1e836000898989896130a7565b50505050505050565b600033905090565b8151835114611a73576040517f08c379a0000000000000000000000000000000000000000000000000000000008152600401611a6a90614fca565b60405180910390fd5b600073ffffffffffffffffffffffffffffffffffffffff168473ffffffffffffffffffffffffffffffffffffffff161415611ae3576040517f08c379a0000000000000000000000000000000000000000000000000000000008152600401611ada9061505c565b60405180910390fd5b6000611aed611a27565b9050611afd818787878787613097565b60005b8451811015611cb1576000858281518110611b1e57611b1d614c60565b5b602002602001015190506000858381518110611b3d57611b3c614c60565b5b6020026020010151905060006065600084815260200190815260200160002060008b73ffffffffffffffffffffffffffffffffffffffff1673ffffffffffffffffffffffffffffffffffffffff16815260200190815260200160002054905081811015611bdf576040517f08c379a0000000000000000000000000000000000000000000000000000000008152600401611bd6906150ee565b60405180910390fd5b8181036065600085815260200190815260200160002060008c73ffffffffffffffffffffffffffffffffffffffff1673ffffffffffffffffffffffffffffffffffffffff16815260200190815260200160002081905550816065600085815260200190815260200160002060008b73ffffffffffffffffffffffffffffffffffffffff1673ffffffffffffffffffffffffffffffffffffffff1681526020019081526020016000206000828254611c9691906148c4565b9250508190555050505080611caa90614c8f565b9050611b00565b508473ffffffffffffffffffffffffffffffffffffffff168673ffffffffffffffffffffffffffffffffffffffff168273ffffffffffffffffffffffffffffffffffffffff167f4a39dc06d4c0dbc64b70af90fd698a233a518aa5d07e595d983b8c0526c8f7fb8787604051611d2892919061510e565b60405180910390a4611d3e81878787878761309f565b611d4c81878787878761328e565b505050505050565b611d5e82826111bb565b611e315760016097600084815260200190815260200160002060000160008373ffffffffffffffffffffffffffffffffffffffff1673ffffffffffffffffffffffffffffffffffffffff16815260200190815260200160002060006101000a81548160ff021916908315150217905550611dd6611a27565b73ffffffffffffffffffffffffffffffffffffffff168173ffffffffffffffffffffffffffffffffffffffff16837f2f8788117e7eff1d82e926ec794901d17c78024a50270940304540a733656f0d60405160405180910390a45b5050565b611e3f82826111bb565b15611f135760006097600084815260200190815260200160002060000160008373ffffffffffffffffffffffffffffffffffffffff1673ffffffffffffffffffffffffffffffffffffffff16815260200190815260200160002060006101000a81548160ff021916908315150217905550611eb8611a27565b73ffffffffffffffffffffffffffffffffffffffff168173ffffffffffffffffffffffffffffffffffffffff16837ff6391f5c32d9c69d2a47ea670b442974b53935d1edc7fd64eb21e047a839171b60405160405180910390a45b5050565b6000611f457f360894a13ba1a3210667c828492db98dca3e2076cc3735a920a3ca505d382bbc60001b613475565b60000160009054906101000a900473ffffffffffffffffffffffffffffffffffffffff16905090565b7fa49807205ce4d355092ef5a8a18f56e8913cf4a201fbe287825b095693c21775611f9881611861565b5050565b611fc87f4910fdfa16fed3260ed0e7147f7cc6da11a60208b5b9406d12a635614ffd914360001b61347f565b60000160009054906101000a900460ff1615611fec57611fe783613489565b612114565b8273ffffffffffffffffffffffffffffffffffffffff166352d1902d6040518163ffffffff1660e01b815260040160206040518083038186803b15801561203257600080fd5b505afa92505050801561206357506040513d601f19601f82011682018060405250810190612060919061515a565b60015b6120a2576040517f08c379a0000000000000000000000000000000000000000000000000000000008152600401612099906151f9565b60405180910390fd5b7f360894a13ba1a3210667c828492db98dca3e2076cc3735a920a3ca505d382bbc60001b8114612107576040517f08c379a00000000000000000000000000000000000000000000000000000000081526004016120fe9061528b565b60405180910390fd5b50612113838383613542565b5b505050565b806067908051906020019061212f929190613a09565b5050565b600073ffffffffffffffffffffffffffffffffffffffff168373ffffffffffffffffffffffffffffffffffffffff1614156121a3576040517f08c379a000000000000000000000000000000000000000000000000000000000815260040161219a9061531d565b60405180910390fd5b80518251146121e7576040517f08c379a00000000000000000000000000000000000000000000000000000000081526004016121de90614fca565b60405180910390fd5b60006121f1611a27565b905061221181856000868660405180602001604052806000815250613097565b60005b835181101561236057600084828151811061223257612231614c60565b5b60200260200101519050600084838151811061225157612250614c60565b5b6020026020010151905060006065600084815260200190815260200160002060008973ffffffffffffffffffffffffffffffffffffffff1673ffffffffffffffffffffffffffffffffffffffff168152602001908152602001600020549050818110156122f3576040517f08c379a00000000000000000000000000000000000000000000000000000000081526004016122ea906153af565b60405180910390fd5b8181036065600085815260200190815260200160002060008a73ffffffffffffffffffffffffffffffffffffffff1673ffffffffffffffffffffffffffffffffffffffff16815260200190815260200160002081905550505050808061235890614c8f565b915050612214565b50600073ffffffffffffffffffffffffffffffffffffffff168473ffffffffffffffffffffffffffffffffffffffff168273ffffffffffffffffffffffffffffffffffffffff167f4a39dc06d4c0dbc64b70af90fd698a233a518aa5d07e595d983b8c0526c8f7fb86866040516123d892919061510e565b60405180910390a46123fe8185600086866040518060200160405280600081525061309f565b50505050565b8173ffffffffffffffffffffffffffffffffffffffff168373ffffffffffffffffffffffffffffffffffffffff161415612473576040517f08c379a000000000000000000000000000000000000000000000000000000000815260040161246a90615441565b60405180910390fd5b80606660008573ffffffffffffffffffffffffffffffffffffffff1673ffffffffffffffffffffffffffffffffffffffff16815260200190815260200160002060008473ffffffffffffffffffffffffffffffffffffffff1673ffffffffffffffffffffffffffffffffffffffff16815260200190815260200160002060006101000a81548160ff0219169083151502179055508173ffffffffffffffffffffffffffffffffffffffff168373ffffffffffffffffffffffffffffffffffffffff167f17307eab39ab6107e8899845ad3d59bd9653f200f220920489ca2b5937696c31836040516125649190613c5e565b60405180910390a3505050565b6000808273ffffffffffffffffffffffffffffffffffffffff163b119050919050565b600060019054906101000a900460ff166125e3576040517f08c379a00000000000000000000000000000000000000000000000000000000081526004016125da906154d3565b60405180910390fd5b6125ec8161356e565b50565b600060019054906101000a900460ff1661263e576040517f08c379a0000000000000000000000000000000000000000000000000000000008152600401612635906154d3565b60405180910390fd5b565b600060019054906101000a900460ff1661268f576040517f08c379a0000000000000000000000000000000000000000000000000000000008152600401612686906154d3565b60405180910390fd5b565b61269b8282611d54565b5050565b600073ffffffffffffffffffffffffffffffffffffffff168473ffffffffffffffffffffffffffffffffffffffff16141561270f576040517f08c379a000000000000000000000000000000000000000000000000000000000815260040161270690614f0f565b60405180910390fd5b8151835114612753576040517f08c379a000000000000000000000000000000000000000000000000000000000815260040161274a90614fca565b60405180910390fd5b600061275d611a27565b905061276e81600087878787613097565b60005b84518110156128285783818151811061278d5761278c614c60565b5b6020026020010151606560008784815181106127ac576127ab614c60565b5b6020026020010151815260200190815260200160002060008873ffffffffffffffffffffffffffffffffffffffff1673ffffffffffffffffffffffffffffffffffffffff168152602001908152602001600020600082825461280e91906148c4565b92505081905550808061282090614c8f565b915050612771565b508473ffffffffffffffffffffffffffffffffffffffff16600073ffffffffffffffffffffffffffffffffffffffff168273ffffffffffffffffffffffffffffffffffffffff167f4a39dc06d4c0dbc64b70af90fd698a233a518aa5d07e595d983b8c0526c8f7fb87876040516128a092919061510e565b60405180910390a46128b78160008787878761309f565b6128c68160008787878761328e565b5050505050565b60008173ffffffffffffffffffffffffffffffffffffffff1661013060009054906101000a900473ffffffffffffffffffffffffffffffffffffffff1673ffffffffffffffffffffffffffffffffffffffff1663abc8c7af6040518163ffffffff1660e01b815260040160206040518083038186803b15801561294f57600080fd5b505afa158015612963573d6000803e3d6000fd5b505050506040513d601f19601f820116820180604052508101906129879190615508565b73ffffffffffffffffffffffffffffffffffffffff1614156129ac57600190506129b1565b600090505b919050565b600073ffffffffffffffffffffffffffffffffffffffff168473ffffffffffffffffffffffffffffffffffffffff161415612a26576040517f08c379a0000000000000000000000000000000000000000000000000000000008152600401612a1d9061505c565b60405180910390fd5b6000612a30611a27565b90506000612a3d8561301d565b90506000612a4a8561301d565b9050612a5a838989858589613097565b60006065600088815260200190815260200160002060008a73ffffffffffffffffffffffffffffffffffffffff1673ffffffffffffffffffffffffffffffffffffffff16815260200190815260200160002054905085811015612af2576040517f08c379a0000000000000000000000000000000000000000000000000000000008152600401612ae9906150ee565b60405180910390fd5b8581036065600089815260200190815260200160002060008b73ffffffffffffffffffffffffffffffffffffffff1673ffffffffffffffffffffffffffffffffffffffff16815260200190815260200160002081905550856065600089815260200190815260200160002060008a73ffffffffffffffffffffffffffffffffffffffff1673ffffffffffffffffffffffffffffffffffffffff1681526020019081526020016000206000828254612ba991906148c4565b925050819055508773ffffffffffffffffffffffffffffffffffffffff168973ffffffffffffffffffffffffffffffffffffffff168573ffffffffffffffffffffffffffffffffffffffff167fc3d58168c5ae7397731d063d5bbf3d657854427343f4c083240f7aacaa2d0f628a8a604051612c26929190614f2f565b60405180910390a4612c3c848a8a86868a61309f565b612c4a848a8a8a8a8a6130a7565b505050505050505050565b600073ffffffffffffffffffffffffffffffffffffffff168373ffffffffffffffffffffffffffffffffffffffff161415612cc5576040517f08c379a0000000000000000000000000000000000000000000000000000000008152600401612cbc9061531d565b60405180910390fd5b6000612ccf611a27565b90506000612cdc8461301d565b90506000612ce98461301d565b9050612d0983876000858560405180602001604052806000815250613097565b60006065600087815260200190815260200160002060008873ffffffffffffffffffffffffffffffffffffffff1673ffffffffffffffffffffffffffffffffffffffff16815260200190815260200160002054905084811015612da1576040517f08c379a0000000000000000000000000000000000000000000000000000000008152600401612d98906153af565b60405180910390fd5b8481036065600088815260200190815260200160002060008973ffffffffffffffffffffffffffffffffffffffff1673ffffffffffffffffffffffffffffffffffffffff16815260200190815260200160002081905550600073ffffffffffffffffffffffffffffffffffffffff168773ffffffffffffffffffffffffffffffffffffffff168573ffffffffffffffffffffffffffffffffffffffff167fc3d58168c5ae7397731d063d5bbf3d657854427343f4c083240f7aacaa2d0f628989604051612e6f929190614f2f565b60405180910390a4612e958488600086866040518060200160405280600081525061309f565b50505050505050565b60007fd9b67a26000000000000000000000000000000000000000000000000000000007bffffffffffffffffffffffffffffffffffffffffffffffffffffffff1916827bffffffffffffffffffffffffffffffffffffffffffffffffffffffff19161480612f6957507f0e89341c000000000000000000000000000000000000000000000000000000007bffffffffffffffffffffffffffffffffffffffffffffffffffffffff1916827bffffffffffffffffffffffffffffffffffffffffffffffffffffffff1916145b80612f795750612f78826135c9565b5b9050919050565b612f8a82826111bb565b61301957612faf8173ffffffffffffffffffffffffffffffffffffffff166014613633565b612fbd8360001c6020613633565b604051602001612fce929190615609565b6040516020818303038152906040526040517f08c379a00000000000000000000000000000000000000000000000000000000081526004016130109190613d12565b60405180910390fd5b5050565b60606000600167ffffffffffffffff81111561303c5761303b613e46565b5b60405190808252806020026020018201604052801561306a5781602001602082028036833780820191505090505b509050828160008151811061308257613081614c60565b5b60200260200101818152505080915050919050565b505050505050565b505050505050565b6130c68473ffffffffffffffffffffffffffffffffffffffff16612571565b15613286578373ffffffffffffffffffffffffffffffffffffffff1663f23a6e6187878686866040518663ffffffff1660e01b815260040161310c959493929190615698565b602060405180830381600087803b15801561312657600080fd5b505af192505050801561315757506040513d601f19601f820116820180604052508101906131549190615707565b60015b6131fd57613163615741565b806308c379a014156131c05750613178615763565b8061318357506131c2565b806040517f08c379a00000000000000000000000000000000000000000000000000000000081526004016131b79190613d12565b60405180910390fd5b505b6040517f08c379a00000000000000000000000000000000000000000000000000000000081526004016131f49061586b565b60405180910390fd5b63f23a6e6160e01b7bffffffffffffffffffffffffffffffffffffffffffffffffffffffff1916817bffffffffffffffffffffffffffffffffffffffffffffffffffffffff191614613284576040517f08c379a000000000000000000000000000000000000000000000000000000000815260040161327b906158fd565b60405180910390fd5b505b505050505050565b6132ad8473ffffffffffffffffffffffffffffffffffffffff16612571565b1561346d578373ffffffffffffffffffffffffffffffffffffffff1663bc197c8187878686866040518663ffffffff1660e01b81526004016132f395949392919061591d565b602060405180830381600087803b15801561330d57600080fd5b505af192505050801561333e57506040513d601f19601f8201168201806040525081019061333b9190615707565b60015b6133e45761334a615741565b806308c379a014156133a7575061335f615763565b8061336a57506133a9565b806040517f08c379a000000000000000000000000000000000000000000000000000000000815260040161339e9190613d12565b60405180910390fd5b505b6040517f08c379a00000000000000000000000000000000000000000000000000000000081526004016133db9061586b565b60405180910390fd5b63bc197c8160e01b7bffffffffffffffffffffffffffffffffffffffffffffffffffffffff1916817bffffffffffffffffffffffffffffffffffffffffffffffffffffffff19161461346b576040517f08c379a0000000000000000000000000000000000000000000000000000000008152600401613462906158fd565b60405180910390fd5b505b505050505050565b6000819050919050565b6000819050919050565b61349281612571565b6134d1576040517f08c379a00000000000000000000000000000000000000000000000000000000081526004016134c8906159f7565b60405180910390fd5b806134fe7f360894a13ba1a3210667c828492db98dca3e2076cc3735a920a3ca505d382bbc60001b613475565b60000160006101000a81548173ffffffffffffffffffffffffffffffffffffffff021916908373ffffffffffffffffffffffffffffffffffffffff16021790555050565b61354b8361386f565b6000825111806135585750805b156135695761356783836138be565b505b505050565b600060019054906101000a900460ff166135bd576040517f08c379a00000000000000000000000000000000000000000000000000000000081526004016135b4906154d3565b60405180910390fd5b6135c681612119565b50565b60007f01ffc9a7000000000000000000000000000000000000000000000000000000007bffffffffffffffffffffffffffffffffffffffffffffffffffffffff1916827bffffffffffffffffffffffffffffffffffffffffffffffffffffffff1916149050919050565b6060600060028360026136469190615a17565b61365091906148c4565b67ffffffffffffffff81111561366957613668613e46565b5b6040519080825280601f01601f19166020018201604052801561369b5781602001600182028036833780820191505090505b5090507f3000000000000000000000000000000000000000000000000000000000000000816000815181106136d3576136d2614c60565b5b60200101907effffffffffffffffffffffffffffffffffffffffffffffffffffffffffffff1916908160001a9053507f78000000000000000000000000000000000000000000000000000000000000008160018151811061373757613736614c60565b5b60200101907effffffffffffffffffffffffffffffffffffffffffffffffffffffffffffff1916908160001a905350600060018460026137779190615a17565b61378191906148c4565b90505b6001811115613821577f3031323334353637383961626364656600000000000000000000000000000000600f8616601081106137c3576137c2614c60565b5b1a60f81b8282815181106137da576137d9614c60565b5b60200101907effffffffffffffffffffffffffffffffffffffffffffffffffffffffffffff1916908160001a905350600485901c94508061381a90615a71565b9050613784565b5060008414613865576040517f08c379a000000000000000000000000000000000000000000000000000000000815260040161385c90615ae7565b60405180910390fd5b8091505092915050565b61387881613489565b8073ffffffffffffffffffffffffffffffffffffffff167fbc7cd75a20ee27fd9adebab32041f755214dbc6bffa90cc0225b39da2e5c2d3b60405160405180910390a250565b60606138c983612571565b613908576040517f08c379a00000000000000000000000000000000000000000000000000000000081526004016138ff90615b79565b60405180910390fd5b6000808473ffffffffffffffffffffffffffffffffffffffff16846040516139309190615bd5565b600060405180830381855af49150503d806000811461396b576040519150601f19603f3d011682016040523d82523d6000602084013e613970565b606091505b50915091506139988282604051806060016040528060278152602001615bed602791396139a2565b9250505092915050565b606083156139b257829050613a02565b6000835111156139c55782518084602001fd5b816040517f08c379a00000000000000000000000000000000000000000000000000000000081526004016139f99190613d12565b60405180910390fd5b9392505050565b828054613a1590614863565b90600052602060002090601f016020900481019282613a375760008555613a7e565b82601f10613a5057805160ff1916838001178555613a7e565b82800160010185558215613a7e579182015b82811115613a7d578251825591602001919060010190613a62565b5b509050613a8b9190613a8f565b5090565b5b80821115613aa8576000816000905550600101613a90565b5090565b6000604051905090565b600080fd5b600080fd5b600073ffffffffffffffffffffffffffffffffffffffff82169050919050565b6000613aeb82613ac0565b9050919050565b613afb81613ae0565b8114613b0657600080fd5b50565b600081359050613b1881613af2565b92915050565b6000819050919050565b613b3181613b1e565b8114613b3c57600080fd5b50565b600081359050613b4e81613b28565b92915050565b60008060408385031215613b6b57613b6a613ab6565b5b6000613b7985828601613b09565b9250506020613b8a85828601613b3f565b9150509250929050565b613b9d81613b1e565b82525050565b6000602082019050613bb86000830184613b94565b92915050565b60007fffffffff0000000000000000000000000000000000000000000000000000000082169050919050565b613bf381613bbe565b8114613bfe57600080fd5b50565b600081359050613c1081613bea565b92915050565b600060208284031215613c2c57613c2b613ab6565b5b6000613c3a84828501613c01565b91505092915050565b60008115159050919050565b613c5881613c43565b82525050565b6000602082019050613c736000830184613c4f565b92915050565b600081519050919050565b600082825260208201905092915050565b60005b83811015613cb3578082015181840152602081019050613c98565b83811115613cc2576000848401525b50505050565b6000601f19601f8301169050919050565b6000613ce482613c79565b613cee8185613c84565b9350613cfe818560208601613c95565b613d0781613cc8565b840191505092915050565b60006020820190508181036000830152613d2c8184613cd9565b905092915050565b600060208284031215613d4a57613d49613ab6565b5b6000613d5884828501613b3f565b91505092915050565b600080600060608486031215613d7a57613d79613ab6565b5b6000613d8886828701613b09565b9350506020613d9986828701613b3f565b9250506040613daa86828701613b3f565b9150509250925092565b6000819050919050565b613dc781613db4565b8114613dd257600080fd5b50565b600081359050613de481613dbe565b92915050565b600060208284031215613e0057613dff613ab6565b5b6000613e0e84828501613dd5565b91505092915050565b613e2081613db4565b82525050565b6000602082019050613e3b6000830184613e17565b92915050565b600080fd5b7f4e487b7100000000000000000000000000000000000000000000000000000000600052604160045260246000fd5b613e7e82613cc8565b810181811067ffffffffffffffff82111715613e9d57613e9c613e46565b5b80604052505050565b6000613eb0613aac565b9050613ebc8282613e75565b919050565b600067ffffffffffffffff821115613edc57613edb613e46565b5b602082029050602081019050919050565b600080fd5b6000613f05613f0084613ec1565b613ea6565b90508083825260208201905060208402830185811115613f2857613f27613eed565b5b835b81811015613f515780613f3d8882613b3f565b845260208401935050602081019050613f2a565b5050509392505050565b600082601f830112613f7057613f6f613e41565b5b8135613f80848260208601613ef2565b91505092915050565b600080fd5b600067ffffffffffffffff821115613fa957613fa8613e46565b5b613fb282613cc8565b9050602081019050919050565b82818337600083830152505050565b6000613fe1613fdc84613f8e565b613ea6565b905082815260208101848484011115613ffd57613ffc613f89565b5b614008848285613fbf565b509392505050565b600082601f83011261402557614024613e41565b5b8135614035848260208601613fce565b91505092915050565b600080600080600060a0868803121561405a57614059613ab6565b5b600061406888828901613b09565b955050602061407988828901613b09565b945050604086013567ffffffffffffffff81111561409a57614099613abb565b5b6140a688828901613f5b565b935050606086013567ffffffffffffffff8111156140c7576140c6613abb565b5b6140d388828901613f5b565b925050608086013567ffffffffffffffff8111156140f4576140f3613abb565b5b61410088828901614010565b9150509295509295909350565b6000806040838503121561412457614123613ab6565b5b600061413285828601613dd5565b925050602061414385828601613b09565b9150509250929050565b60006020828403121561416357614162613ab6565b5b600061417184828501613b09565b91505092915050565b600067ffffffffffffffff82111561419557614194613e46565b5b602082029050602081019050919050565b60006141b96141b48461417a565b613ea6565b905080838252602082019050602084028301858111156141dc576141db613eed565b5b835b8181101561420557806141f18882613b09565b8452602084019350506020810190506141de565b5050509392505050565b600082601f83011261422457614223613e41565b5b81356142348482602086016141a6565b91505092915050565b6000806040838503121561425457614253613ab6565b5b600083013567ffffffffffffffff81111561427257614271613abb565b5b61427e8582860161420f565b925050602083013567ffffffffffffffff81111561429f5761429e613abb565b5b6142ab85828601613f5b565b9150509250929050565b600081519050919050565b600082825260208201905092915050565b6000819050602082019050919050565b6142ea81613b1e565b82525050565b60006142fc83836142e1565b60208301905092915050565b6000602082019050919050565b6000614320826142b5565b61432a81856142c0565b9350614335836142d1565b8060005b8381101561436657815161434d88826142f0565b975061435883614308565b925050600181019050614339565b5085935050505092915050565b6000602082019050818103600083015261438d8184614315565b905092915050565b600080604083850312156143ac576143ab613ab6565b5b60006143ba85828601613b09565b925050602083013567ffffffffffffffff8111156143db576143da613abb565b5b6143e785828601614010565b9150509250929050565b600067ffffffffffffffff82111561440c5761440b613e46565b5b61441582613cc8565b9050602081019050919050565b6000614435614430846143f1565b613ea6565b90508281526020810184848401111561445157614450613f89565b5b61445c848285613fbf565b509392505050565b600082601f83011261447957614478613e41565b5b8135614489848260208601614422565b91505092915050565b6000602082840312156144a8576144a7613ab6565b5b600082013567ffffffffffffffff8111156144c6576144c5613abb565b5b6144d284828501614464565b91505092915050565b6000806000606084860312156144f4576144f3613ab6565b5b600061450286828701613b09565b935050602084013567ffffffffffffffff81111561452357614522613abb565b5b61452f86828701613f5b565b925050604084013567ffffffffffffffff8111156145505761454f613abb565b5b61455c86828701613f5b565b9150509250925092565b61456f81613ae0565b82525050565b600060208201905061458a6000830184614566565b92915050565b61459981613c43565b81146145a457600080fd5b50565b6000813590506145b681614590565b92915050565b600080604083850312156145d3576145d2613ab6565b5b60006145e185828601613b09565b92505060206145f2858286016145a7565b9150509250929050565b600080600080600060a0868803121561461857614617613ab6565b5b600086013567ffffffffffffffff81111561463657614635613abb565b5b61464288828901614464565b955050602086013567ffffffffffffffff81111561466357614662613abb565b5b61466f88828901614464565b945050604086013567ffffffffffffffff8111156146905761468f613abb565b5b61469c88828901614464565b93505060606146ad88828901613b09565b92505060806146be88828901613b3f565b9150509295509295909350565b600080604083850312156146e2576146e1613ab6565b5b60006146f085828601613b09565b925050602061470185828601613b09565b9150509250929050565b600080600080600060a0868803121561472757614726613ab6565b5b600061473588828901613b09565b955050602061474688828901613b09565b945050604061475788828901613b3f565b935050606061476888828901613b3f565b925050608086013567ffffffffffffffff81111561478957614788613abb565b5b61479588828901614010565b9150509295509295909350565b7f455243313135353a2061646472657373207a65726f206973206e6f742061207660008201527f616c6964206f776e657200000000000000000000000000000000000000000000602082015250565b60006147fe602a83613c84565b9150614809826147a2565b604082019050919050565b6000602082019050818103600083015261482d816147f1565b9050919050565b7f4e487b7100000000000000000000000000000000000000000000000000000000600052602260045260246000fd5b6000600282049050600182168061487b57607f821691505b6020821081141561488f5761488e614834565b5b50919050565b7f4e487b7100000000000000000000000000000000000000000000000000000000600052601160045260246000fd5b60006148cf82613b1e565b91506148da83613b1e565b9250827fffffffffffffffffffffffffffffffffffffffffffffffffffffffffffffffff0382111561490f5761490e614895565b5b828201905092915050565b7f455243313135353a2063616c6c6572206973206e6f7420746f6b656e206f776e60008201527f6572206e6f7220617070726f7665640000000000000000000000000000000000602082015250565b6000614976602f83613c84565b91506149818261491a565b604082019050919050565b600060208201905081810360008301526149a581614969565b9050919050565b7f30203c20466565203c2031303030300000000000000000000000000000000000600082015250565b60006149e2600f83613c84565b91506149ed826149ac565b602082019050919050565b60006020820190508181036000830152614a11816149d5565b9050919050565b7f416363657373436f6e74726f6c3a2063616e206f6e6c792072656e6f756e636560008201527f20726f6c657320666f722073656c660000000000000000000000000000000000602082015250565b6000614a74602f83613c84565b9150614a7f82614a18565b604082019050919050565b60006020820190508181036000830152614aa381614a67565b9050919050565b7f46756e6374696f6e206d7573742062652063616c6c6564207468726f7567682060008201527f64656c656761746563616c6c0000000000000000000000000000000000000000602082015250565b6000614b06602c83613c84565b9150614b1182614aaa565b604082019050919050565b60006020820190508181036000830152614b3581614af9565b9050919050565b7f46756e6374696f6e206d7573742062652063616c6c6564207468726f7567682060008201527f6163746976652070726f78790000000000000000000000000000000000000000602082015250565b6000614b98602c83613c84565b9150614ba382614b3c565b604082019050919050565b60006020820190508181036000830152614bc781614b8b565b9050919050565b7f455243313135353a206163636f756e747320616e6420696473206c656e67746860008201527f206d69736d617463680000000000000000000000000000000000000000000000602082015250565b6000614c2a602983613c84565b9150614c3582614bce565b604082019050919050565b60006020820190508181036000830152614c5981614c1d565b9050919050565b7f4e487b7100000000000000000000000000000000000000000000000000000000600052603260045260246000fd5b6000614c9a82613b1e565b91507fffffffffffffffffffffffffffffffffffffffffffffffffffffffffffffffff821415614ccd57614ccc614895565b5b600182019050919050565b7f555550535570677261646561626c653a206d757374206e6f742062652063616c60008201527f6c6564207468726f7567682064656c656761746563616c6c0000000000000000602082015250565b6000614d34603883613c84565b9150614d3f82614cd8565b604082019050919050565b60006020820190508181036000830152614d6381614d27565b9050919050565b6000614d7582613b1e565b9150614d8083613b1e565b925082821015614d9357614d92614895565b5b828203905092915050565b7f496e697469616c697a61626c653a20636f6e747261637420697320616c72656160008201527f647920696e697469616c697a6564000000000000000000000000000000000000602082015250565b6000614dfa602e83613c84565b9150614e0582614d9e565b604082019050919050565b60006020820190508181036000830152614e2981614ded565b9050919050565b6000819050919050565b600060ff82169050919050565b6000819050919050565b6000614e6c614e67614e6284614e30565b614e47565b614e3a565b9050919050565b614e7c81614e51565b82525050565b6000602082019050614e976000830184614e73565b92915050565b7f455243313135353a206d696e7420746f20746865207a65726f2061646472657360008201527f7300000000000000000000000000000000000000000000000000000000000000602082015250565b6000614ef9602183613c84565b9150614f0482614e9d565b604082019050919050565b60006020820190508181036000830152614f2881614eec565b9050919050565b6000604082019050614f446000830185613b94565b614f516020830184613b94565b9392505050565b7f455243313135353a2069647320616e6420616d6f756e7473206c656e6774682060008201527f6d69736d61746368000000000000000000000000000000000000000000000000602082015250565b6000614fb4602883613c84565b9150614fbf82614f58565b604082019050919050565b60006020820190508181036000830152614fe381614fa7565b9050919050565b7f455243313135353a207472616e7366657220746f20746865207a65726f20616460008201527f6472657373000000000000000000000000000000000000000000000000000000602082015250565b6000615046602583613c84565b915061505182614fea565b604082019050919050565b6000602082019050818103600083015261507581615039565b9050919050565b7f455243313135353a20696e73756666696369656e742062616c616e636520666f60008201527f72207472616e7366657200000000000000000000000000000000000000000000602082015250565b60006150d8602a83613c84565b91506150e38261507c565b604082019050919050565b60006020820190508181036000830152615107816150cb565b9050919050565b600060408201905081810360008301526151288185614315565b9050818103602083015261513c8184614315565b90509392505050565b60008151905061515481613dbe565b92915050565b6000602082840312156151705761516f613ab6565b5b600061517e84828501615145565b91505092915050565b7f45524331393637557067726164653a206e657720696d706c656d656e7461746960008201527f6f6e206973206e6f742055555053000000000000000000000000000000000000602082015250565b60006151e3602e83613c84565b91506151ee82615187565b604082019050919050565b60006020820190508181036000830152615212816151d6565b9050919050565b7f45524331393637557067726164653a20756e737570706f727465642070726f7860008201527f6961626c65555549440000000000000000000000000000000000000000000000602082015250565b6000615275602983613c84565b915061528082615219565b604082019050919050565b600060208201905081810360008301526152a481615268565b9050919050565b7f455243313135353a206275726e2066726f6d20746865207a65726f206164647260008201527f6573730000000000000000000000000000000000000000000000000000000000602082015250565b6000615307602383613c84565b9150615312826152ab565b604082019050919050565b60006020820190508181036000830152615336816152fa565b9050919050565b7f455243313135353a206275726e20616d6f756e7420657863656564732062616c60008201527f616e636500000000000000000000000000000000000000000000000000000000602082015250565b6000615399602483613c84565b91506153a48261533d565b604082019050919050565b600060208201905081810360008301526153c88161538c565b9050919050565b7f455243313135353a2073657474696e6720617070726f76616c2073746174757360008201527f20666f722073656c660000000000000000000000000000000000000000000000602082015250565b600061542b602983613c84565b9150615436826153cf565b604082019050919050565b6000602082019050818103600083015261545a8161541e565b9050919050565b7f496e697469616c697a61626c653a20636f6e7472616374206973206e6f74206960008201527f6e697469616c697a696e67000000000000000000000000000000000000000000602082015250565b60006154bd602b83613c84565b91506154c882615461565b604082019050919050565b600060208201905081810360008301526154ec816154b0565b9050919050565b60008151905061550281613af2565b92915050565b60006020828403121561551e5761551d613ab6565b5b600061552c848285016154f3565b91505092915050565b600081905092915050565b7f416363657373436f6e74726f6c3a206163636f756e7420000000000000000000600082015250565b6000615576601783615535565b915061558182615540565b601782019050919050565b600061559782613c79565b6155a18185615535565b93506155b1818560208601613c95565b80840191505092915050565b7f206973206d697373696e6720726f6c6520000000000000000000000000000000600082015250565b60006155f3601183615535565b91506155fe826155bd565b601182019050919050565b600061561482615569565b9150615620828561558c565b915061562b826155e6565b9150615637828461558c565b91508190509392505050565b600081519050919050565b600082825260208201905092915050565b600061566a82615643565b615674818561564e565b9350615684818560208601613c95565b61568d81613cc8565b840191505092915050565b600060a0820190506156ad6000830188614566565b6156ba6020830187614566565b6156c76040830186613b94565b6156d46060830185613b94565b81810360808301526156e6818461565f565b90509695505050505050565b60008151905061570181613bea565b92915050565b60006020828403121561571d5761571c613ab6565b5b600061572b848285016156f2565b91505092915050565b60008160e01c9050919050565b600060033d11156157605760046000803e61575d600051615734565b90505b90565b600060443d1015615773576157f6565b61577b613aac565b60043d036004823e80513d602482011167ffffffffffffffff821117156157a35750506157f6565b808201805167ffffffffffffffff8111156157c157505050506157f6565b80602083010160043d0385018111156157de5750505050506157f6565b6157ed82602001850186613e75565b82955050505050505b90565b7f455243313135353a207472616e7366657220746f206e6f6e204552433131353560008201527f526563656976657220696d706c656d656e746572000000000000000000000000602082015250565b6000615855603483613c84565b9150615860826157f9565b604082019050919050565b6000602082019050818103600083015261588481615848565b9050919050565b7f455243313135353a204552433131353552656365697665722072656a6563746560008201527f6420746f6b656e73000000000000000000000000000000000000000000000000602082015250565b60006158e7602883613c84565b91506158f28261588b565b604082019050919050565b60006020820190508181036000830152615916816158da565b9050919050565b600060a0820190506159326000830188614566565b61593f6020830187614566565b81810360408301526159518186614315565b905081810360608301526159658185614315565b90508181036080830152615979818461565f565b90509695505050505050565b7f455243313936373a206e657720696d706c656d656e746174696f6e206973206e60008201527f6f74206120636f6e747261637400000000000000000000000000000000000000602082015250565b60006159e1602d83613c84565b91506159ec82615985565b604082019050919050565b60006020820190508181036000830152615a10816159d4565b9050919050565b6000615a2282613b1e565b9150615a2d83613b1e565b9250817fffffffffffffffffffffffffffffffffffffffffffffffffffffffffffffffff0483118215151615615a6657615a65614895565b5b828202905092915050565b6000615a7c82613b1e565b91506000821415615a9057615a8f614895565b5b600182039050919050565b7f537472696e67733a20686578206c656e67746820696e73756666696369656e74600082015250565b6000615ad1602083613c84565b9150615adc82615a9b565b602082019050919050565b60006020820190508181036000830152615b0081615ac4565b9050919050565b7f416464726573733a2064656c65676174652063616c6c20746f206e6f6e2d636f60008201527f6e74726163740000000000000000000000000000000000000000000000000000602082015250565b6000615b63602683613c84565b9150615b6e82615b07565b604082019050919050565b60006020820190508181036000830152615b9281615b56565b9050919050565b600081905092915050565b6000615baf82615643565b615bb98185615b99565b9350615bc9818560208601613c95565b80840191505092915050565b6000615be18284615ba4565b91508190509291505056fe416464726573733a206c6f772d6c6576656c2064656c65676174652063616c6c206661696c6564a2646970667358221220024fce31a50914669a31f2b8f96d7a37bd4121bf4863ce9a8ae4cc9c53fcf64764736f6c63430008090033",
  "linkReferences": {},
  "deployedLinkReferences": {}
}