{
  "_format": "hh-sol-artifact-1",
  "contractName": "NFTFactory",
  "sourceName": "contracts/NFTFactory.sol",
  "abi": [
    {
      "inputs": [],
      "stateMutability": "nonpayable",
      "type": "constructor"
    },
    {
      "anonymous": false,
      "inputs": [
        {
          "indexed": false,
          "internalType": "address",
          "name": "newNFTAddress",
          "type": "address"
        }
      ],
      "name": "Deployed",
      "type": "event"
    },
    {
      "inputs": [
        {
          "internalType": "string",
          "name": "name",
          "type": "string"
        },
        {
          "internalType": "string",
          "name": "symbol",
          "type": "string"
        },
        {
          "internalType": "string",
          "name": "baseURI",
          "type": "string"
        },
        {
          "internalType": "address",
          "name": "newOwner",
          "type": "address"
        },
        {
          "internalType": "uint256",
          "name": "percentFee",
          "type": "uint256"
        },
        {
          "internalType": "uint256",
          "name": "_salt",
          "type": "uint256"
        }
      ],
      "name": "createERC1155",
      "outputs": [
        {
          "internalType": "address",
          "name": "newNFTAddress",
          "type": "address"
        }
      ],
      "stateMutability": "nonpayable",
      "type": "function"
    },
    {
      "inputs": [],
      "name": "implementation",
      "outputs": [
        {
          "internalType": "address",
          "name": "",
          "type": "address"
        }
      ],
      "stateMutability": "view",
      "type": "function"
    },
    {
      "inputs": [],
      "name": "marketplace",
      "outputs": [
        {
          "internalType": "address",
          "name": "",
          "type": "address"
        }
      ],
      "stateMutability": "view",
      "type": "function"
    },
    {
      "inputs": [],
      "name": "owner",
      "outputs": [
        {
          "internalType": "address",
          "name": "",
          "type": "address"
        }
      ],
      "stateMutability": "view",
      "type": "function"
    },
    {
      "inputs": [
        {
          "internalType": "uint256",
          "name": "_salt",
          "type": "uint256"
        }
      ],
      "name": "predictAddress",
      "outputs": [
        {
          "internalType": "address",
          "name": "newNFTAddress",
          "type": "address"
        }
      ],
      "stateMutability": "view",
      "type": "function"
    },
    {
      "inputs": [
        {
          "internalType": "address",
          "name": "newImplementation",
          "type": "address"
        }
      ],
      "name": "setImplementation",
      "outputs": [],
      "stateMutability": "nonpayable",
      "type": "function"
    },
    {
      "inputs": [
        {
          "internalType": "address",
          "name": "newMarketplace",
          "type": "address"
        }
      ],
      "name": "setMarketplace",
      "outputs": [],
      "stateMutability": "nonpayable",
      "type": "function"
    }
  ],
  "bytecode": "0x608060405234801561001057600080fd5b50336000806101000a81548173ffffffffffffffffffffffffffffffffffffffff021916908373ffffffffffffffffffffffffffffffffffffffff160217905550611b41806100606000396000f3fe60806040523480156200001157600080fd5b5060043610620000885760003560e01c80638da5cb5b11620000635780638da5cb5b1462000105578063a6c8fe3a1462000127578063abc8c7af146200015d578063d784d426146200017f5762000088565b80635c60da1b146200008d57806373ad6c2d14620000af5780637b1ba2fc14620000cf575b600080fd5b620000976200019f565b604051620000a69190620005b4565b60405180910390f35b620000cd6004803603810190620000c7919062000616565b620001c5565b005b620000ed6004803603810190620000e79190620007e5565b62000213565b604051620000fc9190620005b4565b60405180910390f35b6200010f6200039a565b6040516200011e9190620005b4565b60405180910390f35b6200014560048036038101906200013f9190620008de565b620003be565b604051620001549190620005b4565b60405180910390f35b6200016762000492565b604051620001769190620005b4565b60405180910390f35b6200019d600480360381019062000197919062000616565b620004b8565b005b600160009054906101000a900473ffffffffffffffffffffffffffffffffffffffff1681565b620001cf62000506565b80600260006101000a81548173ffffffffffffffffffffffffffffffffffffffff021916908373ffffffffffffffffffffffffffffffffffffffff16021790555050565b600080831180156200022757506127108311155b62000269576040517f08c379a0000000000000000000000000000000000000000000000000000000008152600401620002609062000971565b60405180910390fd5b60008260001b9050600081600160009054906101000a900473ffffffffffffffffffffffffffffffffffffffff16604051620002a59062000561565b620002b19190620009ce565b8190604051809103906000f5905080158015620002d2573d6000803e3d6000fd5b50905060008190508073ffffffffffffffffffffffffffffffffffffffff1663b2ecc0e18b8b8b8b8b6040518663ffffffff1660e01b81526004016200031d95949392919062000a93565b600060405180830381600087803b1580156200033857600080fd5b505af11580156200034d573d6000803e3d6000fd5b505050507ff40fcec21964ffb566044d083b4073f29f7f7929110ea19e1b3ebe375d89055e8160405162000382919062000b70565b60405180910390a18093505050509695505050505050565b60008054906101000a900473ffffffffffffffffffffffffffffffffffffffff1681565b600060ff60f81b308360001b60405180602001620003dc9062000561565b6020820181038252601f19601f82011660405250600160009054906101000a900473ffffffffffffffffffffffffffffffffffffffff1660405160200162000425919062000bb4565b6040516020818303038152906040526040516020016200044792919062000c33565b6040516020818303038152906040528051906020012060405160200162000472949392919062000d2b565b6040516020818303038152906040528051906020012060001c9050919050565b600260009054906101000a900473ffffffffffffffffffffffffffffffffffffffff1681565b620004c262000506565b80600160006101000a81548173ffffffffffffffffffffffffffffffffffffffff021916908373ffffffffffffffffffffffffffffffffffffffff16021790555050565b60008054906101000a900473ffffffffffffffffffffffffffffffffffffffff1673ffffffffffffffffffffffffffffffffffffffff163373ffffffffffffffffffffffffffffffffffffffff16146200055f57600080fd5b565b610d8a8062000d8283390190565b600073ffffffffffffffffffffffffffffffffffffffff82169050919050565b60006200059c826200056f565b9050919050565b620005ae816200058f565b82525050565b6000602082019050620005cb6000830184620005a3565b92915050565b6000604051905090565b600080fd5b600080fd5b620005f0816200058f565b8114620005fc57600080fd5b50565b6000813590506200061081620005e5565b92915050565b6000602082840312156200062f576200062e620005db565b5b60006200063f84828501620005ff565b91505092915050565b600080fd5b600080fd5b6000601f19601f8301169050919050565b7f4e487b7100000000000000000000000000000000000000000000000000000000600052604160045260246000fd5b6200069d8262000652565b810181811067ffffffffffffffff82111715620006bf57620006be62000663565b5b80604052505050565b6000620006d4620005d1565b9050620006e2828262000692565b919050565b600067ffffffffffffffff82111562000705576200070462000663565b5b620007108262000652565b9050602081019050919050565b82818337600083830152505050565b6000620007436200073d84620006e7565b620006c8565b9050828152602081018484840111156200076257620007616200064d565b5b6200076f8482856200071d565b509392505050565b600082601f8301126200078f576200078e62000648565b5b8135620007a18482602086016200072c565b91505092915050565b6000819050919050565b620007bf81620007aa565b8114620007cb57600080fd5b50565b600081359050620007df81620007b4565b92915050565b60008060008060008060c08789031215620008055762000804620005db565b5b600087013567ffffffffffffffff811115620008265762000825620005e0565b5b6200083489828a0162000777565b965050602087013567ffffffffffffffff811115620008585762000857620005e0565b5b6200086689828a0162000777565b955050604087013567ffffffffffffffff8111156200088a5762000889620005e0565b5b6200089889828a0162000777565b9450506060620008ab89828a01620005ff565b9350506080620008be89828a01620007ce565b92505060a0620008d189828a01620007ce565b9150509295509295509295565b600060208284031215620008f757620008f6620005db565b5b60006200090784828501620007ce565b91505092915050565b600082825260208201905092915050565b7f496e76616c696420466565000000000000000000000000000000000000000000600082015250565b600062000959600b8362000910565b9150620009668262000921565b602082019050919050565b600060208201905081810360008301526200098c816200094a565b9050919050565b600082825260208201905092915050565b50565b6000620009b660008362000993565b9150620009c382620009a4565b600082019050919050565b6000604082019050620009e56000830184620005a3565b8181036020830152620009f881620009a7565b905092915050565b600081519050919050565b60005b8381101562000a2b57808201518184015260208101905062000a0e565b8381111562000a3b576000848401525b50505050565b600062000a4e8262000a00565b62000a5a818562000910565b935062000a6c81856020860162000a0b565b62000a778162000652565b840191505092915050565b62000a8d81620007aa565b82525050565b600060a082019050818103600083015262000aaf818862000a41565b9050818103602083015262000ac5818762000a41565b9050818103604083015262000adb818662000a41565b905062000aec6060830185620005a3565b62000afb608083018462000a82565b9695505050505050565b6000819050919050565b600062000b3062000b2a62000b24846200056f565b62000b05565b6200056f565b9050919050565b600062000b448262000b0f565b9050919050565b600062000b588262000b37565b9050919050565b62000b6a8162000b4b565b82525050565b600060208201905062000b87600083018462000b5f565b92915050565b600062000b9c60008362000910565b915062000ba982620009a4565b600082019050919050565b600060408201905062000bcb6000830184620005a3565b818103602083015262000bde8162000b8d565b905092915050565b600081519050919050565b600081905092915050565b600062000c098262000be6565b62000c15818562000bf1565b935062000c2781856020860162000a0b565b80840191505092915050565b600062000c41828562000bfc565b915062000c4f828462000bfc565b91508190509392505050565b60007fff0000000000000000000000000000000000000000000000000000000000000082169050919050565b6000819050919050565b62000ca662000ca08262000c5b565b62000c87565b82525050565b60008160601b9050919050565b600062000cc68262000cac565b9050919050565b600062000cda8262000cb9565b9050919050565b62000cf662000cf0826200058f565b62000ccd565b82525050565b6000819050919050565b6000819050919050565b62000d2562000d1f8262000cfc565b62000d06565b82525050565b600062000d39828762000c91565b60018201915062000d4b828662000ce1565b60148201915062000d5d828562000d10565b60208201915062000d6f828462000d10565b6020820191508190509594505050505056fe608060405260405162000d8a38038062000d8a8339818101604052810190620000299190620005d8565b818160017f360894a13ba1a3210667c828492db98dca3e2076cc3735a920a3ca505d382bbd60001c6200005d919062000677565b60001b7f360894a13ba1a3210667c828492db98dca3e2076cc3735a920a3ca505d382bbc60001b14620000955762000094620006b2565b5b620000a982826000620000b360201b60201c565b50505050620008f8565b620000c483620000f660201b60201c565b600082511180620000d25750805b15620000f157620000ef83836200014d60201b620000371760201c565b505b505050565b62000107816200018360201b60201c565b8073ffffffffffffffffffffffffffffffffffffffff167fbc7cd75a20ee27fd9adebab32041f755214dbc6bffa90cc0225b39da2e5c2d3b60405160405180910390a250565b60606200017b838360405180606001604052806027815260200162000d63602791396200025960201b60201c565b905092915050565b62000199816200033d60201b620000641760201c565b620001db576040517f08c379a0000000000000000000000000000000000000000000000000000000008152600401620001d29062000768565b60405180910390fd5b80620002157f360894a13ba1a3210667c828492db98dca3e2076cc3735a920a3ca505d382bbc60001b6200036060201b620000871760201c565b60000160006101000a81548173ffffffffffffffffffffffffffffffffffffffff021916908373ffffffffffffffffffffffffffffffffffffffff16021790555050565b60606200026c846200033d60201b60201c565b620002ae576040517f08c379a0000000000000000000000000000000000000000000000000000000008152600401620002a59062000800565b60405180910390fd5b6000808573ffffffffffffffffffffffffffffffffffffffff1685604051620002d891906200086f565b600060405180830381855af49150503d806000811462000315576040519150601f19603f3d011682016040523d82523d6000602084013e6200031a565b606091505b5091509150620003328282866200036a60201b60201c565b925050509392505050565b6000808273ffffffffffffffffffffffffffffffffffffffff163b119050919050565b6000819050919050565b606083156200037c57829050620003cf565b600083511115620003905782518084602001fd5b816040517f08c379a0000000000000000000000000000000000000000000000000000000008152600401620003c69190620008d4565b60405180910390fd5b9392505050565b6000604051905090565b600080fd5b600080fd5b600073ffffffffffffffffffffffffffffffffffffffff82169050919050565b60006200041782620003ea565b9050919050565b62000429816200040a565b81146200043557600080fd5b50565b60008151905062000449816200041e565b92915050565b600080fd5b600080fd5b6000601f19601f8301169050919050565b7f4e487b7100000000000000000000000000000000000000000000000000000000600052604160045260246000fd5b620004a48262000459565b810181811067ffffffffffffffff82111715620004c657620004c56200046a565b5b80604052505050565b6000620004db620003d6565b9050620004e9828262000499565b919050565b600067ffffffffffffffff8211156200050c576200050b6200046a565b5b620005178262000459565b9050602081019050919050565b60005b838110156200054457808201518184015260208101905062000527565b8381111562000554576000848401525b50505050565b6000620005716200056b84620004ee565b620004cf565b90508281526020810184848401111562000590576200058f62000454565b5b6200059d84828562000524565b509392505050565b600082601f830112620005bd57620005bc6200044f565b5b8151620005cf8482602086016200055a565b91505092915050565b60008060408385031215620005f257620005f1620003e0565b5b6000620006028582860162000438565b925050602083015167ffffffffffffffff811115620006265762000625620003e5565b5b6200063485828601620005a5565b9150509250929050565b6000819050919050565b7f4e487b7100000000000000000000000000000000000000000000000000000000600052601160045260246000fd5b600062000684826200063e565b915062000691836200063e565b925082821015620006a757620006a662000648565b5b828203905092915050565b7f4e487b7100000000000000000000000000000000000000000000000000000000600052600160045260246000fd5b600082825260208201905092915050565b7f455243313936373a206e657720696d706c656d656e746174696f6e206973206e60008201527f6f74206120636f6e747261637400000000000000000000000000000000000000602082015250565b600062000750602d83620006e1565b91506200075d82620006f2565b604082019050919050565b60006020820190508181036000830152620007838162000741565b9050919050565b7f416464726573733a2064656c65676174652063616c6c20746f206e6f6e2d636f60008201527f6e74726163740000000000000000000000000000000000000000000000000000602082015250565b6000620007e8602683620006e1565b9150620007f5826200078a565b604082019050919050565b600060208201905081810360008301526200081b81620007d9565b9050919050565b600081519050919050565b600081905092915050565b6000620008458262000822565b6200085181856200082d565b93506200086381856020860162000524565b80840191505092915050565b60006200087d828462000838565b915081905092915050565b600081519050919050565b6000620008a08262000888565b620008ac8185620006e1565b9350620008be81856020860162000524565b620008c98162000459565b840191505092915050565b60006020820190508181036000830152620008f0818462000893565b905092915050565b61045b80620009086000396000f3fe6080604052366100135761001161001d565b005b61001b61001d565b005b610025610091565b610035610030610093565b6100a2565b565b606061005c83836040518060600160405280602781526020016103ff602791396100c8565b905092915050565b6000808273ffffffffffffffffffffffffffffffffffffffff163b119050919050565b6000819050919050565b565b600061009d610195565b905090565b3660008037600080366000845af43d6000803e80600081146100c3573d6000f35b3d6000fd5b60606100d384610064565b610112576040517f08c379a0000000000000000000000000000000000000000000000000000000008152600401610109906102d6565b60405180910390fd5b6000808573ffffffffffffffffffffffffffffffffffffffff168560405161013a9190610370565b600060405180830381855af49150503d8060008114610175576040519150601f19603f3d011682016040523d82523d6000602084013e61017a565b606091505b509150915061018a8282866101ec565b925050509392505050565b60006101c37f360894a13ba1a3210667c828492db98dca3e2076cc3735a920a3ca505d382bbc60001b610087565b60000160009054906101000a900473ffffffffffffffffffffffffffffffffffffffff16905090565b606083156101fc5782905061024c565b60008351111561020f5782518084602001fd5b816040517f08c379a000000000000000000000000000000000000000000000000000000000815260040161024391906103dc565b60405180910390fd5b9392505050565b600082825260208201905092915050565b7f416464726573733a2064656c65676174652063616c6c20746f206e6f6e2d636f60008201527f6e74726163740000000000000000000000000000000000000000000000000000602082015250565b60006102c0602683610253565b91506102cb82610264565b604082019050919050565b600060208201905081810360008301526102ef816102b3565b9050919050565b600081519050919050565b600081905092915050565b60005b8381101561032a57808201518184015260208101905061030f565b83811115610339576000848401525b50505050565b600061034a826102f6565b6103548185610301565b935061036481856020860161030c565b80840191505092915050565b600061037c828461033f565b915081905092915050565b600081519050919050565b6000601f19601f8301169050919050565b60006103ae82610387565b6103b88185610253565b93506103c881856020860161030c565b6103d181610392565b840191505092915050565b600060208201905081810360008301526103f681846103a3565b90509291505056fe416464726573733a206c6f772d6c6576656c2064656c65676174652063616c6c206661696c6564a264697066735822122079f4532dc15b59d8240cf1e02a680dcb389ef72dd0e434ce42f82249c5d58a1964736f6c63430008090033416464726573733a206c6f772d6c6576656c2064656c65676174652063616c6c206661696c6564a26469706673582212209e389c874263ea2a26b12388f629d1526df80227687719ef86c54171f4caa50064736f6c63430008090033",
  "linkReferences": {},
  "deployedLinkReferences": {}
}