{
  "_format": "hh-sol-artifact-1",
  "contractName": "NFTFactory",
  "sourceName": "contracts/NFTFactory.sol",
  "abi": [
    {
      "inputs": [
        {
          "internalType": "address",
          "name": "_implementation1155",
          "type": "address"
        },
        {
          "internalType": "address",
          "name": "_implementation721",
          "type": "address"
        },
        {
          "internalType": "address",
          "name": "_marketplace1155",
          "type": "address"
        },
        {
          "internalType": "address",
          "name": "_marketplace721",
          "type": "address"
        }
      ],
      "stateMutability": "nonpayable",
      "type": "constructor"
    },
    {
      "anonymous": false,
      "inputs": [
        {
          "indexed": false,
          "internalType": "address",
          "name": "contractAddress",
          "type": "address"
        }
      ],
      "name": "Deployed",
      "type": "event"
    },
    {
      "inputs": [
        {
          "internalType": "uint256",
          "name": "standard",
          "type": "uint256"
        },
        {
          "internalType": "string",
          "name": "name",
          "type": "string"
        },
        {
          "internalType": "string",
          "name": "symbol",
          "type": "string"
        },
        {
          "internalType": "string",
          "name": "baseURI",
          "type": "string"
        },
        {
          "internalType": "address",
          "name": "newOwner",
          "type": "address"
        },
        {
          "internalType": "uint256",
          "name": "percentFee",
          "type": "uint256"
        },
        {
          "internalType": "uint256",
          "name": "_salt",
          "type": "uint256"
        },
        {
          "internalType": "uint256",
          "name": "amount",
          "type": "uint256"
        },
        {
          "internalType": "uint256[]",
          "name": "ids",
          "type": "uint256[]"
        },
        {
          "internalType": "uint256[]",
          "name": "amounts",
          "type": "uint256[]"
        }
      ],
      "name": "createContract",
      "outputs": [
        {
          "internalType": "address",
          "name": "contractAddress",
          "type": "address"
        }
      ],
      "stateMutability": "nonpayable",
      "type": "function"
    },
    {
      "inputs": [],
      "name": "implementation1155",
      "outputs": [
        {
          "internalType": "address",
          "name": "",
          "type": "address"
        }
      ],
      "stateMutability": "view",
      "type": "function"
    },
    {
      "inputs": [],
      "name": "implementation721",
      "outputs": [
        {
          "internalType": "address",
          "name": "",
          "type": "address"
        }
      ],
      "stateMutability": "view",
      "type": "function"
    },
    {
      "inputs": [],
      "name": "marketplace1155",
      "outputs": [
        {
          "internalType": "address",
          "name": "",
          "type": "address"
        }
      ],
      "stateMutability": "view",
      "type": "function"
    },
    {
      "inputs": [],
      "name": "marketplace721",
      "outputs": [
        {
          "internalType": "address",
          "name": "",
          "type": "address"
        }
      ],
      "stateMutability": "view",
      "type": "function"
    },
    {
      "inputs": [],
      "name": "owner",
      "outputs": [
        {
          "internalType": "address",
          "name": "",
          "type": "address"
        }
      ],
      "stateMutability": "view",
      "type": "function"
    },
    {
      "inputs": [
        {
          "internalType": "uint256",
          "name": "standard",
          "type": "uint256"
        },
        {
          "internalType": "uint256",
          "name": "_salt",
          "type": "uint256"
        }
      ],
      "name": "predictAddress",
      "outputs": [
        {
          "internalType": "address",
          "name": "contractAddress",
          "type": "address"
        }
      ],
      "stateMutability": "view",
      "type": "function"
    },
    {
      "inputs": [
        {
          "internalType": "uint256",
          "name": "standard",
          "type": "uint256"
        },
        {
          "internalType": "address",
          "name": "newImplementation",
          "type": "address"
        }
      ],
      "name": "setImplementation",
      "outputs": [],
      "stateMutability": "nonpayable",
      "type": "function"
    },
    {
      "inputs": [
        {
          "internalType": "uint256",
          "name": "standard",
          "type": "uint256"
        },
        {
          "internalType": "address",
          "name": "newMarketplace",
          "type": "address"
        }
      ],
      "name": "setMarketplace",
      "outputs": [],
      "stateMutability": "nonpayable",
      "type": "function"
    }
  ],
  "bytecode": "0x608060405234801561001057600080fd5b5060405161133f38038061133f83398101604081905261002f916100a8565b60008054336001600160a01b0319918216179091556001805482166001600160a01b0396871617905560028054821694861694909417909355600380548416928516929092179091556004805490921692169190911790556100fc565b80516001600160a01b03811681146100a357600080fd5b919050565b600080600080608085870312156100be57600080fd5b6100c78561008c565b93506100d56020860161008c565b92506100e36040860161008c565b91506100f16060860161008c565b905092959194509250565b6112348061010b6000396000f3fe60806040523480156200001157600080fd5b50600436106200009f5760003560e01c80638da5cb5b116200006e5780638da5cb5b14620001135780638fc6ef46146200012757806397202fb1146200013e578063c63d6b6e1462000152578063f083b096146200016b57600080fd5b80636480852114620000a4578063715e780f14620000d7578063848fd1a314620000eb57806389a6206514620000ff575b600080fd5b620000bb620000b5366004620005ba565b62000182565b6040516001600160a01b03909116815260200160405180910390f35b600454620000bb906001600160a01b031681565b600254620000bb906001600160a01b031681565b600354620000bb906001600160a01b031681565b600054620000bb906001600160a01b031681565b620000bb6200013836600462000744565b620002a0565b600154620000bb906001600160a01b031681565b620001696200016336600462000861565b620004d9565b005b620001696200017c36600462000861565b62000535565b6000808361048314620001a1576002546001600160a01b0316620001ae565b6001546001600160a01b03165b6040519091506001600160f81b03199030908590620001d060208201620005ac565b601f1982820381018352601f9091011660408181526001600160a01b0387166020830152808201526000606082015260800160408051601f1981840301815290829052620002229291602001620008c3565b604051602081830303815290604052805190602001206040516020016200028094939291906001600160f81b031994909416845260609290921b6bffffffffffffffffffffffff191660018401526015830152603582015260550190565b60408051601f198184030181529190528051602090910120949350505050565b60008086118015620002b457506127108611155b620002f35760405162461bcd60e51b815260206004820152600b60248201526a496e76616c69642046656560a81b604482015260640160405180910390fd5b8a6102d114156200041c57600254604051869160009183916001600160a01b0316906200032090620005ac565b6001600160a01b0390911681526040602082018190526000908201526060018190604051809103906000f590508015801562000360573d6000803e3d6000fd5b5090506000819050806001600160a01b031663767faf5d8e8e8e8e8e8d6040518763ffffffff1660e01b8152600401620003a09695949392919062000924565b600060405180830381600087803b158015620003bb57600080fd5b505af1158015620003d0573d6000803e3d6000fd5b50506040516001600160a01b03841681527ff40fcec21964ffb566044d083b4073f29f7f7929110ea19e1b3ebe375d89055e9250602001905060405180910390a19250620004cb915050565b8a6104831415620004cb57600154604051869160009183916001600160a01b0316906200044990620005ac565b6001600160a01b0390911681526040602082018190526000908201526060018190604051809103906000f590508015801562000489573d6000803e3d6000fd5b5090506000819050806001600160a01b03166347f2fc918e8e8e8e8e8c8c6040518863ffffffff1660e01b8152600401620003a09796959493929190620009c8565b9a9950505050505050505050565b620004e362000592565b8161048314156200050a57600380546001600160a01b0319166001600160a01b0383161790555b816102d114156200053157600480546001600160a01b0319166001600160a01b0383161790555b5050565b6200053f62000592565b8161048314156200056657600180546001600160a01b0319166001600160a01b0383161790555b816102d114156200053157600280546001600160a01b0383166001600160a01b03199091161790555050565b6000546001600160a01b03163314620005aa57600080fd5b565b6107b58062000a4a83390190565b60008060408385031215620005ce57600080fd5b50508035926020909101359150565b634e487b7160e01b600052604160045260246000fd5b604051601f8201601f1916810167ffffffffffffffff811182821017156200061f576200061f620005dd565b604052919050565b600082601f8301126200063957600080fd5b813567ffffffffffffffff811115620006565762000656620005dd565b6200066b601f8201601f1916602001620005f3565b8181528460208386010111156200068157600080fd5b816020850160208301376000918101602001919091529392505050565b80356001600160a01b0381168114620006b657600080fd5b919050565b600082601f830112620006cd57600080fd5b8135602067ffffffffffffffff821115620006ec57620006ec620005dd565b8160051b620006fd828201620005f3565b92835284810182019282810190878511156200071857600080fd5b83870192505b8483101562000739578235825291830191908301906200071e565b979650505050505050565b6000806000806000806000806000806101408b8d0312156200076557600080fd5b8a35995060208b013567ffffffffffffffff808211156200078557600080fd5b620007938e838f0162000627565b9a5060408d0135915080821115620007aa57600080fd5b620007b88e838f0162000627565b995060608d0135915080821115620007cf57600080fd5b620007dd8e838f0162000627565b9850620007ed60808e016200069e565b975060a08d0135965060c08d0135955060e08d013594506101008d01359150808211156200081a57600080fd5b620008288e838f01620006bb565b93506101208d01359150808211156200084057600080fd5b506200084f8d828e01620006bb565b9150509295989b9194979a5092959850565b600080604083850312156200087557600080fd5b8235915062000887602084016200069e565b90509250929050565b60005b83811015620008ad57818101518382015260200162000893565b83811115620008bd576000848401525b50505050565b60008351620008d781846020880162000890565b835190830190620008ed81836020880162000890565b01949350505050565b600081518084526200091081602086016020860162000890565b601f01601f19169290920160200192915050565b60c0815260006200093960c0830189620008f6565b82810360208401526200094d8189620008f6565b90508281036040840152620009638188620008f6565b6001600160a01b039690961660608401525050608081019290925260a0909101529392505050565b600081518084526020808501945080840160005b83811015620009bd578151875295820195908201906001016200099f565b509495945050505050565b60e081526000620009dd60e083018a620008f6565b8281036020840152620009f1818a620008f6565b9050828103604084015262000a078189620008f6565b6001600160a01b03881660608501526080840187905283810360a0850152905062000a3381866200098b565b905082810360c0840152620004cb81856200098b56fe60806040526040516107b53803806107b58339810160408190526100229161034d565b818161004f60017f360894a13ba1a3210667c828492db98dca3e2076cc3735a920a3ca505d382bbd61041b565b60008051602061076e8339815191521461006b5761006b610440565b61007782826000610080565b505050506104a5565b610089836100b6565b6000825111806100965750805b156100b1576100af83836100f660201b6100291760201c565b505b505050565b6100bf81610122565b6040516001600160a01b038216907fbc7cd75a20ee27fd9adebab32041f755214dbc6bffa90cc0225b39da2e5c2d3b90600090a250565b606061011b838360405180606001604052806027815260200161078e602791396101e2565b9392505050565b610135816102c060201b6100551760201c565b61019c5760405162461bcd60e51b815260206004820152602d60248201527f455243313936373a206e657720696d706c656d656e746174696f6e206973206e60448201526c1bdd08184818dbdb9d1c9858dd609a1b60648201526084015b60405180910390fd5b806101c160008051602061076e83398151915260001b6102cf60201b6100641760201c565b80546001600160a01b0319166001600160a01b039290921691909117905550565b60606001600160a01b0384163b61024a5760405162461bcd60e51b815260206004820152602660248201527f416464726573733a2064656c65676174652063616c6c20746f206e6f6e2d636f6044820152651b9d1c9858dd60d21b6064820152608401610193565b600080856001600160a01b0316856040516102659190610456565b600060405180830381855af49150503d80600081146102a0576040519150601f19603f3d011682016040523d82523d6000602084013e6102a5565b606091505b5090925090506102b68282866102d2565b9695505050505050565b6001600160a01b03163b151590565b90565b606083156102e157508161011b565b8251156102f15782518084602001fd5b8160405162461bcd60e51b81526004016101939190610472565b634e487b7160e01b600052604160045260246000fd5b60005b8381101561033c578181015183820152602001610324565b838111156100af5750506000910152565b6000806040838503121561036057600080fd5b82516001600160a01b038116811461037757600080fd5b60208401519092506001600160401b038082111561039457600080fd5b818501915085601f8301126103a857600080fd5b8151818111156103ba576103ba61030b565b604051601f8201601f19908116603f011681019083821181831017156103e2576103e261030b565b816040528281528860208487010111156103fb57600080fd5b61040c836020830160208801610321565b80955050505050509250929050565b60008282101561043b57634e487b7160e01b600052601160045260246000fd5b500390565b634e487b7160e01b600052600160045260246000fd5b60008251610468818460208701610321565b9190910192915050565b6020815260008251806020840152610491816040850160208701610321565b601f01601f19169190910160400192915050565b6102ba806104b46000396000f3fe60806040523661001357610011610017565b005b6100115b610027610022610067565b61009f565b565b606061004e838360405180606001604052806027815260200161025e602791396100c3565b9392505050565b6001600160a01b03163b151590565b90565b600061009a7f360894a13ba1a3210667c828492db98dca3e2076cc3735a920a3ca505d382bbc546001600160a01b031690565b905090565b3660008037600080366000845af43d6000803e8080156100be573d6000f35b3d6000fd5b60606001600160a01b0384163b6101305760405162461bcd60e51b815260206004820152602660248201527f416464726573733a2064656c65676174652063616c6c20746f206e6f6e2d636f6044820152651b9d1c9858dd60d21b60648201526084015b60405180910390fd5b600080856001600160a01b03168560405161014b919061020e565b600060405180830381855af49150503d8060008114610186576040519150601f19603f3d011682016040523d82523d6000602084013e61018b565b606091505b509150915061019b8282866101a5565b9695505050505050565b606083156101b457508161004e565b8251156101c45782518084602001fd5b8160405162461bcd60e51b8152600401610127919061022a565b60005b838110156101f95781810151838201526020016101e1565b83811115610208576000848401525b50505050565b600082516102208184602087016101de565b9190910192915050565b60208152600082518060208401526102498160408501602087016101de565b601f01601f1916919091016040019291505056fe416464726573733a206c6f772d6c6576656c2064656c65676174652063616c6c206661696c6564a26469706673582212208f0a62c52aa54f466d580adcfbab9e6bfdd95f69807ddf369845b5f39becf98164736f6c63430008090033360894a13ba1a3210667c828492db98dca3e2076cc3735a920a3ca505d382bbc416464726573733a206c6f772d6c6576656c2064656c65676174652063616c6c206661696c6564a2646970667358221220b46ae2e2a9dad1bbd45d987d65752744215c2c7f2b8686a2c55867089a086cf664736f6c63430008090033",
  "linkReferences": {},
  "deployedLinkReferences": {}
}