{
  "_format": "hh-sol-artifact-1",
  "contractName": "NFTFactory",
  "sourceName": "contracts/NFTFactory.sol",
  "abi": [
    {
      "anonymous": false,
      "inputs": [
        {
          "indexed": false,
          "internalType": "address",
          "name": "previousAdmin",
          "type": "address"
        },
        {
          "indexed": false,
          "internalType": "address",
          "name": "newAdmin",
          "type": "address"
        }
      ],
      "name": "AdminChanged",
      "type": "event"
    },
    {
      "anonymous": false,
      "inputs": [
        {
          "indexed": true,
          "internalType": "address",
          "name": "beacon",
          "type": "address"
        }
      ],
      "name": "BeaconUpgraded",
      "type": "event"
    },
    {
      "anonymous": false,
      "inputs": [
        {
          "indexed": false,
          "internalType": "address",
          "name": "contractAddress",
          "type": "address"
        }
      ],
      "name": "Deployed",
      "type": "event"
    },
    {
      "anonymous": false,
      "inputs": [
        {
          "indexed": false,
          "internalType": "uint8",
          "name": "version",
          "type": "uint8"
        }
      ],
      "name": "Initialized",
      "type": "event"
    },
    {
      "anonymous": false,
      "inputs": [
        {
          "indexed": true,
          "internalType": "address",
          "name": "implementation",
          "type": "address"
        }
      ],
      "name": "Upgraded",
      "type": "event"
    },
    {
      "inputs": [
        {
          "internalType": "uint256",
          "name": "standard",
          "type": "uint256"
        },
        {
          "internalType": "string",
          "name": "name",
          "type": "string"
        },
        {
          "internalType": "string",
          "name": "symbol",
          "type": "string"
        },
        {
          "internalType": "string",
          "name": "baseURI",
          "type": "string"
        },
        {
          "internalType": "address",
          "name": "newOwner",
          "type": "address"
        },
        {
          "internalType": "uint256",
          "name": "percentFee",
          "type": "uint256"
        },
        {
          "internalType": "uint256",
          "name": "_salt",
          "type": "uint256"
        },
        {
          "internalType": "uint256",
          "name": "amount",
          "type": "uint256"
        },
        {
          "internalType": "uint256[]",
          "name": "ids",
          "type": "uint256[]"
        },
        {
          "internalType": "uint256[]",
          "name": "amounts",
          "type": "uint256[]"
        }
      ],
      "name": "createContract",
      "outputs": [
        {
          "internalType": "address",
          "name": "contractAddress",
          "type": "address"
        }
      ],
      "stateMutability": "nonpayable",
      "type": "function"
    },
    {
      "inputs": [],
      "name": "getVersion",
      "outputs": [
        {
          "internalType": "uint256",
          "name": "version",
          "type": "uint256"
        }
      ],
      "stateMutability": "view",
      "type": "function"
    },
    {
      "inputs": [],
      "name": "implementation1155",
      "outputs": [
        {
          "internalType": "address",
          "name": "",
          "type": "address"
        }
      ],
      "stateMutability": "view",
      "type": "function"
    },
    {
      "inputs": [],
      "name": "implementation721",
      "outputs": [
        {
          "internalType": "address",
          "name": "",
          "type": "address"
        }
      ],
      "stateMutability": "view",
      "type": "function"
    },
    {
      "inputs": [
        {
          "internalType": "address",
          "name": "_marketplace1155",
          "type": "address"
        },
        {
          "internalType": "address",
          "name": "_marketplace721",
          "type": "address"
        }
      ],
      "name": "initialize",
      "outputs": [],
      "stateMutability": "nonpayable",
      "type": "function"
    },
    {
      "inputs": [],
      "name": "marketplace1155",
      "outputs": [
        {
          "internalType": "address",
          "name": "",
          "type": "address"
        }
      ],
      "stateMutability": "view",
      "type": "function"
    },
    {
      "inputs": [],
      "name": "marketplace721",
      "outputs": [
        {
          "internalType": "address",
          "name": "",
          "type": "address"
        }
      ],
      "stateMutability": "view",
      "type": "function"
    },
    {
      "inputs": [],
      "name": "owner",
      "outputs": [
        {
          "internalType": "address",
          "name": "",
          "type": "address"
        }
      ],
      "stateMutability": "view",
      "type": "function"
    },
    {
      "inputs": [
        {
          "internalType": "uint256",
          "name": "standard",
          "type": "uint256"
        },
        {
          "internalType": "uint256",
          "name": "_salt",
          "type": "uint256"
        }
      ],
      "name": "predictAddress",
      "outputs": [
        {
          "internalType": "address",
          "name": "contractAddress",
          "type": "address"
        }
      ],
      "stateMutability": "view",
      "type": "function"
    },
    {
      "inputs": [],
      "name": "proxiableUUID",
      "outputs": [
        {
          "internalType": "bytes32",
          "name": "",
          "type": "bytes32"
        }
      ],
      "stateMutability": "view",
      "type": "function"
    },
    {
      "inputs": [
        {
          "internalType": "uint256",
          "name": "standard",
          "type": "uint256"
        },
        {
          "internalType": "address",
          "name": "newImplementation",
          "type": "address"
        }
      ],
      "name": "setImplementation",
      "outputs": [],
      "stateMutability": "nonpayable",
      "type": "function"
    },
    {
      "inputs": [
        {
          "internalType": "uint256",
          "name": "standard",
          "type": "uint256"
        },
        {
          "internalType": "address",
          "name": "newMarketplace",
          "type": "address"
        }
      ],
      "name": "setMarketplace",
      "outputs": [],
      "stateMutability": "nonpayable",
      "type": "function"
    },
    {
      "inputs": [
        {
          "internalType": "address",
          "name": "newOwner",
          "type": "address"
        }
      ],
      "name": "transferOwnership",
      "outputs": [],
      "stateMutability": "nonpayable",
      "type": "function"
    },
    {
      "inputs": [
        {
          "internalType": "address",
          "name": "newImplementation",
          "type": "address"
        }
      ],
      "name": "upgradeTo",
      "outputs": [],
      "stateMutability": "nonpayable",
      "type": "function"
    },
    {
      "inputs": [
        {
          "internalType": "address",
          "name": "newImplementation",
          "type": "address"
        },
        {
          "internalType": "bytes",
          "name": "data",
          "type": "bytes"
        }
      ],
      "name": "upgradeToAndCall",
      "outputs": [],
      "stateMutability": "payable",
      "type": "function"
    }
  ],
  "bytecode": "0x60a06040523060805234801561001457600080fd5b50608051611d9961004c600039600081816103260152818161037201528181610567015281816105aa01526106460152611d996000f3fe608060405260043610620000fb5760003560e01c8063848fd1a3116200009557806397202fb1116200006057806397202fb1146200028a578063c63d6b6e14620002ac578063f083b09614620002d1578063f2fde38b14620002f657600080fd5b8063848fd1a314620001ff57806389a6206514620002215780638da5cb5b14620002435780638fc6ef46146200026557600080fd5b80634f1ef28611620000d65780634f1ef286146200017057806352d1902d146200018757806364808521146200019f578063715e780f14620001dd57600080fd5b80630d8e6e2c14620001005780633659cfe61462000124578063485cc955146200014b575b600080fd5b3480156200010d57600080fd5b5060015b6040519081526020015b60405180910390f35b3480156200013157600080fd5b50620001496200014336600462000f54565b6200031b565b005b3480156200015857600080fd5b50620001496200016a36600462000f72565b62000410565b620001496200018136600462001052565b6200055c565b3480156200019457600080fd5b506200011162000639565b348015620001ac57600080fd5b50620001c4620001be366004620010bb565b620006ef565b6040516001600160a01b0390911681526020016200011b565b348015620001ea57600080fd5b50606954620001c4906001600160a01b031681565b3480156200020c57600080fd5b50606754620001c4906001600160a01b031681565b3480156200022e57600080fd5b50606854620001c4906001600160a01b031681565b3480156200025057600080fd5b50606554620001c4906001600160a01b031681565b3480156200027257600080fd5b50620001c4620002843660046200118a565b6200080d565b3480156200029757600080fd5b50606654620001c4906001600160a01b031681565b348015620002b957600080fd5b5062000149620002cb366004620012a7565b62000a43565b348015620002de57600080fd5b5062000149620002f0366004620012a7565b62000aa0565b3480156200030357600080fd5b50620001496200031536600462000f54565b62000afd565b306001600160a01b037f0000000000000000000000000000000000000000000000000000000000000000161415620003705760405162461bcd60e51b81526004016200036790620012cd565b60405180910390fd5b7f00000000000000000000000000000000000000000000000000000000000000006001600160a01b0316620003bb60008051602062001d1d833981519152546001600160a01b031690565b6001600160a01b031614620003e45760405162461bcd60e51b8152600401620003679062001319565b620003ef8162000b29565b604080516000808252602082019092526200040d9183919062000b33565b50565b600054610100900460ff1615808015620004315750600054600160ff909116105b806200044d5750303b1580156200044d575060005460ff166001145b620004b25760405162461bcd60e51b815260206004820152602e60248201527f496e697469616c697a61626c653a20636f6e747261637420697320616c72656160448201526d191e481a5b9a5d1a585b1a5e995960921b606482015260840162000367565b6000805460ff191660011790558015620004d6576000805461ff0019166101001790555b60658054326001600160a01b0319918216179091556068805482166001600160a01b038681169190911790915560698054909216908416179055801562000557576000805461ff0019169055604051600181527f7f26b83ff96e1f2b6a682f133852f6798a09c465da95921460cefb38474024989060200160405180910390a15b505050565b306001600160a01b037f0000000000000000000000000000000000000000000000000000000000000000161415620005a85760405162461bcd60e51b81526004016200036790620012cd565b7f00000000000000000000000000000000000000000000000000000000000000006001600160a01b0316620005f360008051602062001d1d833981519152546001600160a01b031690565b6001600160a01b0316146200061c5760405162461bcd60e51b8152600401620003679062001319565b620006278262000b29565b620006358282600162000b33565b5050565b6000306001600160a01b037f00000000000000000000000000000000000000000000000000000000000000001614620006db5760405162461bcd60e51b815260206004820152603860248201527f555550535570677261646561626c653a206d757374206e6f742062652063616c60448201527f6c6564207468726f7567682064656c656761746563616c6c0000000000000000606482015260840162000367565b5060008051602062001d1d83398151915290565b60008083610483146200070e576067546001600160a01b03166200071b565b6066546001600160a01b03165b6040519091506001600160f81b031990309085906200073d6020820162000f29565b601f1982820381018352601f9091011660408181526001600160a01b0387166020830152808201526000606082015260800160408051601f19818403018152908290526200078f929160200162001394565b60405160208183030381529060405280519060200120604051602001620007ed94939291906001600160f81b031994909416845260609290921b6bffffffffffffffffffffffff191660018401526015830152603582015260550190565b60408051601f198184030181529190528051602090910120949350505050565b600080861180156200082157506127108611155b6200085d5760405162461bcd60e51b815260206004820152600b60248201526a496e76616c69642046656560a81b604482015260640162000367565b8a6102d114156200098657606754604051869160009183916001600160a01b0316906200088a9062000f29565b6001600160a01b0390911681526040602082018190526000908201526060018190604051809103906000f5905080158015620008ca573d6000803e3d6000fd5b5090506000819050806001600160a01b031663767faf5d8e8e8e8e8e8d6040518763ffffffff1660e01b81526004016200090a96959493929190620013f5565b600060405180830381600087803b1580156200092557600080fd5b505af11580156200093a573d6000803e3d6000fd5b50506040516001600160a01b03841681527ff40fcec21964ffb566044d083b4073f29f7f7929110ea19e1b3ebe375d89055e9250602001905060405180910390a1925062000a35915050565b8a610483141562000a3557606654604051869160009183916001600160a01b031690620009b39062000f29565b6001600160a01b0390911681526040602082018190526000908201526060018190604051809103906000f5905080158015620009f3573d6000803e3d6000fd5b5090506000819050806001600160a01b03166347f2fc918e8e8e8e8e8c8c6040518863ffffffff1660e01b81526004016200090a979695949392919062001499565b9a9950505050505050505050565b62000a4d62000cbb565b81610483141562000a7457606880546001600160a01b0319166001600160a01b0383161790555b816102d114156200063557606980546001600160a01b0383166001600160a01b03199091161790555050565b62000aaa62000cbb565b81610483141562000ad157606680546001600160a01b0319166001600160a01b0383161790555b816102d114156200063557606780546001600160a01b0383166001600160a01b03199091161790555050565b62000b0762000cbb565b606580546001600160a01b0319166001600160a01b0392909216919091179055565b6200040d62000cbb565b7f4910fdfa16fed3260ed0e7147f7cc6da11a60208b5b9406d12a635614ffd91435460ff161562000b6957620005578362000cd5565b826001600160a01b03166352d1902d6040518163ffffffff1660e01b815260040160206040518083038186803b15801562000ba357600080fd5b505afa92505050801562000bd6575060408051601f3d908101601f1916820190925262000bd3918101906200151a565b60015b62000c3b5760405162461bcd60e51b815260206004820152602e60248201527f45524331393637557067726164653a206e657720696d706c656d656e7461746960448201526d6f6e206973206e6f74205555505360901b606482015260840162000367565b60008051602062001d1d833981519152811462000cad5760405162461bcd60e51b815260206004820152602960248201527f45524331393637557067726164653a20756e737570706f727465642070726f786044820152681a58589b195555525160ba1b606482015260840162000367565b506200055783838362000d74565b6065546001600160a01b0316331462000cd357600080fd5b565b6001600160a01b0381163b62000d445760405162461bcd60e51b815260206004820152602d60248201527f455243313936373a206e657720696d706c656d656e746174696f6e206973206e60448201526c1bdd08184818dbdb9d1c9858dd609a1b606482015260840162000367565b60008051602062001d1d83398151915280546001600160a01b0319166001600160a01b0392909216919091179055565b62000d7f8362000da5565b60008251118062000d8d5750805b15620005575762000d9f838362000de7565b50505050565b62000db08162000cd5565b6040516001600160a01b038216907fbc7cd75a20ee27fd9adebab32041f755214dbc6bffa90cc0225b39da2e5c2d3b90600090a250565b60606001600160a01b0383163b62000e515760405162461bcd60e51b815260206004820152602660248201527f416464726573733a2064656c65676174652063616c6c20746f206e6f6e2d636f6044820152651b9d1c9858dd60d21b606482015260840162000367565b600080846001600160a01b03168460405162000e6e919062001534565b600060405180830381855af49150503d806000811462000eab576040519150601f19603f3d011682016040523d82523d6000602084013e62000eb0565b606091505b509150915062000edb828260405180606001604052806027815260200162001d3d6027913962000ee4565b95945050505050565b6060831562000ef557508162000f22565b82511562000f065782518084602001fd5b8160405162461bcd60e51b815260040162000367919062001552565b9392505050565b6107b5806200156883390190565b80356001600160a01b038116811462000f4f57600080fd5b919050565b60006020828403121562000f6757600080fd5b62000f228262000f37565b6000806040838503121562000f8657600080fd5b62000f918362000f37565b915062000fa16020840162000f37565b90509250929050565b634e487b7160e01b600052604160045260246000fd5b604051601f8201601f1916810167ffffffffffffffff8111828210171562000fec5762000fec62000faa565b604052919050565b600067ffffffffffffffff83111562001011576200101162000faa565b62001026601f8401601f191660200162000fc0565b90508281528383830111156200103b57600080fd5b828260208301376000602084830101529392505050565b600080604083850312156200106657600080fd5b620010718362000f37565b9150602083013567ffffffffffffffff8111156200108e57600080fd5b8301601f81018513620010a057600080fd5b620010b18582356020840162000ff4565b9150509250929050565b60008060408385031215620010cf57600080fd5b50508035926020909101359150565b600082601f830112620010f057600080fd5b62000f228383356020850162000ff4565b600082601f8301126200111357600080fd5b8135602067ffffffffffffffff82111562001132576200113262000faa565b8160051b6200114382820162000fc0565b92835284810182019282810190878511156200115e57600080fd5b83870192505b848310156200117f5782358252918301919083019062001164565b979650505050505050565b6000806000806000806000806000806101408b8d031215620011ab57600080fd5b8a35995060208b013567ffffffffffffffff80821115620011cb57600080fd5b620011d98e838f01620010de565b9a5060408d0135915080821115620011f057600080fd5b620011fe8e838f01620010de565b995060608d01359150808211156200121557600080fd5b620012238e838f01620010de565b98506200123360808e0162000f37565b975060a08d0135965060c08d0135955060e08d013594506101008d01359150808211156200126057600080fd5b6200126e8e838f0162001101565b93506101208d01359150808211156200128657600080fd5b50620012958d828e0162001101565b9150509295989b9194979a5092959850565b60008060408385031215620012bb57600080fd5b8235915062000fa16020840162000f37565b6020808252602c908201527f46756e6374696f6e206d7573742062652063616c6c6564207468726f7567682060408201526b19195b1959d85d1958d85b1b60a21b606082015260800190565b6020808252602c908201527f46756e6374696f6e206d7573742062652063616c6c6564207468726f7567682060408201526b6163746976652070726f787960a01b606082015260800190565b60005b838110156200138257818101518382015260200162001368565b8381111562000d9f5750506000910152565b60008351620013a881846020880162001365565b835190830190620013be81836020880162001365565b01949350505050565b60008151808452620013e181602086016020860162001365565b601f01601f19169290920160200192915050565b60c0815260006200140a60c0830189620013c7565b82810360208401526200141e8189620013c7565b90508281036040840152620014348188620013c7565b6001600160a01b039690961660608401525050608081019290925260a0909101529392505050565b600081518084526020808501945080840160005b838110156200148e5781518752958201959082019060010162001470565b509495945050505050565b60e081526000620014ae60e083018a620013c7565b8281036020840152620014c2818a620013c7565b90508281036040840152620014d88189620013c7565b6001600160a01b03881660608501526080840187905283810360a085015290506200150481866200145c565b905082810360c084015262000a3581856200145c565b6000602082840312156200152d57600080fd5b5051919050565b600082516200154881846020870162001365565b9190910192915050565b60208152600062000f226020830184620013c756fe60806040526040516107b53803806107b58339810160408190526100229161034d565b818161004f60017f360894a13ba1a3210667c828492db98dca3e2076cc3735a920a3ca505d382bbd61041b565b60008051602061076e8339815191521461006b5761006b610440565b61007782826000610080565b505050506104a5565b610089836100b6565b6000825111806100965750805b156100b1576100af83836100f660201b6100291760201c565b505b505050565b6100bf81610122565b6040516001600160a01b038216907fbc7cd75a20ee27fd9adebab32041f755214dbc6bffa90cc0225b39da2e5c2d3b90600090a250565b606061011b838360405180606001604052806027815260200161078e602791396101e2565b9392505050565b610135816102c060201b6100551760201c565b61019c5760405162461bcd60e51b815260206004820152602d60248201527f455243313936373a206e657720696d706c656d656e746174696f6e206973206e60448201526c1bdd08184818dbdb9d1c9858dd609a1b60648201526084015b60405180910390fd5b806101c160008051602061076e83398151915260001b6102cf60201b6100641760201c565b80546001600160a01b0319166001600160a01b039290921691909117905550565b60606001600160a01b0384163b61024a5760405162461bcd60e51b815260206004820152602660248201527f416464726573733a2064656c65676174652063616c6c20746f206e6f6e2d636f6044820152651b9d1c9858dd60d21b6064820152608401610193565b600080856001600160a01b0316856040516102659190610456565b600060405180830381855af49150503d80600081146102a0576040519150601f19603f3d011682016040523d82523d6000602084013e6102a5565b606091505b5090925090506102b68282866102d2565b9695505050505050565b6001600160a01b03163b151590565b90565b606083156102e157508161011b565b8251156102f15782518084602001fd5b8160405162461bcd60e51b81526004016101939190610472565b634e487b7160e01b600052604160045260246000fd5b60005b8381101561033c578181015183820152602001610324565b838111156100af5750506000910152565b6000806040838503121561036057600080fd5b82516001600160a01b038116811461037757600080fd5b60208401519092506001600160401b038082111561039457600080fd5b818501915085601f8301126103a857600080fd5b8151818111156103ba576103ba61030b565b604051601f8201601f19908116603f011681019083821181831017156103e2576103e261030b565b816040528281528860208487010111156103fb57600080fd5b61040c836020830160208801610321565b80955050505050509250929050565b60008282101561043b57634e487b7160e01b600052601160045260246000fd5b500390565b634e487b7160e01b600052600160045260246000fd5b60008251610468818460208701610321565b9190910192915050565b6020815260008251806020840152610491816040850160208701610321565b601f01601f19169190910160400192915050565b6102ba806104b46000396000f3fe60806040523661001357610011610017565b005b6100115b610027610022610067565b61009f565b565b606061004e838360405180606001604052806027815260200161025e602791396100c3565b9392505050565b6001600160a01b03163b151590565b90565b600061009a7f360894a13ba1a3210667c828492db98dca3e2076cc3735a920a3ca505d382bbc546001600160a01b031690565b905090565b3660008037600080366000845af43d6000803e8080156100be573d6000f35b3d6000fd5b60606001600160a01b0384163b6101305760405162461bcd60e51b815260206004820152602660248201527f416464726573733a2064656c65676174652063616c6c20746f206e6f6e2d636f6044820152651b9d1c9858dd60d21b60648201526084015b60405180910390fd5b600080856001600160a01b03168560405161014b919061020e565b600060405180830381855af49150503d8060008114610186576040519150601f19603f3d011682016040523d82523d6000602084013e61018b565b606091505b509150915061019b8282866101a5565b9695505050505050565b606083156101b457508161004e565b8251156101c45782518084602001fd5b8160405162461bcd60e51b8152600401610127919061022a565b60005b838110156101f95781810151838201526020016101e1565b83811115610208576000848401525b50505050565b600082516102208184602087016101de565b9190910192915050565b60208152600082518060208401526102498160408501602087016101de565b601f01601f1916919091016040019291505056fe416464726573733a206c6f772d6c6576656c2064656c65676174652063616c6c206661696c6564a26469706673582212208f0a62c52aa54f466d580adcfbab9e6bfdd95f69807ddf369845b5f39becf98164736f6c63430008090033360894a13ba1a3210667c828492db98dca3e2076cc3735a920a3ca505d382bbc416464726573733a206c6f772d6c6576656c2064656c65676174652063616c6c206661696c6564360894a13ba1a3210667c828492db98dca3e2076cc3735a920a3ca505d382bbc416464726573733a206c6f772d6c6576656c2064656c65676174652063616c6c206661696c6564a2646970667358221220c8e440e98363bb0d6cf7331725055ddcdc3e1f6eb4d6ee62c827452a02b0776564736f6c63430008090033",
  "linkReferences": {},
  "deployedLinkReferences": {}
}