{
  "_format": "hh-sol-artifact-1",
  "contractName": "Marketplace",
  "sourceName": "contracts/Marketplace.sol",
  "abi": [
    {
      "inputs": [],
      "stateMutability": "nonpayable",
      "type": "constructor"
    },
    {
      "anonymous": false,
      "inputs": [
        {
          "indexed": true,
          "internalType": "address",
          "name": "NFTAddress",
          "type": "address"
        },
        {
          "indexed": true,
          "internalType": "uint256",
          "name": "tokenID",
          "type": "uint256"
        },
        {
          "indexed": true,
          "internalType": "uint256",
          "name": "amount",
          "type": "uint256"
        },
        {
          "indexed": false,
          "internalType": "uint256",
          "name": "bestPrice",
          "type": "uint256"
        },
        {
          "indexed": false,
          "internalType": "address",
          "name": "seller",
          "type": "address"
        },
        {
          "indexed": false,
          "internalType": "address",
          "name": "buyer",
          "type": "address"
        }
      ],
      "name": "AuctionEnded",
      "type": "event"
    },
    {
      "anonymous": false,
      "inputs": [
        {
          "indexed": true,
          "internalType": "address",
          "name": "NFTAddress",
          "type": "address"
        },
        {
          "indexed": true,
          "internalType": "uint256",
          "name": "tokenID",
          "type": "uint256"
        },
        {
          "indexed": true,
          "internalType": "uint256",
          "name": "amount",
          "type": "uint256"
        },
        {
          "indexed": false,
          "internalType": "uint256",
          "name": "priceWEI",
          "type": "uint256"
        },
        {
          "indexed": false,
          "internalType": "address",
          "name": "seller",
          "type": "address"
        }
      ],
      "name": "AuctionStarted",
      "type": "event"
    },
    {
      "anonymous": false,
      "inputs": [
        {
          "indexed": true,
          "internalType": "address",
          "name": "NFTAddress",
          "type": "address"
        },
        {
          "indexed": true,
          "internalType": "uint256",
          "name": "tokenID",
          "type": "uint256"
        },
        {
          "indexed": true,
          "internalType": "uint256",
          "name": "bestBid",
          "type": "uint256"
        },
        {
          "indexed": false,
          "internalType": "address",
          "name": "bestBider",
          "type": "address"
        }
      ],
      "name": "BibDone",
      "type": "event"
    },
    {
      "anonymous": false,
      "inputs": [
        {
          "indexed": true,
          "internalType": "address",
          "name": "NFTAddress",
          "type": "address"
        },
        {
          "indexed": true,
          "internalType": "uint256",
          "name": "tokenID",
          "type": "uint256"
        },
        {
          "indexed": true,
          "internalType": "uint256",
          "name": "priceWEI",
          "type": "uint256"
        },
        {
          "indexed": false,
          "internalType": "address",
          "name": "buyer",
          "type": "address"
        }
      ],
      "name": "DepositReturned",
      "type": "event"
    },
    {
      "anonymous": false,
      "inputs": [
        {
          "indexed": true,
          "internalType": "address",
          "name": "NFTAddress",
          "type": "address"
        },
        {
          "indexed": true,
          "internalType": "uint256",
          "name": "tokenID",
          "type": "uint256"
        },
        {
          "indexed": true,
          "internalType": "uint256",
          "name": "amount",
          "type": "uint256"
        },
        {
          "indexed": false,
          "internalType": "uint256",
          "name": "priceWEI",
          "type": "uint256"
        },
        {
          "indexed": false,
          "internalType": "address",
          "name": "seller",
          "type": "address"
        }
      ],
      "name": "OrderAdded",
      "type": "event"
    },
    {
      "anonymous": false,
      "inputs": [
        {
          "indexed": true,
          "internalType": "address",
          "name": "NFTAddress",
          "type": "address"
        },
        {
          "indexed": true,
          "internalType": "uint256",
          "name": "tokenID",
          "type": "uint256"
        },
        {
          "indexed": true,
          "internalType": "uint256",
          "name": "amount",
          "type": "uint256"
        },
        {
          "indexed": false,
          "internalType": "address",
          "name": "seller",
          "type": "address"
        },
        {
          "indexed": false,
          "internalType": "address",
          "name": "buyer",
          "type": "address"
        }
      ],
      "name": "OrderInitilized",
      "type": "event"
    },
    {
      "anonymous": false,
      "inputs": [
        {
          "indexed": true,
          "internalType": "address",
          "name": "NFTAddress",
          "type": "address"
        },
        {
          "indexed": true,
          "internalType": "uint256",
          "name": "tokenID",
          "type": "uint256"
        },
        {
          "indexed": true,
          "internalType": "address",
          "name": "buyer",
          "type": "address"
        }
      ],
      "name": "OrderRedeemed",
      "type": "event"
    },
    {
      "anonymous": false,
      "inputs": [
        {
          "indexed": true,
          "internalType": "address",
          "name": "NFTAddress",
          "type": "address"
        },
        {
          "indexed": true,
          "internalType": "uint256",
          "name": "tokenID",
          "type": "uint256"
        },
        {
          "indexed": false,
          "internalType": "address",
          "name": "seller",
          "type": "address"
        }
      ],
      "name": "OrderRemoved",
      "type": "event"
    },
    {
      "anonymous": false,
      "inputs": [
        {
          "indexed": true,
          "internalType": "address",
          "name": "NFTAddress",
          "type": "address"
        },
        {
          "indexed": true,
          "internalType": "uint256",
          "name": "tokenID",
          "type": "uint256"
        },
        {
          "indexed": true,
          "internalType": "bool",
          "name": "accepted",
          "type": "bool"
        }
      ],
      "name": "SellerAccepted",
      "type": "event"
    },
    {
      "inputs": [
        {
          "internalType": "address",
          "name": "",
          "type": "address"
        },
        {
          "internalType": "address",
          "name": "",
          "type": "address"
        },
        {
          "internalType": "uint256",
          "name": "",
          "type": "uint256"
        }
      ],
      "name": "NFTAuctions",
      "outputs": [
        {
          "internalType": "uint256",
          "name": "bestPrice",
          "type": "uint256"
        },
        {
          "internalType": "uint256",
          "name": "amount",
          "type": "uint256"
        },
        {
          "internalType": "uint256",
          "name": "percentFee",
          "type": "uint256"
        },
        {
          "internalType": "uint256",
          "name": "deadline",
          "type": "uint256"
        },
        {
          "internalType": "address",
          "name": "bestBider",
          "type": "address"
        },
        {
          "internalType": "address",
          "name": "seller",
          "type": "address"
        }
      ],
      "stateMutability": "view",
      "type": "function"
    },
    {
      "inputs": [
        {
          "internalType": "address",
          "name": "",
          "type": "address"
        },
        {
          "internalType": "address",
          "name": "",
          "type": "address"
        },
        {
          "internalType": "uint256",
          "name": "",
          "type": "uint256"
        }
      ],
      "name": "NFTOrders",
      "outputs": [
        {
          "internalType": "uint256",
          "name": "priceWEI",
          "type": "uint256"
        },
        {
          "internalType": "uint256",
          "name": "amount",
          "type": "uint256"
        },
        {
          "internalType": "uint256",
          "name": "percentFee",
          "type": "uint256"
        },
        {
          "internalType": "address",
          "name": "seller",
          "type": "address"
        },
        {
          "internalType": "address",
          "name": "buyer",
          "type": "address"
        },
        {
          "internalType": "bool",
          "name": "sellerAccepted",
          "type": "bool"
        }
      ],
      "stateMutability": "view",
      "type": "function"
    },
    {
      "inputs": [
        {
          "internalType": "address",
          "name": "_NFTAddress",
          "type": "address"
        },
        {
          "internalType": "address",
          "name": "_seller",
          "type": "address"
        },
        {
          "internalType": "uint256",
          "name": "_tokenID",
          "type": "uint256"
        },
        {
          "internalType": "bool",
          "name": "isAccepted",
          "type": "bool"
        }
      ],
      "name": "acceptOrder",
      "outputs": [],
      "stateMutability": "nonpayable",
      "type": "function"
    },
    {
      "inputs": [
        {
          "internalType": "address",
          "name": "_NFTAddress",
          "type": "address"
        },
        {
          "internalType": "uint256",
          "name": "_tokenID",
          "type": "uint256"
        },
        {
          "internalType": "uint256",
          "name": "_amount",
          "type": "uint256"
        },
        {
          "internalType": "uint256",
          "name": "_priceWEI",
          "type": "uint256"
        }
      ],
      "name": "addOrder",
      "outputs": [],
      "stateMutability": "nonpayable",
      "type": "function"
    },
    {
      "inputs": [
        {
          "internalType": "address",
          "name": "_NFTAddress",
          "type": "address"
        },
        {
          "internalType": "address",
          "name": "_seller",
          "type": "address"
        },
        {
          "internalType": "uint256",
          "name": "_tokenID",
          "type": "uint256"
        }
      ],
      "name": "declineOrder",
      "outputs": [],
      "stateMutability": "nonpayable",
      "type": "function"
    },
    {
      "inputs": [
        {
          "internalType": "address",
          "name": "_NFTAddress",
          "type": "address"
        },
        {
          "internalType": "address",
          "name": "_seller",
          "type": "address"
        },
        {
          "internalType": "uint256",
          "name": "_tokenID",
          "type": "uint256"
        }
      ],
      "name": "finishAuction",
      "outputs": [],
      "stateMutability": "nonpayable",
      "type": "function"
    },
    {
      "inputs": [
        {
          "internalType": "address",
          "name": "_NFTAddress",
          "type": "address"
        },
        {
          "internalType": "address",
          "name": "_seller",
          "type": "address"
        },
        {
          "internalType": "uint256",
          "name": "_tokenID",
          "type": "uint256"
        }
      ],
      "name": "initializeOrder",
      "outputs": [],
      "stateMutability": "nonpayable",
      "type": "function"
    },
    {
      "inputs": [
        {
          "internalType": "address",
          "name": "_NFTAddress",
          "type": "address"
        },
        {
          "internalType": "address",
          "name": "_seller",
          "type": "address"
        },
        {
          "internalType": "uint256",
          "name": "_tokenID",
          "type": "uint256"
        }
      ],
      "name": "makeBid",
      "outputs": [],
      "stateMutability": "payable",
      "type": "function"
    },
    {
      "inputs": [],
      "name": "minimumAuctionTime",
      "outputs": [
        {
          "internalType": "uint256",
          "name": "",
          "type": "uint256"
        }
      ],
      "stateMutability": "view",
      "type": "function"
    },
    {
      "inputs": [
        {
          "internalType": "address",
          "name": "",
          "type": "address"
        },
        {
          "internalType": "address",
          "name": "",
          "type": "address"
        },
        {
          "internalType": "uint256",
          "name": "",
          "type": "uint256"
        },
        {
          "internalType": "uint256",
          "name": "",
          "type": "uint256"
        },
        {
          "internalType": "bytes",
          "name": "",
          "type": "bytes"
        }
      ],
      "name": "onERC1155Received",
      "outputs": [
        {
          "internalType": "bytes4",
          "name": "",
          "type": "bytes4"
        }
      ],
      "stateMutability": "pure",
      "type": "function"
    },
    {
      "inputs": [],
      "name": "owner",
      "outputs": [
        {
          "internalType": "address",
          "name": "",
          "type": "address"
        }
      ],
      "stateMutability": "view",
      "type": "function"
    },
    {
      "inputs": [],
      "name": "percentDecimals",
      "outputs": [
        {
          "internalType": "uint256",
          "name": "",
          "type": "uint256"
        }
      ],
      "stateMutability": "view",
      "type": "function"
    },
    {
      "inputs": [
        {
          "internalType": "address",
          "name": "_NFTAddress",
          "type": "address"
        },
        {
          "internalType": "address",
          "name": "_seller",
          "type": "address"
        },
        {
          "internalType": "uint256",
          "name": "_tokenID",
          "type": "uint256"
        }
      ],
      "name": "redeemOrder",
      "outputs": [],
      "stateMutability": "payable",
      "type": "function"
    },
    {
      "inputs": [
        {
          "internalType": "address",
          "name": "_NFTAddress",
          "type": "address"
        },
        {
          "internalType": "uint256",
          "name": "_tokenID",
          "type": "uint256"
        }
      ],
      "name": "removeOrder",
      "outputs": [],
      "stateMutability": "nonpayable",
      "type": "function"
    },
    {
      "inputs": [
        {
          "internalType": "uint256",
          "name": "timeInSeconds",
          "type": "uint256"
        }
      ],
      "name": "setMinimalAuctionTime",
      "outputs": [],
      "stateMutability": "nonpayable",
      "type": "function"
    },
    {
      "inputs": [
        {
          "internalType": "address",
          "name": "_NFTAddress",
          "type": "address"
        },
        {
          "internalType": "uint256",
          "name": "_tokenID",
          "type": "uint256"
        },
        {
          "internalType": "uint256",
          "name": "amount",
          "type": "uint256"
        },
        {
          "internalType": "uint256",
          "name": "initialPrice",
          "type": "uint256"
        },
        {
          "internalType": "uint256",
          "name": "secondsToEnd",
          "type": "uint256"
        }
      ],
      "name": "startAuction",
      "outputs": [],
      "stateMutability": "nonpayable",
      "type": "function"
    }
  ],
  "bytecode": "0x60806040526202a30060015534801561001757600080fd5b50336000806101000a81548173ffffffffffffffffffffffffffffffffffffffff021916908373ffffffffffffffffffffffffffffffffffffffff1602179055506001600281905550614a3f8061006f6000396000f3fe6080604052600436106100f35760003560e01c80638da5cb5b1161008a578063e468564711610059578063e468564714610300578063ed332d4b14610329578063f23a6e6114610352578063f75195bc1461038f576100f3565b80638da5cb5b14610258578063980dc48214610283578063a3ce9c99146102ac578063a640cd26146102d7576100f3565b806353e90922116100c657806353e90922146101c15780635a4f0429146101ea57806364258108146102065780636dd2ac841461022f576100f3565b8063013f84eb146100f857806320ea3b381461013a578063487800751461015657806351f5b01014610198575b600080fd5b34801561010457600080fd5b5061011f600480360381019061011a9190613533565b6103ba565b604051610131969594939291906135bf565b60405180910390f35b610154600480360381019061014f9190613533565b61045d565b005b34801561016257600080fd5b5061017d60048036038101906101789190613533565b6108b1565b60405161018f96959493929190613620565b60405180910390f35b3480156101a457600080fd5b506101bf60048036038101906101ba9190613681565b610947565b005b3480156101cd57600080fd5b506101e860048036038101906101e39190613533565b6109df565b005b61020460048036038101906101ff9190613533565b6110f4565b005b34801561021257600080fd5b5061022d600480360381019061022891906136ae565b611415565b005b34801561023b57600080fd5b50610256600480360381019061025191906136ee565b6117d5565b005b34801561026457600080fd5b5061026d611d97565b60405161027a9190613769565b60405180910390f35b34801561028f57600080fd5b506102aa60048036038101906102a59190613784565b611dbb565b005b3480156102b857600080fd5b506102c161232c565b6040516102ce91906137eb565b60405180910390f35b3480156102e357600080fd5b506102fe60048036038101906102f99190613533565b612332565b005b34801561030c57600080fd5b5061032760048036038101906103229190613832565b61283f565b005b34801561033557600080fd5b50610350600480360381019061034b9190613533565b612de6565b005b34801561035e57600080fd5b50610379600480360381019061037491906139df565b613471565b6040516103869190613ab1565b60405180910390f35b34801561039b57600080fd5b506103a4613486565b6040516103b191906137eb565b60405180910390f35b600360205282600052604060002060205281600052604060002060205280600052604060002060009250925050508060000154908060010154908060020154908060030160009054906101000a900473ffffffffffffffffffffffffffffffffffffffff16908060040160009054906101000a900473ffffffffffffffffffffffffffffffffffffffff16908060040160149054906101000a900460ff16905086565b6002805414156104a2576040517f08c379a000000000000000000000000000000000000000000000000000000000815260040161049990613b29565b60405180910390fd5b600280819055506000600460008573ffffffffffffffffffffffffffffffffffffffff1673ffffffffffffffffffffffffffffffffffffffff16815260200190815260200160002060008473ffffffffffffffffffffffffffffffffffffffff1673ffffffffffffffffffffffffffffffffffffffff16815260200190815260200160002060008381526020019081526020016000209050600073ffffffffffffffffffffffffffffffffffffffff168160050160009054906101000a900473ffffffffffffffffffffffffffffffffffffffff1673ffffffffffffffffffffffffffffffffffffffff1614156105ce576040517f08c379a00000000000000000000000000000000000000000000000000000000081526004016105c590613b95565b60405180910390fd5b42816003015411610614576040517f08c379a000000000000000000000000000000000000000000000000000000000815260040161060b90613c01565b60405180910390fd5b8060000154341161065a576040517f08c379a000000000000000000000000000000000000000000000000000000000815260040161065190613c6d565b60405180910390fd5b60008160040160009054906101000a900473ffffffffffffffffffffffffffffffffffffffff1673ffffffffffffffffffffffffffffffffffffffff1682600001546040516106a890613cbe565b60006040518083038185875af1925050503d80600081146106e5576040519150601f19603f3d011682016040523d82523d6000602084013e6106ea565b606091505b5050905033600460008773ffffffffffffffffffffffffffffffffffffffff1673ffffffffffffffffffffffffffffffffffffffff16815260200190815260200160002060008673ffffffffffffffffffffffffffffffffffffffff1673ffffffffffffffffffffffffffffffffffffffff168152602001908152602001600020600085815260200190815260200160002060040160006101000a81548173ffffffffffffffffffffffffffffffffffffffff021916908373ffffffffffffffffffffffffffffffffffffffff16021790555034600460008773ffffffffffffffffffffffffffffffffffffffff1673ffffffffffffffffffffffffffffffffffffffff16815260200190815260200160002060008673ffffffffffffffffffffffffffffffffffffffff1673ffffffffffffffffffffffffffffffffffffffff16815260200190815260200160002060008581526020019081526020016000206000018190555034838673ffffffffffffffffffffffffffffffffffffffff167ff55a9da92fe40249e7abdef5640767ab756c64d43a9bd4a615b45f9daf13cdfe3360405161089a9190613769565b60405180910390a450506001600281905550505050565b600460205282600052604060002060205281600052604060002060205280600052604060002060009250925050508060000154908060010154908060020154908060030154908060040160009054906101000a900473ffffffffffffffffffffffffffffffffffffffff16908060050160009054906101000a900473ffffffffffffffffffffffffffffffffffffffff16905086565b60008054906101000a900473ffffffffffffffffffffffffffffffffffffffff1673ffffffffffffffffffffffffffffffffffffffff163373ffffffffffffffffffffffffffffffffffffffff16146109d5576040517f08c379a00000000000000000000000000000000000000000000000000000000081526004016109cc90613d1f565b60405180910390fd5b8060018190555050565b600280541415610a24576040517f08c379a0000000000000000000000000000000000000000000000000000000008152600401610a1b90613b29565b60405180910390fd5b600280819055506000600460008573ffffffffffffffffffffffffffffffffffffffff1673ffffffffffffffffffffffffffffffffffffffff16815260200190815260200160002060008473ffffffffffffffffffffffffffffffffffffffff1673ffffffffffffffffffffffffffffffffffffffff1681526020019081526020016000206000838152602001908152602001600020905042816003015410610b02576040517f08c379a0000000000000000000000000000000000000000000000000000000008152600401610af990613d8b565b60405180910390fd5b600073ffffffffffffffffffffffffffffffffffffffff168160040160009054906101000a900473ffffffffffffffffffffffffffffffffffffffff1673ffffffffffffffffffffffffffffffffffffffff161415610c30578373ffffffffffffffffffffffffffffffffffffffff1663f242432a308360050160009054906101000a900473ffffffffffffffffffffffffffffffffffffffff168585600101546040518060400160405280600181526020017f30000000000000000000000000000000000000000000000000000000000000008152506040518663ffffffff1660e01b8152600401610bf9959493929190613e33565b600060405180830381600087803b158015610c1357600080fd5b505af1158015610c27573d6000803e3d6000fd5b50505050610f44565b600060026064610c409190613fef565b82600201548360000154610c54919061403a565b610c5e91906140c3565b90506000818360000154610c7291906140f4565b905060008360050160009054906101000a900473ffffffffffffffffffffffffffffffffffffffff1673ffffffffffffffffffffffffffffffffffffffff1682604051610cbe90613cbe565b60006040518083038185875af1925050503d8060008114610cfb576040519150601f19603f3d011682016040523d82523d6000602084013e610d00565b606091505b5050905080610d44576040517f08c379a0000000000000000000000000000000000000000000000000000000008152600401610d3b90614174565b60405180910390fd5b60008773ffffffffffffffffffffffffffffffffffffffff16638da5cb5b6040518163ffffffff1660e01b8152600401602060405180830381600087803b158015610d8e57600080fd5b505af1158015610da2573d6000803e3d6000fd5b505050506040513d601f19601f82011682018060405250810190610dc691906141a9565b73ffffffffffffffffffffffffffffffffffffffff1684604051610de990613cbe565b60006040518083038185875af1925050503d8060008114610e26576040519150601f19603f3d011682016040523d82523d6000602084013e610e2b565b606091505b5050905080610e6f576040517f08c379a0000000000000000000000000000000000000000000000000000000008152600401610e6690614248565b60405180910390fd5b8773ffffffffffffffffffffffffffffffffffffffff1663f242432a308760040160009054906101000a900473ffffffffffffffffffffffffffffffffffffffff168989600101546040518060400160405280600181526020017f30000000000000000000000000000000000000000000000000000000000000008152506040518663ffffffff1660e01b8152600401610f0d959493929190613e33565b600060405180830381600087803b158015610f2757600080fd5b505af1158015610f3b573d6000803e3d6000fd5b50505050505050505b8060010154828573ffffffffffffffffffffffffffffffffffffffff167f13e78ebbdddce8cd236b1c3825d2a587d691544989c5dde2380b44d5aa508d0184600001548560050160009054906101000a900473ffffffffffffffffffffffffffffffffffffffff168660040160009054906101000a900473ffffffffffffffffffffffffffffffffffffffff16604051610fe093929190614268565b60405180910390a4600460008573ffffffffffffffffffffffffffffffffffffffff1673ffffffffffffffffffffffffffffffffffffffff16815260200190815260200160002060008473ffffffffffffffffffffffffffffffffffffffff1673ffffffffffffffffffffffffffffffffffffffff16815260200190815260200160002060008381526020019081526020016000206000808201600090556001820160009055600282016000905560038201600090556004820160006101000a81549073ffffffffffffffffffffffffffffffffffffffff02191690556005820160006101000a81549073ffffffffffffffffffffffffffffffffffffffff02191690555050506001600281905550505050565b600360008473ffffffffffffffffffffffffffffffffffffffff1673ffffffffffffffffffffffffffffffffffffffff16815260200190815260200160002060008373ffffffffffffffffffffffffffffffffffffffff1673ffffffffffffffffffffffffffffffffffffffff1681526020019081526020016000206000828152602001908152602001600020600001543410156111c7576040517f08c379a00000000000000000000000000000000000000000000000000000000081526004016111be906142eb565b60405180910390fd5b600073ffffffffffffffffffffffffffffffffffffffff16600360008573ffffffffffffffffffffffffffffffffffffffff1673ffffffffffffffffffffffffffffffffffffffff16815260200190815260200160002060008473ffffffffffffffffffffffffffffffffffffffff1673ffffffffffffffffffffffffffffffffffffffff168152602001908152602001600020600083815260200190815260200160002060040160009054906101000a900473ffffffffffffffffffffffffffffffffffffffff1673ffffffffffffffffffffffffffffffffffffffff16146112e6576040517f08c379a00000000000000000000000000000000000000000000000000000000081526004016112dd90614357565b60405180910390fd5b33600360008573ffffffffffffffffffffffffffffffffffffffff1673ffffffffffffffffffffffffffffffffffffffff16815260200190815260200160002060008473ffffffffffffffffffffffffffffffffffffffff1673ffffffffffffffffffffffffffffffffffffffff168152602001908152602001600020600083815260200190815260200160002060040160006101000a81548173ffffffffffffffffffffffffffffffffffffffff021916908373ffffffffffffffffffffffffffffffffffffffff1602179055503373ffffffffffffffffffffffffffffffffffffffff16818473ffffffffffffffffffffffffffffffffffffffff167f0c7ca24b1124503bba6041e71434dc779cd45f5af108f3fad77abd2535796ee060405160405180910390a4505050565b6000600360008473ffffffffffffffffffffffffffffffffffffffff1673ffffffffffffffffffffffffffffffffffffffff16815260200190815260200160002060003373ffffffffffffffffffffffffffffffffffffffff1673ffffffffffffffffffffffffffffffffffffffff168152602001908152602001600020600083815260200190815260200160002090508060030160009054906101000a900473ffffffffffffffffffffffffffffffffffffffff1673ffffffffffffffffffffffffffffffffffffffff163373ffffffffffffffffffffffffffffffffffffffff1614611538576040517f08c379a000000000000000000000000000000000000000000000000000000000815260040161152f906143c3565b60405180910390fd5b600073ffffffffffffffffffffffffffffffffffffffff168160040160009054906101000a900473ffffffffffffffffffffffffffffffffffffffff1673ffffffffffffffffffffffffffffffffffffffff16146115cb576040517f08c379a00000000000000000000000000000000000000000000000000000000081526004016115c290614455565b60405180910390fd5b8273ffffffffffffffffffffffffffffffffffffffff1663f242432a30338585600101546040518060400160405280600181526020017f30000000000000000000000000000000000000000000000000000000000000008152506040518663ffffffff1660e01b8152600401611645959493929190613e33565b600060405180830381600087803b15801561165f57600080fd5b505af1158015611673573d6000803e3d6000fd5b50505050600360008473ffffffffffffffffffffffffffffffffffffffff1673ffffffffffffffffffffffffffffffffffffffff16815260200190815260200160002060003373ffffffffffffffffffffffffffffffffffffffff1673ffffffffffffffffffffffffffffffffffffffff1681526020019081526020016000206000838152602001908152602001600020600080820160009055600182016000905560028201600090556003820160006101000a81549073ffffffffffffffffffffffffffffffffffffffff02191690556004820160006101000a81549073ffffffffffffffffffffffffffffffffffffffff02191690556004820160146101000a81549060ff02191690555050818373ffffffffffffffffffffffffffffffffffffffff167fdbca7392797a73097a0aa25c89f3e452fea76affdbb7c16d17240b7fe9e34bd2336040516117c89190613769565b60405180910390a3505050565b600073ffffffffffffffffffffffffffffffffffffffff16600460008773ffffffffffffffffffffffffffffffffffffffff1673ffffffffffffffffffffffffffffffffffffffff16815260200190815260200160002060003373ffffffffffffffffffffffffffffffffffffffff1673ffffffffffffffffffffffffffffffffffffffff168152602001908152602001600020600086815260200190815260200160002060050160009054906101000a900473ffffffffffffffffffffffffffffffffffffffff1673ffffffffffffffffffffffffffffffffffffffff16146118f4576040517f08c379a00000000000000000000000000000000000000000000000000000000081526004016118eb906144c1565b60405180910390fd5b8473ffffffffffffffffffffffffffffffffffffffff1663f242432a333087876040518060400160405280600181526020017f30000000000000000000000000000000000000000000000000000000000000008152506040518663ffffffff1660e01b815260040161196a959493929190613e33565b600060405180830381600087803b15801561198457600080fd5b505af1158015611998573d6000803e3d6000fd5b505050506127108210156119e1576040517f08c379a00000000000000000000000000000000000000000000000000000000081526004016119d890614553565b60405180910390fd5b600154811015611a26576040517f08c379a0000000000000000000000000000000000000000000000000000000008152600401611a1d906145e5565b60405180910390fd5b81600460008773ffffffffffffffffffffffffffffffffffffffff1673ffffffffffffffffffffffffffffffffffffffff16815260200190815260200160002060003373ffffffffffffffffffffffffffffffffffffffff1673ffffffffffffffffffffffffffffffffffffffff1681526020019081526020016000206000868152602001908152602001600020600001819055508473ffffffffffffffffffffffffffffffffffffffff16634c1a41156040518163ffffffff1660e01b8152600401602060405180830381600087803b158015611b0357600080fd5b505af1158015611b17573d6000803e3d6000fd5b505050506040513d601f19601f82011682018060405250810190611b3b919061461a565b600460008773ffffffffffffffffffffffffffffffffffffffff1673ffffffffffffffffffffffffffffffffffffffff16815260200190815260200160002060003373ffffffffffffffffffffffffffffffffffffffff1673ffffffffffffffffffffffffffffffffffffffff16815260200190815260200160002060008681526020019081526020016000206002018190555033600460008773ffffffffffffffffffffffffffffffffffffffff1673ffffffffffffffffffffffffffffffffffffffff16815260200190815260200160002060003373ffffffffffffffffffffffffffffffffffffffff1673ffffffffffffffffffffffffffffffffffffffff168152602001908152602001600020600086815260200190815260200160002060050160006101000a81548173ffffffffffffffffffffffffffffffffffffffff021916908373ffffffffffffffffffffffffffffffffffffffff1602179055508042611caa9190614647565b600460008773ffffffffffffffffffffffffffffffffffffffff1673ffffffffffffffffffffffffffffffffffffffff16815260200190815260200160002060003373ffffffffffffffffffffffffffffffffffffffff1673ffffffffffffffffffffffffffffffffffffffff16815260200190815260200160002060008681526020019081526020016000206003018190555082848673ffffffffffffffffffffffffffffffffffffffff167f53be0ff475541da60204774d183a907034a7182d5f18b72ae177249ad2d8b1b68533604051611d8892919061469d565b60405180910390a45050505050565b60008054906101000a900473ffffffffffffffffffffffffffffffffffffffff1681565b600073ffffffffffffffffffffffffffffffffffffffff16600360008673ffffffffffffffffffffffffffffffffffffffff1673ffffffffffffffffffffffffffffffffffffffff16815260200190815260200160002060003373ffffffffffffffffffffffffffffffffffffffff1673ffffffffffffffffffffffffffffffffffffffff168152602001908152602001600020600085815260200190815260200160002060030160009054906101000a900473ffffffffffffffffffffffffffffffffffffffff1673ffffffffffffffffffffffffffffffffffffffff1614611eda576040517f08c379a0000000000000000000000000000000000000000000000000000000008152600401611ed190614712565b60405180910390fd5b612710811015611f1f576040517f08c379a0000000000000000000000000000000000000000000000000000000008152600401611f1690614553565b60405180910390fd5b8373ffffffffffffffffffffffffffffffffffffffff1663f242432a333086866040518060400160405280600181526020017f30000000000000000000000000000000000000000000000000000000000000008152506040518663ffffffff1660e01b8152600401611f95959493929190613e33565b600060405180830381600087803b158015611faf57600080fd5b505af1158015611fc3573d6000803e3d6000fd5b5050505080600360008673ffffffffffffffffffffffffffffffffffffffff1673ffffffffffffffffffffffffffffffffffffffff16815260200190815260200160002060003373ffffffffffffffffffffffffffffffffffffffff1673ffffffffffffffffffffffffffffffffffffffff16815260200190815260200160002060008581526020019081526020016000206000018190555081600360008673ffffffffffffffffffffffffffffffffffffffff1673ffffffffffffffffffffffffffffffffffffffff16815260200190815260200160002060003373ffffffffffffffffffffffffffffffffffffffff1673ffffffffffffffffffffffffffffffffffffffff16815260200190815260200160002060008581526020019081526020016000206001018190555033600360008673ffffffffffffffffffffffffffffffffffffffff1673ffffffffffffffffffffffffffffffffffffffff16815260200190815260200160002060003373ffffffffffffffffffffffffffffffffffffffff1673ffffffffffffffffffffffffffffffffffffffff168152602001908152602001600020600085815260200190815260200160002060030160006101000a81548173ffffffffffffffffffffffffffffffffffffffff021916908373ffffffffffffffffffffffffffffffffffffffff1602179055508373ffffffffffffffffffffffffffffffffffffffff16634c1a41156040518163ffffffff1660e01b8152600401602060405180830381600087803b15801561220857600080fd5b505af115801561221c573d6000803e3d6000fd5b505050506040513d601f19601f82011682018060405250810190612240919061461a565b600360008673ffffffffffffffffffffffffffffffffffffffff1673ffffffffffffffffffffffffffffffffffffffff16815260200190815260200160002060003373ffffffffffffffffffffffffffffffffffffffff1673ffffffffffffffffffffffffffffffffffffffff16815260200190815260200160002060008581526020019081526020016000206002018190555081838573ffffffffffffffffffffffffffffffffffffffff167f6516318793ae428fbd4dc84657ab85e05798f59d0cff1959a8326308e0b306e1843360405161231e92919061469d565b60405180910390a450505050565b60015481565b600280541415612377576040517f08c379a000000000000000000000000000000000000000000000000000000000815260040161236e90613b29565b60405180910390fd5b600280819055506000600360008573ffffffffffffffffffffffffffffffffffffffff1673ffffffffffffffffffffffffffffffffffffffff16815260200190815260200160002060008473ffffffffffffffffffffffffffffffffffffffff1673ffffffffffffffffffffffffffffffffffffffff168152602001908152602001600020600083815260200190815260200160002090508060040160009054906101000a900473ffffffffffffffffffffffffffffffffffffffff1673ffffffffffffffffffffffffffffffffffffffff163373ffffffffffffffffffffffffffffffffffffffff1614806124bc57508060030160009054906101000a900473ffffffffffffffffffffffffffffffffffffffff1673ffffffffffffffffffffffffffffffffffffffff163373ffffffffffffffffffffffffffffffffffffffff16145b6124fb576040517f08c379a00000000000000000000000000000000000000000000000000000000081526004016124f29061477e565b60405180910390fd5b600073ffffffffffffffffffffffffffffffffffffffff168160040160009054906101000a900473ffffffffffffffffffffffffffffffffffffffff1673ffffffffffffffffffffffffffffffffffffffff16141561258f576040517f08c379a0000000000000000000000000000000000000000000000000000000008152600401612586906147ea565b60405180910390fd5b60008160040160009054906101000a900473ffffffffffffffffffffffffffffffffffffffff1673ffffffffffffffffffffffffffffffffffffffff1682600001546040516125dd90613cbe565b60006040518083038185875af1925050503d806000811461261a576040519150601f19603f3d011682016040523d82523d6000602084013e61261f565b606091505b5050905080612663576040517f08c379a000000000000000000000000000000000000000000000000000000000815260040161265a90614856565b60405180910390fd5b6000600360008773ffffffffffffffffffffffffffffffffffffffff1673ffffffffffffffffffffffffffffffffffffffff16815260200190815260200160002060008673ffffffffffffffffffffffffffffffffffffffff1673ffffffffffffffffffffffffffffffffffffffff168152602001908152602001600020600085815260200190815260200160002060040160006101000a81548173ffffffffffffffffffffffffffffffffffffffff021916908373ffffffffffffffffffffffffffffffffffffffff1602179055506000600360008773ffffffffffffffffffffffffffffffffffffffff1673ffffffffffffffffffffffffffffffffffffffff16815260200190815260200160002060008673ffffffffffffffffffffffffffffffffffffffff1673ffffffffffffffffffffffffffffffffffffffff168152602001908152602001600020600085815260200190815260200160002060040160146101000a81548160ff0219169083151502179055508160000154838673ffffffffffffffffffffffffffffffffffffffff167f06433623dabc499df7ce61a748d2e87f479d33730ea18afce715128efcb7fd8c336040516128289190613769565b60405180910390a450506001600281905550505050565b600280541415612884576040517f08c379a000000000000000000000000000000000000000000000000000000000815260040161287b90613b29565b60405180910390fd5b600280819055506000600360008673ffffffffffffffffffffffffffffffffffffffff1673ffffffffffffffffffffffffffffffffffffffff16815260200190815260200160002060008573ffffffffffffffffffffffffffffffffffffffff1673ffffffffffffffffffffffffffffffffffffffff168152602001908152602001600020600084815260200190815260200160002060040160009054906101000a900473ffffffffffffffffffffffffffffffffffffffff169050600360008673ffffffffffffffffffffffffffffffffffffffff1673ffffffffffffffffffffffffffffffffffffffff16815260200190815260200160002060008573ffffffffffffffffffffffffffffffffffffffff1673ffffffffffffffffffffffffffffffffffffffff168152602001908152602001600020600084815260200190815260200160002060030160009054906101000a900473ffffffffffffffffffffffffffffffffffffffff1673ffffffffffffffffffffffffffffffffffffffff163373ffffffffffffffffffffffffffffffffffffffff1614612a5e576040517f08c379a0000000000000000000000000000000000000000000000000000000008152600401612a55906143c3565b60405180910390fd5b600073ffffffffffffffffffffffffffffffffffffffff168173ffffffffffffffffffffffffffffffffffffffff161415612ace576040517f08c379a0000000000000000000000000000000000000000000000000000000008152600401612ac5906148c2565b60405180910390fd5b8115612b82576001600360008773ffffffffffffffffffffffffffffffffffffffff1673ffffffffffffffffffffffffffffffffffffffff16815260200190815260200160002060008673ffffffffffffffffffffffffffffffffffffffff1673ffffffffffffffffffffffffffffffffffffffff168152602001908152602001600020600085815260200190815260200160002060040160146101000a81548160ff021916908315150217905550612d90565b60008173ffffffffffffffffffffffffffffffffffffffff16600360008873ffffffffffffffffffffffffffffffffffffffff1673ffffffffffffffffffffffffffffffffffffffff16815260200190815260200160002060008773ffffffffffffffffffffffffffffffffffffffff1673ffffffffffffffffffffffffffffffffffffffff168152602001908152602001600020600086815260200190815260200160002060000154604051612c3890613cbe565b60006040518083038185875af1925050503d8060008114612c75576040519150601f19603f3d011682016040523d82523d6000602084013e612c7a565b606091505b5050905080612cbe576040517f08c379a0000000000000000000000000000000000000000000000000000000008152600401612cb590614856565b60405180910390fd5b6000600360008873ffffffffffffffffffffffffffffffffffffffff1673ffffffffffffffffffffffffffffffffffffffff16815260200190815260200160002060008773ffffffffffffffffffffffffffffffffffffffff1673ffffffffffffffffffffffffffffffffffffffff168152602001908152602001600020600086815260200190815260200160002060040160006101000a81548173ffffffffffffffffffffffffffffffffffffffff021916908373ffffffffffffffffffffffffffffffffffffffff160217905550505b811515838673ffffffffffffffffffffffffffffffffffffffff167fd8ea04489f9337d4911713fe8a708db8b965cacf229c114ef449ff5b8a98685460405160405180910390a450600160028190555050505050565b600280541415612e2b576040517f08c379a0000000000000000000000000000000000000000000000000000000008152600401612e2290613b29565b60405180910390fd5b600280819055506000600360008573ffffffffffffffffffffffffffffffffffffffff1673ffffffffffffffffffffffffffffffffffffffff16815260200190815260200160002060008473ffffffffffffffffffffffffffffffffffffffff1673ffffffffffffffffffffffffffffffffffffffff168152602001908152602001600020600083815260200190815260200160002090508060040160149054906101000a900460ff16612f14576040517f08c379a0000000000000000000000000000000000000000000000000000000008152600401612f0b9061492e565b60405180910390fd5b600073ffffffffffffffffffffffffffffffffffffffff168160040160009054906101000a900473ffffffffffffffffffffffffffffffffffffffff1673ffffffffffffffffffffffffffffffffffffffff161415612fa8576040517f08c379a0000000000000000000000000000000000000000000000000000000008152600401612f9f906148c2565b60405180910390fd5b600060026064612fb89190613fef565b82600201548360000154612fcc919061403a565b612fd691906140c3565b90506000818360000154612fea91906140f4565b905060008673ffffffffffffffffffffffffffffffffffffffff16638da5cb5b6040518163ffffffff1660e01b8152600401602060405180830381600087803b15801561303657600080fd5b505af115801561304a573d6000803e3d6000fd5b505050506040513d601f19601f8201168201806040525081019061306e91906141a9565b73ffffffffffffffffffffffffffffffffffffffff168360405161309190613cbe565b60006040518083038185875af1925050503d80600081146130ce576040519150601f19603f3d011682016040523d82523d6000602084013e6130d3565b606091505b5050905080613117576040517f08c379a000000000000000000000000000000000000000000000000000000000815260040161310e906149c0565b60405180910390fd5b60008460030160009054906101000a900473ffffffffffffffffffffffffffffffffffffffff1673ffffffffffffffffffffffffffffffffffffffff168360405161316190613cbe565b60006040518083038185875af1925050503d806000811461319e576040519150601f19603f3d011682016040523d82523d6000602084013e6131a3565b606091505b50509050806131e7576040517f08c379a00000000000000000000000000000000000000000000000000000000081526004016131de90614174565b60405180910390fd5b8773ffffffffffffffffffffffffffffffffffffffff1663f242432a308760040160009054906101000a900473ffffffffffffffffffffffffffffffffffffffff168989600101546040518060400160405280600181526020017f30000000000000000000000000000000000000000000000000000000000000008152506040518663ffffffff1660e01b8152600401613285959493929190613e33565b600060405180830381600087803b15801561329f57600080fd5b505af11580156132b3573d6000803e3d6000fd5b505050508460010154868973ffffffffffffffffffffffffffffffffffffffff167f9c32d0a55ae7e18796346c9740b370415b745a328de50bb9206047857c58d7078860030160009054906101000a900473ffffffffffffffffffffffffffffffffffffffff168960040160009054906101000a900473ffffffffffffffffffffffffffffffffffffffff1660405161334d9291906149e0565b60405180910390a4600360008973ffffffffffffffffffffffffffffffffffffffff1673ffffffffffffffffffffffffffffffffffffffff16815260200190815260200160002060008873ffffffffffffffffffffffffffffffffffffffff1673ffffffffffffffffffffffffffffffffffffffff1681526020019081526020016000206000878152602001908152602001600020600080820160009055600182016000905560028201600090556003820160006101000a81549073ffffffffffffffffffffffffffffffffffffffff02191690556004820160006101000a81549073ffffffffffffffffffffffffffffffffffffffff02191690556004820160146101000a81549060ff0219169055505050505050506001600281905550505050565b600063f23a6e6160e01b905095945050505050565b600281565b6000604051905090565b600080fd5b600080fd5b600073ffffffffffffffffffffffffffffffffffffffff82169050919050565b60006134ca8261349f565b9050919050565b6134da816134bf565b81146134e557600080fd5b50565b6000813590506134f7816134d1565b92915050565b6000819050919050565b613510816134fd565b811461351b57600080fd5b50565b60008135905061352d81613507565b92915050565b60008060006060848603121561354c5761354b613495565b5b600061355a868287016134e8565b935050602061356b868287016134e8565b925050604061357c8682870161351e565b9150509250925092565b61358f816134fd565b82525050565b61359e816134bf565b82525050565b60008115159050919050565b6135b9816135a4565b82525050565b600060c0820190506135d46000830189613586565b6135e16020830188613586565b6135ee6040830187613586565b6135fb6060830186613595565b6136086080830185613595565b61361560a08301846135b0565b979650505050505050565b600060c0820190506136356000830189613586565b6136426020830188613586565b61364f6040830187613586565b61365c6060830186613586565b6136696080830185613595565b61367660a0830184613595565b979650505050505050565b60006020828403121561369757613696613495565b5b60006136a58482850161351e565b91505092915050565b600080604083850312156136c5576136c4613495565b5b60006136d3858286016134e8565b92505060206136e48582860161351e565b9150509250929050565b600080600080600060a0868803121561370a57613709613495565b5b6000613718888289016134e8565b95505060206137298882890161351e565b945050604061373a8882890161351e565b935050606061374b8882890161351e565b925050608061375c8882890161351e565b9150509295509295909350565b600060208201905061377e6000830184613595565b92915050565b6000806000806080858703121561379e5761379d613495565b5b60006137ac878288016134e8565b94505060206137bd8782880161351e565b93505060406137ce8782880161351e565b92505060606137df8782880161351e565b91505092959194509250565b60006020820190506138006000830184613586565b92915050565b61380f816135a4565b811461381a57600080fd5b50565b60008135905061382c81613806565b92915050565b6000806000806080858703121561384c5761384b613495565b5b600061385a878288016134e8565b945050602061386b878288016134e8565b935050604061387c8782880161351e565b925050606061388d8782880161381d565b91505092959194509250565b600080fd5b600080fd5b6000601f19601f8301169050919050565b7f4e487b7100000000000000000000000000000000000000000000000000000000600052604160045260246000fd5b6138ec826138a3565b810181811067ffffffffffffffff8211171561390b5761390a6138b4565b5b80604052505050565b600061391e61348b565b905061392a82826138e3565b919050565b600067ffffffffffffffff82111561394a576139496138b4565b5b613953826138a3565b9050602081019050919050565b82818337600083830152505050565b600061398261397d8461392f565b613914565b90508281526020810184848401111561399e5761399d61389e565b5b6139a9848285613960565b509392505050565b600082601f8301126139c6576139c5613899565b5b81356139d684826020860161396f565b91505092915050565b600080600080600060a086880312156139fb576139fa613495565b5b6000613a09888289016134e8565b9550506020613a1a888289016134e8565b9450506040613a2b8882890161351e565b9350506060613a3c8882890161351e565b925050608086013567ffffffffffffffff811115613a5d57613a5c61349a565b5b613a69888289016139b1565b9150509295509295909350565b60007fffffffff0000000000000000000000000000000000000000000000000000000082169050919050565b613aab81613a76565b82525050565b6000602082019050613ac66000830184613aa2565b92915050565b600082825260208201905092915050565b7f5265656e7472616e637947756172643a207265656e7472616e742063616c6c00600082015250565b6000613b13601f83613acc565b9150613b1e82613add565b602082019050919050565b60006020820190508181036000830152613b4281613b06565b9050919050565b7f546f6b656e73206973206e6f74206f6e2073616c650000000000000000000000600082015250565b6000613b7f601583613acc565b9150613b8a82613b49565b602082019050919050565b60006020820190508181036000830152613bae81613b72565b9050919050565b7f41756374696f6e2074696d652070617373656400000000000000000000000000600082015250565b6000613beb601383613acc565b9150613bf682613bb5565b602082019050919050565b60006020820190508181036000830152613c1a81613bde565b9050919050565b7f426964206d75737420626520686967686572207468616e2070726576696f7573600082015250565b6000613c57602083613acc565b9150613c6282613c21565b602082019050919050565b60006020820190508181036000830152613c8681613c4a565b9050919050565b600081905092915050565b50565b6000613ca8600083613c8d565b9150613cb382613c98565b600082019050919050565b6000613cc982613c9b565b9150819050919050565b7f596f7520617265206e6f7420616e206f776e6572210000000000000000000000600082015250565b6000613d09601583613acc565b9150613d1482613cd3565b602082019050919050565b60006020820190508181036000830152613d3881613cfc565b9050919050565b7f41756374696f6e2074696d6520646964206e6f74207061737300000000000000600082015250565b6000613d75601983613acc565b9150613d8082613d3f565b602082019050919050565b60006020820190508181036000830152613da481613d68565b9050919050565b600081519050919050565b600082825260208201905092915050565b60005b83811015613de5578082015181840152602081019050613dca565b83811115613df4576000848401525b50505050565b6000613e0582613dab565b613e0f8185613db6565b9350613e1f818560208601613dc7565b613e28816138a3565b840191505092915050565b600060a082019050613e486000830188613595565b613e556020830187613595565b613e626040830186613586565b613e6f6060830185613586565b8181036080830152613e818184613dfa565b90509695505050505050565b7f4e487b7100000000000000000000000000000000000000000000000000000000600052601160045260246000fd5b60008160011c9050919050565b6000808291508390505b6001851115613f1357808604811115613eef57613eee613e8d565b5b6001851615613efe5780820291505b8081029050613f0c85613ebc565b9450613ed3565b94509492505050565b600082613f2c5760019050613fe8565b81613f3a5760009050613fe8565b8160018114613f505760028114613f5a57613f89565b6001915050613fe8565b60ff841115613f6c57613f6b613e8d565b5b8360020a915084821115613f8357613f82613e8d565b5b50613fe8565b5060208310610133831016604e8410600b8410161715613fbe5782820a905083811115613fb957613fb8613e8d565b5b613fe8565b613fcb8484846001613ec9565b92509050818404811115613fe257613fe1613e8d565b5b81810290505b9392505050565b6000613ffa826134fd565b9150614005836134fd565b92506140327fffffffffffffffffffffffffffffffffffffffffffffffffffffffffffffffff8484613f1c565b905092915050565b6000614045826134fd565b9150614050836134fd565b9250817fffffffffffffffffffffffffffffffffffffffffffffffffffffffffffffffff048311821515161561408957614088613e8d565b5b828202905092915050565b7f4e487b7100000000000000000000000000000000000000000000000000000000600052601260045260246000fd5b60006140ce826134fd565b91506140d9836134fd565b9250826140e9576140e8614094565b5b828204905092915050565b60006140ff826134fd565b915061410a836134fd565b92508282101561411d5761411c613e8d565b5b828203905092915050565b7f43616e206e6f742073656e642057454920746f2073656c6c6572000000000000600082015250565b600061415e601a83613acc565b915061416982614128565b602082019050919050565b6000602082019050818103600083015261418d81614151565b9050919050565b6000815190506141a3816134d1565b92915050565b6000602082840312156141bf576141be613495565b5b60006141cd84828501614194565b91505092915050565b7f43616e206e6f742073656e642057454920746f204e465420636f6e747261632060008201527f6f776e6572000000000000000000000000000000000000000000000000000000602082015250565b6000614232602583613acc565b915061423d826141d6565b604082019050919050565b6000602082019050818103600083015261426181614225565b9050919050565b600060608201905061427d6000830186613586565b61428a6020830185613595565b6142976040830184613595565b949350505050565b7f496e73756666696369656e742066756e647320746f2072656465656d00000000600082015250565b60006142d5601c83613acc565b91506142e08261429f565b602082019050919050565b60006020820190508181036000830152614304816142c8565b9050919050565b7f4f7264657220686173206265656e2066756e6465640000000000000000000000600082015250565b6000614341601583613acc565b915061434c8261430b565b602082019050919050565b6000602082019050818103600083015261437081614334565b9050919050565b7f596f7520617265206e6f7420612073656c6c6572000000000000000000000000600082015250565b60006143ad601483613acc565b91506143b882614377565b602082019050919050565b600060208201905081810360008301526143dc816143a0565b9050919050565b7f4f726465722069732066756e6465642c2066756e6473206d757374206265207260008201527f657475726e656400000000000000000000000000000000000000000000000000602082015250565b600061443f602783613acc565b915061444a826143e3565b604082019050919050565b6000602082019050818103600083015261446e81614432565b9050919050565b7f50726576696f75732061756374696f6e20646964206e6f7420656e6400000000600082015250565b60006144ab601c83613acc565b91506144b682614475565b602082019050919050565b600060208201905081810360008301526144da8161449e565b9050919050565b7f4d696e756d616c20707269636520666f722073616c652069732031303030302060008201527f5745490000000000000000000000000000000000000000000000000000000000602082015250565b600061453d602383613acc565b9150614548826144e1565b604082019050919050565b6000602082019050818103600083015261456c81614530565b9050919050565b7f54696d65206d757374206265206d6f7265207468656e206d696e696d616c206160008201527f756374696f6e2074696d65000000000000000000000000000000000000000000602082015250565b60006145cf602b83613acc565b91506145da82614573565b604082019050919050565b600060208201905081810360008301526145fe816145c2565b9050919050565b60008151905061461481613507565b92915050565b6000602082840312156146305761462f613495565b5b600061463e84828501614605565b91505092915050565b6000614652826134fd565b915061465d836134fd565b9250827fffffffffffffffffffffffffffffffffffffffffffffffffffffffffffffffff0382111561469257614691613e8d565b5b828201905092915050565b60006040820190506146b26000830185613586565b6146bf6020830184613595565b9392505050565b7f52656d6f766520796f75722070726576696f7573206f72646572000000000000600082015250565b60006146fc601a83613acc565b9150614707826146c6565b602082019050919050565b6000602082019050818103600083015261472b816146ef565b9050919050565b7f4f6e6c792073656c6c6572206f722062757965722063616e206465636c696e65600082015250565b6000614768602083613acc565b915061477382614732565b602082019050919050565b600060208201905081810360008301526147978161475b565b9050919050565b7f4e6f7468696e6720746f206465636c696e650000000000000000000000000000600082015250565b60006147d4601283613acc565b91506147df8261479e565b602082019050919050565b60006020820190508181036000830152614803816147c7565b9050919050565b7f43616e206e6f742073656e642057454920746f20627579657200000000000000600082015250565b6000614840601983613acc565b915061484b8261480a565b602082019050919050565b6000602082019050818103600083015261486f81614833565b9050919050565b7f4e6f6f6e652072656465656d7320616e206f7264657200000000000000000000600082015250565b60006148ac601683613acc565b91506148b782614876565b602082019050919050565b600060208201905081810360008301526148db8161489f565b9050919050565b7f53656c6c6572206469646e742061636365707420612074726164650000000000600082015250565b6000614918601b83613acc565b9150614923826148e2565b602082019050919050565b600060208201905081810360008301526149478161490b565b9050919050565b7f43616e206e6f742073656e642057454920746f204e465420636f6e747261637460008201527f206f776e65720000000000000000000000000000000000000000000000000000602082015250565b60006149aa602683613acc565b91506149b58261494e565b604082019050919050565b600060208201905081810360008301526149d98161499d565b9050919050565b60006040820190506149f56000830185613595565b614a026020830184613595565b939250505056fea264697066735822122062f58e27f93fb4247fcd1168731b36758a622ffe6a581c672fa38d88a07ddb6864736f6c63430008090033",
  "linkReferences": {},
  "deployedLinkReferences": {}
}