{
  "_format": "hh-sol-artifact-1",
  "contractName": "Marketplace1155",
  "sourceName": "contracts/Marketplace1155.sol",
  "abi": [
    {
      "inputs": [],
      "stateMutability": "nonpayable",
      "type": "constructor"
    },
    {
      "anonymous": false,
      "inputs": [
        {
          "indexed": true,
          "internalType": "address",
          "name": "NFTAddress",
          "type": "address"
        },
        {
          "indexed": true,
          "internalType": "uint256",
          "name": "auctionId",
          "type": "uint256"
        },
        {
          "indexed": true,
          "internalType": "address",
          "name": "bestBidder",
          "type": "address"
        },
        {
          "indexed": false,
          "internalType": "uint256",
          "name": "bestBid",
          "type": "uint256"
        },
        {
          "indexed": false,
          "internalType": "uint256",
          "name": "tokenId",
          "type": "uint256"
        },
        {
          "indexed": false,
          "internalType": "uint256",
          "name": "amount",
          "type": "uint256"
        }
      ],
      "name": "AuctionEnded",
      "type": "event"
    },
    {
      "anonymous": false,
      "inputs": [
        {
          "indexed": true,
          "internalType": "address",
          "name": "NFTAddress",
          "type": "address"
        },
        {
          "indexed": true,
          "internalType": "uint256",
          "name": "auctionId",
          "type": "uint256"
        },
        {
          "indexed": true,
          "internalType": "address",
          "name": "seller",
          "type": "address"
        },
        {
          "indexed": false,
          "internalType": "uint256",
          "name": "tokenId",
          "type": "uint256"
        },
        {
          "indexed": false,
          "internalType": "uint256",
          "name": "amount",
          "type": "uint256"
        },
        {
          "indexed": false,
          "internalType": "uint256",
          "name": "startPriceWEI",
          "type": "uint256"
        }
      ],
      "name": "AuctionStarted",
      "type": "event"
    },
    {
      "anonymous": false,
      "inputs": [
        {
          "indexed": true,
          "internalType": "address",
          "name": "NFTAddress",
          "type": "address"
        },
        {
          "indexed": true,
          "internalType": "uint256",
          "name": "auctionId",
          "type": "uint256"
        },
        {
          "indexed": true,
          "internalType": "address",
          "name": "bestBidder",
          "type": "address"
        },
        {
          "indexed": false,
          "internalType": "uint256",
          "name": "bestBid",
          "type": "uint256"
        }
      ],
      "name": "BibDone",
      "type": "event"
    },
    {
      "anonymous": false,
      "inputs": [
        {
          "indexed": true,
          "internalType": "address",
          "name": "NFTAddress",
          "type": "address"
        },
        {
          "indexed": true,
          "internalType": "uint256",
          "name": "orderId",
          "type": "uint256"
        },
        {
          "indexed": true,
          "internalType": "bool",
          "name": "accepted",
          "type": "bool"
        },
        {
          "indexed": false,
          "internalType": "address",
          "name": "buyer",
          "type": "address"
        }
      ],
      "name": "FundsReturned",
      "type": "event"
    },
    {
      "anonymous": false,
      "inputs": [
        {
          "indexed": true,
          "internalType": "address",
          "name": "NFTAddress",
          "type": "address"
        },
        {
          "indexed": true,
          "internalType": "uint256",
          "name": "orderId",
          "type": "uint256"
        },
        {
          "indexed": true,
          "internalType": "address",
          "name": "seller",
          "type": "address"
        },
        {
          "indexed": false,
          "internalType": "uint256",
          "name": "tokenId",
          "type": "uint256"
        },
        {
          "indexed": false,
          "internalType": "uint256",
          "name": "amount",
          "type": "uint256"
        },
        {
          "indexed": false,
          "internalType": "uint256",
          "name": "priceWEI",
          "type": "uint256"
        }
      ],
      "name": "OrderAdded",
      "type": "event"
    },
    {
      "anonymous": false,
      "inputs": [
        {
          "indexed": true,
          "internalType": "address",
          "name": "NFTAddress",
          "type": "address"
        },
        {
          "indexed": true,
          "internalType": "uint256",
          "name": "orderId",
          "type": "uint256"
        },
        {
          "indexed": true,
          "internalType": "address",
          "name": "buyer",
          "type": "address"
        }
      ],
      "name": "OrderCompleted",
      "type": "event"
    },
    {
      "anonymous": false,
      "inputs": [
        {
          "indexed": true,
          "internalType": "address",
          "name": "NFTAddress",
          "type": "address"
        },
        {
          "indexed": true,
          "internalType": "uint256",
          "name": "orderId",
          "type": "uint256"
        },
        {
          "indexed": true,
          "internalType": "address",
          "name": "buyer",
          "type": "address"
        }
      ],
      "name": "OrderRedeemed",
      "type": "event"
    },
    {
      "anonymous": false,
      "inputs": [
        {
          "indexed": true,
          "internalType": "address",
          "name": "NFTAddress",
          "type": "address"
        },
        {
          "indexed": true,
          "internalType": "uint256",
          "name": "orderId",
          "type": "uint256"
        },
        {
          "indexed": true,
          "internalType": "address",
          "name": "seller",
          "type": "address"
        }
      ],
      "name": "OrderRemoved",
      "type": "event"
    },
    {
      "anonymous": false,
      "inputs": [
        {
          "indexed": true,
          "internalType": "address",
          "name": "NFTAddress",
          "type": "address"
        },
        {
          "indexed": true,
          "internalType": "uint256",
          "name": "orderId",
          "type": "uint256"
        },
        {
          "indexed": true,
          "internalType": "bool",
          "name": "accepted",
          "type": "bool"
        }
      ],
      "name": "SellerAccepted",
      "type": "event"
    },
    {
      "inputs": [
        {
          "internalType": "address",
          "name": "",
          "type": "address"
        }
      ],
      "name": "TradingInfo",
      "outputs": [
        {
          "internalType": "uint256",
          "name": "lastOrderId",
          "type": "uint256"
        },
        {
          "internalType": "uint256",
          "name": "currentOrders",
          "type": "uint256"
        },
        {
          "internalType": "uint256",
          "name": "lastAuctionId",
          "type": "uint256"
        },
        {
          "internalType": "uint256",
          "name": "currentAuctions",
          "type": "uint256"
        }
      ],
      "stateMutability": "view",
      "type": "function"
    },
    {
      "inputs": [
        {
          "internalType": "address",
          "name": "contractAddress",
          "type": "address"
        },
        {
          "internalType": "uint256",
          "name": "orderId",
          "type": "uint256"
        },
        {
          "internalType": "bool",
          "name": "isAccepted",
          "type": "bool"
        }
      ],
      "name": "acceptOrder",
      "outputs": [],
      "stateMutability": "nonpayable",
      "type": "function"
    },
    {
      "inputs": [
        {
          "internalType": "address",
          "name": "contractAddress",
          "type": "address"
        },
        {
          "internalType": "uint256",
          "name": "tokenId",
          "type": "uint256"
        },
        {
          "internalType": "uint256",
          "name": "amount",
          "type": "uint256"
        },
        {
          "internalType": "uint256",
          "name": "priceWEI",
          "type": "uint256"
        }
      ],
      "name": "addOrder",
      "outputs": [],
      "stateMutability": "nonpayable",
      "type": "function"
    },
    {
      "inputs": [
        {
          "internalType": "address",
          "name": "contractAddress",
          "type": "address"
        },
        {
          "internalType": "uint256",
          "name": "auctionId",
          "type": "uint256"
        }
      ],
      "name": "completeAuction",
      "outputs": [],
      "stateMutability": "nonpayable",
      "type": "function"
    },
    {
      "inputs": [
        {
          "internalType": "address",
          "name": "contractAddress",
          "type": "address"
        },
        {
          "internalType": "uint256",
          "name": "orderId",
          "type": "uint256"
        }
      ],
      "name": "completeOrder",
      "outputs": [],
      "stateMutability": "nonpayable",
      "type": "function"
    },
    {
      "inputs": [
        {
          "internalType": "address",
          "name": "contractAddress",
          "type": "address"
        },
        {
          "internalType": "uint256",
          "name": "orderId",
          "type": "uint256"
        }
      ],
      "name": "declineOrder",
      "outputs": [],
      "stateMutability": "nonpayable",
      "type": "function"
    },
    {
      "inputs": [
        {
          "internalType": "address",
          "name": "nftContractAddress",
          "type": "address"
        }
      ],
      "name": "getAllAuctions",
      "outputs": [
        {
          "components": [
            {
              "internalType": "uint256",
              "name": "auctionId",
              "type": "uint256"
            },
            {
              "internalType": "uint256",
              "name": "bestBid",
              "type": "uint256"
            },
            {
              "internalType": "uint256",
              "name": "tokenId",
              "type": "uint256"
            },
            {
              "internalType": "uint256",
              "name": "amount",
              "type": "uint256"
            },
            {
              "internalType": "uint256",
              "name": "percentFee",
              "type": "uint256"
            },
            {
              "internalType": "uint256",
              "name": "auctionEndUnix",
              "type": "uint256"
            },
            {
              "internalType": "address",
              "name": "bestBidder",
              "type": "address"
            },
            {
              "internalType": "address",
              "name": "seller",
              "type": "address"
            }
          ],
          "internalType": "struct Marketplace1155.Auction[]",
          "name": "",
          "type": "tuple[]"
        }
      ],
      "stateMutability": "view",
      "type": "function"
    },
    {
      "inputs": [
        {
          "internalType": "address",
          "name": "nftContractAddress",
          "type": "address"
        }
      ],
      "name": "getAllOrders",
      "outputs": [
        {
          "components": [
            {
              "internalType": "uint256",
              "name": "orderId",
              "type": "uint256"
            },
            {
              "internalType": "uint256",
              "name": "priceWEI",
              "type": "uint256"
            },
            {
              "internalType": "uint256",
              "name": "tokenId",
              "type": "uint256"
            },
            {
              "internalType": "uint256",
              "name": "amount",
              "type": "uint256"
            },
            {
              "internalType": "uint256",
              "name": "percentFee",
              "type": "uint256"
            },
            {
              "internalType": "address",
              "name": "seller",
              "type": "address"
            },
            {
              "internalType": "address",
              "name": "buyer",
              "type": "address"
            },
            {
              "internalType": "bool",
              "name": "sellerAccepted",
              "type": "bool"
            }
          ],
          "internalType": "struct Marketplace1155.Order[]",
          "name": "",
          "type": "tuple[]"
        }
      ],
      "stateMutability": "view",
      "type": "function"
    },
    {
      "inputs": [
        {
          "internalType": "address",
          "name": "nftContractAddress",
          "type": "address"
        },
        {
          "internalType": "uint256",
          "name": "auctionId",
          "type": "uint256"
        }
      ],
      "name": "getAuction",
      "outputs": [
        {
          "components": [
            {
              "internalType": "uint256",
              "name": "auctionId",
              "type": "uint256"
            },
            {
              "internalType": "uint256",
              "name": "bestBid",
              "type": "uint256"
            },
            {
              "internalType": "uint256",
              "name": "tokenId",
              "type": "uint256"
            },
            {
              "internalType": "uint256",
              "name": "amount",
              "type": "uint256"
            },
            {
              "internalType": "uint256",
              "name": "percentFee",
              "type": "uint256"
            },
            {
              "internalType": "uint256",
              "name": "auctionEndUnix",
              "type": "uint256"
            },
            {
              "internalType": "address",
              "name": "bestBidder",
              "type": "address"
            },
            {
              "internalType": "address",
              "name": "seller",
              "type": "address"
            }
          ],
          "internalType": "struct Marketplace1155.Auction",
          "name": "auctionInfo",
          "type": "tuple"
        }
      ],
      "stateMutability": "view",
      "type": "function"
    },
    {
      "inputs": [
        {
          "internalType": "address",
          "name": "nftContractAddress",
          "type": "address"
        },
        {
          "internalType": "uint256",
          "name": "orderId",
          "type": "uint256"
        }
      ],
      "name": "getOrder",
      "outputs": [
        {
          "components": [
            {
              "internalType": "uint256",
              "name": "orderId",
              "type": "uint256"
            },
            {
              "internalType": "uint256",
              "name": "priceWEI",
              "type": "uint256"
            },
            {
              "internalType": "uint256",
              "name": "tokenId",
              "type": "uint256"
            },
            {
              "internalType": "uint256",
              "name": "amount",
              "type": "uint256"
            },
            {
              "internalType": "uint256",
              "name": "percentFee",
              "type": "uint256"
            },
            {
              "internalType": "address",
              "name": "seller",
              "type": "address"
            },
            {
              "internalType": "address",
              "name": "buyer",
              "type": "address"
            },
            {
              "internalType": "bool",
              "name": "sellerAccepted",
              "type": "bool"
            }
          ],
          "internalType": "struct Marketplace1155.Order",
          "name": "orderInfo",
          "type": "tuple"
        }
      ],
      "stateMutability": "view",
      "type": "function"
    },
    {
      "inputs": [
        {
          "internalType": "address",
          "name": "nftContractAddress",
          "type": "address"
        }
      ],
      "name": "getTradingInfo",
      "outputs": [
        {
          "components": [
            {
              "internalType": "uint256",
              "name": "lastOrderId",
              "type": "uint256"
            },
            {
              "internalType": "uint256",
              "name": "currentOrders",
              "type": "uint256"
            },
            {
              "internalType": "uint256",
              "name": "lastAuctionId",
              "type": "uint256"
            },
            {
              "internalType": "uint256",
              "name": "currentAuctions",
              "type": "uint256"
            }
          ],
          "internalType": "struct Marketplace1155._NFTContractInfo",
          "name": "",
          "type": "tuple"
        }
      ],
      "stateMutability": "view",
      "type": "function"
    },
    {
      "inputs": [
        {
          "internalType": "address",
          "name": "contractAddress",
          "type": "address"
        },
        {
          "internalType": "uint256",
          "name": "auctionId",
          "type": "uint256"
        }
      ],
      "name": "makeBid",
      "outputs": [],
      "stateMutability": "payable",
      "type": "function"
    },
    {
      "inputs": [],
      "name": "minimumAuctionTime",
      "outputs": [
        {
          "internalType": "uint256",
          "name": "",
          "type": "uint256"
        }
      ],
      "stateMutability": "view",
      "type": "function"
    },
    {
      "inputs": [
        {
          "internalType": "address",
          "name": "",
          "type": "address"
        },
        {
          "internalType": "address",
          "name": "",
          "type": "address"
        },
        {
          "internalType": "uint256",
          "name": "",
          "type": "uint256"
        },
        {
          "internalType": "uint256",
          "name": "",
          "type": "uint256"
        },
        {
          "internalType": "bytes",
          "name": "",
          "type": "bytes"
        }
      ],
      "name": "onERC1155Received",
      "outputs": [
        {
          "internalType": "bytes4",
          "name": "",
          "type": "bytes4"
        }
      ],
      "stateMutability": "pure",
      "type": "function"
    },
    {
      "inputs": [],
      "name": "owner",
      "outputs": [
        {
          "internalType": "address",
          "name": "",
          "type": "address"
        }
      ],
      "stateMutability": "view",
      "type": "function"
    },
    {
      "inputs": [],
      "name": "percentDecimals",
      "outputs": [
        {
          "internalType": "uint256",
          "name": "",
          "type": "uint256"
        }
      ],
      "stateMutability": "view",
      "type": "function"
    },
    {
      "inputs": [
        {
          "internalType": "address",
          "name": "contractAddress",
          "type": "address"
        },
        {
          "internalType": "uint256",
          "name": "orderId",
          "type": "uint256"
        }
      ],
      "name": "redeemOrder",
      "outputs": [],
      "stateMutability": "payable",
      "type": "function"
    },
    {
      "inputs": [
        {
          "internalType": "address",
          "name": "contractAddress",
          "type": "address"
        },
        {
          "internalType": "uint256",
          "name": "orderId",
          "type": "uint256"
        }
      ],
      "name": "removeOrder",
      "outputs": [],
      "stateMutability": "nonpayable",
      "type": "function"
    },
    {
      "inputs": [
        {
          "internalType": "uint256",
          "name": "timeInSeconds",
          "type": "uint256"
        }
      ],
      "name": "setMinimalAuctionTime",
      "outputs": [],
      "stateMutability": "nonpayable",
      "type": "function"
    },
    {
      "inputs": [
        {
          "internalType": "address",
          "name": "contractAddress",
          "type": "address"
        },
        {
          "internalType": "uint256",
          "name": "tokenId",
          "type": "uint256"
        },
        {
          "internalType": "uint256",
          "name": "amount",
          "type": "uint256"
        },
        {
          "internalType": "uint256",
          "name": "initialPrice",
          "type": "uint256"
        },
        {
          "internalType": "uint256",
          "name": "secondsToEnd",
          "type": "uint256"
        }
      ],
      "name": "startAuction",
      "outputs": [],
      "stateMutability": "nonpayable",
      "type": "function"
    }
  ],
  "bytecode": "0x6080604052600060015534801561001557600080fd5b50600080546001600160a01b03191633179055600160025561290c8061003c6000396000f3fe60806040526004361061011f5760003560e01c806395a4e486116100a0578063d73030b711610064578063d73030b7146103a2578063e511beec146103cf578063edb25841146103ef578063f23a6e611461041c578063f75195bc1461046157600080fd5b806395a4e486146102fe578063980dc4821461031e578063a3ce9c991461033e578063b5fec1ff14610362578063bc24555a1461038f57600080fd5b80635a257161116100e75780635a257161146101f557806364258108146102595780636dd2ac8414610279578063762a66a2146102995780638da5cb5b146102c657600080fd5b806307610d5b146101245780630e947bd814610146578063223df93d146101a25780632edd2976146101c257806351f5b010146101d5575b600080fd5b34801561013057600080fd5b5061014461013f36600461220a565b610476565b005b34801561015257600080fd5b50610166610161366004612236565b61065c565b60405161019991908151815260208083015190820152604080830151908201526060918201519181019190915260800190565b60405180910390f35b3480156101ae57600080fd5b506101446101bd36600461225a565b6106f7565b6101446101d036600461220a565b61094f565b3480156101e157600080fd5b506101446101f03660046122a1565b610aa5565b34801561020157600080fd5b50610239610210366004612236565b600360208190526000918252604090912080546001820154600283015492909301549092919084565b604080519485526020850193909352918301526060820152608001610199565b34801561026557600080fd5b5061014461027436600461220a565b610afc565b34801561028557600080fd5b506101446102943660046122ba565b610d1e565b3480156102a557600080fd5b506102b96102b436600461220a565b610fee565b604051610199919061235a565b3480156102d257600080fd5b506000546102e6906001600160a01b031681565b6040516001600160a01b039091168152602001610199565b34801561030a57600080fd5b5061014461031936600461220a565b611081565b34801561032a57600080fd5b50610144610339366004612369565b6114ac565b34801561034a57600080fd5b5061035460015481565b604051908152602001610199565b34801561036e57600080fd5b5061038261037d366004612236565b6116d6565b6040516101999190612402565b61014461039d36600461220a565b611873565b3480156103ae57600080fd5b506103c26103bd366004612236565b611a7e565b6040516101999190612451565b3480156103db57600080fd5b506101446103ea36600461220a565b611c0d565b3480156103fb57600080fd5b5061040f61040a36600461220a565b6120ab565b6040516101999190612494565b34801561042857600080fd5b506104486104373660046124b9565b63f23a6e6160e01b95945050505050565b6040516001600160e01b03199091168152602001610199565b34801561046d57600080fd5b50610354600281565b6002805414156104a15760405162461bcd60e51b8152600401610498906125a3565b60405180910390fd5b600280556001600160a01b038281166000908152600360209081526040808320858452600401909152902060068101549091163314806104ed575060058101546001600160a01b031633145b6105395760405162461bcd60e51b815260206004820181905260248201527f4f6e6c792073656c6c6572206f722062757965722063616e206465636c696e656044820152606401610498565b60068101546001600160a01b03166105885760405162461bcd60e51b81526020600482015260126024820152714e6f7468696e6720746f206465636c696e6560701b6044820152606401610498565b600681015460018201546040516000926001600160a01b031691908381818185875af1925050503d80600081146105db576040519150601f19603f3d011682016040523d82523d6000602084013e6105e0565b606091505b50506001600160a01b0385166000818152600360209081526040808320888452600401825280832060060180546001600160a81b03191690555133815293945090928692917f3b9c3dc223d366e4c735e888a058709626d7866ef7a5d00cfb1aee144a658a3a91015b60405180910390a4505060016002555050565b6106876040518060800160405280600081526020016000815260200160008152602001600081525090565b6106b26040518060800160405280600081526020016000815260200160008152602001600081525090565b6001600160a01b039092166000818152600360208181526040808420600181015488840152805488528084015460608901529490935252600290910154908301525090565b6002805414156107195760405162461bcd60e51b8152600401610498906125a3565b600280556001600160a01b03838116600090815260036020908152604080832086845260040190915290206006810154600590910154908216911633146107995760405162461bcd60e51b81526020600482015260146024820152732cb7ba9030b932903737ba10309039b2b63632b960611b6044820152606401610498565b6001600160a01b0381166107e95760405162461bcd60e51b815260206004820152601760248201527627379037b732903932b232b2b6b99030b71037b93232b960491b6044820152606401610498565b811561085c576001600160a01b0384166000818152600360209081526040808320878452600401909152808220600601805460ff60a01b1916600160a01b1790555184151592869290917fd8ea04489f9337d4911713fe8a708db8b965cacf229c114ef449ff5b8a9868549190a4610944565b6001600160a01b03848116600090815260036020908152604080832087845260040190915280822060010154905191928416918381818185875af1925050503d80600081146108c7576040519150601f19603f3d011682016040523d82523d6000602084013e6108cc565b606091505b50506001600160a01b0386811660008181526003602090815260408083208a845260040182529182902060060180546001600160a01b0319169055905192861683529293508515159287927f3b9c3dc223d366e4c735e888a058709626d7866ef7a5d00cfb1aee144a658a3a910160405180910390a4505b505060016002555050565b6001600160a01b038216600090815260036020908152604080832084845260040190915290206001015434146109c75760405162461bcd60e51b815260206004820152601960248201527f496e636f72726563742066756e647320746f2072656465656d000000000000006044820152606401610498565b6001600160a01b0382811660009081526003602090815260408083208584526004019091529020600601541615610a385760405162461bcd60e51b815260206004820152601560248201527413dc99195c881a185cc81899595b88199d5b991959605a1b6044820152606401610498565b6001600160a01b038216600081815260036020908152604080832085845260040190915280822060060180546001600160a01b0319163390811790915590519092849290917f0c7ca24b1124503bba6041e71434dc779cd45f5af108f3fad77abd2535796ee09190a45050565b6000546001600160a01b03163314610af75760405162461bcd60e51b8152602060048201526015602482015274596f7520617265206e6f7420616e206f776e65722160581b6044820152606401610498565b600155565b6001600160a01b038281166000908152600360209081526040808320858452600401909152902060058101549091163314610b705760405162461bcd60e51b81526020600482015260146024820152732cb7ba9030b932903737ba10309039b2b63632b960611b6044820152606401610498565b60068101546001600160a01b031615610bdb5760405162461bcd60e51b815260206004820152602760248201527f4f726465722069732066756e6465642c2066756e6473206d7573742062652072604482015266195d1d5c9b995960ca1b6064820152608401610498565b6002810154600382015460408051808201825260018152600360fc1b60208201529051637921219560e11b81526001600160a01b0387169363f242432a93610c2c93309333939291906004016125da565b600060405180830381600087803b158015610c4657600080fd5b505af1158015610c5a573d6000803e3d6000fd5b505050506001600160a01b0383166000818152600360208181526040808420878552600480820184529185208581556001808201879055600282018790558186018790559281018690556005810180546001600160a01b031916905560060180546001600160a81b0319169055948452919052909101805491610cdc8361266f565b9091555050604051339083906001600160a01b038616907fdbca7392797a73097a0aa25c89f3e452fea76affdbb7c16d17240b7fe9e34bd290600090a4505050565b612710821015610d405760405162461bcd60e51b815260040161049890612686565b600154811015610da65760405162461bcd60e51b815260206004820152602b60248201527f54696d65206d757374206265206d6f7265207468656e206d696e696d616c206160448201526a756374696f6e2074696d6560a81b6064820152608401610498565b60408051808201825260018152600360fc1b60208201529051637921219560e11b81526001600160a01b0387169163f242432a91610def91339130918a918a91906004016125da565b600060405180830381600087803b158015610e0957600080fd5b505af1158015610e1d573d6000803e3d6000fd5b505050506001600160a01b038516600081815260036020818152604080842060028082015480875260059092018452828620828155600181018a90559081018b90559093018890558051634c1a411560e01b81529051929493634c1a411593600480840194939192918390030190829087803b158015610e9c57600080fd5b505af1158015610eb0573d6000803e3d6000fd5b505050506040513d601f19601f82011682018060405250810190610ed491906126c9565b6001600160a01b03871660009081526003602090815260408083208584526005019091529020600481019190915560070180546001600160a01b03191633179055610f1f82426126e2565b6001600160a01b038716600081815260036020818152604080842087855260058082018452918520909101959095559282529091526002909101805491610f65836126fa565b90915550506001600160a01b0386166000908152600360208190526040822001805491610f91836126fa565b90915550506040805186815260208101869052908101849052339086906001600160a01b038916907f49dcb78f11aac3b63f364127415374455c7f2493651ae8241f95e07b30fc09b99060600160405180910390a4505050505050565b610ff6612142565b506001600160a01b038083166000908152600360208181526040808420868552600590810183529381902081516101008101835281548152600182015493810193909352600281015491830191909152918201546060820152600482015460808201529181015460a08301526006810154831660c08301526007015490911660e08201525b92915050565b6002805414156110a35760405162461bcd60e51b8152600401610498906125a3565b600280556001600160a01b038216600090815260036020908152604080832084845260040190915290206006810154600160a01b900460ff166111285760405162461bcd60e51b815260206004820152601b60248201527f53656c6c6572206469646e7420616363657074206120747261646500000000006044820152606401610498565b60068101546001600160a01b031661117c5760405162461bcd60e51b815260206004820152601760248201527627379037b732903932b232b2b6b99030b71037b93232b960491b6044820152606401610498565b600061118a600260646127f9565b8260040154836001015461119e9190612805565b6111a89190612824565b905060008183600101546111bc9190612846565b60058401546040519192506000916001600160a01b039091169083908381818185875af1925050503d8060008114611210576040519150601f19603f3d011682016040523d82523d6000602084013e611215565b606091505b50509050806112665760405162461bcd60e51b815260206004820152601a60248201527f43616e206e6f742073656e642057454920746f2073656c6c65720000000000006044820152606401610498565b6000866001600160a01b0316638da5cb5b6040518163ffffffff1660e01b8152600401602060405180830381600087803b1580156112a357600080fd5b505af11580156112b7573d6000803e3d6000fd5b505050506040513d601f19601f820116820180604052508101906112db919061285d565b6001600160a01b03168460405160006040518083038185875af1925050503d8060008114611325576040519150601f19603f3d011682016040523d82523d6000602084013e61132a565b606091505b505090508061134b5760405162461bcd60e51b81526004016104989061287a565b60068501546002860154600387015460408051808201825260018152600360fc1b60208201529051637921219560e11b81526001600160a01b038c81169563f242432a956113a595309593909216939092906004016125da565b600060405180830381600087803b1580156113bf57600080fd5b505af11580156113d3573d6000803e3d6000fd5b505050506001600160a01b03871660009081526003602052604081206001018054916113fe8361266f565b90915550506001600160a01b0380881660008181526003602081815260408084208c8552600490810190925280842084815560018101859055600281018590559283018490559082018390556005820180546001600160a01b0319169055600691820180546001600160a81b03191690559089015490519316928992917f74521722fc86dc8b2bda041d06bd7a9029ef72153c049c301a329c8ce6fbdeef91a4505060016002555050505050565b6127108110156114ce5760405162461bcd60e51b815260040161049890612686565b60408051808201825260018152600360fc1b60208201529051637921219560e11b81526001600160a01b0386169163f242432a91611517913391309189918991906004016125da565b600060405180830381600087803b15801561153157600080fd5b505af1158015611545573d6000803e3d6000fd5b505050506001600160a01b0384166000818152600360208181526040808420805480865260049182018452828620818155600281018b905560018101899055948501899055600590940180546001600160a01b031916331790558151634c1a411560e01b81529151939594634c1a41159483830194939092908390030190829087803b1580156115d457600080fd5b505af11580156115e8573d6000803e3d6000fd5b505050506040513d601f19601f8201168201806040525081019061160c91906126c9565b6001600160a01b038616600081815260036020818152604080842087855260048082018452918520909101959095559282529091528154919061164e836126fa565b90915550506001600160a01b038516600090815260036020526040812060010180549161167a836126fa565b90915550506040805185815260208101859052908101839052339082906001600160a01b038816907f72d58c1bf20f849a3ee7f6c1b0249227b0a36c2dca868894ea826a5184dfc1c09060600160405180910390a45050505050565b6001600160a01b0381166000908152600360205260408120600101546060919067ffffffffffffffff81111561170e5761170e6124a3565b60405190808252806020026020018201604052801561174757816020015b611734612199565b81526020019060019003908161172c5790505b5090506000805b6001600160a01b03851660009081526003602052604090205481101561186a576001600160a01b0385811660009081526003602090815260408083208584526004019091529020600501541615611858576001600160a01b0385811660009081526003602081815260408084208685526004908101835293819020815161010081018352815481526001820154938101939093526002810154918301919091529182015460608201529181015460808301526005810154831660a08301526006015491821660c0820152600160a01b90910460ff16151560e0820152835184908490811061183e5761183e6128c0565b60200260200101819052508180611854906126fa565b9250505b80611862816126fa565b91505061174e565b50909392505050565b6002805414156118955760405162461bcd60e51b8152600401610498906125a3565b600280556001600160a01b0380831660009081526003602090815260408083208584526005019091529020600781015490911661190c5760405162461bcd60e51b8152602060048201526015602482015274546f6b656e73206973206e6f74206f6e2073616c6560581b6044820152606401610498565b428160050154116119555760405162461bcd60e51b8152602060048201526013602482015272105d58dd1a5bdb881d1a5b59481c185cdcd959606a1b6044820152606401610498565b806001015434116119a85760405162461bcd60e51b815260206004820181905260248201527f426964206d75737420626520686967686572207468616e2070726576696f75736044820152606401610498565b600681015460018201546040516000926001600160a01b031691908381818185875af1925050503d80600081146119fb576040519150601f19603f3d011682016040523d82523d6000602084013e611a00565b606091505b50506001600160a01b03851660008181526003602090815260408083208884526005018252918290206006810180546001600160a01b03191633908117909155346001909201829055925190815293945090928692917fe7a4aa6712f6b8533e5a0aad75720c02b98c1a0567afaa7f68f56c1d475bcec39101610649565b6001600160a01b0381166000908152600360208190526040822001546060919067ffffffffffffffff811115611ab657611ab66124a3565b604051908082528060200260200182016040528015611aef57816020015b611adc612142565b815260200190600190039081611ad45790505b5090506000805b6001600160a01b03851660009081526003602052604090206002015481101561186a576001600160a01b0385811660009081526003602090815260408083208584526005019091529020600701541615611bfb576001600160a01b038086166000908152600360208181526040808420868552600590810183529381902081516101008101835281548152600182015493810193909352600281015491830191909152918201546060820152600482015460808201529181015460a08301526006810154831660c08301526007015490911660e08201528351849084908110611be157611be16128c0565b60200260200101819052508180611bf7906126fa565b9250505b80611c05816126fa565b915050611af6565b600280541415611c2f5760405162461bcd60e51b8152600401610498906125a3565b600280556001600160a01b03821660009081526003602090815260408083208484526005908101909252909120908101544211611cae5760405162461bcd60e51b815260206004820152601960248201527f41756374696f6e2074696d6520646964206e6f742070617373000000000000006044820152606401610498565b60068101546001600160a01b0316611d515760078101546002820154600383015460408051808201825260018152600360fc1b60208201529051637921219560e11b81526001600160a01b038881169563f242432a95611d1a95309593909216939092906004016125da565b600060405180830381600087803b158015611d3457600080fd5b505af1158015611d48573d6000803e3d6000fd5b50505050611fb1565b6000611d5f600260646127f9565b82600401548360010154611d739190612805565b611d7d9190612824565b90506000818360010154611d919190612846565b60078401546040519192506000916001600160a01b039091169083908381818185875af1925050503d8060008114611de5576040519150601f19603f3d011682016040523d82523d6000602084013e611dea565b606091505b5050905080611e3b5760405162461bcd60e51b815260206004820152601a60248201527f43616e206e6f742073656e642057454920746f2073656c6c65720000000000006044820152606401610498565b6000866001600160a01b0316638da5cb5b6040518163ffffffff1660e01b8152600401602060405180830381600087803b158015611e7857600080fd5b505af1158015611e8c573d6000803e3d6000fd5b505050506040513d601f19601f82011682018060405250810190611eb0919061285d565b6001600160a01b03168460405160006040518083038185875af1925050503d8060008114611efa576040519150601f19603f3d011682016040523d82523d6000602084013e611eff565b606091505b5050905080611f205760405162461bcd60e51b81526004016104989061287a565b60068501546002860154600387015460408051808201825260018152600360fc1b60208201529051637921219560e11b81526001600160a01b038c81169563f242432a95611f7a95309593909216939092906004016125da565b600060405180830381600087803b158015611f9457600080fd5b505af1158015611fa8573d6000803e3d6000fd5b50505050505050505b6001600160a01b0383166000908152600360208190526040822001805491611fd88361266f565b90915550506001600160a01b03838116600081815260036020818152604080842088855260059081018352818520858155600180820187905560028083018890558287018890556004830188905592820196909655600680820180546001600160a01b0319908116909155600790920180549092169091558801549488015490880154938801548251918252928101939093528201529216918491907f0871c5e7f9a4a7fcba0008f75e266318c7f174512aa34bb4324a3e6ffbe062199060600160405180910390a45050600160025550565b6120b3612199565b506001600160a01b0391821660009081526003602081815260408084209484526004948501825292839020835161010081018552815481526001820154928101929092526002810154938201939093529082015460608201529181015460808301526005810154831660a08301526006015491821660c0820152600160a01b90910460ff16151560e082015290565b60405180610100016040528060008152602001600081526020016000815260200160008152602001600081526020016000815260200160006001600160a01b0316815260200160006001600160a01b031681525090565b604051806101000160405280600081526020016000815260200160008152602001600081526020016000815260200160006001600160a01b0316815260200160006001600160a01b031681526020016000151581525090565b6001600160a01b038116811461220757600080fd5b50565b6000806040838503121561221d57600080fd5b8235612228816121f2565b946020939093013593505050565b60006020828403121561224857600080fd5b8135612253816121f2565b9392505050565b60008060006060848603121561226f57600080fd5b833561227a816121f2565b9250602084013591506040840135801515811461229657600080fd5b809150509250925092565b6000602082840312156122b357600080fd5b5035919050565b600080600080600060a086880312156122d257600080fd5b85356122dd816121f2565b97602087013597506040870135966060810135965060800135945092505050565b805182526020810151602083015260408101516040830152606081015160608301526080810151608083015260a081015160a083015260c081015160018060a01b0380821660c08501528060e08401511660e085015250505050565b610100810161107b82846122fe565b6000806000806080858703121561237f57600080fd5b843561238a816121f2565b966020860135965060408601359560600135945092505050565b805182526020810151602083015260408101516040830152606081015160608301526080810151608083015260a081015160018060a01b0380821660a08501528060c08401511660c0850152505060e0810151151560e08301525050565b6020808252825182820181905260009190848201906040850190845b81811015612445576124318385516123a4565b92840192610100929092019160010161241e565b50909695505050505050565b6020808252825182820181905260009190848201906040850190845b81811015612445576124808385516122fe565b92840192610100929092019160010161246d565b610100810161107b82846123a4565b634e487b7160e01b600052604160045260246000fd5b600080600080600060a086880312156124d157600080fd5b85356124dc816121f2565b945060208601356124ec816121f2565b93506040860135925060608601359150608086013567ffffffffffffffff8082111561251757600080fd5b818801915088601f83011261252b57600080fd5b81358181111561253d5761253d6124a3565b604051601f8201601f19908116603f01168101908382118183101715612565576125656124a3565b816040528281528b602084870101111561257e57600080fd5b8260208601602083013760006020848301015280955050505050509295509295909350565b6020808252601f908201527f5265656e7472616e637947756172643a207265656e7472616e742063616c6c00604082015260600190565b600060018060a01b03808816835260208188168185015286604085015285606085015260a06080850152845191508160a085015260005b8281101561262d5785810182015185820160c001528101612611565b8281111561263f57600060c084870101525b5050601f01601f19169190910160c0019695505050505050565b634e487b7160e01b600052601160045260246000fd5b60008161267e5761267e612659565b506000190190565b60208082526023908201527f4d696e696d616c20707269636520666f722073616c652069732031303030302060408201526257454960e81b606082015260800190565b6000602082840312156126db57600080fd5b5051919050565b600082198211156126f5576126f5612659565b500190565b600060001982141561270e5761270e612659565b5060010190565b600181815b8085111561275057816000190482111561273657612736612659565b8085161561274357918102915b93841c939080029061271a565b509250929050565b6000826127675750600161107b565b816127745750600061107b565b816001811461278a5760028114612794576127b0565b600191505061107b565b60ff8411156127a5576127a5612659565b50506001821b61107b565b5060208310610133831016604e8410600b84101617156127d3575081810a61107b565b6127dd8383612715565b80600019048211156127f1576127f1612659565b029392505050565b60006122538383612758565b600081600019048311821515161561281f5761281f612659565b500290565b60008261284157634e487b7160e01b600052601260045260246000fd5b500490565b60008282101561285857612858612659565b500390565b60006020828403121561286f57600080fd5b8151612253816121f2565b60208082526026908201527f43616e206e6f742073656e642057454920746f204e465420636f6e74726163746040820152651027bbb732b960d11b606082015260800190565b634e487b7160e01b600052603260045260246000fdfea2646970667358221220bcfb0c1dc394c7766c4f0b9b4752ea7ff061cad32dba3078104195eacdc826f664736f6c63430008090033",
  "linkReferences": {},
  "deployedLinkReferences": {}
}