{
  "_format": "hh-sol-artifact-1",
  "contractName": "Marketplace1155",
  "sourceName": "contracts/Marketplace1155.sol",
  "abi": [
    {
      "inputs": [],
      "stateMutability": "nonpayable",
      "type": "constructor"
    },
    {
      "anonymous": false,
      "inputs": [
        {
          "indexed": true,
          "internalType": "address",
          "name": "NFTAddress",
          "type": "address"
        },
        {
          "indexed": true,
          "internalType": "uint256",
          "name": "auctionId",
          "type": "uint256"
        },
        {
          "indexed": true,
          "internalType": "address",
          "name": "bestBidder",
          "type": "address"
        },
        {
          "indexed": false,
          "internalType": "address",
          "name": "erc20",
          "type": "address"
        },
        {
          "indexed": false,
          "internalType": "uint256",
          "name": "bestBid",
          "type": "uint256"
        },
        {
          "indexed": false,
          "internalType": "uint256",
          "name": "tokenId",
          "type": "uint256"
        },
        {
          "indexed": false,
          "internalType": "uint256",
          "name": "amount",
          "type": "uint256"
        }
      ],
      "name": "AuctionEnded",
      "type": "event"
    },
    {
      "anonymous": false,
      "inputs": [
        {
          "indexed": true,
          "internalType": "address",
          "name": "NFTAddress",
          "type": "address"
        },
        {
          "indexed": true,
          "internalType": "uint256",
          "name": "auctionId",
          "type": "uint256"
        },
        {
          "indexed": true,
          "internalType": "address",
          "name": "seller",
          "type": "address"
        },
        {
          "indexed": false,
          "internalType": "address",
          "name": "erc20",
          "type": "address"
        },
        {
          "indexed": false,
          "internalType": "uint256",
          "name": "tokenId",
          "type": "uint256"
        },
        {
          "indexed": false,
          "internalType": "uint256",
          "name": "amount",
          "type": "uint256"
        },
        {
          "indexed": false,
          "internalType": "uint256",
          "name": "startprice",
          "type": "uint256"
        }
      ],
      "name": "AuctionStarted",
      "type": "event"
    },
    {
      "anonymous": false,
      "inputs": [
        {
          "indexed": true,
          "internalType": "address",
          "name": "NFTAddress",
          "type": "address"
        },
        {
          "indexed": true,
          "internalType": "uint256",
          "name": "auctionId",
          "type": "uint256"
        },
        {
          "indexed": true,
          "internalType": "address",
          "name": "bestBidder",
          "type": "address"
        },
        {
          "indexed": false,
          "internalType": "uint256",
          "name": "bestBid",
          "type": "uint256"
        }
      ],
      "name": "BibDone",
      "type": "event"
    },
    {
      "anonymous": false,
      "inputs": [
        {
          "indexed": true,
          "internalType": "address",
          "name": "NFTAddress",
          "type": "address"
        },
        {
          "indexed": true,
          "internalType": "uint256",
          "name": "orderId",
          "type": "uint256"
        },
        {
          "indexed": true,
          "internalType": "bool",
          "name": "accepted",
          "type": "bool"
        },
        {
          "indexed": false,
          "internalType": "address",
          "name": "buyer",
          "type": "address"
        }
      ],
      "name": "FundsReturned",
      "type": "event"
    },
    {
      "anonymous": false,
      "inputs": [
        {
          "indexed": true,
          "internalType": "address",
          "name": "NFTAddress",
          "type": "address"
        },
        {
          "indexed": true,
          "internalType": "uint256",
          "name": "orderId",
          "type": "uint256"
        },
        {
          "indexed": true,
          "internalType": "address",
          "name": "seller",
          "type": "address"
        },
        {
          "indexed": false,
          "internalType": "address",
          "name": "erc20",
          "type": "address"
        },
        {
          "indexed": false,
          "internalType": "uint256",
          "name": "tokenId",
          "type": "uint256"
        },
        {
          "indexed": false,
          "internalType": "uint256",
          "name": "amount",
          "type": "uint256"
        },
        {
          "indexed": false,
          "internalType": "uint256",
          "name": "price",
          "type": "uint256"
        }
      ],
      "name": "OrderAdded",
      "type": "event"
    },
    {
      "anonymous": false,
      "inputs": [
        {
          "indexed": true,
          "internalType": "address",
          "name": "NFTAddress",
          "type": "address"
        },
        {
          "indexed": true,
          "internalType": "uint256",
          "name": "orderId",
          "type": "uint256"
        },
        {
          "indexed": true,
          "internalType": "address",
          "name": "buyer",
          "type": "address"
        },
        {
          "indexed": false,
          "internalType": "address",
          "name": "erc20",
          "type": "address"
        }
      ],
      "name": "OrderCompleted",
      "type": "event"
    },
    {
      "anonymous": false,
      "inputs": [
        {
          "indexed": true,
          "internalType": "address",
          "name": "NFTAddress",
          "type": "address"
        },
        {
          "indexed": true,
          "internalType": "uint256",
          "name": "orderId",
          "type": "uint256"
        },
        {
          "indexed": true,
          "internalType": "address",
          "name": "buyer",
          "type": "address"
        }
      ],
      "name": "OrderRedeemed",
      "type": "event"
    },
    {
      "anonymous": false,
      "inputs": [
        {
          "indexed": true,
          "internalType": "address",
          "name": "NFTAddress",
          "type": "address"
        },
        {
          "indexed": true,
          "internalType": "uint256",
          "name": "orderId",
          "type": "uint256"
        },
        {
          "indexed": true,
          "internalType": "address",
          "name": "seller",
          "type": "address"
        }
      ],
      "name": "OrderRemoved",
      "type": "event"
    },
    {
      "anonymous": false,
      "inputs": [
        {
          "indexed": true,
          "internalType": "address",
          "name": "NFTAddress",
          "type": "address"
        },
        {
          "indexed": true,
          "internalType": "uint256",
          "name": "orderId",
          "type": "uint256"
        },
        {
          "indexed": true,
          "internalType": "bool",
          "name": "accepted",
          "type": "bool"
        }
      ],
      "name": "SellerAccepted",
      "type": "event"
    },
    {
      "inputs": [
        {
          "internalType": "address",
          "name": "",
          "type": "address"
        }
      ],
      "name": "TradingInfo",
      "outputs": [
        {
          "internalType": "uint256",
          "name": "lastOrderId",
          "type": "uint256"
        },
        {
          "internalType": "uint256",
          "name": "currentOrders",
          "type": "uint256"
        },
        {
          "internalType": "uint256",
          "name": "lastAuctionId",
          "type": "uint256"
        },
        {
          "internalType": "uint256",
          "name": "currentAuctions",
          "type": "uint256"
        }
      ],
      "stateMutability": "view",
      "type": "function"
    },
    {
      "inputs": [
        {
          "internalType": "address",
          "name": "contractAddress",
          "type": "address"
        },
        {
          "internalType": "uint256",
          "name": "orderId",
          "type": "uint256"
        },
        {
          "internalType": "bool",
          "name": "isAccepted",
          "type": "bool"
        }
      ],
      "name": "acceptOrder",
      "outputs": [],
      "stateMutability": "nonpayable",
      "type": "function"
    },
    {
      "inputs": [
        {
          "internalType": "address",
          "name": "contractAddress",
          "type": "address"
        },
        {
          "internalType": "uint256",
          "name": "tokenId",
          "type": "uint256"
        },
        {
          "internalType": "uint256",
          "name": "amount",
          "type": "uint256"
        },
        {
          "internalType": "uint256",
          "name": "price",
          "type": "uint256"
        },
        {
          "internalType": "string",
          "name": "currency",
          "type": "string"
        }
      ],
      "name": "addOrder",
      "outputs": [],
      "stateMutability": "nonpayable",
      "type": "function"
    },
    {
      "inputs": [
        {
          "internalType": "address",
          "name": "contractAddress",
          "type": "address"
        },
        {
          "internalType": "uint256",
          "name": "auctionId",
          "type": "uint256"
        }
      ],
      "name": "completeAuction",
      "outputs": [],
      "stateMutability": "nonpayable",
      "type": "function"
    },
    {
      "inputs": [
        {
          "internalType": "address",
          "name": "contractAddress",
          "type": "address"
        },
        {
          "internalType": "uint256",
          "name": "orderId",
          "type": "uint256"
        }
      ],
      "name": "completeOrder",
      "outputs": [],
      "stateMutability": "nonpayable",
      "type": "function"
    },
    {
      "inputs": [
        {
          "internalType": "address",
          "name": "contractAddress",
          "type": "address"
        },
        {
          "internalType": "uint256",
          "name": "orderId",
          "type": "uint256"
        }
      ],
      "name": "declineOrder",
      "outputs": [],
      "stateMutability": "nonpayable",
      "type": "function"
    },
    {
      "inputs": [
        {
          "internalType": "address",
          "name": "nftContractAddress",
          "type": "address"
        }
      ],
      "name": "getAllAuctions",
      "outputs": [
        {
          "components": [
            {
              "internalType": "uint256",
              "name": "auctionId",
              "type": "uint256"
            },
            {
              "internalType": "uint256",
              "name": "bestBid",
              "type": "uint256"
            },
            {
              "internalType": "uint256",
              "name": "tokenId",
              "type": "uint256"
            },
            {
              "internalType": "uint256",
              "name": "amount",
              "type": "uint256"
            },
            {
              "internalType": "uint256",
              "name": "percentFee",
              "type": "uint256"
            },
            {
              "internalType": "uint256",
              "name": "auctionEndUnix",
              "type": "uint256"
            },
            {
              "internalType": "address",
              "name": "bestBidder",
              "type": "address"
            },
            {
              "internalType": "address",
              "name": "seller",
              "type": "address"
            },
            {
              "internalType": "address",
              "name": "erc20",
              "type": "address"
            }
          ],
          "internalType": "struct Marketplace1155.Auction[]",
          "name": "",
          "type": "tuple[]"
        }
      ],
      "stateMutability": "view",
      "type": "function"
    },
    {
      "inputs": [
        {
          "internalType": "address",
          "name": "nftContractAddress",
          "type": "address"
        }
      ],
      "name": "getAllOrders",
      "outputs": [
        {
          "components": [
            {
              "internalType": "uint256",
              "name": "orderId",
              "type": "uint256"
            },
            {
              "internalType": "uint256",
              "name": "price",
              "type": "uint256"
            },
            {
              "internalType": "uint256",
              "name": "tokenId",
              "type": "uint256"
            },
            {
              "internalType": "uint256",
              "name": "amount",
              "type": "uint256"
            },
            {
              "internalType": "uint256",
              "name": "percentFee",
              "type": "uint256"
            },
            {
              "internalType": "address",
              "name": "seller",
              "type": "address"
            },
            {
              "internalType": "address",
              "name": "buyer",
              "type": "address"
            },
            {
              "internalType": "address",
              "name": "erc20",
              "type": "address"
            },
            {
              "internalType": "bool",
              "name": "sellerAccepted",
              "type": "bool"
            }
          ],
          "internalType": "struct Marketplace1155.Order[]",
          "name": "",
          "type": "tuple[]"
        }
      ],
      "stateMutability": "view",
      "type": "function"
    },
    {
      "inputs": [
        {
          "internalType": "address",
          "name": "nftContractAddress",
          "type": "address"
        },
        {
          "internalType": "uint256",
          "name": "auctionId",
          "type": "uint256"
        }
      ],
      "name": "getAuction",
      "outputs": [
        {
          "components": [
            {
              "internalType": "uint256",
              "name": "auctionId",
              "type": "uint256"
            },
            {
              "internalType": "uint256",
              "name": "bestBid",
              "type": "uint256"
            },
            {
              "internalType": "uint256",
              "name": "tokenId",
              "type": "uint256"
            },
            {
              "internalType": "uint256",
              "name": "amount",
              "type": "uint256"
            },
            {
              "internalType": "uint256",
              "name": "percentFee",
              "type": "uint256"
            },
            {
              "internalType": "uint256",
              "name": "auctionEndUnix",
              "type": "uint256"
            },
            {
              "internalType": "address",
              "name": "bestBidder",
              "type": "address"
            },
            {
              "internalType": "address",
              "name": "seller",
              "type": "address"
            },
            {
              "internalType": "address",
              "name": "erc20",
              "type": "address"
            }
          ],
          "internalType": "struct Marketplace1155.Auction",
          "name": "auctionInfo",
          "type": "tuple"
        }
      ],
      "stateMutability": "view",
      "type": "function"
    },
    {
      "inputs": [
        {
          "internalType": "address",
          "name": "nftContractAddress",
          "type": "address"
        },
        {
          "internalType": "uint256",
          "name": "orderId",
          "type": "uint256"
        }
      ],
      "name": "getOrder",
      "outputs": [
        {
          "components": [
            {
              "internalType": "uint256",
              "name": "orderId",
              "type": "uint256"
            },
            {
              "internalType": "uint256",
              "name": "price",
              "type": "uint256"
            },
            {
              "internalType": "uint256",
              "name": "tokenId",
              "type": "uint256"
            },
            {
              "internalType": "uint256",
              "name": "amount",
              "type": "uint256"
            },
            {
              "internalType": "uint256",
              "name": "percentFee",
              "type": "uint256"
            },
            {
              "internalType": "address",
              "name": "seller",
              "type": "address"
            },
            {
              "internalType": "address",
              "name": "buyer",
              "type": "address"
            },
            {
              "internalType": "address",
              "name": "erc20",
              "type": "address"
            },
            {
              "internalType": "bool",
              "name": "sellerAccepted",
              "type": "bool"
            }
          ],
          "internalType": "struct Marketplace1155.Order",
          "name": "orderInfo",
          "type": "tuple"
        }
      ],
      "stateMutability": "view",
      "type": "function"
    },
    {
      "inputs": [
        {
          "internalType": "address",
          "name": "nftContractAddress",
          "type": "address"
        }
      ],
      "name": "getTradingInfo",
      "outputs": [
        {
          "components": [
            {
              "internalType": "uint256",
              "name": "lastOrderId",
              "type": "uint256"
            },
            {
              "internalType": "uint256",
              "name": "currentOrders",
              "type": "uint256"
            },
            {
              "internalType": "uint256",
              "name": "lastAuctionId",
              "type": "uint256"
            },
            {
              "internalType": "uint256",
              "name": "currentAuctions",
              "type": "uint256"
            }
          ],
          "internalType": "struct Marketplace1155._NFTContractInfo",
          "name": "",
          "type": "tuple"
        }
      ],
      "stateMutability": "view",
      "type": "function"
    },
    {
      "inputs": [
        {
          "internalType": "address",
          "name": "contractAddress",
          "type": "address"
        },
        {
          "internalType": "uint256",
          "name": "auctionId",
          "type": "uint256"
        }
      ],
      "name": "makeBid",
      "outputs": [],
      "stateMutability": "payable",
      "type": "function"
    },
    {
      "inputs": [],
      "name": "minimumAuctionTime",
      "outputs": [
        {
          "internalType": "uint256",
          "name": "",
          "type": "uint256"
        }
      ],
      "stateMutability": "view",
      "type": "function"
    },
    {
      "inputs": [
        {
          "internalType": "address",
          "name": "",
          "type": "address"
        },
        {
          "internalType": "address",
          "name": "",
          "type": "address"
        },
        {
          "internalType": "uint256",
          "name": "",
          "type": "uint256"
        },
        {
          "internalType": "uint256",
          "name": "",
          "type": "uint256"
        },
        {
          "internalType": "bytes",
          "name": "",
          "type": "bytes"
        }
      ],
      "name": "onERC1155Received",
      "outputs": [
        {
          "internalType": "bytes4",
          "name": "",
          "type": "bytes4"
        }
      ],
      "stateMutability": "pure",
      "type": "function"
    },
    {
      "inputs": [],
      "name": "owner",
      "outputs": [
        {
          "internalType": "address",
          "name": "",
          "type": "address"
        }
      ],
      "stateMutability": "view",
      "type": "function"
    },
    {
      "inputs": [],
      "name": "percentDecimals",
      "outputs": [
        {
          "internalType": "uint256",
          "name": "",
          "type": "uint256"
        }
      ],
      "stateMutability": "view",
      "type": "function"
    },
    {
      "inputs": [
        {
          "internalType": "address",
          "name": "contractAddress",
          "type": "address"
        },
        {
          "internalType": "uint256",
          "name": "orderId",
          "type": "uint256"
        }
      ],
      "name": "redeemOrder",
      "outputs": [],
      "stateMutability": "payable",
      "type": "function"
    },
    {
      "inputs": [
        {
          "internalType": "address",
          "name": "contractAddress",
          "type": "address"
        },
        {
          "internalType": "uint256",
          "name": "orderId",
          "type": "uint256"
        }
      ],
      "name": "removeOrder",
      "outputs": [],
      "stateMutability": "nonpayable",
      "type": "function"
    },
    {
      "inputs": [
        {
          "internalType": "uint256",
          "name": "timeInSeconds",
          "type": "uint256"
        }
      ],
      "name": "setMinimalAuctionTime",
      "outputs": [],
      "stateMutability": "nonpayable",
      "type": "function"
    },
    {
      "inputs": [
        {
          "internalType": "address",
          "name": "contractAddress",
          "type": "address"
        },
        {
          "internalType": "uint256",
          "name": "tokenId",
          "type": "uint256"
        },
        {
          "internalType": "uint256",
          "name": "amount",
          "type": "uint256"
        },
        {
          "internalType": "uint256",
          "name": "initialPrice",
          "type": "uint256"
        },
        {
          "internalType": "uint256",
          "name": "secondsToEnd",
          "type": "uint256"
        },
        {
          "internalType": "string",
          "name": "currency",
          "type": "string"
        }
      ],
      "name": "startAuction",
      "outputs": [],
      "stateMutability": "nonpayable",
      "type": "function"
    }
  ],
  "bytecode": "0x608060405234801561001057600080fd5b50600080546001600160a01b03191633179055600160025561362c806100376000396000f3fe60806040526004361061011f5760003560e01c80638da5cb5b116100a0578063d73030b711610064578063d73030b7146103a2578063e511beec146103cf578063edb25841146103ef578063f23a6e611461041c578063f75195bc1461046157600080fd5b80638da5cb5b146102e657806395a4e4861461031e578063a3ce9c991461033e578063b5fec1ff14610362578063bc24555a1461038f57600080fd5b806343c8edc6116100e757806343c8edc6146101f557806351f5b010146102155780635a257161146102355780636425810814610299578063762a66a2146102b957600080fd5b806307610d5b146101245780630e947bd814610146578063223df93d146101a257806322f8ceb7146101c25780632edd2976146101e2575b600080fd5b34801561013057600080fd5b5061014461013f366004612e36565b610476565b005b34801561015257600080fd5b50610166610161366004612e62565b610716565b60405161019991908151815260208083015190820152604080830151908201526060918201519181019190915260800190565b60405180910390f35b3480156101ae57600080fd5b506101446101bd366004612e94565b6107b1565b3480156101ce57600080fd5b506101446101dd366004612f1f565b610abe565b6101446101f0366004612e36565b610f1b565b34801561020157600080fd5b50610144610210366004612f9c565b61115e565b34801561022157600080fd5b5061014461023036600461300f565b6114fd565b34801561024157600080fd5b50610279610250366004612e62565b600360208190526000918252604090912080546001820154600283015492909301549092919084565b604080519485526020850193909352918301526060820152608001610199565b3480156102a557600080fd5b506101446102b4366004612e36565b611554565b3480156102c557600080fd5b506102d96102d4366004612e36565b611784565b604051610199919061308f565b3480156102f257600080fd5b50600054610306906001600160a01b031681565b6040516001600160a01b039091168152602001610199565b34801561032a57600080fd5b50610144610339366004612e36565b611824565b34801561034a57600080fd5b5061035460015481565b604051908152602001610199565b34801561036e57600080fd5b5061038261037d366004612e62565b611e13565b6040516101999190613112565b61014461039d366004612e36565b611fbd565b3480156103ae57600080fd5b506103c26103bd366004612e62565b61244f565b6040516101999190613161565b3480156103db57600080fd5b506101446103ea366004612e36565b6125eb565b3480156103fb57600080fd5b5061040f61040a366004612e36565b612caa565b60405161019991906131a4565b34801561042857600080fd5b506104486104373660046131c9565b63f23a6e6160e01b95945050505050565b6040516001600160e01b03199091168152602001610199565b34801561046d57600080fd5b50610354600281565b6002805414156104a15760405162461bcd60e51b8152600401610498906132b3565b60405180910390fd5b600280556001600160a01b038281166000908152600360209081526040808320858452600401909152902060068101549091163314806104ed575060058101546001600160a01b031633145b6105395760405162461bcd60e51b815260206004820181905260248201527f4f6e6c792073656c6c6572206f722062757965722063616e206465636c696e656044820152606401610498565b60068101546001600160a01b03166105885760405162461bcd60e51b81526020600482015260126024820152714e6f7468696e6720746f206465636c696e6560701b6044820152606401610498565b60078101546001600160a01b0316156106335760078101546006820154600183015460405163a9059cbb60e01b81526001600160a01b039283166004820152602481019190915291169063a9059cbb90604401602060405180830381600087803b1580156105f557600080fd5b505af1158015610609573d6000803e3d6000fd5b505050506040513d601f19601f8201168201806040525081019061062d91906132ea565b50610690565b600681015460018201546040516000926001600160a01b031691908381818185875af1925050503d8060008114610686576040519150601f19603f3d011682016040523d82523d6000602084013e61068b565b606091505b505050505b6001600160a01b038316600081815260036020908152604080832086845260040182528083206006810180546001600160a01b0319169055600701805460ff60a01b19169055513381529192859290917f3b9c3dc223d366e4c735e888a058709626d7866ef7a5d00cfb1aee144a658a3a91015b60405180910390a45050600160025550565b6107416040518060800160405280600081526020016000815260200160008152602001600081525090565b61076c6040518060800160405280600081526020016000815260200160008152602001600081525090565b6001600160a01b039092166000818152600360208181526040808420600181015488840152805488528084015460608901529490935252600290910154908301525090565b6002805414156107d35760405162461bcd60e51b8152600401610498906132b3565b600280556001600160a01b03838116600090815260036020908152604080832086845260040190915290206006810154600590910154908216911633146108535760405162461bcd60e51b81526020600482015260146024820152732cb7ba9030b932903737ba10309039b2b63632b960611b6044820152606401610498565b6001600160a01b0381166108a35760405162461bcd60e51b815260206004820152601760248201527627379037b732903932b232b2b6b99030b71037b93232b960491b6044820152606401610498565b8115610916576001600160a01b0384166000818152600360209081526040808320878452600401909152808220600701805460ff60a01b1916600160a01b1790555184151592869290917fd8ea04489f9337d4911713fe8a708db8b965cacf229c114ef449ff5b8a9868549190a4610ab3565b6001600160a01b03808516600090815260036020908152604080832087845260040190915290206007810154909116156109e25760078101546006820154600183015460405163a9059cbb60e01b81526001600160a01b039283166004820152602481019190915291169063a9059cbb90604401602060405180830381600087803b1580156109a457600080fd5b505af11580156109b8573d6000803e3d6000fd5b505050506040513d601f19601f820116820180604052508101906109dc91906132ea565b50610a3f565b600681015460018201546040516000926001600160a01b031691908381818185875af1925050503d8060008114610a35576040519150601f19603f3d011682016040523d82523d6000602084013e610a3a565b606091505b505050505b6001600160a01b03858116600081815260036020908152604080832089845260040182529182902060060180546001600160a01b031916905590519285168352851515928792917f3b9c3dc223d366e4c735e888a058709626d7866ef7a5d00cfb1aee144a658a3a910160405180910390a4505b505060016002555050565b612710841015610b1c5760405162461bcd60e51b815260206004820152602360248201527f4d696e696d616c20707269636520666f722073616c652069732031303030302060448201526257454960e81b6064820152608401610498565b600154831015610b825760405162461bcd60e51b815260206004820152602b60248201527f54696d65206d757374206265206d6f7265207468656e206d696e696d616c206160448201526a756374696f6e2074696d6560a81b6064820152608401610498565b60408051808201825260018152600360fc1b60208201529051637921219560e11b81526001600160a01b0389169163f242432a91610bcb91339130918c918c9190600401613307565b600060405180830381600087803b158015610be557600080fd5b505af1158015610bf9573d6000803e3d6000fd5b505050506001600160a01b0387166000818152600360209081526040808320600201548151633c2f4f4360e11b8152915190949263785e9e86926004808201939182900301818787803b158015610c4f57600080fd5b505af1158015610c63573d6000803e3d6000fd5b505050506040513d601f19601f82011682018060405250810190610c879190613386565b60405164065726332360dc1b6020820152909150602501604051602081830303815290604052805190602001208484604051602001610cc79291906133a3565b60405160208183030381529060405280519060200120148015610cf257506001600160a01b03811615155b15610d37576001600160a01b038981166000908152600360209081526040808320868452600501909152902060080180546001600160a01b0319169183169190911790555b6001600160a01b03891660008181526003602081815260408084208785526005018252808420878155600181018c9055600281018e90559092018b90558151634c1a411560e01b81529151634c1a4115936004808501948390030190829087803b158015610da457600080fd5b505af1158015610db8573d6000803e3d6000fd5b505050506040513d601f19601f82011682018060405250810190610ddc91906133b3565b6001600160a01b038a1660009081526003602090815260408083208684526005019091529020600481019190915560070180546001600160a01b03191633179055610e2785426133e2565b6001600160a01b038a16600081815260036020818152604080842088855260058082018452918520909101959095559282529091526002909101805491610e6d836133fa565b90915550506001600160a01b0389166000908152600360208190526040822001805491610e99836133fa565b90915550506001600160a01b0389811660008181526003602090815260408083208784526005019091529081902060080154905133938693927f70df9c7d466a2cbd23dc5740e6f88107b2f7df2c713b48c4938c9ebb1223bb7d92610f089291909116908e908e908e90613415565b60405180910390a4505050505050505050565b6001600160a01b0382811660009081526003602090815260408083208584526004019091529020600601541615610f8c5760405162461bcd60e51b815260206004820152601560248201527413dc99195c881a185cc81899595b88199d5b991959605a1b6044820152606401610498565b6001600160a01b0382811660009081526003602090815260408083208584526004019091529020600701541615611079576001600160a01b038281166000908152600360209081526040808320858452600490810190925291829020600781015460019091015492516323b872dd60e01b8152339281019290925230602483015260448201929092529116906323b872dd90606401602060405180830381600087803b15801561103b57600080fd5b505af115801561104f573d6000803e3d6000fd5b505050506040513d601f19601f8201168201806040525081019061107391906132ea565b506110f1565b6001600160a01b038216600090815260036020908152604080832084845260040190915290206001015434146110f15760405162461bcd60e51b815260206004820152601960248201527f496e636f72726563742066756e647320746f2072656465656d000000000000006044820152606401610498565b6001600160a01b038216600081815260036020908152604080832085845260040190915280822060060180546001600160a01b0319163390811790915590519092849290917f0c7ca24b1124503bba6041e71434dc779cd45f5af108f3fad77abd2535796ee09190a45050565b6127108310156111be5760405162461bcd60e51b815260206004820152602560248201527f4d696e696d616c20707269636520666f722073616c652069732031303030302060448201526476616c756560d81b6064820152608401610498565b60408051808201825260018152600360fc1b60208201529051637921219560e11b81526001600160a01b0388169163f242432a9161120791339130918b918b9190600401613307565b600060405180830381600087803b15801561122157600080fd5b505af1158015611235573d6000803e3d6000fd5b505050506001600160a01b0386166000818152600360209081526040808320548151633c2f4f4360e11b8152915190949263785e9e86926004808201939182900301818787803b15801561128857600080fd5b505af115801561129c573d6000803e3d6000fd5b505050506040513d601f19601f820116820180604052508101906112c09190613386565b60405164065726332360dc1b60208201529091506025016040516020818303038152906040528051906020012084846040516020016113009291906133a3565b6040516020818303038152906040528051906020012014801561132b57506001600160a01b03811615155b15611370576001600160a01b038881166000908152600360209081526040808320868452600401909152902060070180546001600160a01b0319169183169190911790555b6001600160a01b038816600081815260036020818152604080842087855260049081018352818520888155600281018e9055600181018c90559384018c9055600590930180546001600160a01b031916331790558051634c1a411560e01b81529051634c1a41159482850194919283900390910190829087803b1580156113f657600080fd5b505af115801561140a573d6000803e3d6000fd5b505050506040513d601f19601f8201168201806040525081019061142e91906133b3565b6001600160a01b0389166000818152600360208181526040808420888552600480820184529185209091019590955592825290915281549190611470836133fa565b90915550506001600160a01b038816600090815260036020526040812060010180549161149c836133fa565b9190505550336001600160a01b031682896001600160a01b03167fc3802249724ee315eea709bea37d4034583840efe420a875c01a4db909166241848b8b8b6040516114eb9493929190613415565b60405180910390a45050505050505050565b6000546001600160a01b0316331461154f5760405162461bcd60e51b8152602060048201526015602482015274596f7520617265206e6f7420616e206f776e65722160581b6044820152606401610498565b600155565b6001600160a01b0382811660009081526003602090815260408083208584526004019091529020600581015490911633146115c85760405162461bcd60e51b81526020600482015260146024820152732cb7ba9030b932903737ba10309039b2b63632b960611b6044820152606401610498565b60068101546001600160a01b0316156116335760405162461bcd60e51b815260206004820152602760248201527f4f726465722069732066756e6465642c2066756e6473206d7573742062652072604482015266195d1d5c9b995960ca1b6064820152608401610498565b6002810154600382015460408051808201825260018152600360fc1b60208201529051637921219560e11b81526001600160a01b0387169363f242432a936116849330933393929190600401613307565b600060405180830381600087803b15801561169e57600080fd5b505af11580156116b2573d6000803e3d6000fd5b505050506001600160a01b0383166000818152600360208181526040808420878552600480820184529185208581556001808201879055600282018790558186018790559281018690556005810180546001600160a01b0319908116909155600682018054909116905560070180546001600160a81b03191690559484529190529091018054916117428361343b565b9091555050604051339083906001600160a01b038616907fdbca7392797a73097a0aa25c89f3e452fea76affdbb7c16d17240b7fe9e34bd290600090a4505050565b61178c612d4e565b506001600160a01b038083166000908152600360208181526040808420868552600590810183529381902081516101208101835281548152600182015493810193909352600281015491830191909152918201546060820152600482015460808201529181015460a08301526006810154831660c08301526007810154831660e0830152600801549091166101008201525b92915050565b6002805414156118465760405162461bcd60e51b8152600401610498906132b3565b600280556001600160a01b038216600090815260036020908152604080832084845260040190915290206007810154600160a01b900460ff166118cb5760405162461bcd60e51b815260206004820152601b60248201527f53656c6c6572206469646e7420616363657074206120747261646500000000006044820152606401610498565b60068101546001600160a01b031661191f5760405162461bcd60e51b815260206004820152601760248201527627379037b732903932b232b2b6b99030b71037b93232b960491b6044820152606401610498565b600061192d60026064613536565b826004015483600101546119419190613542565b61194b9190613561565b9050600081836001015461195f9190613583565b90506000856001600160a01b0316638da5cb5b6040518163ffffffff1660e01b8152600401602060405180830381600087803b15801561199e57600080fd5b505af11580156119b2573d6000803e3d6000fd5b505050506040513d601f19601f820116820180604052508101906119d69190613386565b60078501549091506001600160a01b031615611b07576007840154600585015460405163a9059cbb60e01b81526001600160a01b0391821660048201526024810185905291169063a9059cbb90604401602060405180830381600087803b158015611a4057600080fd5b505af1158015611a54573d6000803e3d6000fd5b505050506040513d601f19601f82011682018060405250810190611a7891906132ea565b50600784015460405163a9059cbb60e01b81526001600160a01b038381166004830152602482018690529091169063a9059cbb90604401602060405180830381600087803b158015611ac957600080fd5b505af1158015611add573d6000803e3d6000fd5b505050506040513d601f19601f82011682018060405250810190611b0191906132ea565b50611c94565b60058401546040516000916001600160a01b03169084908381818185875af1925050503d8060008114611b56576040519150601f19603f3d011682016040523d82523d6000602084013e611b5b565b606091505b5050905080611bac5760405162461bcd60e51b815260206004820152601a60248201527f43616e206e6f742073656e642057454920746f2073656c6c65720000000000006044820152606401610498565b6000876001600160a01b0316638da5cb5b6040518163ffffffff1660e01b8152600401602060405180830381600087803b158015611be957600080fd5b505af1158015611bfd573d6000803e3d6000fd5b505050506040513d601f19601f82011682018060405250810190611c219190613386565b6001600160a01b03168560405160006040518083038185875af1925050503d8060008114611c6b576040519150601f19603f3d011682016040523d82523d6000602084013e611c70565b606091505b5050905080611c915760405162461bcd60e51b81526004016104989061359a565b50505b60068401546002850154600386015460408051808201825260018152600360fc1b60208201529051637921219560e11b81526001600160a01b038b81169563f242432a95611cee9530959390921693909290600401613307565b600060405180830381600087803b158015611d0857600080fd5b505af1158015611d1c573d6000803e3d6000fd5b505050506001600160a01b0386166000908152600360205260408120600101805491611d478361343b565b90915550506001600160a01b0386811660008181526003602081815260408084208b85526004908101835281852085815560018101869055600281018690559384018590558301939093556005820180546001600160a01b031990811690915560068084018054909216909155600792830180546001600160a81b031916905589015491890154925192851683529316928892917f307c6cb06e5eddcf300e3ceeadbda6b9ebfcc4d32a4dc0b42ac3d95a9474b090910160405180910390a45050600160025550505050565b6001600160a01b0381166000908152600360205260408120600101546060919067ffffffffffffffff811115611e4b57611e4b6131b3565b604051908082528060200260200182016040528015611e8457816020015b611e71612db5565b815260200190600190039081611e695790505b5090506000805b6001600160a01b038516600090815260036020526040902054811015611fb4576001600160a01b0385811660009081526003602090815260408083208584526004019091529020600501541615611fa2576001600160a01b0385811660009081526003602081815260408084208685526004908101835293819020815161012081018352815481526001820154938101939093526002810154918301919091529182015460608201529181015460808301526005810154831660a08301526006810154831660c08301526007015491821660e0820152600160a01b90910460ff1615156101008201528351849084908110611f8857611f886135e0565b60200260200101819052508180611f9e906133fa565b9250505b80611fac816133fa565b915050611e8b565b50909392505050565b600280541415611fdf5760405162461bcd60e51b8152600401610498906132b3565b600280556001600160a01b038083166000908152600360209081526040808320858452600501909152902060078101549091166120565760405162461bcd60e51b8152602060048201526015602482015274546f6b656e73206973206e6f74206f6e2073616c6560581b6044820152606401610498565b4281600501541161209f5760405162461bcd60e51b8152602060048201526013602482015272105d58dd1a5bdb881d1a5b59481c185cdcd959606a1b6044820152606401610498565b60088101546001600160a01b0316156122ee576008810154604051636eb1769f60e11b81523360048201523060248201526000916001600160a01b03169063dd62ed3e9060440160206040518083038186803b1580156120fe57600080fd5b505afa158015612112573d6000803e3d6000fd5b505050506040513d601f19601f8201168201806040525081019061213691906133b3565b90508160010154811161218b5760405162461bcd60e51b815260206004820181905260248201527f426964206d75737420626520686967686572207468616e2070726576696f75736044820152606401610498565b60088201546040516323b872dd60e01b8152336004820152306024820152604481018390526001600160a01b03909116906323b872dd90606401602060405180830381600087803b1580156121df57600080fd5b505af11580156121f3573d6000803e3d6000fd5b505050506040513d601f19601f8201168201806040525081019061221791906132ea565b5060068201546001600160a01b0316156122bf5760088201546006830154600184015460405163a9059cbb60e01b81526001600160a01b039283166004820152602481019190915291169063a9059cbb90604401602060405180830381600087803b15801561228557600080fd5b505af1158015612299573d6000803e3d6000fd5b505050506040513d601f19601f820116820180604052508101906122bd91906132ea565b505b6001600160a01b03841660009081526003602090815260408083208684526005019091529020600101556123df565b806001015434116123415760405162461bcd60e51b815260206004820181905260248201527f426964206d75737420626520686967686572207468616e2070726576696f75736044820152606401610498565b60068101546001600160a01b0316156123b157600681015460018201546040516000926001600160a01b031691908381818185875af1925050503d80600081146123a7576040519150601f19603f3d011682016040523d82523d6000602084013e6123ac565b606091505b505050505b6001600160a01b03831660009081526003602090815260408083208584526005019091529020346001909101555b6001600160a01b038316600081815260036020908152604080832086845260050182529182902060060180546001600160a01b0319163390811790915591513481529192859290917fe7a4aa6712f6b8533e5a0aad75720c02b98c1a0567afaa7f68f56c1d475bcec39101610704565b6001600160a01b0381166000908152600360208190526040822001546060919067ffffffffffffffff811115612487576124876131b3565b6040519080825280602002602001820160405280156124c057816020015b6124ad612d4e565b8152602001906001900390816124a55790505b5090506000805b6001600160a01b038516600090815260036020526040902060020154811015611fb4576001600160a01b03858116600090815260036020908152604080832085845260050190915290206007015416156125d9576001600160a01b038086166000908152600360208181526040808420868552600590810183529381902081516101208101835281548152600182015493810193909352600281015491830191909152918201546060820152600482015460808201529181015460a08301526006810154831660c08301526007810154831660e08301526008015490911661010082015283518490849081106125bf576125bf6135e0565b602002602001018190525081806125d5906133fa565b9250505b806125e3816133fa565b9150506124c7565b60028054141561260d5760405162461bcd60e51b8152600401610498906132b3565b600280556001600160a01b0382166000908152600360209081526040808320848452600590810190925290912090810154421161268c5760405162461bcd60e51b815260206004820152601960248201527f41756374696f6e2074696d6520646964206e6f742070617373000000000000006044820152606401610498565b600061269a60026064613536565b826004015483600101546126ae9190613542565b6126b89190613561565b905060008183600101546126cc9190613583565b60068401549091506001600160a01b03166127725760078301546002840154600385015460408051808201825260018152600360fc1b60208201529051637921219560e11b81526001600160a01b038a81169563f242432a9561273b9530959390921693909290600401613307565b600060405180830381600087803b15801561275557600080fd5b505af1158015612769573d6000803e3d6000fd5b50505050612b9f565b60088301546001600160a01b031615612986576008830154600784015460405163a9059cbb60e01b81526001600160a01b0391821660048201526024810184905291169063a9059cbb90604401602060405180830381600087803b1580156127d957600080fd5b505af11580156127ed573d6000803e3d6000fd5b505050506040513d601f19601f8201168201806040525081019061281191906132ea565b508260080160009054906101000a90046001600160a01b03166001600160a01b031663a9059cbb866001600160a01b0316638da5cb5b6040518163ffffffff1660e01b8152600401602060405180830381600087803b15801561287357600080fd5b505af1158015612887573d6000803e3d6000fd5b505050506040513d601f19601f820116820180604052508101906128ab9190613386565b6040516001600160e01b031960e084901b1681526001600160a01b03909116600482015260248101859052604401602060405180830381600087803b1580156128f357600080fd5b505af1158015612907573d6000803e3d6000fd5b505050506040513d601f19601f8201168201806040525081019061292b91906132ea565b5060068301546002840154600385015460408051808201825260018152600360fc1b60208201529051637921219560e11b81526001600160a01b038a81169563f242432a9561273b9530959390921693909290600401613307565b60078301546040516000916001600160a01b03169083908381818185875af1925050503d80600081146129d5576040519150601f19603f3d011682016040523d82523d6000602084013e6129da565b606091505b5050905080612a2b5760405162461bcd60e51b815260206004820152601a60248201527f43616e206e6f742073656e642057454920746f2073656c6c65720000000000006044820152606401610498565b6000866001600160a01b0316638da5cb5b6040518163ffffffff1660e01b8152600401602060405180830381600087803b158015612a6857600080fd5b505af1158015612a7c573d6000803e3d6000fd5b505050506040513d601f19601f82011682018060405250810190612aa09190613386565b6001600160a01b03168460405160006040518083038185875af1925050503d8060008114612aea576040519150601f19603f3d011682016040523d82523d6000602084013e612aef565b606091505b5050905080612b105760405162461bcd60e51b81526004016104989061359a565b60068501546002860154600387015460408051808201825260018152600360fc1b60208201529051637921219560e11b81526001600160a01b038c81169563f242432a95612b6a9530959390921693909290600401613307565b600060405180830381600087803b158015612b8457600080fd5b505af1158015612b98573d6000803e3d6000fd5b5050505050505b6001600160a01b0385166000908152600360208190526040822001805491612bc68361343b565b90915550506001600160a01b0380861660008181526003602081815260408084208a85526005908101909252808420848155600180820186905560028083018790558286018790556004830187905593820195909555600680820180546001600160a01b0319908116909155600783018054821690556008928301805490911690558a0154908a0154948a0154928a0154938a01549151908716968b96957ff1ebb33a151c172e33f3cea16e1da18e1fb9054a1054733282bab8ccf39eb82f95612c969591909216939092613415565b60405180910390a450506001600255505050565b612cb2612db5565b506001600160a01b0391821660009081526003602081815260408084209484526004948501825292839020835161012081018552815481526001820154928101929092526002810154938201939093529082015460608201529181015460808301526005810154831660a08301526006810154831660c08301526007015491821660e0820152600160a01b90910460ff16151561010082015290565b60405180610120016040528060008152602001600081526020016000815260200160008152602001600081526020016000815260200160006001600160a01b0316815260200160006001600160a01b0316815260200160006001600160a01b031681525090565b604051806101200160405280600081526020016000815260200160008152602001600081526020016000815260200160006001600160a01b0316815260200160006001600160a01b0316815260200160006001600160a01b031681526020016000151581525090565b6001600160a01b0381168114612e3357600080fd5b50565b60008060408385031215612e4957600080fd5b8235612e5481612e1e565b946020939093013593505050565b600060208284031215612e7457600080fd5b8135612e7f81612e1e565b9392505050565b8015158114612e3357600080fd5b600080600060608486031215612ea957600080fd5b8335612eb481612e1e565b9250602084013591506040840135612ecb81612e86565b809150509250925092565b60008083601f840112612ee857600080fd5b50813567ffffffffffffffff811115612f0057600080fd5b602083019150836020828501011115612f1857600080fd5b9250929050565b600080600080600080600060c0888a031215612f3a57600080fd5b8735612f4581612e1e565b96506020880135955060408801359450606088013593506080880135925060a088013567ffffffffffffffff811115612f7d57600080fd5b612f898a828b01612ed6565b989b979a50959850939692959293505050565b60008060008060008060a08789031215612fb557600080fd5b8635612fc081612e1e565b9550602087013594506040870135935060608701359250608087013567ffffffffffffffff811115612ff157600080fd5b612ffd89828a01612ed6565b979a9699509497509295939492505050565b60006020828403121561302157600080fd5b5035919050565b805182526020808201519083015260408082015190830152606080820151908301526080808201519083015260a0808201519083015260c0808201516001600160a01b039081169184019190915260e0808301518216908401526101009182015116910152565b610120810161181e8284613028565b805182526020810151602083015260408101516040830152606081015160608301526080810151608083015260a081015160018060a01b0380821660a08501528060c08401511660c08501528060e08401511660e085015250506101008082015161310c8285018215159052565b50505050565b6020808252825182820181905260009190848201906040850190845b818110156131555761314183855161309e565b92840192610120929092019160010161312e565b50909695505050505050565b6020808252825182820181905260009190848201906040850190845b8181101561315557613190838551613028565b92840192610120929092019160010161317d565b610120810161181e828461309e565b634e487b7160e01b600052604160045260246000fd5b600080600080600060a086880312156131e157600080fd5b85356131ec81612e1e565b945060208601356131fc81612e1e565b93506040860135925060608601359150608086013567ffffffffffffffff8082111561322757600080fd5b818801915088601f83011261323b57600080fd5b81358181111561324d5761324d6131b3565b604051601f8201601f19908116603f01168101908382118183101715613275576132756131b3565b816040528281528b602084870101111561328e57600080fd5b8260208601602083013760006020848301015280955050505050509295509295909350565b6020808252601f908201527f5265656e7472616e637947756172643a207265656e7472616e742063616c6c00604082015260600190565b6000602082840312156132fc57600080fd5b8151612e7f81612e86565b600060018060a01b03808816835260208188168185015286604085015285606085015260a06080850152845191508160a085015260005b8281101561335a5785810182015185820160c00152810161333e565b8281111561336c57600060c084870101525b5050601f01601f19169190910160c0019695505050505050565b60006020828403121561339857600080fd5b8151612e7f81612e1e565b8183823760009101908152919050565b6000602082840312156133c557600080fd5b5051919050565b634e487b7160e01b600052601160045260246000fd5b600082198211156133f5576133f56133cc565b500190565b600060001982141561340e5761340e6133cc565b5060010190565b6001600160a01b0394909416845260208401929092526040830152606082015260800190565b60008161344a5761344a6133cc565b506000190190565b600181815b8085111561348d578160001904821115613473576134736133cc565b8085161561348057918102915b93841c9390800290613457565b509250929050565b6000826134a45750600161181e565b816134b15750600061181e565b81600181146134c757600281146134d1576134ed565b600191505061181e565b60ff8411156134e2576134e26133cc565b50506001821b61181e565b5060208310610133831016604e8410600b8410161715613510575081810a61181e565b61351a8383613452565b806000190482111561352e5761352e6133cc565b029392505050565b6000612e7f8383613495565b600081600019048311821515161561355c5761355c6133cc565b500290565b60008261357e57634e487b7160e01b600052601260045260246000fd5b500490565b600082821015613595576135956133cc565b500390565b60208082526026908201527f43616e206e6f742073656e642057454920746f204e465420636f6e74726163746040820152651027bbb732b960d11b606082015260800190565b634e487b7160e01b600052603260045260246000fdfea26469706673582212208e9dea85ff0e494b9d72301aace4d9e79bfa3d6a74ee2440a5ea7d8ed205b4e064736f6c63430008090033",
  "linkReferences": {},
  "deployedLinkReferences": {}
}