{
  "_format": "hh-sol-artifact-1",
  "contractName": "Marketplace1155",
  "sourceName": "contracts/Marketplace1155.sol",
  "abi": [
    {
      "inputs": [],
      "stateMutability": "nonpayable",
      "type": "constructor"
    },
    {
      "anonymous": false,
      "inputs": [
        {
          "indexed": true,
          "internalType": "address",
          "name": "NFTAddress",
          "type": "address"
        },
        {
          "indexed": true,
          "internalType": "uint256",
          "name": "auctionId",
          "type": "uint256"
        },
        {
          "indexed": true,
          "internalType": "address",
          "name": "bestBidder",
          "type": "address"
        },
        {
          "indexed": false,
          "internalType": "uint256",
          "name": "bestBid",
          "type": "uint256"
        },
        {
          "indexed": false,
          "internalType": "uint256",
          "name": "tokenId",
          "type": "uint256"
        },
        {
          "indexed": false,
          "internalType": "uint256",
          "name": "amount",
          "type": "uint256"
        }
      ],
      "name": "AuctionEnded",
      "type": "event"
    },
    {
      "anonymous": false,
      "inputs": [
        {
          "indexed": true,
          "internalType": "address",
          "name": "NFTAddress",
          "type": "address"
        },
        {
          "indexed": true,
          "internalType": "uint256",
          "name": "auctionId",
          "type": "uint256"
        },
        {
          "indexed": true,
          "internalType": "address",
          "name": "seller",
          "type": "address"
        },
        {
          "indexed": false,
          "internalType": "uint256",
          "name": "tokenId",
          "type": "uint256"
        },
        {
          "indexed": false,
          "internalType": "uint256",
          "name": "amount",
          "type": "uint256"
        },
        {
          "indexed": false,
          "internalType": "uint256",
          "name": "startPriceWEI",
          "type": "uint256"
        }
      ],
      "name": "AuctionStarted",
      "type": "event"
    },
    {
      "anonymous": false,
      "inputs": [
        {
          "indexed": true,
          "internalType": "address",
          "name": "NFTAddress",
          "type": "address"
        },
        {
          "indexed": true,
          "internalType": "uint256",
          "name": "auctionId",
          "type": "uint256"
        },
        {
          "indexed": true,
          "internalType": "address",
          "name": "bestBidder",
          "type": "address"
        },
        {
          "indexed": false,
          "internalType": "uint256",
          "name": "bestBid",
          "type": "uint256"
        }
      ],
      "name": "BibDone",
      "type": "event"
    },
    {
      "anonymous": false,
      "inputs": [
        {
          "indexed": true,
          "internalType": "address",
          "name": "NFTAddress",
          "type": "address"
        },
        {
          "indexed": true,
          "internalType": "uint256",
          "name": "orderId",
          "type": "uint256"
        },
        {
          "indexed": true,
          "internalType": "bool",
          "name": "accepted",
          "type": "bool"
        },
        {
          "indexed": false,
          "internalType": "address",
          "name": "buyer",
          "type": "address"
        }
      ],
      "name": "FundsReturned",
      "type": "event"
    },
    {
      "anonymous": false,
      "inputs": [
        {
          "indexed": true,
          "internalType": "address",
          "name": "NFTAddress",
          "type": "address"
        },
        {
          "indexed": true,
          "internalType": "uint256",
          "name": "orderId",
          "type": "uint256"
        },
        {
          "indexed": true,
          "internalType": "address",
          "name": "seller",
          "type": "address"
        },
        {
          "indexed": false,
          "internalType": "uint256",
          "name": "tokenId",
          "type": "uint256"
        },
        {
          "indexed": false,
          "internalType": "uint256",
          "name": "amount",
          "type": "uint256"
        },
        {
          "indexed": false,
          "internalType": "uint256",
          "name": "priceWEI",
          "type": "uint256"
        }
      ],
      "name": "OrderAdded",
      "type": "event"
    },
    {
      "anonymous": false,
      "inputs": [
        {
          "indexed": true,
          "internalType": "address",
          "name": "NFTAddress",
          "type": "address"
        },
        {
          "indexed": true,
          "internalType": "uint256",
          "name": "orderId",
          "type": "uint256"
        },
        {
          "indexed": true,
          "internalType": "address",
          "name": "buyer",
          "type": "address"
        }
      ],
      "name": "OrderInitialized",
      "type": "event"
    },
    {
      "anonymous": false,
      "inputs": [
        {
          "indexed": true,
          "internalType": "address",
          "name": "NFTAddress",
          "type": "address"
        },
        {
          "indexed": true,
          "internalType": "uint256",
          "name": "orderId",
          "type": "uint256"
        },
        {
          "indexed": true,
          "internalType": "address",
          "name": "buyer",
          "type": "address"
        }
      ],
      "name": "OrderRedeemed",
      "type": "event"
    },
    {
      "anonymous": false,
      "inputs": [
        {
          "indexed": true,
          "internalType": "address",
          "name": "NFTAddress",
          "type": "address"
        },
        {
          "indexed": true,
          "internalType": "uint256",
          "name": "orderId",
          "type": "uint256"
        },
        {
          "indexed": true,
          "internalType": "address",
          "name": "seller",
          "type": "address"
        }
      ],
      "name": "OrderRemoved",
      "type": "event"
    },
    {
      "anonymous": false,
      "inputs": [
        {
          "indexed": true,
          "internalType": "address",
          "name": "NFTAddress",
          "type": "address"
        },
        {
          "indexed": true,
          "internalType": "uint256",
          "name": "orderId",
          "type": "uint256"
        },
        {
          "indexed": true,
          "internalType": "bool",
          "name": "accepted",
          "type": "bool"
        }
      ],
      "name": "SellerAccepted",
      "type": "event"
    },
    {
      "inputs": [
        {
          "internalType": "address",
          "name": "",
          "type": "address"
        }
      ],
      "name": "TradingInfo",
      "outputs": [
        {
          "internalType": "uint256",
          "name": "lastOrderId",
          "type": "uint256"
        },
        {
          "internalType": "uint256",
          "name": "currentOrders",
          "type": "uint256"
        },
        {
          "internalType": "uint256",
          "name": "lastAuctionId",
          "type": "uint256"
        },
        {
          "internalType": "uint256",
          "name": "currentAuctions",
          "type": "uint256"
        }
      ],
      "stateMutability": "view",
      "type": "function"
    },
    {
      "inputs": [
        {
          "internalType": "address",
          "name": "contractAddress",
          "type": "address"
        },
        {
          "internalType": "uint256",
          "name": "orderId",
          "type": "uint256"
        },
        {
          "internalType": "bool",
          "name": "isAccepted",
          "type": "bool"
        }
      ],
      "name": "acceptOrder",
      "outputs": [],
      "stateMutability": "nonpayable",
      "type": "function"
    },
    {
      "inputs": [
        {
          "internalType": "address",
          "name": "contractAddress",
          "type": "address"
        },
        {
          "internalType": "uint256",
          "name": "tokenId",
          "type": "uint256"
        },
        {
          "internalType": "uint256",
          "name": "amount",
          "type": "uint256"
        },
        {
          "internalType": "uint256",
          "name": "priceWEI",
          "type": "uint256"
        }
      ],
      "name": "addOrder",
      "outputs": [],
      "stateMutability": "nonpayable",
      "type": "function"
    },
    {
      "inputs": [
        {
          "internalType": "address",
          "name": "contractAddress",
          "type": "address"
        },
        {
          "internalType": "uint256",
          "name": "orderId",
          "type": "uint256"
        }
      ],
      "name": "declineOrder",
      "outputs": [],
      "stateMutability": "nonpayable",
      "type": "function"
    },
    {
      "inputs": [
        {
          "internalType": "address",
          "name": "contractAddress",
          "type": "address"
        },
        {
          "internalType": "uint256",
          "name": "auctionId",
          "type": "uint256"
        }
      ],
      "name": "finishAuction",
      "outputs": [],
      "stateMutability": "nonpayable",
      "type": "function"
    },
    {
      "inputs": [
        {
          "internalType": "address",
          "name": "nftContractAddress",
          "type": "address"
        }
      ],
      "name": "getAllAuctions",
      "outputs": [
        {
          "components": [
            {
              "internalType": "uint256",
              "name": "auctionId",
              "type": "uint256"
            },
            {
              "internalType": "uint256",
              "name": "bestBid",
              "type": "uint256"
            },
            {
              "internalType": "uint256",
              "name": "tokenId",
              "type": "uint256"
            },
            {
              "internalType": "uint256",
              "name": "amount",
              "type": "uint256"
            },
            {
              "internalType": "uint256",
              "name": "percentFee",
              "type": "uint256"
            },
            {
              "internalType": "uint256",
              "name": "auctionEndUnix",
              "type": "uint256"
            },
            {
              "internalType": "address",
              "name": "bestBidder",
              "type": "address"
            },
            {
              "internalType": "address",
              "name": "seller",
              "type": "address"
            }
          ],
          "internalType": "struct Marketplace1155.Auction[]",
          "name": "",
          "type": "tuple[]"
        }
      ],
      "stateMutability": "view",
      "type": "function"
    },
    {
      "inputs": [
        {
          "internalType": "address",
          "name": "nftContractAddress",
          "type": "address"
        }
      ],
      "name": "getAllOrders",
      "outputs": [
        {
          "components": [
            {
              "internalType": "uint256",
              "name": "orderId",
              "type": "uint256"
            },
            {
              "internalType": "uint256",
              "name": "priceWEI",
              "type": "uint256"
            },
            {
              "internalType": "uint256",
              "name": "tokenId",
              "type": "uint256"
            },
            {
              "internalType": "uint256",
              "name": "amount",
              "type": "uint256"
            },
            {
              "internalType": "uint256",
              "name": "percentFee",
              "type": "uint256"
            },
            {
              "internalType": "address",
              "name": "seller",
              "type": "address"
            },
            {
              "internalType": "address",
              "name": "buyer",
              "type": "address"
            },
            {
              "internalType": "bool",
              "name": "sellerAccepted",
              "type": "bool"
            }
          ],
          "internalType": "struct Marketplace1155.Order[]",
          "name": "",
          "type": "tuple[]"
        }
      ],
      "stateMutability": "view",
      "type": "function"
    },
    {
      "inputs": [
        {
          "internalType": "address",
          "name": "nftContractAddress",
          "type": "address"
        },
        {
          "internalType": "uint256",
          "name": "auctionId",
          "type": "uint256"
        }
      ],
      "name": "getAuction",
      "outputs": [
        {
          "components": [
            {
              "internalType": "uint256",
              "name": "auctionId",
              "type": "uint256"
            },
            {
              "internalType": "uint256",
              "name": "bestBid",
              "type": "uint256"
            },
            {
              "internalType": "uint256",
              "name": "tokenId",
              "type": "uint256"
            },
            {
              "internalType": "uint256",
              "name": "amount",
              "type": "uint256"
            },
            {
              "internalType": "uint256",
              "name": "percentFee",
              "type": "uint256"
            },
            {
              "internalType": "uint256",
              "name": "auctionEndUnix",
              "type": "uint256"
            },
            {
              "internalType": "address",
              "name": "bestBidder",
              "type": "address"
            },
            {
              "internalType": "address",
              "name": "seller",
              "type": "address"
            }
          ],
          "internalType": "struct Marketplace1155.Auction",
          "name": "auctionInfo",
          "type": "tuple"
        }
      ],
      "stateMutability": "view",
      "type": "function"
    },
    {
      "inputs": [
        {
          "internalType": "address",
          "name": "nftContractAddress",
          "type": "address"
        },
        {
          "internalType": "uint256",
          "name": "orderId",
          "type": "uint256"
        }
      ],
      "name": "getOrder",
      "outputs": [
        {
          "components": [
            {
              "internalType": "uint256",
              "name": "orderId",
              "type": "uint256"
            },
            {
              "internalType": "uint256",
              "name": "priceWEI",
              "type": "uint256"
            },
            {
              "internalType": "uint256",
              "name": "tokenId",
              "type": "uint256"
            },
            {
              "internalType": "uint256",
              "name": "amount",
              "type": "uint256"
            },
            {
              "internalType": "uint256",
              "name": "percentFee",
              "type": "uint256"
            },
            {
              "internalType": "address",
              "name": "seller",
              "type": "address"
            },
            {
              "internalType": "address",
              "name": "buyer",
              "type": "address"
            },
            {
              "internalType": "bool",
              "name": "sellerAccepted",
              "type": "bool"
            }
          ],
          "internalType": "struct Marketplace1155.Order",
          "name": "orderInfo",
          "type": "tuple"
        }
      ],
      "stateMutability": "view",
      "type": "function"
    },
    {
      "inputs": [
        {
          "internalType": "address",
          "name": "nftContractAddress",
          "type": "address"
        }
      ],
      "name": "getTradingInfo",
      "outputs": [
        {
          "components": [
            {
              "internalType": "uint256",
              "name": "lastOrderId",
              "type": "uint256"
            },
            {
              "internalType": "uint256",
              "name": "currentOrders",
              "type": "uint256"
            },
            {
              "internalType": "uint256",
              "name": "lastAuctionId",
              "type": "uint256"
            },
            {
              "internalType": "uint256",
              "name": "currentAuctions",
              "type": "uint256"
            }
          ],
          "internalType": "struct Marketplace1155._NFTContractInfo",
          "name": "",
          "type": "tuple"
        }
      ],
      "stateMutability": "view",
      "type": "function"
    },
    {
      "inputs": [
        {
          "internalType": "address",
          "name": "contractAddress",
          "type": "address"
        },
        {
          "internalType": "uint256",
          "name": "orderId",
          "type": "uint256"
        }
      ],
      "name": "initializeOrder",
      "outputs": [],
      "stateMutability": "nonpayable",
      "type": "function"
    },
    {
      "inputs": [
        {
          "internalType": "address",
          "name": "contractAddress",
          "type": "address"
        },
        {
          "internalType": "uint256",
          "name": "auctionId",
          "type": "uint256"
        }
      ],
      "name": "makeBid",
      "outputs": [],
      "stateMutability": "payable",
      "type": "function"
    },
    {
      "inputs": [],
      "name": "minimumAuctionTime",
      "outputs": [
        {
          "internalType": "uint256",
          "name": "",
          "type": "uint256"
        }
      ],
      "stateMutability": "view",
      "type": "function"
    },
    {
      "inputs": [
        {
          "internalType": "address",
          "name": "",
          "type": "address"
        },
        {
          "internalType": "address",
          "name": "",
          "type": "address"
        },
        {
          "internalType": "uint256",
          "name": "",
          "type": "uint256"
        },
        {
          "internalType": "uint256",
          "name": "",
          "type": "uint256"
        },
        {
          "internalType": "bytes",
          "name": "",
          "type": "bytes"
        }
      ],
      "name": "onERC1155Received",
      "outputs": [
        {
          "internalType": "bytes4",
          "name": "",
          "type": "bytes4"
        }
      ],
      "stateMutability": "pure",
      "type": "function"
    },
    {
      "inputs": [],
      "name": "owner",
      "outputs": [
        {
          "internalType": "address",
          "name": "",
          "type": "address"
        }
      ],
      "stateMutability": "view",
      "type": "function"
    },
    {
      "inputs": [],
      "name": "percentDecimals",
      "outputs": [
        {
          "internalType": "uint256",
          "name": "",
          "type": "uint256"
        }
      ],
      "stateMutability": "view",
      "type": "function"
    },
    {
      "inputs": [
        {
          "internalType": "address",
          "name": "contractAddress",
          "type": "address"
        },
        {
          "internalType": "uint256",
          "name": "orderId",
          "type": "uint256"
        }
      ],
      "name": "redeemOrder",
      "outputs": [],
      "stateMutability": "payable",
      "type": "function"
    },
    {
      "inputs": [
        {
          "internalType": "address",
          "name": "contractAddress",
          "type": "address"
        },
        {
          "internalType": "uint256",
          "name": "orderId",
          "type": "uint256"
        }
      ],
      "name": "removeOrder",
      "outputs": [],
      "stateMutability": "nonpayable",
      "type": "function"
    },
    {
      "inputs": [
        {
          "internalType": "uint256",
          "name": "timeInSeconds",
          "type": "uint256"
        }
      ],
      "name": "setMinimalAuctionTime",
      "outputs": [],
      "stateMutability": "nonpayable",
      "type": "function"
    },
    {
      "inputs": [
        {
          "internalType": "address",
          "name": "contractAddress",
          "type": "address"
        },
        {
          "internalType": "uint256",
          "name": "tokenId",
          "type": "uint256"
        },
        {
          "internalType": "uint256",
          "name": "amount",
          "type": "uint256"
        },
        {
          "internalType": "uint256",
          "name": "initialPrice",
          "type": "uint256"
        },
        {
          "internalType": "uint256",
          "name": "secondsToEnd",
          "type": "uint256"
        }
      ],
      "name": "startAuction",
      "outputs": [],
      "stateMutability": "nonpayable",
      "type": "function"
    }
  ],
  "bytecode": "0x6080604052600060015534801561001557600080fd5b50600080546001600160a01b03191633179055600160025561290d8061003c6000396000f3fe60806040526004361061011f5760003560e01c80638da5cb5b116100a0578063bc24555a11610064578063bc24555a146103af578063d73030b7146103c2578063edb25841146103ef578063f23a6e611461041c578063f75195bc1461046157600080fd5b80638da5cb5b146102e6578063980dc4821461031e578063a3ce9c991461033e578063a3ed5be614610362578063b5fec1ff1461038257600080fd5b806351f5b010116100e757806351f5b010146101f55780635a2571611461021557806364258108146102795780636dd2ac8414610299578063762a66a2146102b957600080fd5b806307610d5b146101245780630e947bd8146101465780631517ec9a146101a2578063223df93d146101c25780632edd2976146101e2575b600080fd5b34801561013057600080fd5b5061014461013f36600461220b565b610476565b005b34801561015257600080fd5b50610166610161366004612237565b61065c565b60405161019991908151815260208083015190820152604080830151908201526060918201519181019190915260800190565b60405180910390f35b3480156101ae57600080fd5b506101446101bd36600461220b565b6106f7565b3480156101ce57600080fd5b506101446101dd36600461225b565b610b22565b6101446101f036600461220b565b610d7a565b34801561020157600080fd5b506101446102103660046122a2565b610ed1565b34801561022157600080fd5b50610259610230366004612237565b600360208190526000918252604090912080546001820154600283015492909301549092919084565b604080519485526020850193909352918301526060820152608001610199565b34801561028557600080fd5b5061014461029436600461220b565b610f28565b3480156102a557600080fd5b506101446102b43660046122bb565b61114a565b3480156102c557600080fd5b506102d96102d436600461220b565b61141a565b604051610199919061235b565b3480156102f257600080fd5b50600054610306906001600160a01b031681565b6040516001600160a01b039091168152602001610199565b34801561032a57600080fd5b5061014461033936600461236a565b6114ad565b34801561034a57600080fd5b5061035460015481565b604051908152602001610199565b34801561036e57600080fd5b5061014461037d36600461220b565b6116d7565b34801561038e57600080fd5b506103a261039d366004612237565b611b75565b6040516101999190612403565b6101446103bd36600461220b565b611d12565b3480156103ce57600080fd5b506103e26103dd366004612237565b611f1d565b6040516101999190612452565b3480156103fb57600080fd5b5061040f61040a36600461220b565b6120ac565b6040516101999190612495565b34801561042857600080fd5b506104486104373660046124ba565b63f23a6e6160e01b95945050505050565b6040516001600160e01b03199091168152602001610199565b34801561046d57600080fd5b50610354600281565b6002805414156104a15760405162461bcd60e51b8152600401610498906125a4565b60405180910390fd5b600280556001600160a01b038281166000908152600360209081526040808320858452600401909152902060068101549091163314806104ed575060058101546001600160a01b031633145b6105395760405162461bcd60e51b815260206004820181905260248201527f4f6e6c792073656c6c6572206f722062757965722063616e206465636c696e656044820152606401610498565b60068101546001600160a01b03166105885760405162461bcd60e51b81526020600482015260126024820152714e6f7468696e6720746f206465636c696e6560701b6044820152606401610498565b600681015460018201546040516000926001600160a01b031691908381818185875af1925050503d80600081146105db576040519150601f19603f3d011682016040523d82523d6000602084013e6105e0565b606091505b50506001600160a01b0385166000818152600360209081526040808320888452600401825280832060060180546001600160a81b03191690555133815293945090928692917f3b9c3dc223d366e4c735e888a058709626d7866ef7a5d00cfb1aee144a658a3a91015b60405180910390a4505060016002555050565b6106876040518060800160405280600081526020016000815260200160008152602001600081525090565b6106b26040518060800160405280600081526020016000815260200160008152602001600081525090565b6001600160a01b039092166000818152600360208181526040808420600181015488840152805488528084015460608901529490935252600290910154908301525090565b6002805414156107195760405162461bcd60e51b8152600401610498906125a4565b600280556001600160a01b038216600090815260036020908152604080832084845260040190915290206006810154600160a01b900460ff1661079e5760405162461bcd60e51b815260206004820152601b60248201527f53656c6c6572206469646e7420616363657074206120747261646500000000006044820152606401610498565b60068101546001600160a01b03166107f25760405162461bcd60e51b815260206004820152601760248201527627379037b732903932b232b2b6b99030b71037b93232b960491b6044820152606401610498565b6000610800600260646126d5565b8260040154836001015461081491906126e1565b61081e9190612700565b905060008183600101546108329190612722565b60058401546040519192506000916001600160a01b039091169083908381818185875af1925050503d8060008114610886576040519150601f19603f3d011682016040523d82523d6000602084013e61088b565b606091505b50509050806108dc5760405162461bcd60e51b815260206004820152601a60248201527f43616e206e6f742073656e642057454920746f2073656c6c65720000000000006044820152606401610498565b6000866001600160a01b0316638da5cb5b6040518163ffffffff1660e01b8152600401602060405180830381600087803b15801561091957600080fd5b505af115801561092d573d6000803e3d6000fd5b505050506040513d601f19601f820116820180604052508101906109519190612739565b6001600160a01b03168460405160006040518083038185875af1925050503d806000811461099b576040519150601f19603f3d011682016040523d82523d6000602084013e6109a0565b606091505b50509050806109c15760405162461bcd60e51b815260040161049890612756565b60068501546002860154600387015460408051808201825260018152600360fc1b60208201529051637921219560e11b81526001600160a01b038c81169563f242432a95610a1b953095939092169390929060040161279c565b600060405180830381600087803b158015610a3557600080fd5b505af1158015610a49573d6000803e3d6000fd5b505050506001600160a01b0387166000908152600360205260408120600101805491610a748361281b565b90915550506001600160a01b0380881660008181526003602081815260408084208c8552600490810190925280842084815560018101859055600281018590559283018490559082018390556005820180546001600160a01b0319169055600691820180546001600160a81b03191690559089015490519316928992917ff305e643d8e205f27e0e8c5ec9ad5f8097754174de0fe20e1dba309696b32d8591a4505060016002555050505050565b600280541415610b445760405162461bcd60e51b8152600401610498906125a4565b600280556001600160a01b0383811660009081526003602090815260408083208684526004019091529020600681015460059091015490821691163314610bc45760405162461bcd60e51b81526020600482015260146024820152732cb7ba9030b932903737ba10309039b2b63632b960611b6044820152606401610498565b6001600160a01b038116610c145760405162461bcd60e51b815260206004820152601760248201527627379037b732903932b232b2b6b99030b71037b93232b960491b6044820152606401610498565b8115610c87576001600160a01b0384166000818152600360209081526040808320878452600401909152808220600601805460ff60a01b1916600160a01b1790555184151592869290917fd8ea04489f9337d4911713fe8a708db8b965cacf229c114ef449ff5b8a9868549190a4610d6f565b6001600160a01b03848116600090815260036020908152604080832087845260040190915280822060010154905191928416918381818185875af1925050503d8060008114610cf2576040519150601f19603f3d011682016040523d82523d6000602084013e610cf7565b606091505b50506001600160a01b0386811660008181526003602090815260408083208a845260040182529182902060060180546001600160a01b0319169055905192861683529293508515159287927f3b9c3dc223d366e4c735e888a058709626d7866ef7a5d00cfb1aee144a658a3a910160405180910390a4505b505060016002555050565b6001600160a01b0382166000908152600360209081526040808320848452600401909152902060010154341015610df35760405162461bcd60e51b815260206004820152601c60248201527f496e73756666696369656e742066756e647320746f2072656465656d000000006044820152606401610498565b6001600160a01b0382811660009081526003602090815260408083208584526004019091529020600601541615610e645760405162461bcd60e51b815260206004820152601560248201527413dc99195c881a185cc81899595b88199d5b991959605a1b6044820152606401610498565b6001600160a01b038216600081815260036020908152604080832085845260040190915280822060060180546001600160a01b0319163390811790915590519092849290917f0c7ca24b1124503bba6041e71434dc779cd45f5af108f3fad77abd2535796ee09190a45050565b6000546001600160a01b03163314610f235760405162461bcd60e51b8152602060048201526015602482015274596f7520617265206e6f7420616e206f776e65722160581b6044820152606401610498565b600155565b6001600160a01b038281166000908152600360209081526040808320858452600401909152902060058101549091163314610f9c5760405162461bcd60e51b81526020600482015260146024820152732cb7ba9030b932903737ba10309039b2b63632b960611b6044820152606401610498565b60068101546001600160a01b0316156110075760405162461bcd60e51b815260206004820152602760248201527f4f726465722069732066756e6465642c2066756e6473206d7573742062652072604482015266195d1d5c9b995960ca1b6064820152608401610498565b6002810154600382015460408051808201825260018152600360fc1b60208201529051637921219560e11b81526001600160a01b0387169363f242432a93611058933093339392919060040161279c565b600060405180830381600087803b15801561107257600080fd5b505af1158015611086573d6000803e3d6000fd5b505050506001600160a01b0383166000818152600360208181526040808420878552600480820184529185208581556001808201879055600282018790558186018790559281018690556005810180546001600160a01b031916905560060180546001600160a81b03191690559484529190529091018054916111088361281b565b9091555050604051339083906001600160a01b038616907fdbca7392797a73097a0aa25c89f3e452fea76affdbb7c16d17240b7fe9e34bd290600090a4505050565b61271082101561116c5760405162461bcd60e51b815260040161049890612832565b6001548110156111d25760405162461bcd60e51b815260206004820152602b60248201527f54696d65206d757374206265206d6f7265207468656e206d696e696d616c206160448201526a756374696f6e2074696d6560a81b6064820152608401610498565b60408051808201825260018152600360fc1b60208201529051637921219560e11b81526001600160a01b0387169163f242432a9161121b91339130918a918a919060040161279c565b600060405180830381600087803b15801561123557600080fd5b505af1158015611249573d6000803e3d6000fd5b505050506001600160a01b038516600081815260036020818152604080842060028082015480875260059092018452828620828155600181018a90559081018b90559093018890558051634c1a411560e01b81529051929493634c1a411593600480840194939192918390030190829087803b1580156112c857600080fd5b505af11580156112dc573d6000803e3d6000fd5b505050506040513d601f19601f820116820180604052508101906113009190612875565b6001600160a01b03871660009081526003602090815260408083208584526005019091529020600481019190915560070180546001600160a01b0319163317905561134b824261288e565b6001600160a01b038716600081815260036020818152604080842087855260058082018452918520909101959095559282529091526002909101805491611391836128a6565b90915550506001600160a01b03861660009081526003602081905260408220018054916113bd836128a6565b90915550506040805186815260208101869052908101849052339086906001600160a01b038916907f49dcb78f11aac3b63f364127415374455c7f2493651ae8241f95e07b30fc09b99060600160405180910390a4505050505050565b611422612143565b506001600160a01b038083166000908152600360208181526040808420868552600590810183529381902081516101008101835281548152600182015493810193909352600281015491830191909152918201546060820152600482015460808201529181015460a08301526006810154831660c08301526007015490911660e08201525b92915050565b6127108110156114cf5760405162461bcd60e51b815260040161049890612832565b60408051808201825260018152600360fc1b60208201529051637921219560e11b81526001600160a01b0386169163f242432a916115189133913091899189919060040161279c565b600060405180830381600087803b15801561153257600080fd5b505af1158015611546573d6000803e3d6000fd5b505050506001600160a01b0384166000818152600360208181526040808420805480865260049182018452828620818155600281018b905560018101899055948501899055600590940180546001600160a01b031916331790558151634c1a411560e01b81529151939594634c1a41159483830194939092908390030190829087803b1580156115d557600080fd5b505af11580156115e9573d6000803e3d6000fd5b505050506040513d601f19601f8201168201806040525081019061160d9190612875565b6001600160a01b038616600081815260036020818152604080842087855260048082018452918520909101959095559282529091528154919061164f836128a6565b90915550506001600160a01b038516600090815260036020526040812060010180549161167b836128a6565b90915550506040805185815260208101859052908101839052339082906001600160a01b038816907f72d58c1bf20f849a3ee7f6c1b0249227b0a36c2dca868894ea826a5184dfc1c09060600160405180910390a45050505050565b6002805414156116f95760405162461bcd60e51b8152600401610498906125a4565b600280556001600160a01b038216600090815260036020908152604080832084845260059081019092529091209081015442116117785760405162461bcd60e51b815260206004820152601960248201527f41756374696f6e2074696d6520646964206e6f742070617373000000000000006044820152606401610498565b60068101546001600160a01b031661181b5760078101546002820154600383015460408051808201825260018152600360fc1b60208201529051637921219560e11b81526001600160a01b038881169563f242432a956117e4953095939092169390929060040161279c565b600060405180830381600087803b1580156117fe57600080fd5b505af1158015611812573d6000803e3d6000fd5b50505050611a7b565b6000611829600260646126d5565b8260040154836001015461183d91906126e1565b6118479190612700565b9050600081836001015461185b9190612722565b60078401546040519192506000916001600160a01b039091169083908381818185875af1925050503d80600081146118af576040519150601f19603f3d011682016040523d82523d6000602084013e6118b4565b606091505b50509050806119055760405162461bcd60e51b815260206004820152601a60248201527f43616e206e6f742073656e642057454920746f2073656c6c65720000000000006044820152606401610498565b6000866001600160a01b0316638da5cb5b6040518163ffffffff1660e01b8152600401602060405180830381600087803b15801561194257600080fd5b505af1158015611956573d6000803e3d6000fd5b505050506040513d601f19601f8201168201806040525081019061197a9190612739565b6001600160a01b03168460405160006040518083038185875af1925050503d80600081146119c4576040519150601f19603f3d011682016040523d82523d6000602084013e6119c9565b606091505b50509050806119ea5760405162461bcd60e51b815260040161049890612756565b60068501546002860154600387015460408051808201825260018152600360fc1b60208201529051637921219560e11b81526001600160a01b038c81169563f242432a95611a44953095939092169390929060040161279c565b600060405180830381600087803b158015611a5e57600080fd5b505af1158015611a72573d6000803e3d6000fd5b50505050505050505b6001600160a01b0383166000908152600360208190526040822001805491611aa28361281b565b90915550506001600160a01b03838116600081815260036020818152604080842088855260059081018352818520858155600180820187905560028083018890558287018890556004830188905592820196909655600680820180546001600160a01b0319908116909155600790920180549092169091558801549488015490880154938801548251918252928101939093528201529216918491907f0871c5e7f9a4a7fcba0008f75e266318c7f174512aa34bb4324a3e6ffbe062199060600160405180910390a45050600160025550565b6001600160a01b0381166000908152600360205260408120600101546060919067ffffffffffffffff811115611bad57611bad6124a4565b604051908082528060200260200182016040528015611be657816020015b611bd361219a565b815260200190600190039081611bcb5790505b5090506000805b6001600160a01b038516600090815260036020526040902054811015611d09576001600160a01b0385811660009081526003602090815260408083208584526004019091529020600501541615611cf7576001600160a01b0385811660009081526003602081815260408084208685526004908101835293819020815161010081018352815481526001820154938101939093526002810154918301919091529182015460608201529181015460808301526005810154831660a08301526006015491821660c0820152600160a01b90910460ff16151560e08201528351849084908110611cdd57611cdd6128c1565b60200260200101819052508180611cf3906128a6565b9250505b80611d01816128a6565b915050611bed565b50909392505050565b600280541415611d345760405162461bcd60e51b8152600401610498906125a4565b600280556001600160a01b03808316600090815260036020908152604080832085845260050190915290206007810154909116611dab5760405162461bcd60e51b8152602060048201526015602482015274546f6b656e73206973206e6f74206f6e2073616c6560581b6044820152606401610498565b42816005015411611df45760405162461bcd60e51b8152602060048201526013602482015272105d58dd1a5bdb881d1a5b59481c185cdcd959606a1b6044820152606401610498565b80600101543411611e475760405162461bcd60e51b815260206004820181905260248201527f426964206d75737420626520686967686572207468616e2070726576696f75736044820152606401610498565b600681015460018201546040516000926001600160a01b031691908381818185875af1925050503d8060008114611e9a576040519150601f19603f3d011682016040523d82523d6000602084013e611e9f565b606091505b50506001600160a01b03851660008181526003602090815260408083208884526005018252918290206006810180546001600160a01b03191633908117909155346001909201829055925190815293945090928692917fe7a4aa6712f6b8533e5a0aad75720c02b98c1a0567afaa7f68f56c1d475bcec39101610649565b6001600160a01b0381166000908152600360208190526040822001546060919067ffffffffffffffff811115611f5557611f556124a4565b604051908082528060200260200182016040528015611f8e57816020015b611f7b612143565b815260200190600190039081611f735790505b5090506000805b6001600160a01b038516600090815260036020526040902060020154811015611d09576001600160a01b038581166000908152600360209081526040808320858452600501909152902060070154161561209a576001600160a01b038086166000908152600360208181526040808420868552600590810183529381902081516101008101835281548152600182015493810193909352600281015491830191909152918201546060820152600482015460808201529181015460a08301526006810154831660c08301526007015490911660e08201528351849084908110612080576120806128c1565b60200260200101819052508180612096906128a6565b9250505b806120a4816128a6565b915050611f95565b6120b461219a565b506001600160a01b0391821660009081526003602081815260408084209484526004948501825292839020835161010081018552815481526001820154928101929092526002810154938201939093529082015460608201529181015460808301526005810154831660a08301526006015491821660c0820152600160a01b90910460ff16151560e082015290565b60405180610100016040528060008152602001600081526020016000815260200160008152602001600081526020016000815260200160006001600160a01b0316815260200160006001600160a01b031681525090565b604051806101000160405280600081526020016000815260200160008152602001600081526020016000815260200160006001600160a01b0316815260200160006001600160a01b031681526020016000151581525090565b6001600160a01b038116811461220857600080fd5b50565b6000806040838503121561221e57600080fd5b8235612229816121f3565b946020939093013593505050565b60006020828403121561224957600080fd5b8135612254816121f3565b9392505050565b60008060006060848603121561227057600080fd5b833561227b816121f3565b9250602084013591506040840135801515811461229757600080fd5b809150509250925092565b6000602082840312156122b457600080fd5b5035919050565b600080600080600060a086880312156122d357600080fd5b85356122de816121f3565b97602087013597506040870135966060810135965060800135945092505050565b805182526020810151602083015260408101516040830152606081015160608301526080810151608083015260a081015160a083015260c081015160018060a01b0380821660c08501528060e08401511660e085015250505050565b61010081016114a782846122ff565b6000806000806080858703121561238057600080fd5b843561238b816121f3565b966020860135965060408601359560600135945092505050565b805182526020810151602083015260408101516040830152606081015160608301526080810151608083015260a081015160018060a01b0380821660a08501528060c08401511660c0850152505060e0810151151560e08301525050565b6020808252825182820181905260009190848201906040850190845b81811015612446576124328385516123a5565b92840192610100929092019160010161241f565b50909695505050505050565b6020808252825182820181905260009190848201906040850190845b81811015612446576124818385516122ff565b92840192610100929092019160010161246e565b61010081016114a782846123a5565b634e487b7160e01b600052604160045260246000fd5b600080600080600060a086880312156124d257600080fd5b85356124dd816121f3565b945060208601356124ed816121f3565b93506040860135925060608601359150608086013567ffffffffffffffff8082111561251857600080fd5b818801915088601f83011261252c57600080fd5b81358181111561253e5761253e6124a4565b604051601f8201601f19908116603f01168101908382118183101715612566576125666124a4565b816040528281528b602084870101111561257f57600080fd5b8260208601602083013760006020848301015280955050505050509295509295909350565b6020808252601f908201527f5265656e7472616e637947756172643a207265656e7472616e742063616c6c00604082015260600190565b634e487b7160e01b600052601160045260246000fd5b600181815b8085111561262c578160001904821115612612576126126125db565b8085161561261f57918102915b93841c93908002906125f6565b509250929050565b600082612643575060016114a7565b81612650575060006114a7565b816001811461266657600281146126705761268c565b60019150506114a7565b60ff841115612681576126816125db565b50506001821b6114a7565b5060208310610133831016604e8410600b84101617156126af575081810a6114a7565b6126b983836125f1565b80600019048211156126cd576126cd6125db565b029392505050565b60006122548383612634565b60008160001904831182151516156126fb576126fb6125db565b500290565b60008261271d57634e487b7160e01b600052601260045260246000fd5b500490565b600082821015612734576127346125db565b500390565b60006020828403121561274b57600080fd5b8151612254816121f3565b60208082526026908201527f43616e206e6f742073656e642057454920746f204e465420636f6e74726163746040820152651027bbb732b960d11b606082015260800190565b600060018060a01b03808816835260208188168185015286604085015285606085015260a06080850152845191508160a085015260005b828110156127ef5785810182015185820160c0015281016127d3565b8281111561280157600060c084870101525b5050601f01601f19169190910160c0019695505050505050565b60008161282a5761282a6125db565b506000190190565b60208082526023908201527f4d696e696d616c20707269636520666f722073616c652069732031303030302060408201526257454960e81b606082015260800190565b60006020828403121561288757600080fd5b5051919050565b600082198211156128a1576128a16125db565b500190565b60006000198214156128ba576128ba6125db565b5060010190565b634e487b7160e01b600052603260045260246000fdfea264697066735822122026c9b2db61f5bbb77a2a366896fdcbd99bf1a67a1458f8139fd95e605ba7ebf164736f6c63430008090033",
  "linkReferences": {},
  "deployedLinkReferences": {}
}