{
  "_format": "hh-sol-artifact-1",
  "contractName": "Marketplace721",
  "sourceName": "contracts/Marketplace721.sol",
  "abi": [
    {
      "inputs": [],
      "stateMutability": "nonpayable",
      "type": "constructor"
    },
    {
      "anonymous": false,
      "inputs": [
        {
          "indexed": true,
          "internalType": "address",
          "name": "NFTAddress",
          "type": "address"
        },
        {
          "indexed": true,
          "internalType": "uint256",
          "name": "auctionId",
          "type": "uint256"
        },
        {
          "indexed": true,
          "internalType": "address",
          "name": "bestBidder",
          "type": "address"
        },
        {
          "indexed": false,
          "internalType": "address",
          "name": "erc20",
          "type": "address"
        },
        {
          "indexed": false,
          "internalType": "uint256",
          "name": "bestBid",
          "type": "uint256"
        },
        {
          "indexed": false,
          "internalType": "uint256",
          "name": "tokenId",
          "type": "uint256"
        }
      ],
      "name": "AuctionEnded",
      "type": "event"
    },
    {
      "anonymous": false,
      "inputs": [
        {
          "indexed": true,
          "internalType": "address",
          "name": "NFTAddress",
          "type": "address"
        },
        {
          "indexed": true,
          "internalType": "uint256",
          "name": "auctionId",
          "type": "uint256"
        },
        {
          "indexed": true,
          "internalType": "address",
          "name": "seller",
          "type": "address"
        },
        {
          "indexed": false,
          "internalType": "address",
          "name": "erc20",
          "type": "address"
        },
        {
          "indexed": false,
          "internalType": "uint256",
          "name": "tokenId",
          "type": "uint256"
        },
        {
          "indexed": false,
          "internalType": "uint256",
          "name": "startprice",
          "type": "uint256"
        }
      ],
      "name": "AuctionStarted",
      "type": "event"
    },
    {
      "anonymous": false,
      "inputs": [
        {
          "indexed": true,
          "internalType": "address",
          "name": "NFTAddress",
          "type": "address"
        },
        {
          "indexed": true,
          "internalType": "uint256",
          "name": "auctionId",
          "type": "uint256"
        },
        {
          "indexed": true,
          "internalType": "address",
          "name": "bestBidder",
          "type": "address"
        },
        {
          "indexed": false,
          "internalType": "uint256",
          "name": "bestBid",
          "type": "uint256"
        }
      ],
      "name": "BibDone",
      "type": "event"
    },
    {
      "anonymous": false,
      "inputs": [
        {
          "indexed": true,
          "internalType": "address",
          "name": "NFTAddress",
          "type": "address"
        },
        {
          "indexed": true,
          "internalType": "uint256",
          "name": "orderId",
          "type": "uint256"
        },
        {
          "indexed": true,
          "internalType": "bool",
          "name": "accepted",
          "type": "bool"
        },
        {
          "indexed": false,
          "internalType": "address",
          "name": "buyer",
          "type": "address"
        }
      ],
      "name": "FundsReturned",
      "type": "event"
    },
    {
      "anonymous": false,
      "inputs": [
        {
          "indexed": true,
          "internalType": "address",
          "name": "NFTAddress",
          "type": "address"
        },
        {
          "indexed": true,
          "internalType": "uint256",
          "name": "orderId",
          "type": "uint256"
        },
        {
          "indexed": true,
          "internalType": "address",
          "name": "seller",
          "type": "address"
        },
        {
          "indexed": false,
          "internalType": "address",
          "name": "erc20",
          "type": "address"
        },
        {
          "indexed": false,
          "internalType": "uint256",
          "name": "tokenId",
          "type": "uint256"
        },
        {
          "indexed": false,
          "internalType": "uint256",
          "name": "price",
          "type": "uint256"
        }
      ],
      "name": "OrderAdded",
      "type": "event"
    },
    {
      "anonymous": false,
      "inputs": [
        {
          "indexed": true,
          "internalType": "address",
          "name": "NFTAddress",
          "type": "address"
        },
        {
          "indexed": true,
          "internalType": "uint256",
          "name": "orderId",
          "type": "uint256"
        },
        {
          "indexed": true,
          "internalType": "address",
          "name": "buyer",
          "type": "address"
        },
        {
          "indexed": false,
          "internalType": "address",
          "name": "erc20",
          "type": "address"
        }
      ],
      "name": "OrderCompleted",
      "type": "event"
    },
    {
      "anonymous": false,
      "inputs": [
        {
          "indexed": true,
          "internalType": "address",
          "name": "NFTAddress",
          "type": "address"
        },
        {
          "indexed": true,
          "internalType": "uint256",
          "name": "orderId",
          "type": "uint256"
        },
        {
          "indexed": true,
          "internalType": "address",
          "name": "buyer",
          "type": "address"
        }
      ],
      "name": "OrderRedeemed",
      "type": "event"
    },
    {
      "anonymous": false,
      "inputs": [
        {
          "indexed": true,
          "internalType": "address",
          "name": "NFTAddress",
          "type": "address"
        },
        {
          "indexed": true,
          "internalType": "uint256",
          "name": "orderId",
          "type": "uint256"
        },
        {
          "indexed": true,
          "internalType": "address",
          "name": "seller",
          "type": "address"
        }
      ],
      "name": "OrderRemoved",
      "type": "event"
    },
    {
      "anonymous": false,
      "inputs": [
        {
          "indexed": true,
          "internalType": "address",
          "name": "NFTAddress",
          "type": "address"
        },
        {
          "indexed": true,
          "internalType": "uint256",
          "name": "orderId",
          "type": "uint256"
        },
        {
          "indexed": true,
          "internalType": "bool",
          "name": "accepted",
          "type": "bool"
        }
      ],
      "name": "SellerAccepted",
      "type": "event"
    },
    {
      "inputs": [
        {
          "internalType": "address",
          "name": "",
          "type": "address"
        }
      ],
      "name": "TradingInfo",
      "outputs": [
        {
          "internalType": "uint256",
          "name": "lastOrderId",
          "type": "uint256"
        },
        {
          "internalType": "uint256",
          "name": "currentOrders",
          "type": "uint256"
        },
        {
          "internalType": "uint256",
          "name": "lastAuctionId",
          "type": "uint256"
        },
        {
          "internalType": "uint256",
          "name": "currentAuctions",
          "type": "uint256"
        }
      ],
      "stateMutability": "view",
      "type": "function"
    },
    {
      "inputs": [
        {
          "internalType": "address",
          "name": "contractAddress",
          "type": "address"
        },
        {
          "internalType": "uint256",
          "name": "orderId",
          "type": "uint256"
        },
        {
          "internalType": "bool",
          "name": "isAccepted",
          "type": "bool"
        }
      ],
      "name": "acceptOrder",
      "outputs": [],
      "stateMutability": "nonpayable",
      "type": "function"
    },
    {
      "inputs": [
        {
          "internalType": "address",
          "name": "contractAddress",
          "type": "address"
        },
        {
          "internalType": "uint256",
          "name": "tokenId",
          "type": "uint256"
        },
        {
          "internalType": "uint256",
          "name": "price",
          "type": "uint256"
        },
        {
          "internalType": "string",
          "name": "currency",
          "type": "string"
        }
      ],
      "name": "addOrder",
      "outputs": [],
      "stateMutability": "nonpayable",
      "type": "function"
    },
    {
      "inputs": [
        {
          "internalType": "address",
          "name": "contractAddress",
          "type": "address"
        },
        {
          "internalType": "uint256",
          "name": "auctionId",
          "type": "uint256"
        }
      ],
      "name": "completeAuction",
      "outputs": [],
      "stateMutability": "nonpayable",
      "type": "function"
    },
    {
      "inputs": [
        {
          "internalType": "address",
          "name": "contractAddress",
          "type": "address"
        },
        {
          "internalType": "uint256",
          "name": "orderId",
          "type": "uint256"
        }
      ],
      "name": "completeOrder",
      "outputs": [],
      "stateMutability": "nonpayable",
      "type": "function"
    },
    {
      "inputs": [
        {
          "internalType": "address",
          "name": "contractAddress",
          "type": "address"
        },
        {
          "internalType": "uint256",
          "name": "orderId",
          "type": "uint256"
        }
      ],
      "name": "declineOrder",
      "outputs": [],
      "stateMutability": "nonpayable",
      "type": "function"
    },
    {
      "inputs": [
        {
          "internalType": "address",
          "name": "nftContractAddress",
          "type": "address"
        }
      ],
      "name": "getAllAuctions",
      "outputs": [
        {
          "components": [
            {
              "internalType": "uint256",
              "name": "auctionId",
              "type": "uint256"
            },
            {
              "internalType": "uint256",
              "name": "tokenId",
              "type": "uint256"
            },
            {
              "internalType": "uint256",
              "name": "bestBid",
              "type": "uint256"
            },
            {
              "internalType": "uint256",
              "name": "percentFee",
              "type": "uint256"
            },
            {
              "internalType": "uint256",
              "name": "auctionEndUnix",
              "type": "uint256"
            },
            {
              "internalType": "address",
              "name": "bestBidder",
              "type": "address"
            },
            {
              "internalType": "address",
              "name": "seller",
              "type": "address"
            },
            {
              "internalType": "address",
              "name": "erc20",
              "type": "address"
            }
          ],
          "internalType": "struct Marketplace721.Auction[]",
          "name": "",
          "type": "tuple[]"
        }
      ],
      "stateMutability": "view",
      "type": "function"
    },
    {
      "inputs": [
        {
          "internalType": "address",
          "name": "nftContractAddress",
          "type": "address"
        }
      ],
      "name": "getAllOrders",
      "outputs": [
        {
          "components": [
            {
              "internalType": "uint256",
              "name": "orderId",
              "type": "uint256"
            },
            {
              "internalType": "uint256",
              "name": "tokenId",
              "type": "uint256"
            },
            {
              "internalType": "uint256",
              "name": "price",
              "type": "uint256"
            },
            {
              "internalType": "uint256",
              "name": "percentFee",
              "type": "uint256"
            },
            {
              "internalType": "address",
              "name": "seller",
              "type": "address"
            },
            {
              "internalType": "address",
              "name": "buyer",
              "type": "address"
            },
            {
              "internalType": "address",
              "name": "erc20",
              "type": "address"
            },
            {
              "internalType": "bool",
              "name": "sellerAccepted",
              "type": "bool"
            }
          ],
          "internalType": "struct Marketplace721.Order[]",
          "name": "",
          "type": "tuple[]"
        }
      ],
      "stateMutability": "view",
      "type": "function"
    },
    {
      "inputs": [
        {
          "internalType": "address",
          "name": "nftContractAddress",
          "type": "address"
        },
        {
          "internalType": "uint256",
          "name": "auctionId",
          "type": "uint256"
        }
      ],
      "name": "getAuction",
      "outputs": [
        {
          "components": [
            {
              "internalType": "uint256",
              "name": "auctionId",
              "type": "uint256"
            },
            {
              "internalType": "uint256",
              "name": "tokenId",
              "type": "uint256"
            },
            {
              "internalType": "uint256",
              "name": "bestBid",
              "type": "uint256"
            },
            {
              "internalType": "uint256",
              "name": "percentFee",
              "type": "uint256"
            },
            {
              "internalType": "uint256",
              "name": "auctionEndUnix",
              "type": "uint256"
            },
            {
              "internalType": "address",
              "name": "bestBidder",
              "type": "address"
            },
            {
              "internalType": "address",
              "name": "seller",
              "type": "address"
            },
            {
              "internalType": "address",
              "name": "erc20",
              "type": "address"
            }
          ],
          "internalType": "struct Marketplace721.Auction",
          "name": "auctionInfo",
          "type": "tuple"
        }
      ],
      "stateMutability": "view",
      "type": "function"
    },
    {
      "inputs": [
        {
          "internalType": "address",
          "name": "nftContractAddress",
          "type": "address"
        },
        {
          "internalType": "uint256",
          "name": "orderId",
          "type": "uint256"
        }
      ],
      "name": "getOrder",
      "outputs": [
        {
          "components": [
            {
              "internalType": "uint256",
              "name": "orderId",
              "type": "uint256"
            },
            {
              "internalType": "uint256",
              "name": "tokenId",
              "type": "uint256"
            },
            {
              "internalType": "uint256",
              "name": "price",
              "type": "uint256"
            },
            {
              "internalType": "uint256",
              "name": "percentFee",
              "type": "uint256"
            },
            {
              "internalType": "address",
              "name": "seller",
              "type": "address"
            },
            {
              "internalType": "address",
              "name": "buyer",
              "type": "address"
            },
            {
              "internalType": "address",
              "name": "erc20",
              "type": "address"
            },
            {
              "internalType": "bool",
              "name": "sellerAccepted",
              "type": "bool"
            }
          ],
          "internalType": "struct Marketplace721.Order",
          "name": "orderInfo",
          "type": "tuple"
        }
      ],
      "stateMutability": "view",
      "type": "function"
    },
    {
      "inputs": [
        {
          "internalType": "address",
          "name": "nftContractAddress",
          "type": "address"
        }
      ],
      "name": "getTradingInfo",
      "outputs": [
        {
          "components": [
            {
              "internalType": "uint256",
              "name": "lastOrderId",
              "type": "uint256"
            },
            {
              "internalType": "uint256",
              "name": "currentOrders",
              "type": "uint256"
            },
            {
              "internalType": "uint256",
              "name": "lastAuctionId",
              "type": "uint256"
            },
            {
              "internalType": "uint256",
              "name": "currentAuctions",
              "type": "uint256"
            }
          ],
          "internalType": "struct Marketplace721._NFTContractInfo",
          "name": "",
          "type": "tuple"
        }
      ],
      "stateMutability": "view",
      "type": "function"
    },
    {
      "inputs": [
        {
          "internalType": "address",
          "name": "contractAddress",
          "type": "address"
        },
        {
          "internalType": "uint256",
          "name": "auctionId",
          "type": "uint256"
        }
      ],
      "name": "makeBid",
      "outputs": [],
      "stateMutability": "payable",
      "type": "function"
    },
    {
      "inputs": [],
      "name": "minimumAuctionTime",
      "outputs": [
        {
          "internalType": "uint256",
          "name": "",
          "type": "uint256"
        }
      ],
      "stateMutability": "view",
      "type": "function"
    },
    {
      "inputs": [
        {
          "internalType": "address",
          "name": "",
          "type": "address"
        },
        {
          "internalType": "address",
          "name": "",
          "type": "address"
        },
        {
          "internalType": "uint256",
          "name": "",
          "type": "uint256"
        },
        {
          "internalType": "bytes",
          "name": "",
          "type": "bytes"
        }
      ],
      "name": "onERC721Received",
      "outputs": [
        {
          "internalType": "bytes4",
          "name": "",
          "type": "bytes4"
        }
      ],
      "stateMutability": "pure",
      "type": "function"
    },
    {
      "inputs": [],
      "name": "owner",
      "outputs": [
        {
          "internalType": "address",
          "name": "",
          "type": "address"
        }
      ],
      "stateMutability": "view",
      "type": "function"
    },
    {
      "inputs": [],
      "name": "percentDecimals",
      "outputs": [
        {
          "internalType": "uint256",
          "name": "",
          "type": "uint256"
        }
      ],
      "stateMutability": "view",
      "type": "function"
    },
    {
      "inputs": [
        {
          "internalType": "address",
          "name": "contractAddress",
          "type": "address"
        },
        {
          "internalType": "uint256",
          "name": "orderId",
          "type": "uint256"
        }
      ],
      "name": "redeemOrder",
      "outputs": [],
      "stateMutability": "payable",
      "type": "function"
    },
    {
      "inputs": [
        {
          "internalType": "address",
          "name": "contractAddress",
          "type": "address"
        },
        {
          "internalType": "uint256",
          "name": "orderId",
          "type": "uint256"
        }
      ],
      "name": "removeOrder",
      "outputs": [],
      "stateMutability": "nonpayable",
      "type": "function"
    },
    {
      "inputs": [
        {
          "internalType": "uint256",
          "name": "timeInSeconds",
          "type": "uint256"
        }
      ],
      "name": "setMinimalAuctionTime",
      "outputs": [],
      "stateMutability": "nonpayable",
      "type": "function"
    },
    {
      "inputs": [
        {
          "internalType": "address",
          "name": "contractAddress",
          "type": "address"
        },
        {
          "internalType": "uint256",
          "name": "tokenId",
          "type": "uint256"
        },
        {
          "internalType": "uint256",
          "name": "initialPrice",
          "type": "uint256"
        },
        {
          "internalType": "uint256",
          "name": "secondsToEnd",
          "type": "uint256"
        },
        {
          "internalType": "string",
          "name": "currency",
          "type": "string"
        }
      ],
      "name": "startAuction",
      "outputs": [],
      "stateMutability": "nonpayable",
      "type": "function"
    }
  ],
  "bytecode": "0x608060405234801561001057600080fd5b50600080546001600160a01b031916331790556001600255613424806100376000396000f3fe60806040526004361061011f5760003560e01c8063762a66a2116100a0578063bc24555a11610064578063bc24555a146103d3578063d73030b7146103e6578063e511beec14610413578063edb2584114610433578063f75195bc1461046057600080fd5b8063762a66a2146102fd5780638da5cb5b1461032a57806395a4e48614610362578063a3ce9c9914610382578063b5fec1ff146103a657600080fd5b80632edd2976116100e75780632edd29761461022657806351f5b0101461023957806355a3bc2f146102595780635a2571611461027957806364258108146102dd57600080fd5b806303bcdac01461012457806307610d5b146101465780630e947bd814610166578063150b7a02146101c2578063223df93d14610206575b600080fd5b34801561013057600080fd5b5061014461013f366004612cef565b610475565b005b34801561015257600080fd5b50610144610161366004612d62565b61087a565b34801561017257600080fd5b50610186610181366004612d8e565b610b11565b6040516101b991908151815260208083015190820152604080830151908201526060918201519181019190915260800190565b60405180910390f35b3480156101ce57600080fd5b506101ed6101dd366004612dc8565b630a85bd0160e11b949350505050565b6040516001600160e01b031990911681526020016101b9565b34801561021257600080fd5b50610144610221366004612eb6565b610bac565b610144610234366004612d62565b610eb9565b34801561024557600080fd5b50610144610254366004612ef8565b6110f2565b34801561026557600080fd5b50610144610274366004612f11565b611149565b34801561028557600080fd5b506102bd610294366004612d8e565b600360208190526000918252604090912080546001820154600283015492909301549092919084565b6040805194855260208501939093529183015260608201526080016101b9565b3480156102e957600080fd5b506101446102f8366004612d62565b6114a3565b34801561030957600080fd5b5061031d610318366004612d62565b6116b9565b6040516101b99190612fd9565b34801561033657600080fd5b5060005461034a906001600160a01b031681565b6040516001600160a01b0390911681526020016101b9565b34801561036e57600080fd5b5061014461037d366004612d62565b61174e565b34801561038e57600080fd5b5061039860015481565b6040519081526020016101b9565b3480156103b257600080fd5b506103c66103c1366004612d8e565b611d1c565b6040516101b99190613048565b6101446103e1366004612d62565b611ebc565b3480156103f257600080fd5b50610406610401366004612d8e565b61234d565b6040516101b99190613097565b34801561041f57600080fd5b5061014461042e366004612d62565b6124de565b34801561043f57600080fd5b5061045361044e366004612d62565b612b33565b6040516101b991906130da565b34801561046c57600080fd5b50610398600281565b6127108410156104a05760405162461bcd60e51b8152600401610497906130e9565b60405180910390fd5b6001548310156105065760405162461bcd60e51b815260206004820152602b60248201527f54696d65206d757374206265206d6f7265207468656e206d696e696d616c206160448201526a756374696f6e2074696d6560a81b6064820152608401610497565b604051632142170760e11b81526001600160a01b038716906342842e0e9061053690339030908a9060040161312c565b600060405180830381600087803b15801561055057600080fd5b505af1158015610564573d6000803e3d6000fd5b505050506001600160a01b0386166000818152600360209081526040808320600201548151633c2f4f4360e11b8152915190949263785e9e86926004808201939182900301818787803b1580156105ba57600080fd5b505af11580156105ce573d6000803e3d6000fd5b505050506040513d601f19601f820116820180604052508101906105f29190613150565b60405164065726332360dc1b602082015290915060250160405160208183030381529060405280519060200120848460405160200161063292919061316d565b6040516020818303038152906040528051906020012014801561065d57506001600160a01b03811615155b156106a2576001600160a01b038881166000908152600360209081526040808320868452600501909152902060070180546001600160a01b0319169183169190911790555b6001600160a01b03881660008181526003602090815260408083208684526005018252808320868155600281018b90556001018b90558051634c1a411560e01b81529051634c1a411593600480840194938390030190829087803b15801561070957600080fd5b505af115801561071d573d6000803e3d6000fd5b505050506040513d601f19601f82011682018060405250810190610741919061317d565b6001600160a01b03891660009081526003602081815260408084208785526005019091529091209081019190915560060180546001600160a01b0319163317905561078c85426131ac565b6001600160a01b03891660008181526003602081815260408084208885526005810183529084206004019590955592825290915260029091018054916107d1836131c4565b90915550506001600160a01b03881660009081526003602081905260408220018054916107fd836131c4565b90915550506001600160a01b0388811660008181526003602090815260408083208784526005018252918290206007015482519416845283018a9052820188905233918491907f75ee09a5a4ca17352dcac95e33290a3a085a7660a5f6a5b870de835a7bbd35199060600160405180910390a45050505050505050565b60028054141561089c5760405162461bcd60e51b8152600401610497906131df565b600280556001600160a01b038281166000908152600360209081526040808320858452600401909152902060058101549091163314806108e8575060048101546001600160a01b031633145b6109345760405162461bcd60e51b815260206004820181905260248201527f4f6e6c792073656c6c6572206f722062757965722063616e206465636c696e656044820152606401610497565b60058101546001600160a01b03166109835760405162461bcd60e51b81526020600482015260126024820152714e6f7468696e6720746f206465636c696e6560701b6044820152606401610497565b60068101546001600160a01b031615610a2e5760068101546005820154600283015460405163a9059cbb60e01b81526001600160a01b039283166004820152602481019190915291169063a9059cbb90604401602060405180830381600087803b1580156109f057600080fd5b505af1158015610a04573d6000803e3d6000fd5b505050506040513d601f19601f82011682018060405250810190610a289190613216565b50610a8b565b600581015460028201546040516000926001600160a01b031691908381818185875af1925050503d8060008114610a81576040519150601f19603f3d011682016040523d82523d6000602084013e610a86565b606091505b505050505b6001600160a01b038316600081815260036020908152604080832086845260040182528083206005810180546001600160a01b0319169055600601805460ff60a01b19169055513381529192859290917f3b9c3dc223d366e4c735e888a058709626d7866ef7a5d00cfb1aee144a658a3a91015b60405180910390a45050600160025550565b610b3c6040518060800160405280600081526020016000815260200160008152602001600081525090565b610b676040518060800160405280600081526020016000815260200160008152602001600081525090565b6001600160a01b039092166000818152600360208181526040808420600181015488840152805488528084015460608901529490935252600290910154908301525090565b600280541415610bce5760405162461bcd60e51b8152600401610497906131df565b600280556001600160a01b0383811660009081526003602090815260408083208684526004908101909252909120600581015491015490821691163314610c4e5760405162461bcd60e51b81526020600482015260146024820152732cb7ba9030b932903737ba10309039b2b63632b960611b6044820152606401610497565b6001600160a01b038116610c9e5760405162461bcd60e51b815260206004820152601760248201527627379037b732903932b232b2b6b99030b71037b93232b960491b6044820152606401610497565b8115610d11576001600160a01b0384166000818152600360209081526040808320878452600401909152808220600601805460ff60a01b1916600160a01b1790555184151592869290917fd8ea04489f9337d4911713fe8a708db8b965cacf229c114ef449ff5b8a9868549190a4610eae565b6001600160a01b0380851660009081526003602090815260408083208784526004019091529020600681015490911615610ddd5760068101546005820154600283015460405163a9059cbb60e01b81526001600160a01b039283166004820152602481019190915291169063a9059cbb90604401602060405180830381600087803b158015610d9f57600080fd5b505af1158015610db3573d6000803e3d6000fd5b505050506040513d601f19601f82011682018060405250810190610dd79190613216565b50610e3a565b600581015460028201546040516000926001600160a01b031691908381818185875af1925050503d8060008114610e30576040519150601f19603f3d011682016040523d82523d6000602084013e610e35565b606091505b505050505b6001600160a01b03858116600081815260036020908152604080832089845260040182529182902060050180546001600160a01b031916905590519285168352851515928792917f3b9c3dc223d366e4c735e888a058709626d7866ef7a5d00cfb1aee144a658a3a910160405180910390a4505b505060016002555050565b6001600160a01b0382811660009081526003602090815260408083208584526004019091529020600501541615610f2a5760405162461bcd60e51b815260206004820152601560248201527413dc99195c881a185cc81899595b88199d5b991959605a1b6044820152606401610497565b6001600160a01b038281166000908152600360209081526040808320858452600401909152902060060154161561100d576001600160a01b038281166000908152600360209081526040808320858452600490810190925291829020600681015460029091015492516323b872dd60e01b81529316926323b872dd92610fb59233923092910161312c565b602060405180830381600087803b158015610fcf57600080fd5b505af1158015610fe3573d6000803e3d6000fd5b505050506040513d601f19601f820116820180604052508101906110079190613216565b50611085565b6001600160a01b038216600090815260036020908152604080832084845260040190915290206002015434146110855760405162461bcd60e51b815260206004820152601960248201527f496e636f72726563742066756e647320746f2072656465656d000000000000006044820152606401610497565b6001600160a01b038216600081815260036020908152604080832085845260040190915280822060050180546001600160a01b0319163390811790915590519092849290917f0c7ca24b1124503bba6041e71434dc779cd45f5af108f3fad77abd2535796ee09190a45050565b6000546001600160a01b031633146111445760405162461bcd60e51b8152602060048201526015602482015274596f7520617265206e6f7420616e206f776e65722160581b6044820152606401610497565b600155565b61271083101561116b5760405162461bcd60e51b8152600401610497906130e9565b604051632142170760e11b81526001600160a01b038616906342842e0e9061119b9033903090899060040161312c565b600060405180830381600087803b1580156111b557600080fd5b505af11580156111c9573d6000803e3d6000fd5b505050506001600160a01b0385166000818152600360209081526040808320548151633c2f4f4360e11b8152915190949263785e9e86926004808201939182900301818787803b15801561121c57600080fd5b505af1158015611230573d6000803e3d6000fd5b505050506040513d601f19601f820116820180604052508101906112549190613150565b60405164065726332360dc1b602082015290915060250160405160208183030381529060405280519060200120848460405160200161129492919061316d565b604051602081830303815290604052805190602001201480156112bf57506001600160a01b03811615155b15611304576001600160a01b038781166000908152600360209081526040808320868452600401909152902060060180546001600160a01b0319169183169190911790555b6001600160a01b038716600081815260036020908152604080832086845260049081018352818420878155600181018c9055600281018b9055810180546001600160a01b031916331790558151634c1a411560e01b81529151634c1a411594838301949391929183900390910190829087803b15801561138357600080fd5b505af1158015611397573d6000803e3d6000fd5b505050506040513d601f19601f820116820180604052508101906113bb919061317d565b6001600160a01b0388166000818152600360208181526040808420888552600481018352908420830195909555928252909152815491906113fb836131c4565b90915550506001600160a01b0387166000908152600360205260408120600101805491611427836131c4565b90915550506001600160a01b038781166000818152600360209081526040808320878452600401825291829020600601548251941684528301899052820187905233918491907f9d7f7b621600001a8d53584fb8e78fc9ff7b9177ce024d86a5cb96df803c72729060600160405180910390a450505050505050565b6001600160a01b03828116600090815260036020908152604080832085845260049081019092529091209081015490911633146115195760405162461bcd60e51b81526020600482015260146024820152732cb7ba9030b932903737ba10309039b2b63632b960611b6044820152606401610497565b60058101546001600160a01b0316156115845760405162461bcd60e51b815260206004820152602760248201527f4f726465722069732066756e6465642c2066756e6473206d7573742062652072604482015266195d1d5c9b995960ca1b6064820152608401610497565b60048082015460018301546040516323b872dd60e01b81526001600160a01b03808816946323b872dd946115c09430949190931692910161312c565b600060405180830381600087803b1580156115da57600080fd5b505af11580156115ee573d6000803e3d6000fd5b505050506001600160a01b03831660008181526003602081815260408084208785526004808201845291852085815560018082018790556002820187905581860187905592810180546001600160a01b0319908116909155600582018054909116905560060180546001600160a81b031916905594845291905290910180549161167783613233565b9091555050604051339083906001600160a01b038616907fdbca7392797a73097a0aa25c89f3e452fea76affdbb7c16d17240b7fe9e34bd290600090a4505050565b6116c1612bcc565b506001600160a01b0380831660009081526003602081815260408084208685526005908101835293819020815161010081018352815481526001820154938101939093526002810154918301919091529182015460608201526004820154608082015291810154831660a08301526006810154831660c08301526007015490911660e08201525b92915050565b6002805414156117705760405162461bcd60e51b8152600401610497906131df565b600280556001600160a01b038216600090815260036020908152604080832084845260040190915290206006810154600160a01b900460ff166117f55760405162461bcd60e51b815260206004820152601b60248201527f53656c6c6572206469646e7420616363657074206120747261646500000000006044820152606401610497565b60058101546001600160a01b03166118495760405162461bcd60e51b815260206004820152601760248201527627379037b732903932b232b2b6b99030b71037b93232b960491b6044820152606401610497565b60006118576002606461332e565b8260030154836002015461186b919061333a565b6118759190613359565b90506000818360020154611889919061337b565b90506000856001600160a01b0316638da5cb5b6040518163ffffffff1660e01b8152600401602060405180830381600087803b1580156118c857600080fd5b505af11580156118dc573d6000803e3d6000fd5b505050506040513d601f19601f820116820180604052508101906119009190613150565b60068501549091506001600160a01b031615611a3557600684015460048086015460405163a9059cbb60e01b81526001600160a01b0391821692810192909252602482018590529091169063a9059cbb90604401602060405180830381600087803b15801561196e57600080fd5b505af1158015611982573d6000803e3d6000fd5b505050506040513d601f19601f820116820180604052508101906119a69190613216565b50600684015460405163a9059cbb60e01b81526001600160a01b038381166004830152602482018690529091169063a9059cbb90604401602060405180830381600087803b1580156119f757600080fd5b505af1158015611a0b573d6000803e3d6000fd5b505050506040513d601f19601f82011682018060405250810190611a2f9190613216565b50611bc2565b60048401546040516000916001600160a01b03169084908381818185875af1925050503d8060008114611a84576040519150601f19603f3d011682016040523d82523d6000602084013e611a89565b606091505b5050905080611ada5760405162461bcd60e51b815260206004820152601a60248201527f43616e206e6f742073656e642057454920746f2073656c6c65720000000000006044820152606401610497565b6000876001600160a01b0316638da5cb5b6040518163ffffffff1660e01b8152600401602060405180830381600087803b158015611b1757600080fd5b505af1158015611b2b573d6000803e3d6000fd5b505050506040513d601f19601f82011682018060405250810190611b4f9190613150565b6001600160a01b03168560405160006040518083038185875af1925050503d8060008114611b99576040519150601f19603f3d011682016040523d82523d6000602084013e611b9e565b606091505b5050905080611bbf5760405162461bcd60e51b815260040161049790613392565b50505b600584015460018501546040516323b872dd60e01b81526001600160a01b03898116936323b872dd93611bfd9330939092169160040161312c565b600060405180830381600087803b158015611c1757600080fd5b505af1158015611c2b573d6000803e3d6000fd5b505050506001600160a01b0386166000908152600360205260408120600101805491611c5683613233565b90915550506001600160a01b0386811660008181526003602081815260408084208b85526004908101835281852085815560018101869055600281018690559384019490945592820180546001600160a01b031990811690915560058084018054909216909155600692830180546001600160a81b031916905589015491890154925192851683529316928892917f307c6cb06e5eddcf300e3ceeadbda6b9ebfcc4d32a4dc0b42ac3d95a9474b090910160405180910390a45050600160025550505050565b6001600160a01b0381166000908152600360205260408120600101546060919067ffffffffffffffff811115611d5457611d54612db2565b604051908082528060200260200182016040528015611d8d57816020015b611d7a612c2c565b815260200190600190039081611d725790505b5090506000805b6001600160a01b038516600090815260036020526040902054811015611eb3576001600160a01b038581166000908152600360209081526040808320858452600490810190925290912001541615611ea1576001600160a01b03858116600090815260036020818152604080842086855260049081018352938190208151610100810183528154815260018201549381019390935260028101549183019190915291820154606082015291810154831660808301526005810154831660a08301526006015491821660c0820152600160a01b90910460ff16151560e08201528351849084908110611e8757611e876133d8565b60200260200101819052508180611e9d906131c4565b9250505b80611eab816131c4565b915050611d94565b50909392505050565b600280541415611ede5760405162461bcd60e51b8152600401610497906131df565b600280556001600160a01b03808316600090815260036020908152604080832085845260050190915290206006810154909116611f555760405162461bcd60e51b8152602060048201526015602482015274546f6b656e73206973206e6f74206f6e2073616c6560581b6044820152606401610497565b42816004015411611f9e5760405162461bcd60e51b8152602060048201526013602482015272105d58dd1a5bdb881d1a5b59481c185cdcd959606a1b6044820152606401610497565b60078101546001600160a01b0316156121e9576007810154604051636eb1769f60e11b81523360048201523060248201526000916001600160a01b03169063dd62ed3e9060440160206040518083038186803b158015611ffd57600080fd5b505afa158015612011573d6000803e3d6000fd5b505050506040513d601f19601f82011682018060405250810190612035919061317d565b90508160020154811161208a5760405162461bcd60e51b815260206004820181905260248201527f426964206d75737420626520686967686572207468616e2070726576696f75736044820152606401610497565b60078201546040516323b872dd60e01b81526001600160a01b03909116906323b872dd906120c09033903090869060040161312c565b602060405180830381600087803b1580156120da57600080fd5b505af11580156120ee573d6000803e3d6000fd5b505050506040513d601f19601f820116820180604052508101906121129190613216565b5060058201546001600160a01b0316156121ba5760078201546005830154600284015460405163a9059cbb60e01b81526001600160a01b039283166004820152602481019190915291169063a9059cbb90604401602060405180830381600087803b15801561218057600080fd5b505af1158015612194573d6000803e3d6000fd5b505050506040513d601f19601f820116820180604052508101906121b89190613216565b505b6001600160a01b03841660009081526003602090815260408083208684526005019091529020600201556122da565b8060020154341161223c5760405162461bcd60e51b815260206004820181905260248201527f426964206d75737420626520686967686572207468616e2070726576696f75736044820152606401610497565b60058101546001600160a01b0316156122ac57600581015460028201546040516000926001600160a01b031691908381818185875af1925050503d80600081146122a2576040519150601f19603f3d011682016040523d82523d6000602084013e6122a7565b606091505b505050505b6001600160a01b03831660009081526003602090815260408083208584526005019091529020346002909101555b6001600160a01b03831660008181526003602090815260408083208684526005908101909252918290200180546001600160a01b031916339081179091559051909184917fe7a4aa6712f6b8533e5a0aad75720c02b98c1a0567afaa7f68f56c1d475bcec390610aff9034815260200190565b6001600160a01b0381166000908152600360208190526040822001546060919067ffffffffffffffff81111561238557612385612db2565b6040519080825280602002602001820160405280156123be57816020015b6123ab612bcc565b8152602001906001900390816123a35790505b5090506000805b6001600160a01b038516600090815260036020526040902060020154811015611eb3576001600160a01b03858116600090815260036020908152604080832085845260050190915290206006015416156124cc576001600160a01b0380861660009081526003602081815260408084208685526005908101835293819020815161010081018352815481526001820154938101939093526002810154918301919091529182015460608201526004820154608082015291810154831660a08301526006810154831660c08301526007015490911660e082015283518490849081106124b2576124b26133d8565b602002602001018190525081806124c8906131c4565b9250505b806124d6816131c4565b9150506123c5565b6002805414156125005760405162461bcd60e51b8152600401610497906131df565b600280556001600160a01b038216600090815260036020908152604080832084845260050190915290206004810154421161257d5760405162461bcd60e51b815260206004820152601960248201527f41756374696f6e2074696d6520646964206e6f742070617373000000000000006044820152606401610497565b600061258b6002606461332e565b8260030154836002015461259f919061333a565b6125a99190613359565b905060008183600201546125bd919061337b565b60058401549091506001600160a01b03166126445760068301546001840154604051632142170760e11b81526001600160a01b03888116936342842e0e9361260d9330939092169160040161312c565b600060405180830381600087803b15801561262757600080fd5b505af115801561263b573d6000803e3d6000fd5b50505050612a33565b60078301546001600160a01b031615612839576007830154600684015460405163a9059cbb60e01b81526001600160a01b0391821660048201526024810184905291169063a9059cbb90604401602060405180830381600087803b1580156126ab57600080fd5b505af11580156126bf573d6000803e3d6000fd5b505050506040513d601f19601f820116820180604052508101906126e39190613216565b508260070160009054906101000a90046001600160a01b03166001600160a01b031663a9059cbb866001600160a01b0316638da5cb5b6040518163ffffffff1660e01b8152600401602060405180830381600087803b15801561274557600080fd5b505af1158015612759573d6000803e3d6000fd5b505050506040513d601f19601f8201168201806040525081019061277d9190613150565b6040516001600160e01b031960e084901b1681526001600160a01b03909116600482015260248101859052604401602060405180830381600087803b1580156127c557600080fd5b505af11580156127d9573d6000803e3d6000fd5b505050506040513d601f19601f820116820180604052508101906127fd9190613216565b5060058301546001840154604051632142170760e11b81526001600160a01b03888116936342842e0e9361260d9330939092169160040161312c565b60068301546040516000916001600160a01b03169083908381818185875af1925050503d8060008114612888576040519150601f19603f3d011682016040523d82523d6000602084013e61288d565b606091505b50509050806128de5760405162461bcd60e51b815260206004820152601a60248201527f43616e206e6f742073656e642057454920746f2073656c6c65720000000000006044820152606401610497565b6000866001600160a01b0316638da5cb5b6040518163ffffffff1660e01b8152600401602060405180830381600087803b15801561291b57600080fd5b505af115801561292f573d6000803e3d6000fd5b505050506040513d601f19601f820116820180604052508101906129539190613150565b6001600160a01b03168460405160006040518083038185875af1925050503d806000811461299d576040519150601f19603f3d011682016040523d82523d6000602084013e6129a2565b606091505b50509050806129c35760405162461bcd60e51b815260040161049790613392565b60058501546001860154604051632142170760e11b81526001600160a01b038a8116936342842e0e936129fe9330939092169160040161312c565b600060405180830381600087803b158015612a1857600080fd5b505af1158015612a2c573d6000803e3d6000fd5b5050505050505b6001600160a01b0385166000908152600360208190526040822001805491612a5a83613233565b90915550506001600160a01b0385811660008181526003602081815260408084208a85526005908101835281852085815560018082018790556002808301889055958201879055600482019690965580820180546001600160a01b031990811690915560068201805482169055600791820180549091169055908a0154908a0154938a0154948a015482519488168552928401949094528201529216918691907f37907809688fec825bada4c9109d420e9e5c1df4b362ef9ee5670025740a7a899060600160405180910390a450506001600255505050565b612b3b612c2c565b506001600160a01b03918216600090815260036020818152604080842094845260049485018252928390208351610100810185528154815260018201549281019290925260028101549382019390935290820154606082015291810154831660808301526005810154831660a08301526006015491821660c0820152600160a01b90910460ff16151560e082015290565b604051806101000160405280600081526020016000815260200160008152602001600081526020016000815260200160006001600160a01b0316815260200160006001600160a01b0316815260200160006001600160a01b031681525090565b6040518061010001604052806000815260200160008152602001600081526020016000815260200160006001600160a01b0316815260200160006001600160a01b0316815260200160006001600160a01b031681526020016000151581525090565b6001600160a01b0381168114612ca357600080fd5b50565b60008083601f840112612cb857600080fd5b50813567ffffffffffffffff811115612cd057600080fd5b602083019150836020828501011115612ce857600080fd5b9250929050565b60008060008060008060a08789031215612d0857600080fd5b8635612d1381612c8e565b9550602087013594506040870135935060608701359250608087013567ffffffffffffffff811115612d4457600080fd5b612d5089828a01612ca6565b979a9699509497509295939492505050565b60008060408385031215612d7557600080fd5b8235612d8081612c8e565b946020939093013593505050565b600060208284031215612da057600080fd5b8135612dab81612c8e565b9392505050565b634e487b7160e01b600052604160045260246000fd5b60008060008060808587031215612dde57600080fd5b8435612de981612c8e565b93506020850135612df981612c8e565b925060408501359150606085013567ffffffffffffffff80821115612e1d57600080fd5b818701915087601f830112612e3157600080fd5b813581811115612e4357612e43612db2565b604051601f8201601f19908116603f01168101908382118183101715612e6b57612e6b612db2565b816040528281528a6020848701011115612e8457600080fd5b82602086016020830137600060208483010152809550505050505092959194509250565b8015158114612ca357600080fd5b600080600060608486031215612ecb57600080fd5b8335612ed681612c8e565b9250602084013591506040840135612eed81612ea8565b809150509250925092565b600060208284031215612f0a57600080fd5b5035919050565b600080600080600060808688031215612f2957600080fd5b8535612f3481612c8e565b94506020860135935060408601359250606086013567ffffffffffffffff811115612f5e57600080fd5b612f6a88828901612ca6565b969995985093965092949392505050565b805182526020810151602083015260408101516040830152606081015160608301526080810151608083015260a081015160018060a01b0380821660a08501528060c08401511660c08501528060e08401511660e085015250505050565b61010081016117488284612f7b565b80518252602081015160208301526040810151604083015260608101516060830152608081015160018060a01b0380821660808501528060a08401511660a08501528060c08401511660c0850152505060e0810151151560e08301525050565b6020808252825182820181905260009190848201906040850190845b8181101561308b57613077838551612fe8565b928401926101009290920191600101613064565b50909695505050505050565b6020808252825182820181905260009190848201906040850190845b8181101561308b576130c6838551612f7b565b9284019261010092909201916001016130b3565b61010081016117488284612fe8565b60208082526023908201527f4d696e696d616c20707269636520666f722073616c652069732031303030302060408201526257454960e81b606082015260800190565b6001600160a01b039384168152919092166020820152604081019190915260600190565b60006020828403121561316257600080fd5b8151612dab81612c8e565b8183823760009101908152919050565b60006020828403121561318f57600080fd5b5051919050565b634e487b7160e01b600052601160045260246000fd5b600082198211156131bf576131bf613196565b500190565b60006000198214156131d8576131d8613196565b5060010190565b6020808252601f908201527f5265656e7472616e637947756172643a207265656e7472616e742063616c6c00604082015260600190565b60006020828403121561322857600080fd5b8151612dab81612ea8565b60008161324257613242613196565b506000190190565b600181815b8085111561328557816000190482111561326b5761326b613196565b8085161561327857918102915b93841c939080029061324f565b509250929050565b60008261329c57506001611748565b816132a957506000611748565b81600181146132bf57600281146132c9576132e5565b6001915050611748565b60ff8411156132da576132da613196565b50506001821b611748565b5060208310610133831016604e8410600b8410161715613308575081810a611748565b613312838361324a565b806000190482111561332657613326613196565b029392505050565b6000612dab838361328d565b600081600019048311821515161561335457613354613196565b500290565b60008261337657634e487b7160e01b600052601260045260246000fd5b500490565b60008282101561338d5761338d613196565b500390565b60208082526026908201527f43616e206e6f742073656e642057454920746f204e465420636f6e74726163746040820152651027bbb732b960d11b606082015260800190565b634e487b7160e01b600052603260045260246000fdfea2646970667358221220b247d965bdf4199d1a5911bd7b2cb27d34cbc8f692173841a7af4a0d10fef63464736f6c63430008090033",
  "linkReferences": {},
  "deployedLinkReferences": {}
}