{
  "_format": "hh-sol-artifact-1",
  "contractName": "Marketplace721",
  "sourceName": "contracts/Marketplace721.sol",
  "abi": [
    {
      "inputs": [],
      "stateMutability": "nonpayable",
      "type": "constructor"
    },
    {
      "anonymous": false,
      "inputs": [
        {
          "indexed": true,
          "internalType": "address",
          "name": "NFTAddress",
          "type": "address"
        },
        {
          "indexed": true,
          "internalType": "uint256",
          "name": "auctionId",
          "type": "uint256"
        },
        {
          "indexed": true,
          "internalType": "address",
          "name": "bestBidder",
          "type": "address"
        },
        {
          "indexed": false,
          "internalType": "uint256",
          "name": "bestBid",
          "type": "uint256"
        },
        {
          "indexed": false,
          "internalType": "uint256",
          "name": "tokenId",
          "type": "uint256"
        }
      ],
      "name": "AuctionEnded",
      "type": "event"
    },
    {
      "anonymous": false,
      "inputs": [
        {
          "indexed": true,
          "internalType": "address",
          "name": "NFTAddress",
          "type": "address"
        },
        {
          "indexed": true,
          "internalType": "uint256",
          "name": "auctionId",
          "type": "uint256"
        },
        {
          "indexed": true,
          "internalType": "address",
          "name": "seller",
          "type": "address"
        },
        {
          "indexed": false,
          "internalType": "uint256",
          "name": "tokenId",
          "type": "uint256"
        },
        {
          "indexed": false,
          "internalType": "uint256",
          "name": "startPriceWEI",
          "type": "uint256"
        }
      ],
      "name": "AuctionStarted",
      "type": "event"
    },
    {
      "anonymous": false,
      "inputs": [
        {
          "indexed": true,
          "internalType": "address",
          "name": "NFTAddress",
          "type": "address"
        },
        {
          "indexed": true,
          "internalType": "uint256",
          "name": "auctionId",
          "type": "uint256"
        },
        {
          "indexed": true,
          "internalType": "address",
          "name": "bestBidder",
          "type": "address"
        },
        {
          "indexed": false,
          "internalType": "uint256",
          "name": "bestBid",
          "type": "uint256"
        }
      ],
      "name": "BibDone",
      "type": "event"
    },
    {
      "anonymous": false,
      "inputs": [
        {
          "indexed": true,
          "internalType": "address",
          "name": "NFTAddress",
          "type": "address"
        },
        {
          "indexed": true,
          "internalType": "uint256",
          "name": "orderId",
          "type": "uint256"
        },
        {
          "indexed": true,
          "internalType": "bool",
          "name": "accepted",
          "type": "bool"
        },
        {
          "indexed": false,
          "internalType": "address",
          "name": "buyer",
          "type": "address"
        }
      ],
      "name": "FundsReturned",
      "type": "event"
    },
    {
      "anonymous": false,
      "inputs": [
        {
          "indexed": true,
          "internalType": "address",
          "name": "NFTAddress",
          "type": "address"
        },
        {
          "indexed": true,
          "internalType": "uint256",
          "name": "orderId",
          "type": "uint256"
        },
        {
          "indexed": true,
          "internalType": "address",
          "name": "seller",
          "type": "address"
        },
        {
          "indexed": false,
          "internalType": "uint256",
          "name": "tokenId",
          "type": "uint256"
        },
        {
          "indexed": false,
          "internalType": "uint256",
          "name": "priceWEI",
          "type": "uint256"
        }
      ],
      "name": "OrderAdded",
      "type": "event"
    },
    {
      "anonymous": false,
      "inputs": [
        {
          "indexed": true,
          "internalType": "address",
          "name": "NFTAddress",
          "type": "address"
        },
        {
          "indexed": true,
          "internalType": "uint256",
          "name": "orderId",
          "type": "uint256"
        },
        {
          "indexed": true,
          "internalType": "address",
          "name": "buyer",
          "type": "address"
        }
      ],
      "name": "OrderInitialized",
      "type": "event"
    },
    {
      "anonymous": false,
      "inputs": [
        {
          "indexed": true,
          "internalType": "address",
          "name": "NFTAddress",
          "type": "address"
        },
        {
          "indexed": true,
          "internalType": "uint256",
          "name": "orderId",
          "type": "uint256"
        },
        {
          "indexed": true,
          "internalType": "address",
          "name": "buyer",
          "type": "address"
        }
      ],
      "name": "OrderRedeemed",
      "type": "event"
    },
    {
      "anonymous": false,
      "inputs": [
        {
          "indexed": true,
          "internalType": "address",
          "name": "NFTAddress",
          "type": "address"
        },
        {
          "indexed": true,
          "internalType": "uint256",
          "name": "orderId",
          "type": "uint256"
        },
        {
          "indexed": true,
          "internalType": "address",
          "name": "seller",
          "type": "address"
        }
      ],
      "name": "OrderRemoved",
      "type": "event"
    },
    {
      "anonymous": false,
      "inputs": [
        {
          "indexed": true,
          "internalType": "address",
          "name": "NFTAddress",
          "type": "address"
        },
        {
          "indexed": true,
          "internalType": "uint256",
          "name": "orderId",
          "type": "uint256"
        },
        {
          "indexed": true,
          "internalType": "bool",
          "name": "accepted",
          "type": "bool"
        }
      ],
      "name": "SellerAccepted",
      "type": "event"
    },
    {
      "inputs": [
        {
          "internalType": "address",
          "name": "",
          "type": "address"
        }
      ],
      "name": "TradingInfo",
      "outputs": [
        {
          "internalType": "uint256",
          "name": "lastOrderId",
          "type": "uint256"
        },
        {
          "internalType": "uint256",
          "name": "currentOrders",
          "type": "uint256"
        },
        {
          "internalType": "uint256",
          "name": "lastAuctionId",
          "type": "uint256"
        },
        {
          "internalType": "uint256",
          "name": "currentAuctions",
          "type": "uint256"
        }
      ],
      "stateMutability": "view",
      "type": "function"
    },
    {
      "inputs": [
        {
          "internalType": "address",
          "name": "contractAddress",
          "type": "address"
        },
        {
          "internalType": "uint256",
          "name": "orderId",
          "type": "uint256"
        },
        {
          "internalType": "bool",
          "name": "isAccepted",
          "type": "bool"
        }
      ],
      "name": "acceptOrder",
      "outputs": [],
      "stateMutability": "nonpayable",
      "type": "function"
    },
    {
      "inputs": [
        {
          "internalType": "address",
          "name": "contractAddress",
          "type": "address"
        },
        {
          "internalType": "uint256",
          "name": "tokenId",
          "type": "uint256"
        },
        {
          "internalType": "uint256",
          "name": "priceWEI",
          "type": "uint256"
        }
      ],
      "name": "addOrder",
      "outputs": [],
      "stateMutability": "nonpayable",
      "type": "function"
    },
    {
      "inputs": [
        {
          "internalType": "address",
          "name": "contractAddress",
          "type": "address"
        },
        {
          "internalType": "uint256",
          "name": "orderId",
          "type": "uint256"
        }
      ],
      "name": "declineOrder",
      "outputs": [],
      "stateMutability": "nonpayable",
      "type": "function"
    },
    {
      "inputs": [
        {
          "internalType": "address",
          "name": "contractAddress",
          "type": "address"
        },
        {
          "internalType": "uint256",
          "name": "auctionId",
          "type": "uint256"
        }
      ],
      "name": "finishAuction",
      "outputs": [],
      "stateMutability": "nonpayable",
      "type": "function"
    },
    {
      "inputs": [
        {
          "internalType": "address",
          "name": "nftContractAddress",
          "type": "address"
        }
      ],
      "name": "getAllAuctions",
      "outputs": [
        {
          "components": [
            {
              "internalType": "uint256",
              "name": "auctionId",
              "type": "uint256"
            },
            {
              "internalType": "uint256",
              "name": "tokenId",
              "type": "uint256"
            },
            {
              "internalType": "uint256",
              "name": "bestBid",
              "type": "uint256"
            },
            {
              "internalType": "uint256",
              "name": "percentFee",
              "type": "uint256"
            },
            {
              "internalType": "uint256",
              "name": "auctionEndUnix",
              "type": "uint256"
            },
            {
              "internalType": "address",
              "name": "bestBidder",
              "type": "address"
            },
            {
              "internalType": "address",
              "name": "seller",
              "type": "address"
            }
          ],
          "internalType": "struct Marketplace721.Auction[]",
          "name": "",
          "type": "tuple[]"
        }
      ],
      "stateMutability": "view",
      "type": "function"
    },
    {
      "inputs": [
        {
          "internalType": "address",
          "name": "nftContractAddress",
          "type": "address"
        }
      ],
      "name": "getAllOrders",
      "outputs": [
        {
          "components": [
            {
              "internalType": "uint256",
              "name": "orderId",
              "type": "uint256"
            },
            {
              "internalType": "uint256",
              "name": "tokenId",
              "type": "uint256"
            },
            {
              "internalType": "uint256",
              "name": "priceWEI",
              "type": "uint256"
            },
            {
              "internalType": "uint256",
              "name": "percentFee",
              "type": "uint256"
            },
            {
              "internalType": "address",
              "name": "seller",
              "type": "address"
            },
            {
              "internalType": "address",
              "name": "buyer",
              "type": "address"
            },
            {
              "internalType": "bool",
              "name": "sellerAccepted",
              "type": "bool"
            }
          ],
          "internalType": "struct Marketplace721.Order[]",
          "name": "",
          "type": "tuple[]"
        }
      ],
      "stateMutability": "view",
      "type": "function"
    },
    {
      "inputs": [
        {
          "internalType": "address",
          "name": "nftContractAddress",
          "type": "address"
        },
        {
          "internalType": "uint256",
          "name": "auctionId",
          "type": "uint256"
        }
      ],
      "name": "getAuction",
      "outputs": [
        {
          "components": [
            {
              "internalType": "uint256",
              "name": "auctionId",
              "type": "uint256"
            },
            {
              "internalType": "uint256",
              "name": "tokenId",
              "type": "uint256"
            },
            {
              "internalType": "uint256",
              "name": "bestBid",
              "type": "uint256"
            },
            {
              "internalType": "uint256",
              "name": "percentFee",
              "type": "uint256"
            },
            {
              "internalType": "uint256",
              "name": "auctionEndUnix",
              "type": "uint256"
            },
            {
              "internalType": "address",
              "name": "bestBidder",
              "type": "address"
            },
            {
              "internalType": "address",
              "name": "seller",
              "type": "address"
            }
          ],
          "internalType": "struct Marketplace721.Auction",
          "name": "auctionInfo",
          "type": "tuple"
        }
      ],
      "stateMutability": "view",
      "type": "function"
    },
    {
      "inputs": [
        {
          "internalType": "address",
          "name": "nftContractAddress",
          "type": "address"
        },
        {
          "internalType": "uint256",
          "name": "orderId",
          "type": "uint256"
        }
      ],
      "name": "getOrder",
      "outputs": [
        {
          "components": [
            {
              "internalType": "uint256",
              "name": "orderId",
              "type": "uint256"
            },
            {
              "internalType": "uint256",
              "name": "tokenId",
              "type": "uint256"
            },
            {
              "internalType": "uint256",
              "name": "priceWEI",
              "type": "uint256"
            },
            {
              "internalType": "uint256",
              "name": "percentFee",
              "type": "uint256"
            },
            {
              "internalType": "address",
              "name": "seller",
              "type": "address"
            },
            {
              "internalType": "address",
              "name": "buyer",
              "type": "address"
            },
            {
              "internalType": "bool",
              "name": "sellerAccepted",
              "type": "bool"
            }
          ],
          "internalType": "struct Marketplace721.Order",
          "name": "orderInfo",
          "type": "tuple"
        }
      ],
      "stateMutability": "view",
      "type": "function"
    },
    {
      "inputs": [
        {
          "internalType": "address",
          "name": "nftContractAddress",
          "type": "address"
        }
      ],
      "name": "getTradingInfo",
      "outputs": [
        {
          "components": [
            {
              "internalType": "uint256",
              "name": "lastOrderId",
              "type": "uint256"
            },
            {
              "internalType": "uint256",
              "name": "currentOrders",
              "type": "uint256"
            },
            {
              "internalType": "uint256",
              "name": "lastAuctionId",
              "type": "uint256"
            },
            {
              "internalType": "uint256",
              "name": "currentAuctions",
              "type": "uint256"
            }
          ],
          "internalType": "struct Marketplace721._NFTContractInfo",
          "name": "",
          "type": "tuple"
        }
      ],
      "stateMutability": "view",
      "type": "function"
    },
    {
      "inputs": [
        {
          "internalType": "address",
          "name": "contractAddress",
          "type": "address"
        },
        {
          "internalType": "uint256",
          "name": "orderId",
          "type": "uint256"
        }
      ],
      "name": "initializeOrder",
      "outputs": [],
      "stateMutability": "nonpayable",
      "type": "function"
    },
    {
      "inputs": [
        {
          "internalType": "address",
          "name": "contractAddress",
          "type": "address"
        },
        {
          "internalType": "uint256",
          "name": "auctionId",
          "type": "uint256"
        }
      ],
      "name": "makeBid",
      "outputs": [],
      "stateMutability": "payable",
      "type": "function"
    },
    {
      "inputs": [],
      "name": "minimumAuctionTime",
      "outputs": [
        {
          "internalType": "uint256",
          "name": "",
          "type": "uint256"
        }
      ],
      "stateMutability": "view",
      "type": "function"
    },
    {
      "inputs": [
        {
          "internalType": "address",
          "name": "",
          "type": "address"
        },
        {
          "internalType": "address",
          "name": "",
          "type": "address"
        },
        {
          "internalType": "uint256",
          "name": "",
          "type": "uint256"
        },
        {
          "internalType": "bytes",
          "name": "",
          "type": "bytes"
        }
      ],
      "name": "onERC721Received",
      "outputs": [
        {
          "internalType": "bytes4",
          "name": "",
          "type": "bytes4"
        }
      ],
      "stateMutability": "pure",
      "type": "function"
    },
    {
      "inputs": [],
      "name": "owner",
      "outputs": [
        {
          "internalType": "address",
          "name": "",
          "type": "address"
        }
      ],
      "stateMutability": "view",
      "type": "function"
    },
    {
      "inputs": [],
      "name": "percentDecimals",
      "outputs": [
        {
          "internalType": "uint256",
          "name": "",
          "type": "uint256"
        }
      ],
      "stateMutability": "view",
      "type": "function"
    },
    {
      "inputs": [
        {
          "internalType": "address",
          "name": "contractAddress",
          "type": "address"
        },
        {
          "internalType": "uint256",
          "name": "orderId",
          "type": "uint256"
        }
      ],
      "name": "redeemOrder",
      "outputs": [],
      "stateMutability": "payable",
      "type": "function"
    },
    {
      "inputs": [
        {
          "internalType": "address",
          "name": "contractAddress",
          "type": "address"
        },
        {
          "internalType": "uint256",
          "name": "orderId",
          "type": "uint256"
        }
      ],
      "name": "removeOrder",
      "outputs": [],
      "stateMutability": "nonpayable",
      "type": "function"
    },
    {
      "inputs": [
        {
          "internalType": "uint256",
          "name": "timeInSeconds",
          "type": "uint256"
        }
      ],
      "name": "setMinimalAuctionTime",
      "outputs": [],
      "stateMutability": "nonpayable",
      "type": "function"
    },
    {
      "inputs": [
        {
          "internalType": "address",
          "name": "contractAddress",
          "type": "address"
        },
        {
          "internalType": "uint256",
          "name": "tokenId",
          "type": "uint256"
        },
        {
          "internalType": "uint256",
          "name": "initialPrice",
          "type": "uint256"
        },
        {
          "internalType": "uint256",
          "name": "secondsToEnd",
          "type": "uint256"
        }
      ],
      "name": "startAuction",
      "outputs": [],
      "stateMutability": "nonpayable",
      "type": "function"
    }
  ],
  "bytecode": "0x6080604052600060015534801561001557600080fd5b50600080546001600160a01b0319163317905560016002556127588061003c6000396000f3fe60806040526004361061011f5760003560e01c8063762a66a2116100a0578063b5fec1ff11610064578063b5fec1ff146103c6578063bc24555a146103f3578063d73030b714610406578063edb2584114610433578063f75195bc1461046057600080fd5b8063762a66a2146102fd5780638da5cb5b1461032a5780639c16627314610362578063a3ce9c9914610382578063a3ed5be6146103a657600080fd5b8063223df93d116100e7578063223df93d146102265780632edd29761461024657806351f5b010146102595780635a2571611461027957806364258108146102dd57600080fd5b806307610d5b146101245780630e947bd814610146578063150b7a02146101a25780631517ec9a146101e6578063194d2fe214610206575b600080fd5b34801561013057600080fd5b5061014461013f3660046120e4565b610475565b005b34801561015257600080fd5b50610166610161366004612110565b61065b565b60405161019991908151815260208083015190820152604080830151908201526060918201519181019190915260800190565b60405180910390f35b3480156101ae57600080fd5b506101cd6101bd36600461214a565b630a85bd0160e11b949350505050565b6040516001600160e01b03199091168152602001610199565b3480156101f257600080fd5b506101446102013660046120e4565b6106f6565b34801561021257600080fd5b5061014461022136600461222a565b610afb565b34801561023257600080fd5b5061014461024136600461225f565b610cf7565b6101446102543660046120e4565b610f4f565b34801561026557600080fd5b506101446102743660046122a6565b6110a6565b34801561028557600080fd5b506102bd610294366004612110565b600360208190526000918252604090912080546001820154600283015492909301549092919084565b604080519485526020850193909352918301526060820152608001610199565b3480156102e957600080fd5b506101446102f83660046120e4565b6110fd565b34801561030957600080fd5b5061031d6103183660046120e4565b611305565b604051610199919061230f565b34801561033657600080fd5b5060005461034a906001600160a01b031681565b6040516001600160a01b039091168152602001610199565b34801561036e57600080fd5b5061014461037d36600461231d565b61138d565b34801561038e57600080fd5b5061039860015481565b604051908152602001610199565b3480156103b257600080fd5b506101446103c13660046120e4565b611633565b3480156103d257600080fd5b506103e66103e1366004612110565b611a7f565b60405161019991906123ac565b6101446104013660046120e4565b611c12565b34801561041257600080fd5b50610426610421366004612110565b611e1c565b60405161019991906123fa565b34801561043f57600080fd5b5061045361044e3660046120e4565b611fa0565b604051610199919061243c565b34801561046c57600080fd5b50610398600281565b6002805414156104a05760405162461bcd60e51b81526004016104979061244a565b60405180910390fd5b600280556001600160a01b038281166000908152600360209081526040808320858452600401909152902060058101549091163314806104ec575060048101546001600160a01b031633145b6105385760405162461bcd60e51b815260206004820181905260248201527f4f6e6c792073656c6c6572206f722062757965722063616e206465636c696e656044820152606401610497565b60058101546001600160a01b03166105875760405162461bcd60e51b81526020600482015260126024820152714e6f7468696e6720746f206465636c696e6560701b6044820152606401610497565b600581015460028201546040516000926001600160a01b031691908381818185875af1925050503d80600081146105da576040519150601f19603f3d011682016040523d82523d6000602084013e6105df565b606091505b50506001600160a01b0385166000818152600360209081526040808320888452600401825280832060050180546001600160a81b03191690555133815293945090928692917f3b9c3dc223d366e4c735e888a058709626d7866ef7a5d00cfb1aee144a658a3a91015b60405180910390a4505060016002555050565b6106866040518060800160405280600081526020016000815260200160008152602001600081525090565b6106b16040518060800160405280600081526020016000815260200160008152602001600081525090565b6001600160a01b039092166000818152600360208181526040808420600181015488840152805488528084015460608901529490935252600290910154908301525090565b6002805414156107185760405162461bcd60e51b81526004016104979061244a565b600280556001600160a01b038216600090815260036020908152604080832084845260040190915290206005810154600160a01b900460ff1661079d5760405162461bcd60e51b815260206004820152601b60248201527f53656c6c6572206469646e7420616363657074206120747261646500000000006044820152606401610497565b60058101546001600160a01b03166107f15760405162461bcd60e51b815260206004820152601760248201527627379037b732903932b232b2b6b99030b71037b93232b960491b6044820152606401610497565b60006107ff6002606461257b565b826003015483600201546108139190612587565b61081d91906125a6565b9050600081836002015461083191906125c8565b60048401546040519192506000916001600160a01b039091169083908381818185875af1925050503d8060008114610885576040519150601f19603f3d011682016040523d82523d6000602084013e61088a565b606091505b50509050806108db5760405162461bcd60e51b815260206004820152601a60248201527f43616e206e6f742073656e642057454920746f2073656c6c65720000000000006044820152606401610497565b6000866001600160a01b0316638da5cb5b6040518163ffffffff1660e01b8152600401602060405180830381600087803b15801561091857600080fd5b505af115801561092c573d6000803e3d6000fd5b505050506040513d601f19601f8201168201806040525081019061095091906125df565b6001600160a01b03168460405160006040518083038185875af1925050503d806000811461099a576040519150601f19603f3d011682016040523d82523d6000602084013e61099f565b606091505b50509050806109c05760405162461bcd60e51b8152600401610497906125fc565b600585015460018601546040516323b872dd60e01b81526001600160a01b038a8116936323b872dd936109fb93309390921691600401612642565b600060405180830381600087803b158015610a1557600080fd5b505af1158015610a29573d6000803e3d6000fd5b505050506001600160a01b0387166000908152600360205260408120600101805491610a5483612666565b90915550506001600160a01b0380881660008181526003602081815260408084208c85526004908101909252808420848155600181018590556002810185905592830184905590820180546001600160a01b0319169055600591820180546001600160a81b03191690559089015490519316928992917ff305e643d8e205f27e0e8c5ec9ad5f8097754174de0fe20e1dba309696b32d8591a4505060016002555050505050565b604051632142170760e11b81526001600160a01b038416906342842e0e90610b2b90339030908790600401612642565b600060405180830381600087803b158015610b4557600080fd5b505af1158015610b59573d6000803e3d6000fd5b50505050612710811015610b7f5760405162461bcd60e51b81526004016104979061267d565b6001600160a01b03831660008181526003602090815260408083208054808552600491820184528285208181556001810189905560028101889055820180546001600160a01b031916331790558251634c1a411560e01b81529251909594634c1a411594848401949093908390030190829087803b158015610c0057600080fd5b505af1158015610c14573d6000803e3d6000fd5b505050506040513d601f19601f82011682018060405250810190610c3891906126c0565b6001600160a01b038516600081815260036020818152604080842087855260048101835290842083019590955592825290915281549190610c78836126d9565b90915550506001600160a01b0384166000908152600360205260408120600101805491610ca4836126d9565b90915550506040805184815260208101849052339183916001600160a01b038816917fa81855a6e1491b61b15bd1ae246c22de3f4b5b108542dd390241a50e7e7efcf8910160405180910390a450505050565b600280541415610d195760405162461bcd60e51b81526004016104979061244a565b600280556001600160a01b0383811660009081526003602090815260408083208684526004908101909252909120600581015491015490821691163314610d995760405162461bcd60e51b81526020600482015260146024820152732cb7ba9030b932903737ba10309039b2b63632b960611b6044820152606401610497565b6001600160a01b038116610de95760405162461bcd60e51b815260206004820152601760248201527627379037b732903932b232b2b6b99030b71037b93232b960491b6044820152606401610497565b8115610e5c576001600160a01b0384166000818152600360209081526040808320878452600401909152808220600501805460ff60a01b1916600160a01b1790555184151592869290917fd8ea04489f9337d4911713fe8a708db8b965cacf229c114ef449ff5b8a9868549190a4610f44565b6001600160a01b03848116600090815260036020908152604080832087845260040190915280822060020154905191928416918381818185875af1925050503d8060008114610ec7576040519150601f19603f3d011682016040523d82523d6000602084013e610ecc565b606091505b50506001600160a01b0386811660008181526003602090815260408083208a845260040182529182902060050180546001600160a01b0319169055905192861683529293508515159287927f3b9c3dc223d366e4c735e888a058709626d7866ef7a5d00cfb1aee144a658a3a910160405180910390a4505b505060016002555050565b6001600160a01b0382166000908152600360209081526040808320848452600401909152902060020154341015610fc85760405162461bcd60e51b815260206004820152601c60248201527f496e73756666696369656e742066756e647320746f2072656465656d000000006044820152606401610497565b6001600160a01b03828116600090815260036020908152604080832085845260040190915290206005015416156110395760405162461bcd60e51b815260206004820152601560248201527413dc99195c881a185cc81899595b88199d5b991959605a1b6044820152606401610497565b6001600160a01b038216600081815260036020908152604080832085845260040190915280822060050180546001600160a01b0319163390811790915590519092849290917f0c7ca24b1124503bba6041e71434dc779cd45f5af108f3fad77abd2535796ee09190a45050565b6000546001600160a01b031633146110f85760405162461bcd60e51b8152602060048201526015602482015274596f7520617265206e6f7420616e206f776e65722160581b6044820152606401610497565b600155565b6001600160a01b03828116600090815260036020908152604080832085845260049081019092529091209081015490911633146111735760405162461bcd60e51b81526020600482015260146024820152732cb7ba9030b932903737ba10309039b2b63632b960611b6044820152606401610497565b60058101546001600160a01b0316156111de5760405162461bcd60e51b815260206004820152602760248201527f4f726465722069732066756e6465642c2066756e6473206d7573742062652072604482015266195d1d5c9b995960ca1b6064820152608401610497565b60048082015460018301546040516323b872dd60e01b81526001600160a01b03808816946323b872dd9461121a94309491909316929101612642565b600060405180830381600087803b15801561123457600080fd5b505af1158015611248573d6000803e3d6000fd5b505050506001600160a01b03831660008181526003602081815260408084208785526004808201845291852085815560018082018790556002820187905581860187905592810180546001600160a01b031916905560050180546001600160a81b03191690559484529190529091018054916112c383612666565b9091555050604051339083906001600160a01b038616907fdbca7392797a73097a0aa25c89f3e452fea76affdbb7c16d17240b7fe9e34bd290600090a4505050565b61130d61202c565b506001600160a01b0380831660009081526003602081815260408084208685526005908101835293819020815160e081018352815481526001820154938101939093526002810154918301919091529182015460608201526004820154608082015291810154831660a08301526006015490911660c08201525b92915050565b6127108210156113af5760405162461bcd60e51b81526004016104979061267d565b6001548110156114155760405162461bcd60e51b815260206004820152602b60248201527f54696d65206d757374206265206d6f7265207468656e206d696e696d616c206160448201526a756374696f6e2074696d6560a81b6064820152608401610497565b604051632142170760e11b81526001600160a01b038516906342842e0e9061144590339030908890600401612642565b600060405180830381600087803b15801561145f57600080fd5b505af1158015611473573d6000803e3d6000fd5b505050506001600160a01b0384166000818152600360209081526040808320600280820154808652600590920184528285208281559081018890556001018890558151634c1a411560e01b81529151909493634c1a411593600480850194919392918390030190829087803b1580156114eb57600080fd5b505af11580156114ff573d6000803e3d6000fd5b505050506040513d601f19601f8201168201806040525081019061152391906126c0565b6001600160a01b03861660009081526003602081815260408084208685526005019091529091209081019190915560060180546001600160a01b0319163317905561156e82426126f4565b6001600160a01b03861660008181526003602081815260408084208785526005810183529084206004019590955592825290915260029091018054916115b3836126d9565b90915550506001600160a01b03851660009081526003602081905260408220018054916115df836126d9565b90915550506040805185815260208101859052339183916001600160a01b038916917f2af5906e67c14cbb345228e87c0d2b7d89afb02caba9bfc0347f7b13588ac60d910160405180910390a45050505050565b6002805414156116555760405162461bcd60e51b81526004016104979061244a565b600280556001600160a01b03821660009081526003602090815260408083208484526005019091529020600481015442116116d25760405162461bcd60e51b815260206004820152601960248201527f41756374696f6e2074696d6520646964206e6f742070617373000000000000006044820152606401610497565b60058101546001600160a01b03166117565760068101546001820154604051632142170760e11b81526001600160a01b03868116936342842e0e9361171f93309390921691600401612642565b600060405180830381600087803b15801561173957600080fd5b505af115801561174d573d6000803e3d6000fd5b50505050611997565b60006117646002606461257b565b826003015483600201546117789190612587565b61178291906125a6565b9050600081836002015461179691906125c8565b60068401546040519192506000916001600160a01b039091169083908381818185875af1925050503d80600081146117ea576040519150601f19603f3d011682016040523d82523d6000602084013e6117ef565b606091505b50509050806118405760405162461bcd60e51b815260206004820152601a60248201527f43616e206e6f742073656e642057454920746f2073656c6c65720000000000006044820152606401610497565b6000866001600160a01b0316638da5cb5b6040518163ffffffff1660e01b8152600401602060405180830381600087803b15801561187d57600080fd5b505af1158015611891573d6000803e3d6000fd5b505050506040513d601f19601f820116820180604052508101906118b591906125df565b6001600160a01b03168460405160006040518083038185875af1925050503d80600081146118ff576040519150601f19603f3d011682016040523d82523d6000602084013e611904565b606091505b50509050806119255760405162461bcd60e51b8152600401610497906125fc565b60058501546001860154604051632142170760e11b81526001600160a01b038a8116936342842e0e9361196093309390921691600401612642565b600060405180830381600087803b15801561197a57600080fd5b505af115801561198e573d6000803e3d6000fd5b50505050505050505b6001600160a01b03831660009081526003602081905260408220018054916119be83612666565b90915550506001600160a01b0383811660008181526003602081815260408084208885526005908101835281852085815560018082018790556002808301889055958201879055600482019690965580820180546001600160a01b031990811690915560069091018054909116905587015492870154938701548151948552918401919091529316928592917fc29d0f532bebf12c1aac6586caa23cfa427c9e8d072a5c92847d86597192e33a910160405180910390a45050600160025550565b6001600160a01b0381166000908152600360205260408120600101546060919067ffffffffffffffff811115611ab757611ab7612134565b604051908082528060200260200182016040528015611af057816020015b611add61207b565b815260200190600190039081611ad55790505b5090506000805b6001600160a01b038516600090815260036020526040902054811015611c09576001600160a01b038581166000908152600360209081526040808320858452600490810190925290912001541615611bf7576001600160a01b0385811660009081526003602081815260408084208685526004908101835293819020815160e0810183528154815260018201549381019390935260028101549183019190915291820154606082015291810154831660808301526005015491821660a0820152600160a01b90910460ff16151560c08201528351849084908110611bdd57611bdd61270c565b60200260200101819052508180611bf3906126d9565b9250505b80611c01816126d9565b915050611af7565b50909392505050565b600280541415611c345760405162461bcd60e51b81526004016104979061244a565b600280556001600160a01b03808316600090815260036020908152604080832085845260050190915290206006810154909116611cab5760405162461bcd60e51b8152602060048201526015602482015274546f6b656e73206973206e6f74206f6e2073616c6560581b6044820152606401610497565b42816004015411611cf45760405162461bcd60e51b8152602060048201526013602482015272105d58dd1a5bdb881d1a5b59481c185cdcd959606a1b6044820152606401610497565b80600201543411611d475760405162461bcd60e51b815260206004820181905260248201527f426964206d75737420626520686967686572207468616e2070726576696f75736044820152606401610497565b600581015460028201546040516000926001600160a01b031691908381818185875af1925050503d8060008114611d9a576040519150601f19603f3d011682016040523d82523d6000602084013e611d9f565b606091505b50506001600160a01b0385166000818152600360209081526040808320888452600590810183529281902092830180546001600160a01b0319163390811790915534600290940184905590519283529394508692917fe7a4aa6712f6b8533e5a0aad75720c02b98c1a0567afaa7f68f56c1d475bcec39101610648565b6001600160a01b0381166000908152600360208190526040822001546060919067ffffffffffffffff811115611e5457611e54612134565b604051908082528060200260200182016040528015611e8d57816020015b611e7a61202c565b815260200190600190039081611e725790505b5090506000805b6001600160a01b038516600090815260036020526040902060020154811015611c09576001600160a01b0385811660009081526003602090815260408083208584526005019091529020600601541615611f8e576001600160a01b0380861660009081526003602081815260408084208685526005908101835293819020815160e081018352815481526001820154938101939093526002810154918301919091529182015460608201526004820154608082015291810154831660a08301526006015490911660c08201528351849084908110611f7457611f7461270c565b60200260200101819052508180611f8a906126d9565b9250505b80611f98816126d9565b915050611e94565b611fa861207b565b506001600160a01b0391821660009081526003602081815260408084209484526004948501825292839020835160e0810185528154815260018201549281019290925260028101549382019390935290820154606082015291810154831660808301526005015491821660a0820152600160a01b90910460ff16151560c082015290565b6040518060e00160405280600081526020016000815260200160008152602001600081526020016000815260200160006001600160a01b0316815260200160006001600160a01b031681525090565b6040518060e001604052806000815260200160008152602001600081526020016000815260200160006001600160a01b0316815260200160006001600160a01b031681526020016000151581525090565b6001600160a01b03811681146120e157600080fd5b50565b600080604083850312156120f757600080fd5b8235612102816120cc565b946020939093013593505050565b60006020828403121561212257600080fd5b813561212d816120cc565b9392505050565b634e487b7160e01b600052604160045260246000fd5b6000806000806080858703121561216057600080fd5b843561216b816120cc565b9350602085013561217b816120cc565b925060408501359150606085013567ffffffffffffffff8082111561219f57600080fd5b818701915087601f8301126121b357600080fd5b8135818111156121c5576121c5612134565b604051601f8201601f19908116603f011681019083821181831017156121ed576121ed612134565b816040528281528a602084870101111561220657600080fd5b82602086016020830137600060208483010152809550505050505092959194509250565b60008060006060848603121561223f57600080fd5b833561224a816120cc565b95602085013595506040909401359392505050565b60008060006060848603121561227457600080fd5b833561227f816120cc565b9250602084013591506040840135801515811461229b57600080fd5b809150509250925092565b6000602082840312156122b857600080fd5b5035919050565b805182526020808201519083015260408082015190830152606080820151908301526080808201519083015260a0808201516001600160a01b039081169184019190915260c09182015116910152565b60e0810161138782846122bf565b6000806000806080858703121561233357600080fd5b843561233e816120cc565b966020860135965060408601359560600135945092505050565b80518252602081015160208301526040810151604083015260608101516060830152608081015160018060a01b0380821660808501528060a08401511660a0850152505060c0810151151560c08301525050565b6020808252825182820181905260009190848201906040850190845b818110156123ee576123db838551612358565b9284019260e092909201916001016123c8565b50909695505050505050565b6020808252825182820181905260009190848201906040850190845b818110156123ee576124298385516122bf565b9284019260e09290920191600101612416565b60e081016113878284612358565b6020808252601f908201527f5265656e7472616e637947756172643a207265656e7472616e742063616c6c00604082015260600190565b634e487b7160e01b600052601160045260246000fd5b600181815b808511156124d25781600019048211156124b8576124b8612481565b808516156124c557918102915b93841c939080029061249c565b509250929050565b6000826124e957506001611387565b816124f657506000611387565b816001811461250c576002811461251657612532565b6001915050611387565b60ff84111561252757612527612481565b50506001821b611387565b5060208310610133831016604e8410600b8410161715612555575081810a611387565b61255f8383612497565b806000190482111561257357612573612481565b029392505050565b600061212d83836124da565b60008160001904831182151516156125a1576125a1612481565b500290565b6000826125c357634e487b7160e01b600052601260045260246000fd5b500490565b6000828210156125da576125da612481565b500390565b6000602082840312156125f157600080fd5b815161212d816120cc565b60208082526026908201527f43616e206e6f742073656e642057454920746f204e465420636f6e74726163746040820152651027bbb732b960d11b606082015260800190565b6001600160a01b039384168152919092166020820152604081019190915260600190565b60008161267557612675612481565b506000190190565b60208082526023908201527f4d696e756d616c20707269636520666f722073616c652069732031303030302060408201526257454960e81b606082015260800190565b6000602082840312156126d257600080fd5b5051919050565b60006000198214156126ed576126ed612481565b5060010190565b6000821982111561270757612707612481565b500190565b634e487b7160e01b600052603260045260246000fdfea264697066735822122052b92602147c888920e76a24ac65f0fbc73f03f186f0bbe7296632d95504d04764736f6c63430008090033",
  "linkReferences": {},
  "deployedLinkReferences": {}
}